:10000000F8FF002011040000332A0000332A00000A
:10001000332A0000332A0000332A0000332A00006C
:10002000332A0000332A0000332A0000332A00005C
:10003000332A0000332A0000332A0000332A00004C
:10004000332A0000332A0000332A0000332A00003C
:10040000FFFFFFFFFFFFFFFFFFFFFFFFFEFFFFFFFD
:1004100062B606F041F8FEE7DFF800F08B0CFF1F34
:10042000DFF800F0E30CFF1F80B52E2000F05CFE2B
:100430000E2000F059FE2F2000F056FE0D2000F097
:1004400053FE0C2000F050FE332000F04DFE202023
:1004500000F04AFE132000F047FE002000F044FEAA
:1004600001BD2DE9F04104000D0016005FF0000809
:10047000002738003100C0B2C9B288420AD2290030
:1004800049B2200040B200F030FF18FA80F08046F8
:100490007F1CEEE73000C0B2B8FBF0F080B2BDE8E0
:1004A000F0812DE9F04F89B000200890002500264A
:1004B00000275FF000080020DFF89CA7CAF81000B2
:1004C000CAF80C00CAF80800CAF80400CAF800000C
:1004D000DFF88807DFF888170861C860886048601F
:1004E0000860DFF880070068082840F08980DFF89E
:1004F000781706A800F052FF06AA0021002001F09C
:1005000075F8DFF8681704A800F048FF04AA022174
:10051000002001F06BF85FF0000B584680B2B0F598
:10052000AF6F52DADFF84897142201213320FFF72A
:1005300098FF01F02FF9C9F80000142201212020B2
:10054000FFF78FFF01F026F9C9F8040014220121FA
:100550001320FFF786FF01F01DF9C9F808001422E7
:1005600001210020FFF77DFF01F014F9C9F80C000C
:10057000142201210E20FFF774FF01F00BF9C9F8D6
:10058000100000200400200080B2052814DA2000AA
:1005900080B25AF82000210089B259F8211001F0E8
:1005A00007F907D2200080B259F82000210089B253
:1005B0004AF82100641CE6E7DFF8B806016803206A
:1005C00001F03EF91BF1010BA7E7FE20FFF724FF26
:1005D0005FF00009484680B205284CDA484680B2F0
:1005E0005AF8200001F08CF902001FFA89F95FEA3D
:1005F000890189B2FE20FFF713FF19F10109E9E72C
:100600005FF00009484680B2042818DA0020040090
:10061000200080B205280FDA200080B2800010F59B
:10062000FE20B0F9000000B201F098F9210089B273
:100630004AF82100641CEBE719F10109E2E7DFF851
:10064000381602A800F0AAFE02AA0021002000F03D
:10065000CDFFDFF81816684600F0A0FE6A460221BA
:10066000002000F0C3FFDFF80C060168C8204143FA
:10067000032001F0E5F801220121342001F080F986
:10068000DFF8F00501684FF47A704143032001F070
:10069000D7F800220121342001F072F900F02CFF7C
:1006A00009B0BDE8F08F2DE9F0470027380000B20F
:1006B00005283EDADFF8C485142201213320FFF734
:1006C000D0FE01F067F8390009B248F82100142281
:1006D00001212020FFF7C5FE01F05CF8390009B2C6
:1006E00008EB81014861142201211320FFF7B9FEB4
:1006F00001F050F8390009B208EB81018862142238
:1007000001210020FFF7ADFE01F044F8390009B2E5
:1007100008EB8101C863142201210E20FFF7A1FE1E
:1007200001F038F8390009B208EB810108657F1C37
:10073000BCE75FF00008404600B2052852DA00200E
:100740000400200000B2042849DA00200500280037
:1007500000B2210009B2D1F1040188423DDA142728
:10076000DFF8189518FB07F04844290009B200EBA0
:100770008100406818FB07F149442A0012B251F881
:10078000221001F015F826D218FB07F04844290082
:1007900009B200EB8100406801F08EF9060018FBF9
:1007A00007F04844290009B200EB810018FB07F16B
:1007B00049442A0012B251F82210416018FB07F098
:1007C00009EB0007A9460FFA89F9300000B201F0E1
:1007D000C5F847F829006D1CB9E7641CB1E718F1AA
:1007E0000108A8E70027380000B2052829DADFF859
:1007F00090845FF01409DFF884A417FB09F05044DB
:10080000406817FB09F15144896801F06FF917FB43
:1008100009F15144C96801F069F9390009B248F891
:100820002100380000B258F82000DFF8581401F019
:10083000CFF9DFF854143A0012B241F822007F1CBD
:10084000D1E70020010009B2042934DADFF83C14B2
:10085000020012B201EB8202526803001BB241F89F
:100860002320020012B201EB8202926903001BB244
:1008700001EB83035A61020012B201EB8202D26AD9
:1008800003001BB201EB83039A62020012B201EB78
:100890008202126C03001BB201EB8303DA630200D5
:1008A00012B201EB8202526D03001BB201EB830115
:1008B0000A65401CC6E70021080000B205280EDAD0
:1008C000DFF8C4030A0012B250F82200DFF8BC239C
:1008D000142311FB03F31A441061491CECE70027B1
:1008E000380000B205283BDADFF8A483DFF89C93D8
:1008F000D8F80000390009B259F8211001F0F6F8D3
:10090000C8F80000D8F80400390009B209EB8101E9
:10091000496901F0EBF8C8F80400D8F8080039007C
:1009200009B209EB8101896A01F0E0F8C8F8080012
:10093000D8F80C00390009B209EB8101C96B01F04C
:10094000D5F8C8F80C00D8F81000390009B209EB46
:100950008101096D01F0CAF8C8F810007F1CBFE7DB
:100960005FF00008404600B2052816DADFF8207371
:10097000404600B257F82000B84901F029F9DFF8E5
:100980001413424612B241F822000020414609B237
:1009900047F8210018F10108E4E7BDE8F087F8B551
:1009A000FFF781FE0024200000B2052854DADFF8AA
:1009B000E852AB4EDFF8DC02210009B250F821000A
:1009C000210009B256F8211001F080F90700A24871
:1009D000210009B250F82100210009B256F8211077
:1009E00001F074F90100380001F0F2F8210009B2B9
:1009F00045F82100200000B255F82000002100F049
:100A0000D7FE05D8DFF89402210009B245F821008D
:100A1000200000B255F82000DFF8841201F096F9AA
:100A200005D85FF07E50210009B245F82100200072
:100A300000B255F8200001F09BF90022DFF8643283
:100A400001F0BAF901F08AFADFF85C12220012B262
:100A500041F82200641CA6E7DFF84C5228685FF0DA
:100A60007E5100F0A5FE02D25FF07E5000E02868C3
:100A7000286068685FF07E5100F09AFE02D25FF055
:100A80007E5000E068686860A8685FF07E5100F002
:100A90008FFE02D25FF07E5000E0A868A860E86890
:100AA0005FF07E5100F084FE02D25FF07E5000E0E5
:100AB000E868E860286800F0FFFFDFF8D4150880D8
:100AC000686800F0F9FFDFF8CC150880A86800F02E
:100AD000F3FFDFF8C4150880E86800F0EDFFDFF8E9
:100AE000BC150880DFF8B8655D4DDFF89C01006932
:100AF000296901F0EBF8070057480069296901F0FE
:100B0000E5F80100380001F063F83060306800213A
:100B100000F04EFE02D8DFF884013060DFF8845523
:100B2000306801F025F90022DFF87C3501F044F946
:100B300001F014FA2860286800F0BEFFDFF86C1599
:100B40000880F1BD2DE9F843DFF84C45DFF84C553E
:100B5000DFF84065DFF838753888318811FA80F0A1
:100B60002988401A2188401A01F02CFA0022DFF867
:100B7000383501F021F9804689463888298811FAEC
:100B800080F0318810FA81F0218810FA81F001F0AC
:100B900019FA02000B004046494601F025FA01F01F
:100BA000DDF9DFF80C150860DFF808050178002989
:100BB00005D002292DD017D303293DD041E00121D2
:100BC000DFF8F424117001210170398801290AD15C
:100BD0003188012907D12188012904D129880129D7
:100BE00001D1032101702CE00121DFF8CC24117028
:100BF00002210170398801290AD13188012907D1E0
:100C00002188012904D12988012901D103210170FA
:100C100017E00121DFF8A0241170398801290AD1D9
:100C20003188012907D12188012904D12988012986
:100C300001D10321017004E00020DFF87C1408706A
:100C4000FFE700F033F800B202000021012001F0BC
:100C500086FCBDE8F1830000C80EFF1F0000A04025
:100C6000DC0EFF1F000EFF1F246A0000306A000028
:100C7000A00EFF1FDC0FFF1F486A0000F00EFF1FD1
:100C8000680FFF1F00004040540FFF1F3C0EFF1F66
:100C9000B40EFF1F840FFF1FAC0FFF1F6F12833AAC
:100CA0000100803F00408F40980FFF1F2DE9F04169
:100CB00040F28530DFF8D8733988814259DBDFF89C
:100CC000DC83B8F80010814253DBDFF8C8130A88D0
:100CD000824204DBDFF8C0231288322A07DBDFF808
:100CE000B8231288824244DB0888322841DADFF8D0
:100CF000C0633888B8F80010401A01F063F9002288
:100D0000DFF8A43301F058F804000D003888B8F873
:100D1000001011FA80F001F055F902000B002000DC
:100D2000290001F061F901F019F93060DFF88C4316
:100D30005FF07E553068210001F090FDDFF88013F0
:100D400000F0D4FE07003068DFF87813096800F07F
:100D5000BDFF290001F082FD390000F0C7FE00F060
:100D6000CFFDDFF8641308600120DFF8601308701E
:100D70006DE1CF4C206800F09FFE01F0DBFD0B28F9
:100D80001EDA5FF07E555FF07C562068290001F086
:100D900065FDCB4900F0AAFE07002068C949096833
:100DA00000F094FF310001F059FD390000F09EFE83
:100DB00000F0A6FDC44908600220C449087046E15D
:100DC000206800F079FE01F0B5FD15281DDA5FF00E
:100DD0007E552E002068310001F040FDB84900F03A
:100DE00085FE07002068B749096800F06FFF2900F9
:100DF00001F034FD390000F079FE00F081FDB249C8
:100E000008600320B149087021E1206800F054FE19
:100E100001F090FD1F281DDA5FF07E552E0020683E
:100E2000310001F01BFDA64900F060FE07002068BC
:100E3000A449096800F04AFF290001F00FFD3900BC
:100E400000F054FE00F05CFD9F49086004209F49BB
:100E50000870FCE0206800F02FFE01F06BFD2928EF
:100E60001EDA5FF07E555FF081462068290001F0B0
:100E7000F5FC934900F03AFE0700206891490968A3
:100E800000F024FF310001F0E9FC390000F02EFEF3
:100E900000F036FD8C49086005208C490870D6E0CA
:100EA000206800F009FE01F045FD33281DDA5FF0EF
:100EB0007E55874E2068290001F0D0FC804900F063
:100EC00015FE070020687F49096800F0FFFE310029
:100ED00001F0C4FC390000F009FE00F011FD7A4970
:100EE0000860062079490870B1E0206800F0E4FD50
:100EF00001F020FD3D281DDA5FF07E55754E20681B
:100F0000290001F0ABFC6E4900F0F0FD07002068FD
:100F10006C49096800F0DAFE310001F09FFC3900ED
:100F200000F0E4FD00F0ECFC674908600720674929
:100F300008708CE0206800F0BFFD01F0FBFC472842
:100F40001DDA5FF07E55634E2068290001F086FCB3
:100F50005B4900F0CBFD070020685A49096800F0A2
:100F6000B5FE310001F07AFC390000F0BFFD00F061
:100F7000C7FC5549086008205449087067E020689C
:100F800000F09AFD01F0D6FC51281EDA5FF07E5584
:100F90005FF082462068290001F060FC484900F0BB
:100FA000A5FD070020684749096800F08FFE310061
:100FB00001F054FC390000F099FD00F0A1FC424919
:100FC000086009204149087041E0206800F074FD84
:100FD00001F0B0FC5B281DDA5FF07E553E4E2068C4
:100FE000290001F03BFC364900F080FD0700206835
:100FF0003449096800F06AFE310001F02FFC390025
:1010000000F074FD00F07CFC2F4908600A202F4995
:1010100008701CE05FF07E55304E2068290001F01A
:101020001DFC274900F062FD07002068254909687A
:1010300000F04CFE310001F011FC390000F056FDCB
:1010400000F05EFC204908600B2020490870184C15
:101050002068234908601B4D2068296800F036FE8F
:1010600020490860206828601748016840F2EE3285
:10107000914203D240F2ED31016005E040F28B4134
:1010800002688A4200D30160006800B2BDE8F081C6
:101090003E10FF1F4010FF1F4210FF1F4410FF1F94
:1010A0007C0FFF1F800FFF1F000059404610FF1FDD
:1010B000C00FFF1F4A10FF1F4B10FF1F0000F04121
:1010C00000408744C40FFF1FD00FFF1F4C10FF1FAD
:1010D0000000A0400000C04000002041000040414E
:1010E000C80FFF1FCC0FFF1F38B5040025006DB2DD
:1010F0006D112800C0B2002802D001280DD019E0DF
:10110000A148016851F000610160A048016831F018
:10111000900101600168016010E09D48016851F094
:10112000006101609948016831F410410160016873
:10113000016003E03321974801F010FC200040B229
:10114000002800F08980012800F08680032800F044
:10115000838008284ED0092851D00A2854D00B2863
:1011600057D00C285AD00D285DD00E2860D00F28FB
:1011700063D0102870D0112864D0122867D01328AB
:101180006AD0142868D01A2866D01D2864D01E287A
:1011900062D0202861D021285FD023285DD0242868
:1011A0005CD025285FD0262862D0272865D0282843
:1011B00068D029286BD02A286ED02B2871D02C28F3
:1011C00074D02D2877D02E287AD02F287DD03028A3
:1011D00000F0858031287DD0322800F080803328CF
:1011E0007DD034287BD03A2879D03D2877D03E284E
:1011F00075D075E00021202001F044FC74E000214E
:10120000212001F03FFC6FE00021072001F03AFCB3
:101210006AE00021082001F035FC65E00021222071
:1012200001F030FC60E00021232001F02BFC5BE0AA
:101230000021402001F026FC56E00021412001F071
:1012400021FC51E00021982001F01CFC4CE0002121
:10125000992001F017FC47E046E045E0002180209E
:1012600001F010FC40E00021812001F00BFC3BE08C
:101270000021822001F006FC36E00021832001F0ED
:1012800001FC31E00021202001F0FCFB2CE00021DA
:10129000212001F0F7FB27E00021242001F0F2FBE0
:1012A00022E00021252001F0EDFB1DE00021262099
:1012B00001F0E8FB18E00021272001F0E3FB13E038
:1012C00000212A2001F0DEFB0EE000212B2001F09E
:1012D000D9FB09E00021112001F0D4FB04E003E078
:1012E0009A212C4801F03AFB31BDF8B504000D00FD
:1012F000260076B276110027290049B2200040B2BC
:1013000000F01BF82449300040B251F8200000687A
:101310000006F7D5300040B251F8200000693200D5
:1013200052B251F82220126832F0800233005BB2D0
:1013300051F823100A6080B2F2BD70B4020052B2BC
:10134000521110F01F03144C0D006DB2AD0015F0DA
:101350000C0555F05005160076B254F82660B560BD
:101360000425160076B254F82660F5601D00EDB233
:1013700015F01F0555F04005160076B254F82640CA
:10138000256070BC704700003C8004401880044019
:10139000308004404C6600001004FF1F0CB430B5D0
:1013A00083B00A4606A902910446002501940095DF
:1013B00002AB01A9084878441E3001F0B5FB019A40
:1013C000157000284EBF04460198041B204603B048
:1013D00030BC5DF80CFB00BF0B07000010B4082206
:1013E0000121DFF89C33196000BFDFF8983300213A
:1013F000196000BF11004A1EC9B2002911D00106B0
:1014000004D50121DFF88043216003E00021DFF8EB
:10141000784321600121196000BF0021196040005C
:10142000E8E710BC7047000010B408220021DFF884
:1014300050331960DFF84C330021196011004A1E47
:10144000C9B2002911D0010604D50121DFF83843C3
:10145000216003E00021DFF83043216001211960A1
:1014600000BF002119604000E8E710BC704738B5A4
:1014700004000D00B5F15000C0B2FFF7D5FF200009
:10148000C0B2000950F01000C0B2FFF7CDFF14F059
:101490000F00FFF7C9FF31BD70B50400002528001B
:1014A000C0B2082818DAB5F15000C0B2FFF7BCFF8F
:1014B0000120FFF7B9FF1020FFF7B6FF002006005C
:1014C0003000C0B2802805DA2000C0B2FFF786FFE6
:1014D000761CF5E76D1CE2E770BD010089B20029BA
:1014E00009D043F226410A0011004A1E89B20029A0
:1014F000FAD1401EF1E7704710B5012201210D20FD
:1015000000F03EFA012201210E2000F039FA0122FA
:1015100001210F2000F034FA01220121102000F0F7
:101520002FFADFF86842002020603220FFF7D5FF55
:1015300001202060AE20FFF777FF0020FFF774FF47
:101540001020FFF771FF4020FFF76EFF8120FFF7AB
:101550006BFFCF20FFF768FFA120FFF765FFC820D2
:10156000FFF762FFA620FFF75FFFA820FFF75CFFF1
:101570003F20FFF759FFD320FFF756FF0020FFF76A
:1015800053FFD520FFF750FF8020FFF74DFFD920F4
:10159000FFF74AFFF120FFF747FFDA20FFF744FF8C
:1015A0001220FFF741FFDB20FFF73EFF4020FFF74F
:1015B0003BFF2020FFF738FF0220FFF735FF8D208B
:1015C000FFF732FF1420FFF72FFFA420FFF72CFFB7
:1015D000A620FFF729FFAF20FFF726FF0020FFF727
:1015E0005BFF00210020FFF742FF10BD2DE9F84FFF
:1015F00004000D0016005FF000085FF000095FF0C6
:10160000000A5046C0B2305C002800F0B780504657
:10161000C0B23044407800286FD15046C0B2305C30
:10162000203880462000C0B2792802DB0020040068
:101630006D1C2900C9B22000C0B2FFF718FF5FF08F
:10164000000B5846C0B208280CDADFF844014146C6
:10165000C9B2090151FA8BF1405CFFF7BFFE1BF1E3
:10166000010BEEE7691CC9B22000C0B2FFF7FFFE14
:101670005FF000094846C0B208280DDADFF8100113
:101680004146C9B2090151FA89F10844007AFFF7CD
:10169000A5FE19F10109EDE7002007003800C0B2EE
:1016A0005146C9B2D1F10701884264DA08342900F1
:1016B000C9B22000C0B2FFF7DAFE5FF0000B584657
:1016C000C0B2082805DA0020FFF788FE1BF1010BE5
:1016D000F5E7691CC9B22000C0B2FFF7C8FE5FF091
:1016E00000094846C0B2082805DA0020FFF776FE58
:1016F00019F10109F5E77F1CD0E75046C0B2305C14
:10170000203880462000C0B2792802DB0020040087
:101710006D1C2900C9B22000C0B2FFF7A8FE5FF01F
:10172000000B5846C0B208280BDA19484146C9B226
:10173000090151FA8BF1405CFFF750FE1BF1010BE0
:10174000EFE7691CC9B22000C0B2FFF790FE5FF05E
:1017500000094846C0B208280CDA0D484146C9B213
:10176000090151FA89F10844007AFFF737FE19F1AF
:101770000109EEE708341AF1010A42E7BDE8F18FEA
:101780003C00FE433800FE433400FE434000FE436D
:101790007054000000280AD0B0FA80F18840D1F1DE
:1017A0009D01C905020672F1004241EB102070470D
:1017B0004FF0807C1CEB400F94BF1CEB410F05E009
:1017C00040EA010C1CEB0C0F01D28842704718BF95
:1017D0008142704738B505000C00002C03D124214C
:1017E000434801F0BBF84348016851F4000101602F
:1017F0000020414908604148611E2A0052B212018E
:101800008150290049B209010144C96851F0010120
:101810002A0052B212010244D160290049B20901E2
:1018200001448968490849002A0052B21201024461
:10183000916003212A0052B212011044816031BD2F
:1018400038B505000C00002C03D14721284801F0D1
:1018500085F82848016851F40001016026480168B4
:101860008908890001602548290049B2090101441D
:101870008968490849002A0052B212010244916065
:10188000611E2A0052B212018150290049B2090199
:101890000144C96851F001012A0052B21201024408
:1018A000D160290049B20901014489684908490009
:1018B0002A0052B212010244916001212A0052B260
:1018C000120102449160290049B209010144C9682A
:1018D000C907F8D5290049B209010144C96851F086
:1018E00001012A0052B212011044C16031BD000052
:1018F000AC6700003C80044000700340007103406E
:1019000000180CD2010E7F3909D4D1F11F015DBF3F
:10191000C00140F00040C8406FF000007047002058
:10192000704730B4002513E050F8042BD30744BFB0
:10193000A9F101039A18091F042942F8045BFAD29D
:1019400013468C0744BF15809B1CC90748BF1D70F8
:1019500050F8041B0029E7D130BC7047C217504033
:10196000801AB0FA80F10AD08840D1F19D01D207E7
:1019700042EAC151020672F1004241EB1020704769
:10198000F8B504000D0016004FF480712000C0B2BD
:1019900001F078F8280040B2002812D14448210014
:1019A000C9B2491150F821102200D2B2521150F898
:1019B00022004269012314F01F0083409A434A61C8
:1019C00038E001213A4A2000C0B2401152F820000C
:1019D0002300DBB25B1152F823305B6914F01F0760
:1019E00011FA07F73B4343613000C0B2002811D120
:1019F0002000C0B2401152F82000036814F01F000C
:101A0000814033EA01012000C0B2401152F82000A9
:101A100001600FE02000C0B2401152F820000368BE
:101A200014F01F00814019432000C0B2401152F849
:101A300020000160F1BD38B504001D4D2000C0B28A
:101A4000401155F82000406914F01F01C840C0073C
:101A500003D47B21174800F081FF2000C0B2401161
:101A600055F82010012214F01F008240CA6031BDD9
:101A700038B504000E4D2000C0B2401155F82000CA
:101A8000406914F01F01C840C00703D58C210948E4
:101A900000F064FF2000C0B2401155F8200000693A
:101AA00014F01F04E04010F0010032BD00000000FF
:101AB000300BFF1F54670000C0F3C7517E390EDDA5
:101AC000C217D1F1200106DD000240F00040C840FD
:101AD000104450407047D04380F0004070470020D1
:101AE00070470268531C03601170704790EA010F41
:101AF00040F1F28081F00041431A4FF000423EBFB6
:101B00005340C01AC91800BFD3095FEAD05C13EB79
:101B1000400F34BFB3EB410F40E07CEBD1530CD30B
:101B200042EA012122D8D1EB402009D3400A28BF44
:101B30005FEA500140EBCC507047401A15D040028C
:101B4000B0FA80F2521C9040400A4FEA3C23B3EBBB
:101B5000026384BF00EB730007E040F400001A1634
:101B6000DB07C2F10102D04018437047182BFCDCA0
:101B700031FA03F202FA03F3591A38BF42F00102B4
:101B8000D2EB40203CBF4000ACF1010C5FEACC5CE2
:101B9000C20572F100414CEB5020704713EB400F2F
:101BA0000FD2C94209D0ACEBD153022B03DB49025F
:101BB000172BDDDD70479143401AC042D5D100207C
:101BC000704713EB410FD0D36FF000007047000057
:101BD00010B5FF2313EAD0541DBF13EAD1529C4223
:101BE0009A4239E0A41ADA0780EA0103134042EA74
:101BF000012142EA0020421A3CBF641E01EB42026E
:101C0000090AB2FBF1FE01FB1E221202B2FBF1F047
:101C100001FB10226EF30F201202B2FBF1FE4EEA1E
:101C200000207F3406DDFE2C24DA53EA500050EB0E
:101C3000C45010BDD4F1020401FB1E2240F080719B
:101C4000192C1DDC21FA04F0C4F12004A140114339
:101C500071F10042584110BD9C421ABF03EAD152B3
:101C60009A420FE080EA010E0EF00043400004D0DB
:101C7000490016D143F0FF4010BD490008BFD343CF
:101C8000180010BD9C4205D1D21AF7D001F00041D6
:101C9000484010BD4A0212BF0846484000F00040CC
:101CA00010BD4AB90902B1FA81F2914044B1A418B9
:101CB000C00140F000409EE7C90141F0004152429E
:101CC0000002B0FA80F4A040141B94E790EA010FE0
:101CD0007FF512AF81F00041421A3CBF801A89188B
:101CE0004FF0004CC0F3C752FF2A24D0C1F3C753B2
:101CF00013B3D21AD2F1190327DD4CEA01214CFAB1
:101D000003F321EA0303D140C20D4CEA002040183E
:101D100034BF20EA0C004CEA5000D20553EA0063BD
:101D200073EB0C0C52EB1020420012F1807F38BF95
:101D30007047C00DC0057047490212BF9A4200EBC0
:101D40005120F8E7D2F11703D9D570474FF0807CC6
:101D50001CEB400F94BF1CEB410F05E040EA010C67
:101D60001CEB0C0F01D28142704718BF88427047AC
:101D7000C0F3C75181B1FF2906D0C110400721F03F
:101D8000E04101F16051704741020CBF40F4E001B5
:101D90006FF000410020704700F0004100020AD0BF
:101DA000B0FA80FC00FA0CF001F16051A1EB0C518B
:101DB00001EBD02140057047B0B581EA030C0CF06F
:101DC000004C40F2FF7515EA11541DBF15EA135778
:101DD000AC42AF4239E0E41923EA455343F480139F
:101DE000C90241F0004141EA505EC7021100A7FB61
:101DF000020200284FF00000EEFB01204FF000012E
:101E0000E3FB072118BF42F00102401800214941BD
:101E1000E3FB0E01A4F580640F0302D2520040419F
:101E2000494154F101046CDD470872F1004250F160
:101E3000000051EB0451A1F580115CBF41EA0C0197
:101E4000B0BD4CEA05510020B0BD05EA1357AC42C5
:101E500014BFAF4241E050EA410E1CBF52EA430EAC
:101E600002E061460020B0BD24423C441BD15FEA41
:101E7000070EF6D0090302BF01460020AEF1140E92
:101E8000B1FA81F7AEEB070401FA07FE0C37C7F190
:101E9000200100FA07F7C8404EEA000E23EA455336
:101EA00043F48013A2E733F00043B3FA83F704BF8F
:101EB000B2FA82FE77440B3FE41BB7F1200E2FBF2E
:101EC00002FA0EF3BB40C7F1200E22FA0EFE38BF15
:101ED00043EA0E03BA40641C82E750EA410E14BF85
:101EE00052EA430E6FF000014FF4001717EB430F57
:101EF0008ABF194617EB410FB5E74CEA05510020A0
:101F0000B0BDD4F10104B4F120070FDAC4F1200709
:101F1000520828BF42F0010210FA07F501FA07F74C
:101F2000E1BF2A43E0403843E1400FE0352C98DC24
:101F3000C7F1200452EA400220FA07F218BF42F02B
:101F4000010231FA07F0A1400A43002172F1004278
:101F500050F1000051EB0C01B0BD000001F0004257
:101F60008B1AA3F16051B1F5801F0ADBB1F17F6FCD
:101F70001FD242EAC102C10071F1004142EB507030
:101F800070470B15C3F10903212B10D2890241EAD6
:101F9000905180020128494141F0004121FA03F0AB
:101FA000C3F12003994071F1004150417047100086
:101FB00070476FF0000013EB103F5CBF000E42EA69
:101FC000C0507047C11768B14840401AB0FA80F25B
:101FD0009040D21CC907C2F5846241EA025202EB6A
:101FE000D021400570470000F0B540F2FF7581EA4E
:101FF000030C0CF0004C15EA11541DBF15EA1357E1
:10200000AC42AF42E5E0BC41C1F31301C3F313039B
:10201000801A994143F4801304D2641E4000494160
:1020200080185941C90241EA5051B1FBF3F603FB54
:102030001611A2FB0675D7EBC020A94102D2761E6D
:1020400080185941C90241EA5051B1FBF3FE03FB2C
:102050001E11A2FB0E75D7EBC020A94103D2AEF131
:10206000010E80185941890241EA9051760546EAED
:102070008E2EB1FBF3F603FB1611A2FB0675D7EB10
:102080008020A94102D2761E80185941C90241EA36
:1020900050514EEA060EB1FBF3F603FB1611A2FBFC
:1020A0000675D7EBC020A94102D2761E801859418F
:1020B000C90241EA5051B1FBF3F703FB1711A2FB30
:1020C0000735D3EBC020A94167F100070CBF0042E0
:1020D00047F0010766F3D5274FEA1E31B80814F51B
:1020E000806412DDBD0775F1004250EB0E5051EBDC
:1020F000045111F5801F5CBF41EA0C01F0BD4CF0AA
:102100007F6141F0E0410020F0BDBD076D0840EA6D
:102110000E5041F48011D4F10104B4F120060ADA22
:10212000C4F120060200E04001FA06F3E140184342
:10213000B24015430EE0342C13DCC6F1200445EA0E
:1021400040056D0820FA06F2154321FA06F0A14079
:102150000D43002175F1004250F1000051EB0C01DC
:10216000F0BD00205FEA0C01F0BDCFB992185B41D1
:10217000B3FA83F704BFB2FA82F6BF190B3FB7F187
:1021800020062FBF02FA06F3BB40C7F1200622FA51
:1021900006F638BF3343BA401CB1E419641E33E776
:1021A0007F4231F00041B1FA81F404BFB0FA80F609
:1021B000A4190B3CB4F120062FBF00FA06F1A14090
:1021C000C4F1200620FA06F638BF3143A0403C1B7C
:1021D0001AE7AC421ABF05EA1357AF4212E050EAC1
:1021E00041061CBF52EA4306BFE750EA41073046AA
:1021F00061461CBF41EA0551F0BD52EA430C08BFDD
:10220000C143F0BD00204FF4001616EB410F98BFFC
:1022100016EB430F08BF16EB410F24BFC14305E087
:1022200016EB430F0CBF61464CEA0551F0BD0000B0
:1022300038B504000D00200040B2002806D0022866
:1022400067D04BD3032800F07F80C6E0DFF8F805A5
:10225000016851F080710160280040B200280BD065
:10226000022815D00ED304281ED017D3062827D055
:1022700020D307282AD02FE04FF48061412000F0BE
:1022800001FC2AE04FF48061422000F0FBFB24E0D7
:102290004FF48061432000F0F5FB1EE04FF44071E5
:1022A000062000F0EFFB18E04FF44071072000F02B
:1022B000E9FB12E04FF48061652000F0E3FB0CE0E5
:1022C0004FF48061662000F0DDFB06E04FF4806192
:1022D000672000F0D7FB00E07FE07EE0DFF86805D4
:1022E000016851F000710160280040B2002802D05E
:1022F000012806D00BE04FF44071202000F0C2FB13
:1023000006E04FF44071212000F0BCFB00E064E0E7
:1023100063E0DFF83805016851F080710160280042
:1023200040B2002802D0012806D00BE04FF44071E3
:10233000322000F0A7FB06E04FF44071332000F09C
:10234000A1FB00E049E048E0DFF80005016851F03A
:1023500000710160280040B200280BD0022816D07E
:102360000ED304281FD018D3062828D021D307283D
:102370002BD030E04FF4C061852000F083FB2BE0D0
:102380004FF48271DFF8C80400F0E8FA24E04FF45B
:10239000C061872000F076FB1EE04FF4C06188200A
:1023A00000F070FB18E04FF4C061892000F06AFB78
:1023B00012E04FF4C0618A2000F064FB0CE04FF49F
:1023C000C0618B2000F05EFB06E04FF4C0618C2002
:1023D00000F058FB00E000E0FFE731BD2DE9F84FC9
:1023E00004000D0016001F00200040B2002815D088
:1023F000200040B2032811D0200040B201280DD0A7
:10240000200040B2022803D1280040B2022805DB98
:1024100040F27B11DFF8380400F0A0FA290049B23D
:10242000200040B2FFF704FFDFF82804D0F8009046
:102430004FF47A7000FB09F94846000CB0FBF6FA3D
:102440005FF0000B504680B250FA0BF0012802DB1F
:102450001BF1010BF6E75846C0B2082805DB4FF424
:10246000CB71DFF8EC0300F079FA484630FA0BF054
:10247000B0FBF6F0210049B2002903D0022917D0A1
:102480000BD320E0010089B2491C01FB07F142F2A5
:102490001072B1FBF2F1884615E0010089B2491CC7
:1024A00001FB07F142F21072B1FBF2F188460AE03B
:1024B000010089B2491C01FB07F142F21072B1FB25
:1024C000F2F18846FFE7DFF89013220052B251F88C
:1024D00022202B005BB202EBC30223005BB251F857
:1024E0002330AC464FFA8CFC03EBCC03DB6833F0B3
:1024F0000403D360220052B251F822202B005BB2B9
:1025000002EBC3022823D3605A46D2B212F007026C
:1025100052F0080223005BB251F823301A60020027
:1025200092B223005BB251F823309A60002223005C
:102530005BB251F82330DA64220052B251F8222003
:102540002B005BB202EBC30243469BB21361002235
:1025500023005BB251F823104A60BDE8F18F2DE9EA
:10256000F04180460D0016000024404640B203288A
:1025700015D0404640B2002811D0404640B2012854
:1025800003D0404640B2022803D1280040B20228BE
:1025900005DB4FF4EA71DFF8B80200F0DFF94046DE
:1025A00040B2002805D0022819D00DD3032821D02D
:1025B0002BE042F21170864205D340F2D911DFF8C8
:1025C000900200F0CBF920E042F21170864205D370
:1025D00040F2DD11DFF8780200F0C0F915E042F2B8
:1025E0001170864205D340F2E111DFF8640200F079
:1025F000B5F90AE042F21170864205D34FF4F27148
:10260000DFF84C0200F0AAF9FFE7DFF84C02414680
:1026100049B250F8211089680C00002CF5D04146D1
:1026200049B2002905D0022915D00BD303291BD0AC
:1026300023E0611C01FB06F142F21072B1FBF2F1E2
:102640000F001AE0611C01FB06F142F21072B1FBAF
:10265000F2F10F0011E0611C01FB06F142F2107271
:10266000B1FBF2F10F0008E0611C01FB06F142F240
:102670001072B1FBF2F10F00FFE7414649B250F88A
:102680002100290049B200EBC1000761BDE8F081DB
:10269000F8B504000D0016001F00200040B200280D
:1026A00010D0200040B2012803D0200040B2022800
:1026B00003D1280040B2022804DB40F24D216448D7
:1026C00000F04CF9290049B2200040B2FFF7B0FDFC
:1026D000300040B2002803D0022855D02AD37CE035
:1026E0005D48210049B250F821102A0052B201EB96
:1026F000C201220052B250F822202B005BB202EB42
:10270000C302D26852F04402CA60210049B250F8B4
:1027100021102A0052B201EBC201220052B250F83D
:1027200022002A0052B200EBC200C06830F038002C
:10273000C86052E04848210049B250F821102A00F0
:1027400052B201EBC201220052B250F822202B00FB
:102750005BB202EBC302D26852F04802CA602100A9
:1027600049B250F821102A0052B201EBC2012200F6
:1027700052B250F822002A0052B200EBC200C068E8
:1027800030F03400C86028E03348210049B250F8E6
:1027900021102A0052B201EBC201220052B250F8BD
:1027A00022202B005BB202EBC302D26852F04C0233
:1027B000CA60210049B250F821102A0052B201EB40
:1027C000C201220052B250F822002A0052B200EB9D
:1027D000C200C06830F03000C8601F48390049B2FC
:1027E00011F0070151F00801220052B250F82220E6
:1027F0001160210049B250F82110496D51F00401D7
:10280000220052B250F8222051650021220052B21B
:1028100050F822205166210049B250F82110496D2C
:1028200049084900220052B250F822205165002187
:10283000220052B250F82220D1640021220052B26C
:1028400050F822000165F1BD3C8004403080044016
:10285000FC660000DC0FFF1F200BFF1FFF2212EAA7
:10286000D05C1DBF12EAD153944593422BE09C44A7
:10287000D30780EA01021A4043EA002043EA01211B
:10288000A1FB0030C04238BF40007CF17F010BDB70
:10289000FE294ADA5B0842EAC15153EA006373F148
:1028A000004C51EB10207047D1F1080CDCF12001F5
:1028B0002FDB5B0810FA01F10B4320FA0CF073F1E7
:1028C00000415041704794451CBF02EAD1539342E6
:1028D00080EA010202F000421DD0400019D04900F8
:1028E00017D05BB9634514D00902B1FA81F399405E
:1028F000BCEB030CC00140F00040C1E70002B0FA9D
:1029000080FC10FA0CF0B3EB0C0CC90141F0004153
:10291000B6E71000704740000AD0490008D010F117
:10292000807F94BF11F1807F02E042F0FF4070474A
:10293000D0437047002848BF40427047DFF800F09E
:10294000690CFF1FBFF34F8F46490A6812F4E0621B
:10295000454802430A60BFF34F8FFEE738B50400D5
:102960000D00002000F0ECFE2A0021003F4800F09E
:1029700027FF002000F004FF4FF47A7000F04DFFB5
:10298000F2E738B504000D00210049B2042001F03F
:1029900055F8200032BD10B50024042001F068F87D
:1029A000042001F09FF8002842D1002000F0C8FE6A
:1029B000042001F097F8012801D101200400002033
:1029C00000F0DEFE2A4800F0FBFE4FF4FA7000F043
:1029D00024FF2000C0B20128EAD1042001F082F8CF
:1029E0000028E5D1042001F07DF8002806D1002060
:1029F00000F0C6FE642000F010FFF3E7042001F0B1
:102A000071F8012806D1002000F0BAFE322000F053
:102A100004FFF3E7174800F0D3FEFFF78FFF6420B1
:102A200000F0FBFE0020FDF7F7FCFFF78BFFBFE790
:102A300010BD10B510480468012000F081FE01208F
:102A400000F09EFE0D492200D2B20F2042430A44FC
:102A50002100C9B20A4800F0B3FE4FF47A7000F0CA
:102A6000DCFEECE70CED00E00400FA051469000060
:102A7000E46900004869000004ED00E01804FF1F4D
:102A8000B068000030B4264B1C684FF4007502009B
:102A9000D2B2520995402C431C60224B0200D2B2A4
:102AA000521153F82240012510F01F029540C4F83E
:102AB000A0500200D2B2521153F822200300DBB220
:102AC00013F01F0342F8231030BC704730B4144B8E
:102AD0001C684FF400750200D2B2520995402C4395
:102AE0001C6031F4E0610F4A0300DBB25B1152F865
:102AF00023300400E4B214F01F0453F8243013F41C
:102B0000E06319430300DBB25B1152F8232003009A
:102B1000DBB213F01F0342F8231030BC70470000F3
:102B2000388004408C0BFF1F2DE9F0439FB00FF657
:102B3000A836269CDFF804898DF83B4002910024DA
:102B40000B944FF0FF37044691461D460AE019F8F2
:102B5000011B0298A0470028029000F0A1800B986A
:102B6000401C0B9099F8000050B12528EFD10021AE
:102B70000022059106920791089209910A9203E0BA
:102B80000B98A0E041F0010119F8010F2028F9D0BD
:102B900023280CD02B2804D02D2805D0302809D08C
:102BA00080E041F00201EFE741F00401ECE741F081
:102BB0000801E9E741F01001E6E70D920AE00D98FF
:102BC000404505DA00EB800002EB4002303A0D92FE
:102BD00009F1010999F80020A2F130000A28EED38A
:102BE00099F800002E2818BF0C9726D119F8010F6C
:102BF0002A2808D12868286009F1010950F8042B17
:102C000028600C9219E02D280CBF09F10109002061
:102C100000220C920BE040B90C9A424505DA02EB17
:102C2000820203EB4203303B0C9309F1010999F84E
:102C30000030A3F130020A2AEDD3ADF83810304647
:102C400099F8001000F066FF08B119F8010B8DF833
:102C50003A009DF83A00682805D199F800006828E4
:102C60000CD1622106E06C2804BF99F800006C28A2
:102C700004D171218DF83A1009F1010910A80490CE
:102C80002A4619F8013B6946204600F05CF838B93D
:102C900010AA6946204600F086F900287FF562AF49
:102CA000384610E02A2888D12A682A6052F8040B96
:102CB0002A6000280D9003D540420D9041F0040198
:102CC00009F101098CE71FB0BDE8F083622820D02C
:102CD000682811D06A2803D06C2827D0712825D104
:102CE0000868C01D20F007000860D0E90023083004
:102CF0000860194610467047002A0A680A60106882
:102D000003D0121D0A6000B217E0121D0A6080B2E3
:102D100017E0002A0A680A60106803D0121D0A60D2
:102D200040B20AE0121D0A60C0B20AE0002A0A6836
:102D30000A60106803D0121D0A60C1177047121D87
:102D40000A600021704770B51C460D46B4F125009D
:102D50002E69114600F015812038022863D91338F6
:102D600040D00B3816D0401E1ED0401E02285AD923
:102D7000001F19D0401F00F08180401E32D0401E3D
:102D800000F0CB80C01E00F0DA80801E2AD0C01E6A
:102D900028D0FCE06869421C6A610A680A6052F83F
:102DA000043B0A603354FCE095F83A000122FFF737
:102DB0008DFFC5E90001002904D56869411C6961DE
:102DC0002D220DE0288F810704D56869411C6961B7
:102DD0002B2205E0C00721D56869411C69612022CA
:102DE00032541BE095F83A000022FFF76FFFC5E967
:102DF000000195F83800010710D5D5E90023002B14
:102E000008BF002A0AD044F02000782806D168695B
:102E100030213154401C421C6A6134542146686997
:102E20003044E86087E00868C01D20F007000860B3
:102E3000D0E9002308300860C5E90023D5E9000186
:102E4000C80F04D06869411C69612D220DE0288FEC
:102E5000810704D56869411C69612B2205E0C00720
:102E600004D56869411C6961202232546869304484
:102E7000E8602146284600F0C4F992E005F13A02E4
:102E8000507820B14FF0FF340FF6540062E0107814
:102E9000622808D0682824D06A2812D06C282ED046
:102EA00071280ED02BE00A680A6052F8040B0A6001
:102EB00020B94FF0FF340FF640004BE0E96A017093
:102EC0006FE00A680A6052F8040B0A6020B94FF0FC
:102ED000FF340FF624003DE0EA6AD317C0E900236F
:102EE0005FE00A680A6052F8040B0A6020B94FF0EC
:102EF000FF340FF604002DE0E96A018051E00A6812
:102F00000A6052F8040B0A6020B94FF0FF340FF248
:102F1000E8701FE0E96A016043E00A680A6052F85D
:102F2000040B0A60002120F0000221F0FF33C5E904
:102F30000023EE607821284600F0BBF831E00868F5
:102F4000086050F8044B0860EC603CB94FF0FF3467
:102F50000FF2BC7000F0EAFD201A70BD2E6B002E3F
:102F600004D5204600F002FE044608E03246002167
:102F7000204600F017FE002814BF041B3446AC6145
:102F80000FE06869411C69612522325409E06969D2
:102F9000481C686125227254210002D0431C6B61D9
:102FA0003454002070BD2DE9FC410F460646904682
:102FB0007A6B7869396ABC6A121AB869521A796AE6
:102FC000121AF869521A121A97F83800141B41079E
:102FD0000FD42020002C8DF800000ADD25460123A7
:102FE0006A463946304600F05FFB00285DD16D1E11
:102FF000F5D17B6942463946304600F055FB002842
:1030000053D130208DF800003D6A002D09DD0123E9
:103010006A463946304600F047FB002845D16D1E10
:10302000F5D1BB69FA683946304600F03DFB00280F
:103030003BD130208DF800007D6A002D08DD012392
:103040006A463946304600F02FFB70BB6D1EF6D144
:10305000F868B969FB6942183946304600F024FB2C
:1030600018BB30208DF80000BD6A002D08DD01235B
:103070006A463946304600F017FBB0B96D1EF6D1EE
:1030800097F8380041070DD52020002C8DF800005E
:1030900008DD01236A463946304600F005FB20B9B9
:1030A000641EF6D10020BDE8F6814FF0FF30BDE888
:1030B000F6812DE9FC4307466F293E6908BF0824C5
:1030C00005D041F02000782814BF0A2410243C25A4
:1030D000D7E90023642918BF69299046994605D18C
:1030E000002B03D5D8F1000869EB4909B9F1000FAD
:1030F00008BFB8F1000F1FD1386BE8B9082C4CD1CC
:1031000097F83800010748D530203B2586F83B006A
:1031100043E000280ED597F8380000F0140010287E
:1031200008D17B6B7969386A5B1A1B1A9A1A002AD4
:10313000C8BF3A62BDE8F3838DF8001040464946A7
:103140002246E31700F05AFD3032D0B26D1E3A2805
:10315000019504DB9DF80000A0F151018A18725519
:10316000404649462246E31700F048FD80465FEAA4
:10317000010908BFB8F1000F03D0F868711988423F
:10318000DCD3082C09D197F83800010705D5705D0C
:10319000302802D06D1E30207055C5F13C02BA6156
:1031A0007119F960386B8242B3DA821A3A624FF6CB
:1031B000EF70398F01403987BDE8F3832DE9D043A3
:1031C00006460F4614464FF00008DFF8749212E0EE
:1031D000E00707D542464B4630463946FEF7ECFD40
:1031E00006460F464046494642464B46FEF7E4FD3A
:1031F000641080468946002CEAD130463946BDE845
:10320000D0832DE9F047064689468EB0D6E9000105
:10321000CDE9020104AC306B002802D506203063F2
:1032200005E001BF49F02000672801213163D6E99C
:10323000002358004015401C0DD119030BD0A9F1F3
:10324000610103201A29B06102D20FF2E04110E0BF
:103250000FF2DC410DE059004915491C0ED118034D
:103260000CD1A9F1610103201A29B06116D30FF224
:10327000C841F068032200F0D9FDDBE023F00047ED
:10328000B7F5801F1046194622F000050DD2002226
:10329000002F08BF002D019203D116E00FF29441D8
:1032A000E7E701AA00F016FE08E06648664900EB71
:1032B000175001906548034010461943019B644D27
:1032C00047F29752534393FBF5F2C6E9000120F011
:1032D000000331F0004104BF002B002300F0A28066
:1032E000DDE90240019220F00045D2F1070204DD41
:1032F00020462946FFF762FF0AE052420020554966
:10330000FFF75CFF02460B4620462946FEF76CFE9F
:10331000044649F0200ABAF1660F306B06BF019DE2
:103320000A3506252D18142DC8BF142530208846CF
:103330008DF810000DF11107002D33DD20464146B8
:1033400000F000FE01460A4607F1080304200A27A0
:10335000B2FBF7F707EB870EA2EB4E02303203F811
:10336000012C0A22B7FBF2F202EB820EA7EB4E070A
:103370003037401E03F8027DE9D1083D002D03F1EE
:103380000807D9DD084600F0F1FD02460B4620464D
:10339000414600F0F9FD00222F4BFEF70DFD0446DB
:1033A0008846CBE70DF111003F1A0DF1110404E03E
:1033B0000198401E7F1E0190641C20783028F7D0B1
:1033C000BAF1660F02D10198401C04E0BAF1650F12
:1033D0000CBF01200020336BC3189F42B8BF7B1E77
:1033E000002B1ED4BB4204DAE05C3528A8BF39208C
:1033F00000DA30201946621E02EB010800E05B1E75
:1034000018F80179491E8742F9D0392802D1605C49
:10341000401C6054002904D50198401C14465B1CD4
:103420000190019800B200901BB2224649463046F6
:1034300000F014F80EB0BDE8F0870000CBCCCC0C47
:103440000000244002FCFFFF0000E03FFFFF0F8070
:10345000A08601000000F03F84D797412DE9F8478E
:1034600083B005468A469146984600F0FFFDB8F1C4
:10347000000F406A2F6B067803DC4FF001080FF253
:10348000BC294AF02000BDF93040662808BF641C02
:1034900013D0672840F08F8014F1040F7ADBBC4210
:1034A00078DA95F83800641C010702D4B845B8BF33
:1034B000474620B23F1A48BF00270FFA84FAE8684F
:1034C000A969BAF1000F23DC4A1C30234354002FB2
:1034D00003DC95F83800010702D5E8688654521CD1
:1034E00017EB0A0FB8BF7C4224B2E7196042474588
:1034F000B8BFB846AA6168620FFA88F4EC61E86860
:10350000AB6922464946184400F090FC3F1B18E086
:1035100022B29045084416DA4246494600F086FC3D
:10352000A8694044A861AAEB0801002F696203DC86
:1035300095F838100A0704D5E9680E54E869401C6C
:10354000E861AF6299E0494600F070FCA869002F7D
:103550005044A8EB040803DC95F838100A0702D59C
:10356000E9680E54401CA8610FFA88F08742EB68A6
:10357000A869B8BFB8460FFA88F209EB0A011844E7
:1035800000F054FCA9690FFA88F00144A961381AC7
:10359000686272E0B84504DA95F838100A0758BF37
:1035A00047467F1E48BF0027BAF1670F0CBF4FF098
:1035B000650A4FF0450AA969EB68481CA861002F0D
:1035C00019F8012B5A5403DC95F838100A0719D55D
:1035D000E968431CAB610E54002F13DDA8F101060E
:1035E00030B28742D5F80CC0B8BF3E4632B2494629
:1035F0000CEB030000F01AFCA86936B23018BF1BB0
:10360000A8616F62E868A9690844002C80F800A0EE
:1036100003D42B224270811C03E02D2141706442AF
:10362000811C00206A460AE023460A2493FBF4F436
:1036300004EB8406A3EB460302F8013B401C24B2D2
:10364000002CF1DC012806DC4AF02002652A04BFC8
:10365000302201F8012B48B9302001F8010B07E0B6
:10366000401E1DF80030303301F8013B0028F7DC24
:10367000EA68A8691044091AE96195F8380000F071
:10368000140010280DD16A69A969686A8A18E96965
:103690008218A86A8A188218686B8242BCBF821A94
:1036A0002A6204B0BDE8F087F8B505460E46174615
:1036B0001C46002074B117F8011BB068A847B06021
:1036C00030B1F06A401CF0620020641EF3D1F2BDFC
:1036D0004FF0FF30F2BD0000686A6C747A4C000055
:1036E0007072696E74665F733A20256E2064697328
:1036F000616C6C6F776564007072696E74663A20F5
:1037000062616420256E20617267756D656E74005C
:103710007072696E74665F733A206261642025730B
:1037200020617267756D656E740000006E616E00D9
:103730004E414E00696E6600494E46003000000062
:1037400010B50400200040B2042808DA012201214B
:103750001A4823005BB2C05CFEF712F90FE00420A8
:1037600004002000441E40B2002808D0012201219C
:10377000124823005BB2C05CFEF702F9F1E710BD0E
:1037800010B50400200040B2042806DA0B482100DE
:1037900049B2405CFEF74FF90DE004200400200020
:1037A000441E40B2002806D00448210049B2405CC3
:1037B000FEF741F9F3E710BD00000000C00BFF1F4A
:1037C0000EB4C0B5024603A800210190009101ABE0
:1037D0000121044878440C30FFF7A6F906BC5DF8D7
:1037E00010FB00BFB731000010B50400002C13D04F
:1037F000B4F1807F03D329210E48FFF7AFF80E48BC
:10380000002101600D490C6000210D4A1160052165
:1038100001600168C903FCD510BD10B5040020008B
:10382000441E002804D007480068FFF7DDFFF6E7D4
:1038300010BD0000F065000010E000E014E000E0C2
:1038400018E000E0D40FFF1F2DE9F84304000D003D
:10385000200040B2002808D0022828D016D304281F
:1038600047D035D3052855D065E0DFF8EC01016875
:1038700051F4806101604FF440713020FFF702F98C
:103880004FF440713120FFF7FDF854E0DFF8C80134
:10389000016851F4006101604FF440714320FFF76B
:1038A000F1F84FF440714420FFF7ECF843E0DFF803
:1038B000A801016851F4805101604FF44071632008
:1038C000FFF7E0F84FF440716220FFF7DBF832E0D9
:1038D000DFF88401016851F4005101604FF4407138
:1038E0002B20FFF7CFF84FF440712A20FFF7CAF8DA
:1038F00021E0DFF86801016851F4806101604FF454
:1039000040719920FFF7BEF84FF440719820FFF7FF
:10391000B9F810E0DFF84401016851F4006101607A
:103920004FF440718920FFF7ADF84FF440718820C3
:10393000FFF7A8F8FFE7DFF82861200040B256F84B
:103940002000C07810F0F300210049B256F8211091
:10395000C870200040B256F820008078210049B29B
:1039600056F821108870200040B2002803D02000B3
:1039700040B2012805D13B4807684FF47A704743AD
:1039800004E0394807684FF47A7047432801B7FBD1
:10399000F0F8404680B2B0F5005F02DB41F6FF7000
:1039A0008046B7FBF5F9404680B2B9EB00194846AE
:1039B00080B2202804DB40F203112C48FEF7CEFF32
:1039C000200040B256F82000007810F0E000C8F364
:1039D00004210143220052B256F822201170210026
:1039E00049B256F8211081F80180210049B256F8F9
:1039F0002110897A11F0E00119F01F020A43230017
:103A00005BB256F823309A72220052B256F8222046
:103A1000127C52F0880223005BB256F823301A74ED
:103A2000220052B256F82220D27852F00C02230023
:103A30005BB256F82330DA70BDE8F183084A030020
:103A40005BB252F823301B791B06F7D503005BB23B
:103A500052F82320D17170473480044028800440FC
:103A6000A00BFF1FD40FFF1FDC0FFF1F0468000017
:103A700038B50400200040B208280EDA244D002298
:103A80000021200040B2285CFDF77AFF03212000CE
:103A900040B2285CFFF71AF815E008200400200067
:103AA000441E40B200280ED0194D002200212000F3
:103AB00040B2285CFDF764FF0321200040B2285C7F
:103AC000FFF704F8EBE731BD10B504001048210002
:103AD00049B2405CFDF7CCFF002801D1002000E096
:103AE000012010BD10B50400200040B2FFF7ECFF2C
:103AF00000280AD10A20FFF790FE200040B2FFF70D
:103B0000E3FF002801D1002000E0012010BD0000EB
:103B1000B80BFF1FC9B202788A421AB11CBF10F855
:103B2000012FF9E718BF00207047000080B500B9E9
:103B300006A005490B681BB122220021984701E02D
:103B400000F098FA222002BDE00FFF1F636F6E7332
:103B5000747261696E742068616E646C65723A207B
:103B6000626164206D6573736167650000F1010334
:103B7000810704D010F8011B820781B1FAD10268D5
:103B8000A2F10131914311F0803104BF50F8042FAC
:103B9000F6E709BAB1FA81F100EBD100401CC01A76
:103BA00070470000C9B2830706D0521E22D310F816
:103BB000013B9942F7D11FE0083A13D302F1040206
:103BC00041EA012141EA014150F8043B121F21BFA3
:103BD0004B40A3F1013C2CEA030C1CF0803FF3D0D6
:103BE000C9B2001F083210F8013B521E28BF91EAEB
:103BF000030FF8D818BF0120401E7047BBBBE1B1CE
:103C0000B2F5803F80F07E80022A1ED98C46B1FB3F
:103C1000F2F102FB11C31B0443EA1043B3FBF2FCB5
:103C200002FB1C3380B240EA0343B3FBF2F002FB19
:103C3000103240EA0C4000237047022A05D984461E
:103C4000B0FBF2F002FB10C270474AB105D100F0A0
:103C5000010249085FEA30007047002200237047E4
:103C600000F00CBA0B0002000021002070479042C7
:103C700071EB030CF6D3B3F5803F2FD2F0B5B3FA56
:103C800083F7B1FA81F4A7F10F0E3D1B5340CEF13B
:103C9000200602FA0EF2F3415340B5F10F0746D861
:103CA0000F3C2C444140C4F12006A040F14141406A
:103CB000B1FBF3F603FB1611A2FB0645001BA9415D
:103CC00002D2761E8018594180EA010221FA0EF3D1
:103CD00062FA0EF200215A403046F0BD30B4B1FB1A
:103CE000F3FC03FB1C11A2FB0C45001BA94103D2F2
:103CF000ACF1010C8018594130BC02460B466046BD
:103D000000217047B2F1807F65D3F0B5B2FA82F737
:103D1000B1FA81F4C7F10F063D1B22FA06F307F151
:103D2000110EF24120355A40B5F10F07B8D9414084
:103D3000C4F12006A040F1414140B1FBF3FC03FB7C
:103D40001C11A2FB0C45001BA94103D2BCF1010CC4
:103D5000801859410F2F12D30F3FC90341EA504138
:103D6000B1FBF3F603FB1611A2FB0645D4EBC03002
:103D7000A94102D2761E8018594146EACC3C07B3CD
:103D80004140C7F12006B840F1414140B1FBF3F694
:103D900003FB1611A2FB0645001BA94102D2761EA9
:103DA0008018594180EA010221FA0EF3C7F120047C
:103DB00062FA0EF20CFA07F05A402CFA04F1304382
:103DC000F0BD80EA010221FA0EF3002162FA0EF240
:103DD00060465A40F0BD8C46B1FBF2F102FB11C3C4
:103DE0001B0243EA1063B3FBF2FC02FB1C331B0211
:103DF0004CEA002043EA1063B3FBF2FC02FB1C33E5
:103E00001B024CEA002043EA1063B3FBF2FC02FB06
:103E10001C331B024CEA002043EA1063B3FBF2FCA4
:103E200002FB1C324CEA00200023704762B38B0770
:103E300008D0521E11F8013B00F8013B00F024802D
:103E40008B07F6D1830740F0208000BF103A07D3DC
:103E500030B4B1E83810103AA0E83810F9D230BCCC
:103E6000530724BFB1E80810A0E8081044BF51F878
:103E7000043B40F8043BD20724BF31F8022B20F862
:103E8000022B44BF0B7803707047121F17D35B00DF
:103E900009D151F8043B20F8023B1B0C121F20F8FB
:103EA000023BF6D20BE051F8043B00F8013B1B0A41
:103EB00020F8023B1B0C121F00F8013BF3D238BF65
:103EC000121D521E24BF11F8013B00F8013BF8D827
:103ED0007047000010B5144600F002F8226010BDD3
:103EE000C1F30A5343B14A0012F5001F28D2A3F2CE
:103EF000FE32A1EB0251704750EA410C20D001F094
:103F0000004C31EA0C01B1FA81F204BFB0FA80F33F
:103F1000D2180B3AB2F120032CBF00FA03F1914002
:103F200041EA0C013EBFC2F1200C20FA0CF3194308
:103F30009040524240F2FD33D21A01EB03517047D8
:103F400000227047400D491840EA81200CD2490DEB
:103F5000A1F58061491C40F0004005DBD1F11F0153
:103F600054BFC840C017704700207047014648B191
:103F7000B0FA80F18840C91CC1F58461090501EBE4
:103F8000D02140057047000070B44FF0004591EA21
:103F9000030F40F175806B40841A71EB030603D266
:103FA000001BB141121973414FF4001C1CEB410F6F
:103FB00034BF7CEB430442E00C0DA4EB1356352ECA
:103FC0004FDC45EAC323DB0A45EAC121C912B6F139
:103FD00020050DDD63FA05F6EB4086EA0305124283
:103FE00018BF45F00105C01851F100010CD213E0D3
:103FF00062FA06F5F2405540F3415A40B340F340AF
:104000005A408018594107D349085FEA30005FEAF7
:10401000350528BF45F0010501F58011420875F10D
:10402000004250F1000041EB04514E0016F5001F14
:1040300070BC38BF70470020090D090570471CEBA4
:10404000410F10D252EA43060BD0BCEB410F05D80A
:104050000C0DAB43661E342EB6DD02E0AB43801878
:10406000594170BC704770BC7047000000487047F1
:10407000C40BFF1F012000F0B9B80000704700001A
:10408000841A71EB030604D26E40001BB141121971
:1040900073414FF4001C1CEB410F34BF7CEB430613
:1040A00083E00C0DA4EB1356362E00F37C80012E1A
:1040B00045EAC32341DC43EA525312BFD2029202C3
:1040C0005B08240545EAC12141EA5051D2EBC020EA
:1040D000994125D407D1B0FA80F610FA06F162D0E2
:1040E0000020203608E0B1FA81F6B140C6F1200286
:1040F00020FA02F21143B0404FEAF474B4EB465494
:1041000034F001064FEA74040AD8D6F50016760D8D
:1041100004F00044F04061FA06F25040F14048409B
:10412000C00A40EA415021F0004128BF5FEA500533
:1041300050F1000044EBD12135E0DB0A45EAC12112
:10414000C90AB6F120050EDD42EA0242120CC5F1A1
:10415000200603FA06F6EB4042EA06056D42984156
:1041600061F100010DE062FA06F5F240554063FA94
:1041700006FC82EA0C02F3405A406D42904161EB2A
:10418000030111F4801F05D1641E620502D06D0089
:104190004041494121F48011430875F1004350F139
:1041A000000041EB045170BC70471CEB410F15D26D
:1041B00023F0004352EA43060BD04FEA4C0CBCEB11
:1041C000410F04D80C0D661E342EB7DDEBE7801AC4
:1041D000994150EA410608BF0021E4E708BF1CEB03
:1041E000430F28BF6FF00001DDE700002021090325
:1041F00026311820ABBEF9E700B0034000B00B40F9
:1042000000000000000000000000000000000000AE
:1042100000000000000000000000000000004E6FE1
:104220006E4D61736B61626C6500000000486172E5
:10423000644661756C740000000000004D656D4DB2
:10424000616E6167656D656E7400004275734661ED
:10425000756C7400000000000000557361676546CE
:1042600061756C7400000000000000000000000098
:10427000000000000000000000000000000000003E
:10428000000000000000000000000000000000002E
:10429000000000000000000000000000000000001E
:1042A0000000000000535643616C6C0000000000E9
:1042B0000000000044656275674D6F6E69746F722F
:1042C00000000000000000000000000000000000EE
:1042D000000050656E6453560000000000000000AE
:1042E000005379735469636B000000000000000004
:1042F000444D413000000000000000000000004478
:104300004D41310000000000000000000000444D5D
:1043100041320000000000000000000000444D4158
:10432000330000000000000000000000444D413454
:104330000000000000000000000000444D41350076
:1043400000000000000000000000444D4136000065
:10435000000000000000000000444D413700000054
:104360000000000000000000444D41380000000043
:1043700000000000000000444D4139000000000032
:10438000000000000000444D4131300000000000FA
:104390000000000000444D413131000000000000E9
:1043A00000000000444D41313200000000000000D8
:1043B000000000444D4131330000000000000000C7
:1043C0000000444D413134000000000000000000B6
:1043D00000444D41313500000000000000000000A5
:1043E000444D415F4572726F720000000000004D45
:1043F000434D000000000000000000000000465493
:10440000464C000000000000000000000052656102
:10441000645F436F6C6C6973696F6E004C56445FE8
:104420004C565700000000000000004C4C570000A4
:104430000000000000000000000057617463686421
:104440006F6700000000000000524E4700000000AF
:10445000000000000000000049324330000000006E
:10446000000000000000004932433100000000005D
:104470000000000000005350493000000000000020
:10448000000000000053504931000000000000000F
:1044900000000000535049320000000000000000FE
:1044A00000000043414E305F4F525F4D425F6275E6
:1044B000660043414E305F4275735F4F6666000091
:1044C0000043414E305F4572726F72000000000081
:1044D00043414E305F54785F5761726E696E674337
:1044E000414E305F52785F5761726E696E6743412B
:1044F0004E305F57616B655F557000000052657309
:1045000065727665643531000000000052657365A0
:10451000727665643532000000000043414E315F21
:104520004F525F4D425F6275660043414E315F42BC
:1045300075735F4F666600000043414E315F457200
:10454000726F72000000000043414E315F54785F8B
:104550005761726E696E6743414E315F52785F57A3
:1045600061726E696E6743414E315F57616B655F83
:1045700055700000005265736572766564353900C8
:104580000000000052657365727665643630000085
:1045900000000055415254305F52585F545800009B
:1045A000000055415254305F455252000000000057
:1045B0000055415254315F52585F5458000000007A
:1045C00055415254315F45525200000000000055E1
:1045D000415254325F52585F545800000000554118
:1045E0005254325F455252000000000000554152C3
:1045F00054335F52585F54580000000055415254E4
:10460000335F4552520000000000005541525434BF
:104610005F52585F54580000000055415254345FB7
:1046200045525200000000000055415254355F527F
:10463000585F54580000000055415254355F4552B0
:104640005200000000000041444330000000000020
:104650000000000000004144433100000000000061
:104660000000000000434D5030000000000000003A
:1046700000000000434D5031000000000000000029
:10468000000000434D503200000000000000000018
:10469000000046544D300000000000000000000003
:1046A0000046544D310000000000000000000000F2
:1046B00046544D320000000000000000000000439E
:1046C0004D540000000000000000000000005254A3
:1046D000430000000000000000000000005265736D
:1046E000657276656438330000000000504954302C
:1046F000000000000000000000000050495431009C
:10470000000000000000000000005049543200008A
:104710000000000000000000005049543300000079
:104720000000000000000000504442300000000083
:10473000000000000000005553423000000000005F
:1047400000000000000055534244434400000000B4
:104750000000000000454E45545F313538385F5445
:10476000696D6572454E45545F5472616E736D6933
:10477000740000454E45545F526563656976650077
:104780000000454E45545F4572726F720000000094
:10479000004932533000000000000000000000001B
:1047A00053444843000000000000000000000044A3
:1047B00041433000000000000000000000004441C0
:1047C0004331000000000000000000000054534985
:1047D0003000000000000000000000004D434700D2
:1047E00000000000000000000000004C5054696D03
:1047F000657200000000000000005265736572766B
:10480000656431303200000000504F5254410000C6
:104810000000000000000000504F52544200000011
:1048200000000000000000504F5254430000000000
:10483000000000000000504F5254440000000000EF
:104840000000000000504F525445000000000000DE
:10485000000000005265736572766564313038007F
:10486000000000526573657276656431303900006E
:104870000000526573657276656431313000000066
:104880000052657365727665643131310000000055
:1048900052657365727665643131320000000052F2
:1048A00065736572766564313133000000005265CE
:1048B00073657276656431313400000000526573AF
:1048C00065727665643131350000000052657365AC
:1048D000727665643131360000000052657365728E
:1048E0007665643131370000000052657365727679
:1048F0006564313138000000005265736572766579
:104900006431313900000000008003400090034012
:1049100000800B4000900B4000F00F4040F00F4033
:1049200080F00F40C0F00F4000F10F40F0000A1D72
:104930003000180032001801600018186400181ABE
:104940006E00181F780013187D00131A8200131CC4
:104950008C000E1296000E15A0000E18AA000E1B59
:10496000B4000E1EC8000C1CE1000B1EFA000A1F4A
:10497000000109080090044000A0044000B0044079
:1049800000C0044000D0044000A0064000B0064033
:1049900000C0064000D0064000A00E4000B00E400F
:1049A0006A6E6B6C676D4E4F34353637506A000057
:1049B000506A0000506A0000506A0000506A00000F
:1049C000506A0000506A0000FFFFFFFFFFFFFFFF7B
:1049D000526A0000506A0000506A0000FFFFFFFFAB
:1049E000FFFF000002040101E40FFF1F3410FF1F4E
:1049F000E40FFF1FE40FFF1F00000000E40FFF1F84
:104A000000000000400CFF1F2C0CFF1F00000000E6
:104A10000000000000000000000000000000000096
:104A200000000000000000000000000080B588B019
:104A300072B600F04DFB62B6DFF8E8050388DFF8D8
:104A4000E8050288DFF8E41506A8FCF7A7FC06AA2B
:104A500000210020FCF7CAFDDFF8D4050388DFF849
:104A6000D4050288DFF8D01504A8FCF797FC04AA47
:104A700002210020FCF7BAFDDFF8C0050378DFF85B
:104A8000C0050288DFF8BC1502A8FCF787FC02AA63
:104A900004210020FCF7AAFDDFF8AC050068FDF753
:104AA00067F902000B00DFF8A4156846FCF776FCF6
:104AB0006A4606210020FCF799FDBDE738B5DFF80E
:104AC00090452068012835D1DFF888050068012865
:104AD00030D1DFF88405006801282BD140F2F23292
:104AE00000210120FDF73BFDDFF8705529684FF4E8
:104AF000F07041430220FCF7A3FE4FF491620021C5
:104B00000120FDF72CFD296840F28A204143022054
:104B1000FCF796FE40F23A4200210120FDF71FFD0E
:104B200029684FF4167041430220FCF789FE0020EB
:104B300020602FE22068012835D1DFF818050068D1
:104B4000012830D1DFF81005006802282BD140F28F
:104B5000F23200210120FDF702FDDFF8005529683F
:104B60004FF4F07041430220FCF76AFE4FF491626B
:104B700000210120FDF7F3FC296840F28A2041431F
:104B80000220FCF75DFE40F23A4200210120FDF7D1
:104B9000E6FC29684FF4167041430220FCF750FEF2
:104BA00000202060F6E12068012835D1DFF8A40458
:104BB0000068012830D1DFF8A004006802282BD15A
:104BC00040F2F23200210120FDF7C9FCDFF88C54DD
:104BD00029684FF4F07041430220FCF731FE4FF496
:104BE000916200210120FDF7BAFC296840F28A2079
:104BF00041430220FCF724FE40F23A42002101200A
:104C0000FDF7ADFC29684FF4167041430220FCF714
:104C100017FE00202060BDE12068012835D1DFF8B3
:104C200034040068012830D1DFF82C04006804281F
:104C30002BD140F2F23200210120FDF790FCDFF889
:104C40001C5429684FF4F07041430220FCF7F8FD32
:104C50004FF4916200210120FDF781FC296840F2A8
:104C60008A2041430220FCF7EBFD40F23A4200214A
:104C70000120FDF774FC29684FF4167041430220AF
:104C8000FCF7DEFD0020206084E12068012835D19A
:104C9000DFF8C0030068012830D1DFF8BC030068EA
:104CA00005282BD140F2F23200210120FDF757FCFC
:104CB000DFF8A85329684FF4F07041430220FCF755
:104CC000BFFD4FF4916200210120FDF748FC2968E7
:104CD00040F28A2041430220FCF7B2FD40F23A4202
:104CE00000210120FDF73BFC29684FF41670414379
:104CF0000220FCF7A5FD002020604BE12068012880
:104D000033D1DFF85003006801282ED1D248006863
:104D100006282AD140F2F23200210120FDF71FFCC3
:104D2000CE4D29684FF4F07041430220FCF788FD16
:104D30004FF4916200210120FDF711FC296840F237
:104D40008A2041430220FCF77BFD40F23A420021D9
:104D50000120FDF704FC29684FF41670414302203E
:104D6000FCF76EFD0020206014E12068012832D19C
:104D7000B848006801282ED1B748006807282AD112
:104D800040F2F23200210120FDF7E9FBB34D296822
:104D90004FF4F07041430220FCF752FD4FF4916252
:104DA00000210120FDF7DBFB296840F28A20414306
:104DB0000220FCF745FD40F23A4200210120FDF7B8
:104DC000CEFB29684FF4167041430220FCF738FDF2
:104DD00000202060DEE02068012832D19D48006874
:104DE00001282ED19C48006808282AD140F2F232CE
:104DF00000210120FDF7B3FB984D29684FF4F070B6
:104E000041430220FCF71CFD4FF491620021012078
:104E1000FDF7A5FB296840F28A2041430220FCF7F8
:104E20000FFD40F23A4200210120FDF798FB29686E
:104E30004FF4167041430220FCF702FD0020206071
:104E4000A8E02068012832D18248006801282ED1CC
:104E50008148006809282AD140F2F232002101205D
:104E6000FDF77DFB7D4D29684FF4F0704143022032
:104E7000FCF7E6FC4FF4916200210120FDF76FFB87
:104E8000296840F28A2041430220FCF7D9FC40F215
:104E90003A4200210120FDF762FB29684FF41670A9
:104EA00041430220FCF7CCFC0020206072E0206827
:104EB000012832D16748006801282ED16648006871
:104EC0000A282AD140F2F23200210120FDF747FBE7
:104ED000624D29684FF4F07041430220FCF7B0FCAA
:104EE0004FF4916200210120FDF739FB296840F25F
:104EF0008A2041430220FCF7A3FC40F23A42002101
:104F00000120FDF72CFB29684FF416704143022065
:104F1000FCF796FC002020603CE02068012832D19C
:104F20004C48006801282ED14B4800680B282AD134
:104F300040F2F23200210120FDF711FB474D2968B4
:104F40004FF4F07041430220FCF77AFC4FF4916279
:104F500000210120FDF703FB296840F28A2041432C
:104F60000220FCF76DFC40F23A4200210120FDF7DF
:104F7000F6FA29684FF4167041430220FCF760FCF2
:104F80000020206006E0FBF791FE020000210120D6
:104F9000FDF7E5FA31BD10B531485FF0FF31016032
:104FA000002115240068E040C0070AD5294801689F
:104FB00001600168491C0160012025490860FFF774
:104FC0007DFD10BDF8B5274804680021016000256B
:104FD000012616FA05F02100C9B201420DD0312098
:104FE000FCF746FD002804D01F480168491C0160F9
:104FF00003E01D480168491E01600127BE402000F2
:10500000C0B230420DD03020FCF732FD002804D071
:1050100016480168491C016003E014480168491EF4
:105020000160F1BD4010FF1F3E10FF1FF869000036
:105030004410FF1F4210FF1F086A00004910FF1FA5
:105040004610FF1FD0690000C00FFF1F186A000044
:105050002C0EFF1F300EFF1F4C10FF1FDC0FFF1F19
:10506000A0A0044050800B40380EFF1F340EFF1FDD
:1050700010B410F00703584C22684FF6FF010A40A5
:10508000564951EA03210A43226010BC70470122AD
:1050900010F01F018A40524903005BB25B0941F8DE
:1050A0002320704710B4020052B2002A09D50A0129
:1050B0004C4B040064B214F00F04234403F8042C96
:1050C00004E00A01484B040064B21A5510BC704752
:1050D00010B5FCF711FA002201214520FCF750FC25
:1050E000002201215220FCF74BFC00220121132059
:1050F000FCF746FC002201213420FCF741FC002291
:1051000000213520FCF73CFC012200213120FCF776
:1051100037FC012200213020FCF732FC00F080F83F
:1051200000F0A4F8FBF780F9FBF7BBF94FF4165138
:105130000420FEF789FB40F23A442300322200218A
:105140000120FDF74BF9220000210120FDF707FAAD
:1051500000F0DCF800F056F824493520FDF792FC09
:105160000320FFF785FF00215820FFF79BFF012157
:105170004420FFF797FF02214020FFF793FF032110
:105180004520FFF78FFF1A49682000F05AF9582090
:10519000FFF77DFF174C2168052041430020FCF7F5
:1051A00019FB1549542000F04CF94420FFF76FFF1C
:1051B00021680120FCF70EFB1049552000F041F951
:1051C0004520FFF764FF0E49502000F03AF94020D7
:1051D000FFF75DFF10BD00000CED00E00000FA05D8
:1051E00000E100E018ED00E000E400E01301080039
:1051F000974F0000DC0FFF1F615A0000895A000022
:10520000C54F000080B50123012200210220FDF7D7
:105210003FFA0123012201210220FDF739FA01BDE5
:1052200080B5002200214820FCF7AAFB122148206B
:10523000FDF74CFC002200214920FCF7A1FB1221C4
:105240004920FDF743FC002200214A20FCF798FB8F
:1052500012214A20FDF73AFC002200214B20FCF7E6
:105260008FFB12214B20FDF731FC01BD1E48006869
:10527000012803D101201D49086002E000201B49DC
:1052800008601B480068012803D101201949086003
:1052900002E000201749086017480068012803D180
:1052A00001201649086002E00020144908601448F3
:1052B0000068012803D101201249086002E00020A3
:1052C000104908600F4800680C49096810EB41005C
:1052D0000849096810EB81000449096810EBC10016
:1052E00009490860704700002012FE43FC0DFF1FB3
:1052F0002412FE43F80DFF1F2812FE43F40DFF1F7A
:105300002C12FE43F00DFF1F000EFF1F10B543F2DD
:10531000C8240023220000210020FDF75FF80023AD
:10532000220001210020FDF759F80023220002216C
:105330000020FDF753F80023220003210020FDF791
:105340004DF810BD10B5040041F28830210009B2BB
:10535000814201DB040006E0200000B22C498842B3
:1053600001DA2C480400200000B200280BD42200EF
:1053700012B200210020FDF7F2F8002201210020E6
:10538000FDF7EDF810E0200000B200280CD524B2A3
:105390006442002200210020FDF7E1F8220012B251
:1053A00001210020FDF7DBF810BD10B5040040F628
:1053B000B830210009B2814201DB040006E0200080
:1053C00000B21549884201DA14480400200000B2F6
:1053D00000280BD4220012B202210020FDF7BFF8F2
:1053E000002203210020FDF7BAF810E0200000B2EF
:1053F00000280CD524B26442002202210020FDF7CF
:10540000AEF8220012B203210020FDF7A8F810BD6B
:1054100079ECFFFF78ECFFFF49F4FFFF48F4FFFF52
:1054200010B504004FF4007094FBF0F100FB114044
:10543000002803D01E210B48FDF790FA0A480460AB
:1054400010BD70B504000D00084E07480068B0425A
:1054500003D030210348FDF781FA200040B246F81E
:10546000205070BD5C68000008ED00E00000FF1FE8
:10547000000000000000000000000000000000002C
:10548000000000F8000000000000003330000000C1
:1054900000100C06100C06000000000000000000C8
:1054A00040C07840C0784000043F04043F0404003A
:1054B000007088FC08300000001820FF211E00004A
:1054C000F008F000E018000000211C031E211E005F
:1054D00000F00888700000001E21232419272110E5
:1054E00010160E0000000000000000000000000088
:1054F000000000E01804020000000007182040002F
:1055000000020418E000000000402018070000001E
:10551000404080F0804040000202010F0102020082
:10552000000000F0000000000101011F0101010066
:10553000000000000000000080B0700000000000CB
:105540000000000000000000000101010101010154
:1055500000000000000000000030300000000000EB
:1055600000000000806018040060180601000000C0
:1055700000E010080810E000000F102020100F00BD
:10558000001010F8000000000020203F2020000044
:10559000007008080888700000302824222130009C
:1055A00000300888884830000018202020110E00A4
:1055B0000000C02010F8000000070424243F24004D
:1055C00000F80888880808000019212020110E0022
:1055D00000E0108888180000000F112020110E0034
:1055E00000380808C83808000000003F000000002C
:1055F0000070880808887000001C222121221C00ED
:1056000000E010080810E0000000312222110F0015
:10561000000000C0C00000000000003030000000AA
:10562000000000800000000000008060000000001A
:105630000000804020100800000102040810200033
:10564000404040404040400004040404040404007E
:105650000008102040800000002010080402010013
:10566000007048080808F000000000303601000013
:10567000C030C828E810E0000718272423140B00C6
:105680000000C038E0000000203C23020227382040
:1056900008F8888888700000203F202020110E0024
:1056A000C03008080808380007182020201008001B
:1056B00008F808080810E000203F202020100F0004
:1056C00008F88888E8081000203F202023201800D0
:1056D00008F88888E8081000203F20000300000038
:1056E000C03008080838000007182020221E0200D9
:1056F00008F808000008F808203F210101213F2098
:10570000000808F8080800000020203F20200000C2
:1057100000000808F8080800C08080807F000000B2
:1057200008F888C028180800203F200126382000EB
:1057300008F8080000000000203F20202020300052
:1057400008F8F800F8F80800203F003F003F20006C
:1057500008F830C00008F808203F200007183F0074
:10576000E01008080810E0000F10202020100F00A3
:1057700008F808080808F000203F21010101000096
:10578000E01008080810E0000F18242438504F00DB
:1057900008F8888888887000203F2000030C30209B
:1057A00000708808080838000038202121221C00D9
:1057B000180808F8080818000000203F2000000022
:1057C00008F808000008F808001F202020201F000B
:1057D0000878880000C83808000007380E0100006B
:1057E000F80800F80008F800033C0700073C030035
:1057F000081868808068180820302C03032C30209B
:105800000838C800C83808000000203F2000000009
:1058100010080808C8380800203826212020180061
:10582000000000FE020202000000007F4040400035
:10583000000C30C000000000000000010638C0006D
:1058400000020202FE000000004040407F00000015
:10585000000004020202040000000000000000003A
:105860000000000000000000808080808080808038
:105870000002020400000000000000000000000020
:1058800000008080808000000019242222223F2016
:1058900008F8008080000000003F112020110E0059
:1058A0000000008080800000000E112020201100E8
:1058B000000000808088F800000E112020103F209A
:1058C0000000808080800000001F2222222213001E
:1058D000008080F0888888180020203F2020000069
:1058E0000000808080808000006B9494949360001E
:1058F00008F8008080800000203F210000203F2029
:1059000000809898000000000020203F2020000028
:10591000000000809898000000C08080807F000018
:1059200008F8000080808000203F24022D302000F5
:10593000000808F8000000000020203F20200000A0
:105940008080808080808000203F20003F20003FBA
:105950008080008080800000203F210000203F20C8
:105960000000808080800000001F202020201F0079
:10597000808000808000000080FFA12020110E00A8
:105980000000008080808000000E112020A0FF8099
:10599000808080008080800020203F212000010046
:1059A000000080808080800000332424242419009B
:1059B000008080E0808000000000001F20200000A8
:1059C0008080000000808000001F202020103F20E9
:1059D000808080000080808000010E300806010079
:1059E00080800080008080800F300C030C300F001E
:1059F00000808000808080000020312E0E31200049
:105A0000808080000080808080818E701806010078
:105A100000808080808080000021302C2221300096
:105A200000000000807C020200000000003F4040B7
:105A300000000000FF00000000000000FF00000068
:105A40000002027C800000000040403F0000000097
:105A50000006010102020404000000000000000032
:105A600010B5DFF898432068800880002060FAF7BE
:105A700096FFFBF767F8206850F00100206020686F
:105A800050F00300206010BD10B5DFF874432068AB
:105A9000800880002060DFF86C030178491C0170E9
:105AA000017832290DD10021017000F013F800F0C7
:105AB0005CF80020DFF8501308600020DFF84C137A
:105AC0000860206850F001002060206850F003005A
:105AD000206010BD70B5DFF83813DFF838030268B6
:105AE0000A600268521C0260DFF81C23DFF82843BA
:105AF00020681060DFF81403DFF820532B68036080
:105B0000DFF81C33166800688619022096FBF0F057
:105B100018601868002808D01068002805D01A6896
:105B20000968DFF80003FDF74BFE0020206000202D
:105B3000286070BDF8B504002F00DFF8EC020068A3
:105B40002100FCF78BFE060030003900FCF7BEF8A0
:105B5000DFF8D8120968FCF781FE3100FBF7C6FFB9
:105B6000FBF7AAFFB2490880F1BD10B5B148017832
:105B70000B2914D1D221B04A1180B049B04A11602A
:105B80005FF08141AF4A11600021AF4A11605FF0C0
:105B90008041A54A1160AD49A44A1160FBE001783B
:105BA0000A2914D1A549A64A11605FF08141A54A8E
:105BB00011600021A44A1160D7219F4A11805FF033
:105BC0008041994A1160A249984A1160E3E0017846
:105BD000092913D19F499A4A11605FF08041994A7F
:105BE00011600022984B1A60DC22934B1A808E4A77
:105BF00011605FF07E518D4A1160CCE00178082978
:105C000012D195498E4A11605FF07E518D4A116024
:105C100000228D4B1A60DC22874B1A808F4A824B00
:105C20001A60824A1160B6E00178072912D18A49C8
:105C3000834A11605FF07E51824A11600022824BDC
:105C40001A60DC227C4B1A80854A774B1A60774AAF
:105C50001160A0E00178062912D17F49784A1160CD
:105C60005FF07E51774A11600022774B1A60E6227E
:105C7000714B1A807B4A6C4B1A606C4A11608AE047
:105C80000178052912D178496D4A11605FF07E5183
:105C90006C4A116000226C4B1A60F022664B1A802D
:105CA000724A614B1A60614A116074E001780429FC
:105CB00013D16D49624A11605FF07E51614A1160F3
:105CC0000022614B1A60FA225B4B1A805FF080421F
:105CD000554B1A60554A11605DE00178032913D1D4
:105CE0006149574A11605FF07E51564A11600022A7
:105CF000554B1A604FF482724F4B1A805C4A4A4BE4
:105D00001A604A4A116046E00178022916D15FF014
:105D100082414B4A11605FF07C514A4A1160002178
:105D2000494A11604FF48771434A11805FF07E51F8
:105D30003D4A11604F493D4A11602CE0017801292C
:105D400016D15FF082413E4A11605FF07C513D4ABE
:105D5000116000213C4A11604FF48C71364A118069
:105D60005FF07E51304A11604349304A116012E0C1
:105D70004249334A11603649324A11600021324AA1
:105D80001160E6212C4A11805FF07E51264A116095
:105D90002E49264A11600021017039480068FFF73A
:105DA000C9FE384A2249244B1C880888241A1480CA
:105DB000354C1B880888C318238034480078002895
:105DC00006D10020FFF7BEFA0020FFF7EEFA13E03D
:105DD0000D48016809B2B2F9000000F059F800B2AC
:105DE000FFF7B0FA0948016809B2B4F9000000F001
:105DF0004FF800B2FFF7D9FA10BD00000C71034054
:105E00001C7103404810FF1F100EFF1F140EFF1FD0
:105E1000240EFF1F280EFF1F380EFF1F340EFF1F1A
:105E20000C0EFF1FBC690000040EFF1F080EFF1FB1
:105E30003410FF1F4C10FF1F3610FF1F00002042C0
:105E4000180EFF1F1C0EFF1F200EFF1FCDCCCC3ED7
:105E5000CDCC4C3E0000F0410000A0413333334034
:105E6000666626409A99194000002041CDCC0C402E
:105E70006666E63FCDCC4C3F9A99193F0000404002
:105E8000C80FFF1F3810FF1F3A10FF1F4B10FF1FD6
