:10000000F8FF002011040000B33B0000B33B0000E8
:10001000B33B0000B33B0000B33B0000B33B000028
:10002000B33B0000B33B0000B33B0000B33B000018
:10003000B33B0000B33B0000B33B0000B33B000008
:10004000B33B0000B33B0000B33B0000B33B0000F8
:10040000FFFFFFFFFFFFFFFFFFFFFFFFFEFFFFFFFD
:1004100062B607F0F5FBFEE7DFF800F08B0CFF1F7C
:10042000DFF800F0E30CFF1F80B52E2001F01CFF69
:100430000E2001F019FF2F2001F016FF0D2001F012
:1004400013FF0C2001F010FF332001F00DFF2020DE
:1004500001F00AFF132001F007FF002001F004FF64
:1004600001BD2DE9F04104000D0016005FF0000809
:10047000002738003100C0B2C9B288420AD2290030
:1004800049B2200040B201F0F0FF18FA80F0804637
:100490007F1CEEE73000C0B2B8FBF0F080B2BDE8E0
:1004A000F0812DE9F04F89B000200890002500264A
:1004B00000275FF000080020DFF800A8CAF810004D
:1004C000CAF80C00CAF80800CAF80400CAF800000C
:1004D000DFF8EC07DFF8EC170861C8608860486057
:1004E0000860DFF8E4070068082840F08980DFF83A
:1004F000DC1706A802F012F806AA0021002002F07C
:1005000035F9DFF8CC1704A802F008F804AA022194
:10051000002002F02BF95FF0000B584680B2B0F5D6
:10052000AF6F52DADFF8AC97142201213320FFF7C6
:1005300098FF02F0EFF9C9F80000142201212020F1
:10054000FFF78FFF02F0E6F9C9F804001422012139
:100550001320FFF786FF02F0DDF9C9F80800142226
:1005600001210020FFF77DFF02F0D4F9C9F80C004B
:10057000142201210E20FFF774FF02F0CBF9C9F815
:10058000100000200400200080B2052814DA2000AA
:1005900080B25AF82000210089B259F8211002F0E7
:1005A000C7F907D2200080B259F82000210089B293
:1005B0004AF82100641CE6E7DFF81C070168032005
:1005C00002F0FEF91BF1010BA7E7FE20FFF724FF65
:1005D0005FF00009484680B205284CDA484680B2F0
:1005E0005AF8200002F04CFA02001FFA89F95FEA7B
:1005F000890189B2FE20FFF713FF19F10109E9E72C
:100600005FF00009484680B2042818DA0020040090
:10061000200080B205280FDA200080B2800010F59B
:10062000FE20B0F9000000B202F058FA210089B2B1
:100630004AF82100641CEBE719F10109E2E7DFF851
:100640009C1602A801F06AFF02AA0021002002F015
:100650008DF8DFF87C16684601F060FF6A460221DB
:10066000002002F083F8DFF870060168C8204143DB
:10067000032002F0A5F901220121342002F040FA02
:100680004FF4167ADFF850B6DBF800100AFB01F1E0
:10069000032002F095F900220121342002F030FA03
:1006A000DBF800104FF4C8704143032002F088F9D2
:1006B00001220121342002F023FADBF800000AFBBA
:1006C00000FA5146032002F07BF900220121342078
:1006D00002F016FA01F0D0FF09B0BDE8F08F2DE965
:1006E000F0470027380000B205283EDADFF8F08531
:1006F000142201213320FFF7B4FE02F00BF9390078
:1007000009B248F82100142201212020FFF7A9FE98
:1007100002F000F9390009B208EB810148611422A6
:1007200001211320FFF79DFE02F0F4F8390009B211
:1007300008EB81018862142201210020FFF791FE5D
:1007400002F0E8F8390009B208EB8101C86314220D
:1007500001210E20FFF785FE02F0DCF8390009B216
:1007600008EB810108657F1CBCE75FF0000840468C
:1007700000B2052852DA00200400200000B204284C
:1007800049DA00200500280000B2210009B2D1F1A9
:10079000040188423DDA1427DFF8449518FB07F07E
:1007A0004844290009B200EB8100406818FB07F1BA
:1007B00049442A0012B251F8221002F0B9F826D2A8
:1007C00018FB07F04844290009B200EB810040689B
:1007D00002F032FA060018FB07F04844290009B27B
:1007E00000EB810018FB07F149442A0012B251F8CE
:1007F0002210416018FB07F009EB0007A9460FFA29
:1008000089F9300000B202F069F947F829006D1C3F
:10081000B9E7641CB1E718F10108A8E70027380020
:1008200000B2052829DADFF8508B5FF01409DFF8F1
:10083000B0A417FB09F05044406817FB09F151447C
:10084000896802F013FA17FB09F15144C96802F0F4
:100850000DFA390009B248F82100380000B258F802
:100860002000DFF8181B02F073FADFF8141B3A00BF
:1008700012B241F822007F1CD1E70020010009B22A
:10088000042934DADFF8FC1A020012B201EB82020A
:10089000526803001BB241F82320020012B201EBA0
:1008A0008202926903001BB201EB83035A610200CA
:1008B00012B201EB8202D26A03001BB201EB830386
:1008C0009A62020012B201EB8202126C03001BB2A8
:1008D00001EB8303DA63020012B201EB8202526D74
:1008E00003001BB201EB83010A65401CC6E700212F
:1008F000080000B205280EDADFF8840A0A0012B2F6
:1009000050F82200DFF87C2A142311FB03F31A4469
:100910001061491CECE70027380000B205283BDADB
:10092000DFF8648ADFF85C9AD8F80000390009B271
:1009300059F8211002F09AF9C8F80000D8F804001C
:10094000390009B209EB8101496902F08FF9C8F851
:100950000400D8F80800390009B209EB8101896A5E
:1009600002F084F9C8F80800D8F80C00390009B280
:1009700009EB8101C96B02F079F9C8F80C00D8F8CD
:100980001000390009B209EB8101096D02F06EF91E
:10099000C8F810007F1CBFE75FF00008404600B2B7
:1009A000052816DADFF8E079404600B257F8200053
:1009B000C34902F0CDF9DFF8D419424612B241F82A
:1009C00022000020414609B247F8210018F1010831
:1009D000E4E7BDE8F087F8B5FFF781FE00242000CA
:1009E00000B2052854DADFF8A859B64EDFF89C09A2
:1009F000210009B250F82100210009B256F8211057
:100A000002F024FA0700AD48210009B250F8210095
:100A1000210009B256F8211002F018FA010038003E
:100A200002F096F9210009B245F82100200000B239
:100A300055F82000002101F07BFF05D8DFF85409AC
:100A4000210009B245F82100200000B255F820002D
:100A5000DFF8441902F03AFA05D85FF07E50210021
:100A600009B245F82100200000B255F8200002F03C
:100A70003FFA0022DFF8243902F05EFA02F02EFB82
:100A8000DFF81C19220012B241F82200641CA6E70C
:100A9000DFF80C5928685FF07E5101F049FF02D25F
:100AA0005FF07E5000E02868286068685FF07E5143
:100AB00001F03EFF02D25FF07E5000E0686868609F
:100AC000A8685FF07E5101F033FF02D25FF07E50E4
:100AD00000E0A868A860E8685FF07E5101F028FF98
:100AE00002D25FF07E5000E0E868E860286802F01B
:100AF000A3F8DFF8B0180880686802F09DF8DFF806
:100B0000A8180880A86802F097F8DFF8A0180880F5
:100B1000E86802F091F8DFF898180880DFF8946828
:100B2000684DDFF85C080069296902F08FF9070059
:100B300062480069296902F089F90100380002F071
:100B400007F930603068002101F0F2FE02D8DFF8CA
:100B500044083060DFF86058306802F0C9F90022BC
:100B6000DFF8383802F0E8F902F0B8FA28602868AF
:100B700002F062F8DFF844180880F1BD2DE9F8436F
:100B8000DFF82848DFF84459DFF81C68DFF84079BF
:100B90003888318811FA80F02988401A2188401A53
:100BA00002F0D0FA0022DFF8F43702F0C5F98046EF
:100BB00089463888298811FA80F0318810FA81F046
:100BC000218810FA81F002F0BDFA02000B004046C5
:100BD000494602F0C9FA02F081FADFF8E41708602A
:100BE000DFF8E08798F80000002805D002283BD005
:100BF0001ED3032853D057E00120DFF8CC1708702C
:100C0000012088F800003888012808D130880128A0
:100C100005D12088012802D12888012804D0DFF8D6
:100C2000AC070068012802D1032088F800003BE0EF
:100C30000120DFF894170870022088F80000388837
:100C4000012808D13088012805D12088012802D147
:100C50002888012804D0DFF874070068012802D131
:100C6000032088F800001FE00120DFF85C170870FF
:100C700000F038F83888012808D13088012805D1DB
:100C80002088012802D12888012804D0DFF83C07F9
:100C90000068012802D1032088F8000004E0002049
:100CA000DFF824170870FFE700F0A2FB00B2020093
:100CB0000021012002F013FDBDE8F183C00EFF1FEB
:100CC0000000A040D40EFF1F000EFF1FA8810000EF
:100CD000B4810000980EFF1FE40FFF1FCC810000BD
:100CE000E80EFF1F2DE9F04DDFF8E48698F80000CC
:100CF000002816D0022800F0A8806CD3042800F049
:100D00001F81C0F0DC80062800F0EE81C0F0598120
:100D1000082800F0B182C0F06F82092800F0EF824D
:100D200027E3DFF88846DFF88856DFF87C66DFF8CF
:100D300074763888318811FA80F02988401A218821
:100D4000401A02F0FFF90022DFF8503602F0F4F802
:100D500082468B463888298811FA80F0318810FA4B
:100D600081F0218810FA81F002F0ECF902000B000A
:100D70005046594602F0F8F902F0B0F9DFF8401693
:100D80000860308815280FDB20881F280CDB20889E
:100D9000502809DA3888512806DB2888512803DBD7
:100DA000012088F8000015E0208815280FDB308826
:100DB0001F280CDB3088502809DA3888512806DBD8
:100DC0002888512803DB022088F8000002E0002078
:100DD00088F80000CDE2DFF8D445DFF8D455DFF81D
:100DE000C865DFF8C0753888318811FA80F0298825
:100DF000401A2188401A02F0A5F90022DFF89C353C
:100E000002F09AF882468B463888298811FA80F0D9
:100E1000318810FA81F0218810FA81F002F092F9FD
:100E200002000B005046594602F09EF902F056F9B6
:100E3000DFF88C1508603088152805DB2088292804
:100E400002DB032088F8000093E2DFF86045DFF85A
:100E50006055DFF85465DFF84C753888318811FA31
:100E600080F02988401A2188401A02F06BF900228C
:100E7000DFF8283502F060F882468B4638882988EA
:100E800011FA80F0318810FA81F0218810FA81F08F
:100E900002F058F902000B005046594602F064F97E
:100EA00002F01CF9DFF8181508603088292805DBE6
:100EB0002088152802DB042088F8000059E2DFF8BA
:100EC000EC44DFF8EC54DFF8E064DFF8D8743888DD
:100ED000318811FA80F02988401A2188401A02F0DE
:100EE00031F90022DFF8EC3402F026F882468B4616
:100EF0003888298811FA80F0318810FA81F0218829
:100F000010FA81F002F01EF902000B00504659461B
:100F100002F02AF902F0E2F8DFF8A4140860308841
:100F200015280CDB3088282809DA2088512806DBB0
:100F30000120DFF8A4140870052088F8000018E2EA
:100F4000DFF86844DFF86854DFF85C64DFF8547455
:100F50003888318811FA80F02988401A2188401A8F
:100F600002F0F0F80022DFF86C3401F0E5FF824671
:100F70008B463888298811FA80F0318810FA81F080
:100F8000218810FA81F002F0DDF802000B005046D3
:100F9000594602F0E9F802F0A1F8DFF824140860DD
:100FA000208815280CDB2088282809DA3088512869
:100FB00006DB0120DFF820140870062088F8000006
:100FC000D7E1DFF8E843DFF8E853DFF8DC63DFF868
:100FD000D4733888318811FA80F02988401A218822
:100FE000401A02F0AFF80022DFF8E83301F0A4FF66
:100FF00082468B463888298811FA80F0318810FAA9
:1010000081F0218810FA81F002F09CF802000B00B8
:101010005046594602F0A8F802F060F8DFF8A01335
:101020000860208857285EDB308820285BDADFF8EC
:10103000AC03016801290FD140F2F23200210120F6
:1010400002F04DFBDFF8980301684FF4AA704143AA
:10105000032001F0B5FC34E0016802290FD140F211
:10106000F2320021012002F03AFBDFF8740301683C
:101070004FF4AA704143032001F0A2FC21E0006874
:1010800004280FD140F2F2320021012002F027FBA8
:10109000DFF84C0301684FF4AA704143032001F0CC
:1010A0008FFC0EE04FF47C720021012002F017FB50
:1010B000DFF82C0301684FF496704143032001F0E0
:1010C0007FFC38883C280EDA30880A280BDA208822
:1010D000512808DB2888512805DB0120C149087008
:1010E000072088F8000044E1B04CB14DAE4EAD4F42
:1010F0003888318811FA80F02988401A2188401AEE
:1011000002F020F80022B84B01F016FF82468B4611
:101110003888298811FA80F0318810FA81F0218806
:1011200010FA81F002F00EF802000B00504659460A
:1011300002F01AF801F0D2FFA1490860308858285F
:1011400059DB2088202856DAA448016801290ED1ED
:101150004FF491620021012002F0C1FAA048016819
:101160004FF4AA704143032001F02AFC31E00168EA
:1011700002290ED14FF491620021012002F0AFFA52
:10118000974801684FF4AA704143032001F018FC0E
:101190001FE0006804280ED14FF491620021012065
:1011A00002F09DFA8E4801684FF4AA704143032073
:1011B00001F006FC0DE04FF491620021012002F0E5
:1011C0008EFA8748016840F24F104143032001F036
:1011D000F7FB38883C280EDA30880A280BDA20889A
:1011E000512808DB2888512805DB01207D4908703B
:1011F000072088F80000BCE06C4C6D4D6A4E694FCA
:101200003888318811FA80F02988401A2188401ADC
:1012100001F098FF0022744B01F08EFE82468B464F
:101220003888298811FA80F0318810FA81F02188F5
:1012300010FA81F001F086FF02000B00504659467B
:1012400001F092FF01F04AFF5D49086030881528DF
:1012500005DB2088152802DB2088462808DB20884B
:10126000152808DB3088152805DB3088462802DA87
:10127000082088F800007CE04C4C4D4D4A4E494F08
:101280003888318811FA80F02988401A2188401A5C
:1012900001F058FF0022554B01F04EFE82468B466E
:1012A0003888298811FA80F0318810FA81F0218875
:1012B00010FA81F001F046FF02000B00504659463B
:1012C00001F052FF01F00AFF3D49086038881528F7
:1012D00002DB288851280EDA308851280BDA308852
:1012E000002802D02088512805DA3888512805DBEB
:1012F0002888152802DB092088F8000039E02B4CEB
:101300002B4D294E274F3888318811FA80F02988D3
:10131000401A2188401A01F015FF0022334B01F0DA
:101320000BFE82468B463888298811FA80F0318876
:1013300010FA81F0218810FA81F001F003FF020019
:101340000B005046594601F00FFF01F0C7FE1C4943
:10135000086038883188401A02F040FB282807DAF4
:1013600021882888091A282902DA002088F8000034
:10137000FFE7BDE8F08D0000600FFF1F0000404058
:101380004C0FFF1F340EFF1FAC0EFF1F7C0FFF1F03
:10139000A40FFF1F6F12833A0100803F00005940E5
:1013A000900FFF1F4E10FF1F5010FF1F5210FF1F06
:1013B0005410FF1F740FFF1F780FFF1F5610FF1FE1
:1013C000B80FFF1F5A10FF1F5B10FF1FD00FFF1F2A
:1013D0005D10FF1F000069405E10FF1F000EFF1F21
:1013E000E40FFF1F5F10FF1F00C072400000794034
:1013F0002DE9F041364F38885B285ADBDFF8CC8086
:10140000B8F800005B2854DBDFF8C40D01886029C0
:1014100004DBDFF8C01D0988052907DBDFF8B41DF0
:101420000988602945DB0088052842DADFF8A86DC5
:101430003888B8F80010401A01F084FE0022DFF866
:101440009C3D01F079FD04000D003888B8F80010CB
:1014500011FA80F001F076FE02000B002000290056
:1014600001F082FE01F03AFE3060DFF8744D5FF06B
:101470007E553068210002F0B5FADFF8B81D01F0A2
:10148000F5FB07003068DFF8B01D096801F0DEFCED
:10149000290002F0A7FA390001F0E8FB01F0F0FAA8
:1014A000DFF8981D08600120DFF8941D087000F037
:1014B0006DBEDFF8300D006801280BD0022800F067
:1014C000AD81042800F04D8300F0EEBC5410FF1FE6
:1014D0004E10FF1F0120DFF86C1D0860DFF8F84C8C
:1014E000206801F0A9FB02F079FA0B2822DA5FF0FC
:1014F0007E555FF080462068290002F073FADFF81D
:10150000341D01F0B3FB07002068DFF82C1D0968CB
:1015100001F09CFC310002F065FA390001F0A6FBF5
:1015200001F0AEFADFF8141D08600220DFF8101D8C
:10153000087071E1206801F07FFB02F04FFA152876
:1015400022DA5FF07E555FF080462068290002F0C5
:1015500049FADFF8E01C01F089FB07002068DFF89A
:10156000D81C096801F072FC310002F03BFA390026
:1015700001F07CFB01F084FADFF8C01C0860032056
:10158000DFF8BC1C087047E1206801F055FB02F051
:1015900025FA1F2822DA5FF07E55DFF8AC6C206850
:1015A000290002F01FFADFF88C1C01F05FFB070036
:1015B0002068DFF8841C096801F048FC310002F063
:1015C00011FA390001F052FB01F05AFADFF86C1CF5
:1015D00008600420DFF8681C08701DE1206801F035
:1015E0002BFB02F0FBF9292822DA5FF07E555FF031
:1015F00081462068290002F0F5F9DFF8381C01F077
:1016000035FB07002068DFF8301C096801F01EFC7C
:10161000310002F0E7F9390001F028FB01F030FA5F
:10162000DFF8181C08600520DFF8141C0870F3E0D0
:10163000206801F001FB02F0D1F9332822DA5FF0D3
:101640007E55DFF8086C2068290002F0CBF9DFF83E
:10165000E41B01F00BFB07002068DFF8DC1B0968C6
:1016600001F0F4FB310002F0BDF9390001F0FEFA9F
:1016700001F006FADFF8C41B08600620DFF8C01B83
:101680000870C9E0206801F0D7FA02F0A7F93D28F8
:1016900022DA5FF07E55DFF8B46B2068290002F093
:1016A000A1F9DFF8901B01F0E1FA07002068DFF8EC
:1016B000881B096801F0CAFB310002F093F9390078
:1016C00001F0D4FA01F0DCF9DFF8701B08600720A4
:1016D000DFF86C1B08709FE0206801F0ADFA02F0A3
:1016E0007DF9472822DA5FF07E55DFF8606B2068CD
:1016F000290002F077F9DFF83C1B01F0B7FA070088
:101700002068DFF8341B096801F0A0FB310002F00B
:1017100069F9390001F0AAFA01F0B2F9DFF81C1BEF
:1017200008600820DFF8181B087075E0206801F0D9
:1017300083FA02F053F9512822DA5FF07E55DFF880
:101740000C6B2068290002F04DF9DFF8E81A01F06F
:101750008DFA07002068DFF8E01A096801F076FBCF
:10176000310002F03FF9390001F080FA01F088F908
:10177000DFF8C81A08600920DFF8C41A08704BE0C7
:10178000206801F059FA02F029F95B2822DA5FF0AB
:101790007E55DFF8B86A2068290002F023F9DFF8E7
:1017A000941A01F063FA07002068DFF88C1A0968C0
:1017B00001F04CFB310002F015F9390001F056FA46
:1017C00001F05EF9DFF8741A08600A20DFF8701A79
:1017D000087021E05FF07E55DFF8706A206829000C
:1017E00002F000F9DFF84C1A01F040FA0700206817
:1017F000DFF8441A096801F029FB310002F0F2F821
:10180000390001F033FA01F03BF9DFF8301A0860D3
:101810000B20DFF82C1A087000F0B8BC0220DFF8AB
:10182000241A0860DFF8B049206801F005FA02F0D8
:10183000D5F80B2822DA5FF07E555FF080462068ED
:10184000290002F0CFF8DFF8EC1901F00FFA0700D9
:101850002068DFF8E419096801F0F8FA310002F0B5
:10186000C1F8390001F002FA01F00AF9DFF8CC19E9
:1018700008600220DFF8C819087071E1206801F0E3
:10188000DBF902F0ABF8152822DA5FF07E555FF045
:1018900080462068290002F0A5F8DFF8981901F0C9
:1018A000E5F907002068DFF89019096801F0CEFA21
:1018B000310002F097F8390001F0D8F901F0E0F8B2
:1018C000DFF8781908600320DFF87419087047E121
:1018D000206801F0B1F902F081F81F2822DA5FF0E8
:1018E0007E55DFF864692068290002F07BF8DFF894
:1018F000441901F0BBF907002068DFF83C190968BA
:1019000001F0A4FA310002F06DF8390001F0AEF9EF
:1019100001F0B6F8DFF8241908600420DFF8201978
:1019200008701DE1206801F087F902F057F82928B6
:1019300022DA5FF07E555FF081462068290002F0D0
:1019400051F8DFF8F01801F091F907002068DFF88E
:10195000E818096801F07AFA310002F043F839001A
:1019600001F084F901F08CF8DFF8D0180860052048
:10197000DFF8CC180870F3E0206801F05DF902F0A0
:101980002DF8332822DA5FF07E55DFF8C068206832
:10199000290002F027F8DFF89C1801F067F907002A
:1019A0002068DFF89418096801F050FA310002F05D
:1019B00019F8390001F05AF901F062F8DFF87C18E3
:1019C00008600620DFF878180870C9E0206801F088
:1019D00033F902F003F83D2822DA5FF07E55DFF894
:1019E0006C682068290001F0FDFFDFF8481801F05D
:1019F0003DF907002068DFF84018096801F026FA71
:101A0000310001F0EFFF390001F030F901F038F852
:101A1000DFF8281808600720DFF8241808709FE016
:101A2000206801F009F901F0D9FF472822DA5FF0B8
:101A30007E55DFF818682068290001F0D3FFDFF831
:101A4000F41701F013F907002068DFF8EC170968B4
:101A500001F0FCF9310001F0C5FF390001F006F991
:101A600001F00EF8DFF8D41708600820DFF8D0176F
:101A7000087075E0206801F0DFF801F0AFFF512831
:101A800022DA5FF07E55DFF8C4672068290001F094
:101A9000A9FFDFF8A01701F0E9F807002068DFF8D8
:101AA0009817096801F0D2F9310001F09BFF390065
:101AB00001F0DCF800F0E4FFDFF88017086009208F
:101AC000DFF87C1708704BE0206801F0B5F801F0F2
:101AD00085FF5B2822DA5FF07E55DFF870672068AB
:101AE000290001F07FFFDFF84C1701F0BFF8070075
:101AF0002068DFF84417096801F0A8F9310001F007
:101B000071FF390001F0B2F800F0BAFFDFF82C17CE
:101B100008600A20DFF82817087021E05FF07E5582
:101B2000DFF828672068290001F05CFFDFF8041760
:101B300001F09CF807002068DFF8FC16096801F046
:101B400085F9310001F04EFF390001F08FF800F007
:101B500097FFDFF8E81608600B20DFF8E41608703E
:101B600014E30320DFF8DC160860DFF86C46206819
:101B700001F062F801F032FF0B2822DA5FF07E55A7
:101B80005FF080462068290001F02CFFDFF8A416E2
:101B900001F06CF807002068DFF89C16096801F076
:101BA00055F9310001F01EFF390001F05FF800F037
:101BB00067FFDFF8881608600220DFF884160870D7
:101BC00071E1206801F038F801F008FF152822DAE9
:101BD0005FF07E555FF080462068290001F002FF2B
:101BE000DFF8501601F042F807002068DFF84816C9
:101BF000096801F02BF9310001F0F4FE390001F021
:101C000035F800F03DFFDFF8341608600320DFF8F8
:101C10003016087047E1206801F00EF801F0DEFE92
:101C20001F2822DA5FF07E55DFF81C662068290045
:101C300001F0D8FEDFF8FC1501F018F80700206865
:101C4000DFF8F415096801F001F9310001F0CAFE6E
:101C5000390001F00BF800F013FFDFF8E015086021
:101C60000420DFF8DC1508701DE1206800F0E4FFB7
:101C700001F0B4FE292822DA5FF07E555FF081463C
:101C80002068290001F0AEFEDFF8A81500F0EEFF95
:101C900007002068DFF8A015096801F0D7F83100C7
:101CA00001F0A0FE390000F0E1FF00F0E9FEDFF8EE
:101CB0008C1508600520DFF888150870F3E02068AF
:101CC00000F0BAFF01F08AFE332822DA5FF07E5579
:101CD000DFF878652068290001F084FEDFF85415EC
:101CE00000F0C4FF07002068DFF84C15096801F018
:101CF000ADF8310001F076FE390000F0B7FF00F0DA
:101D0000BFFEDFF8381508600620DFF834150870CC
:101D1000C9E0206800F090FF01F060FE3D2822DA63
:101D20005FF07E55DFF824652068290001F05AFE37
:101D3000DFF8001500F09AFF07002068DFF8F814BC
:101D4000096801F083F8310001F04CFE390000F021
:101D50008DFF00F095FEDFF8E41408600720DFF83F
:101D6000E01408709FE0206800F066FF01F036FE86
:101D7000472822DA5FF07E55DFF8D064206829001A
:101D800001F030FEDFF8AC1400F070FF07002068AF
:101D9000DFF8A414096801F059F8310001F022FEBF
:101DA000390000F063FF00F06BFEDFF8901408606C
:101DB0000820DFF88C14087075E0206800F03CFF04
:101DC00001F00CFE512822DA5FF07E55DFF87C64CA
:101DD0002068290001F006FEDFF8581400F046FFE5
:101DE00007002068DFF85014096801F02FF831006F
:101DF00001F0F8FD390000F039FF00F041FEDFF896
:101E00003C1408600920DFF8381408704BE02068A3
:101E100000F012FF01F0E2FD5B2822DA5FF07E5550
:101E2000DFF828642068290001F0DCFDDFF80414E5
:101E300000F01CFF07002068DFF8FC13096801F0C0
:101E400005F8310001F0CEFD390000F00FFF00F081
:101E500017FEDFF8E81308600A20DFF8E4130870C3
:101E600021E05FF07E55DFF8E4632068290001F08F
:101E7000B9FDDFF8C01300F0F9FE07002068DFF8B5
:101E8000B813096800F0E2FF310001F0ABFD390042
:101E900000F0ECFE00F0F4FDDFF8A01308600B206A
:101EA000DFF89C13087071E1CB4C206800F0C4FE91
:101EB00001F094FD0B2822DA5FF07E555FF080463A
:101EC0002068290001F08EFDDFF8681300F0CEFED7
:101ED00007002068DFF86013096800F0B7FF3100E1
:101EE00001F080FD390000F0C1FE00F0C9FDDFF80F
:101EF0004C1308600220DFF84813087046E12068A0
:101F000000F09AFE01F06AFD15281EDA5FF07E559A
:101F10005FF080462068290001F064FDC54900F0AB
:101F2000A5FE07002068C449096800F08FFF310052
:101F300001F058FD390000F099FE00F0A1FDBF4905
:101F400008600320BE49087020E1206800F074FE9C
:101F500001F044FD1F281DDA5FF07E55BA4E20685F
:101F6000290001F03FFDB34900F080FE0700206822
:101F7000B149096800F06AFF310001F033FD390012
:101F800000F074FE00F07CFDAC4908600420AC4910
:101F90000870FBE0206800F04FFE01F01FFD2928CB
:101FA0001EDA5FF07E555FF081462068290001F05F
:101FB00019FDA04900F05AFE070020689E490968F3
:101FC00000F044FF310001F00DFD390000F04EFE3D
:101FD00000F056FD99490860052099490870D5E040
:101FE000206800F029FE01F0F9FC33281DDA5FF0CB
:101FF0007E55974E2068290001F0F4FC8D4900F0D1
:1020000035FE070020688C49096800F01FFF310089
:1020100001F0E8FC390000F029FE00F031FD8749AD
:102020000860062086490870B0E0206800F004FED1
:1020300001F0D4FC3D281DDA5FF07E55844E206807
:10204000290001F0CFFC7B4900F010FE070020685A
:102050007949096800F0FAFE310001F0C3FC39004B
:1020600000F004FE00F00CFD74490860072074497C
:1020700008708BE0206800F0DFFD01F0AFFC47281E
:102080001DDA5FF07E55724E2068290001F0AAFC2F
:10209000684900F0EBFD070020686749096800F017
:1020A000D5FE310001F09EFC390000F0DFFD00F0AC
:1020B000E7FC6249086008206149087066E0206812
:1020C00000F0BAFD01F08AFC51281DDA5FF07E5560
:1020D0005F4E2068290001F085FC564900F0C6FDDE
:1020E000070020685449096800F0B0FE310001F093
:1020F00079FC390000F0BAFD00F0C2FC4F490860DD
:1021000009204F49087041E0206800F095FD01F07A
:1021100065FC5B281DDA5FF07E554D4E2068290076
:1021200001F060FC434900F0A1FD0700206842492E
:10213000096800F08BFE310001F054FC390000F01A
:1021400095FD00F09DFC3D4908600A203C4908705F
:102150001CE05FF07E553E4E2068290001F042FCF5
:10216000344900F083FD070020683349096800F016
:102170006DFE310001F036FC390000F077FD00F013
:102180007FFC2E4908600B202D490870124C2068F6
:1021900030490860284D2068296800F057FE2E4914
:1021A0000860206828602548016840F2EE329142BC
:1021B00003D240F2ED31016005E040F28B4102684C
:1021C0008A4200D30160006800B2BDE8F0810000DF
:1021D0005010FF1F5210FF1FB80FFF1F0000594083
:1021E00000004842000EFF1F80B5362000F000FDC1
:1021F000002802D1012019490860362000F0F8FCBF
:10220000012808D115480168012904D10021016085
:10221000012013490860362000F0EAFC002806D1AE
:102220000F480068012802D101200E49086001BD55
:102230000000000000408744BC0FFF1FC80FFF1FB5
:102240005C10FF1FCC0FFF1F000040400000B84192
:102250000000A041C00FFF1FC40FFF1FD80FFF1FBA
:10226000D40FFF1FD00FFF1F38B5040025006DB23B
:102270006D112800C0B2002802D001280DD019E04D
:10228000A148016851F000610160A048016831F087
:10229000900101600168016010E09D48016851F003
:1022A000006101609948016831F4104101600168E2
:1022B000016003E03321974801F010FC200040B298
:1022C000002800F08980012800F08680032800F0B3
:1022D000838008284ED0092851D00A2854D00B28D2
:1022E00057D00C285AD00D285DD00E2860D00F286A
:1022F00063D0102870D0112864D0122867D013281A
:102300006AD0142868D01A2866D01D2864D01E28E8
:1023100062D0202861D021285FD023285DD02428D6
:102320005CD025285FD0262862D0272865D02828B1
:1023300068D029286BD02A286ED02B2871D02C2861
:1023400074D02D2877D02E287AD02F287DD0302811
:1023500000F0858031287DD0322800F0808033283D
:102360007DD034287BD03A2879D03D2877D03E28BC
:1023700075D075E00021202001F044FC74E00021BC
:10238000212001F03FFC6FE00021072001F03AFC22
:102390006AE00021082001F035FC65E000212220E0
:1023A00001F030FC60E00021232001F02BFC5BE019
:1023B0000021402001F026FC56E00021412001F0E0
:1023C00021FC51E00021982001F01CFC4CE0002190
:1023D000992001F017FC47E046E045E0002180200D
:1023E00001F010FC40E00021812001F00BFC3BE0FB
:1023F0000021822001F006FC36E00021832001F05C
:1024000001FC31E00021202001F0FCFB2CE0002148
:10241000212001F0F7FB27E00021242001F0F2FB4E
:1024200022E00021252001F0EDFB1DE00021262007
:1024300001F0E8FB18E00021272001F0E3FB13E0A6
:1024400000212A2001F0DEFB0EE000212B2001F00C
:10245000D9FB09E00021112001F0D4FB04E003E0E6
:102460009A212C4801F03AFB31BDF8B504000D006B
:10247000260076B276110027290049B2200040B22A
:1024800000F01BF82449300040B251F820000068E9
:102490000006F7D5300040B251F820000069320044
:1024A00052B251F82220126832F0800233005BB23F
:1024B00051F823100A6080B2F2BD70B4020052B22B
:1024C000521110F01F03144C0D006DB2AD0015F049
:1024D0000C0555F05005160076B254F82660B5602C
:1024E0000425160076B254F82660F5601D00EDB2A2
:1024F00015F01F0555F04005160076B254F8264039
:10250000256070BC704700003C8004401880044087
:1025100030800440B47D00001004FF1F0CB430B5BF
:1025200083B00A4606A9029104460025019400954D
:1025300002AB01A9084878441E3001F0B5FB019AAE
:10254000157000284EBF04460198041B204603B0B6
:1025500030BC5DF80CFB00BF0B07000010B4082274
:102560000121DFF89C33196000BFDFF898330021A8
:10257000196000BF11004A1EC9B2002911D001061E
:1025800004D50121DFF88043216003E00021DFF85A
:10259000784321600121196000BF002119604000CB
:1025A000E8E710BC7047000010B408220021DFF8F3
:1025B00050331960DFF84C330021196011004A1EB6
:1025C000C9B2002911D0010604D50121DFF8384332
:1025D000216003E00021DFF8304321600121196010
:1025E00000BF002119604000E8E710BC704738B513
:1025F00004000D00B5F15000C0B2FFF7D5FF200078
:10260000C0B2000950F01000C0B2FFF7CDFF14F0C7
:102610000F00FFF7C9FF31BD70B504000025280089
:10262000C0B2082818DAB5F15000C0B2FFF7BCFFFD
:102630000120FFF7B9FF1020FFF7B6FF00200600CA
:102640003000C0B2802805DA2000C0B2FFF786FF54
:10265000761CF5E76D1CE2E770BD010089B2002928
:1026600009D043F226410A0011004A1E89B200290E
:10267000FAD1401EF1E7704710B5012201210D206B
:1026800000F03EFA012201210E2000F039FA012269
:1026900001210F2000F034FA01220121102000F066
:1026A0002FFADFF86842002020603220FFF7D5FFC4
:1026B00001202060AE20FFF777FF0020FFF774FFB6
:1026C0001020FFF771FF4020FFF76EFF8120FFF71A
:1026D0006BFFCF20FFF768FFA020FFF765FFC0204A
:1026E000FFF762FFA620FFF75FFFA820FFF75CFF60
:1026F0003F20FFF759FFD320FFF756FF0020FFF7D9
:1027000053FFD520FFF750FF8020FFF74DFFD92062
:10271000FFF74AFFF120FFF747FFDA20FFF744FFFA
:102720001220FFF741FFDB20FFF73EFF4020FFF7BD
:102730003BFF2020FFF738FF0220FFF735FF8D20F9
:10274000FFF732FF1420FFF72FFFA420FFF72CFF25
:10275000A620FFF729FFAF20FFF726FF0020FFF795
:102760005BFF00210020FFF742FF10BD2DE9F84F6D
:1027700004000D0016005FF000085FF000095FF034
:10278000000A5046C0B2305C002800F0B7805046C6
:10279000C0B23044407800286FD15046C0B2305C9F
:1027A000203880462000C0B2792802DB00200400D7
:1027B0006D1C2900C9B22000C0B2FFF718FF5FF0FE
:1027C000000B5846C0B208280CDADFF84401414635
:1027D000C9B2090151FA8BF1405CFFF7BFFE1BF152
:1027E000010BEEE7691CC9B22000C0B2FFF7FFFE83
:1027F0005FF000094846C0B208280DDADFF8100182
:102800004146C9B2090151FA89F10844007AFFF73B
:10281000A5FE19F10109EDE7002007003800C0B25C
:102820005146C9B2D1F10701884264DA083429005F
:10283000C9B22000C0B2FFF7DAFE5FF0000B5846C5
:10284000C0B2082805DA0020FFF788FE1BF1010B53
:10285000F5E7691CC9B22000C0B2FFF7C8FE5FF0FF
:1028600000094846C0B2082805DA0020FFF776FEC6
:1028700019F10109F5E77F1CD0E75046C0B2305C82
:10288000203880462000C0B2792802DB00200400F6
:102890006D1C2900C9B22000C0B2FFF7A8FE5FF08E
:1028A000000B5846C0B208280BDA19484146C9B295
:1028B000090151FA8BF1405CFFF750FE1BF1010B4F
:1028C000EFE7691CC9B22000C0B2FFF790FE5FF0CD
:1028D00000094846C0B208280CDA0D484146C9B282
:1028E000090151FA89F10844007AFFF737FE19F11E
:1028F0000109EEE708341AF1010A42E7BDE8F18F59
:102900003C00FE433800FE433400FE434000FE43DB
:10291000706A000000280AD0B0FA80F18840D1F136
:102920009D01C905020672F1004241EB102070477B
:102930004FF0807C1CEB400F94BF1CEB410F05E077
:1029400040EA010C1CEB0C0F01D28842704718BF03
:102950008142704738B505000C00002C03D12421BA
:10296000434801F0BBF84348016851F4000101609D
:102970000020414908604148611E2A0052B21201FC
:102980008150290049B209010144C96851F001018F
:102990002A0052B212010244D160290049B2090151
:1029A00001448968490849002A0052B212010244D0
:1029B000916003212A0052B212011044816031BD9E
:1029C00038B505000C00002C03D14721284801F040
:1029D00085F82848016851F4000101602648016823
:1029E0008908890001602548290049B2090101448C
:1029F0008968490849002A0052B2120102449160D4
:102A0000611E2A0052B212018150290049B2090107
:102A10000144C96851F001012A0052B21201024476
:102A2000D160290049B20901014489684908490077
:102A30002A0052B212010244916001212A0052B2CE
:102A4000120102449160290049B209010144C96898
:102A5000C907F8D5290049B209010144C96851F0F4
:102A600001012A0052B212011044C16031BD0000C0
:102A7000147F00003C80044000700340007103405C
:102A800000180CD2010E7F3909D4D1F11F015DBFAE
:102A9000C00140F00040C8406FF0000070470020C7
:102AA000704730B4002513E050F8042BD30744BF1F
:102AB000A9F101039A18091F042942F8045BFAD20C
:102AC00013468C0744BF15809B1CC90748BF1D7067
:102AD00050F8041B0029E7D130BC7047C2175040A2
:102AE000801AB0FA80F10AD08840D1F19D01D20756
:102AF00042EAC151020672F1004241EB10207047D8
:102B0000F8B504000D0016004FF480712000C0B22B
:102B100001F078F8280040B2002812D14448210082
:102B2000C9B2491150F821102200D2B2521150F806
:102B300022004269012314F01F0083409A434A6136
:102B400038E001213A4A2000C0B2401152F820007A
:102B50002300DBB25B1152F823305B6914F01F07CE
:102B600011FA07F73B4343613000C0B2002811D18E
:102B70002000C0B2401152F82000036814F01F007A
:102B8000814033EA01012000C0B2401152F8200018
:102B900001600FE02000C0B2401152F8200003682D
:102BA00014F01F00814019432000C0B2401152F8B8
:102BB00020000160F1BD38B504001D4D2000C0B2F9
:102BC000401155F82000406914F01F01C840C007AB
:102BD00003D47B21174800F081FF2000C0B24011D0
:102BE00055F82010012214F01F008240CA6031BD48
:102BF00038B504000E4D2000C0B2401155F8200039
:102C0000406914F01F01C840C00703D58C21094852
:102C100000F064FF2000C0B2401155F820000069A8
:102C200014F01F04E04010F0010032BD000000006D
:102C3000300BFF1FBC7E0000C0F3C7517E390EDD94
:102C4000C217D1F1200106DD000240F00040C8406B
:102C5000104450407047D04380F00040704700203F
:102C600070470268531C03601170704790EA010FAF
:102C700040F1F28081F00041431A4FF000423EBF24
:102C80005340C01AC91800BFD3095FEAD05C13EBE8
:102C9000400F34BFB3EB410F40E07CEBD1530CD37A
:102CA00042EA012122D8D1EB402009D3400A28BFB3
:102CB0005FEA500140EBCC507047401A15D04002FB
:102CC000B0FA80F2521C9040400A4FEA3C23B3EB2A
:102CD000026384BF00EB730007E040F400001A16A3
:102CE000DB07C2F10102D04018437047182BFCDC0F
:102CF00031FA03F202FA03F3591A38BF42F0010223
:102D0000D2EB40203CBF4000ACF1010C5FEACC5C50
:102D1000C20572F100414CEB5020704713EB400F9D
:102D20000FD2C94209D0ACEBD153022B03DB4902CD
:102D3000172BDDDD70479143401AC042D5D10020EA
:102D4000704713EB410FD0D36FF0000070470000C5
:102D500010B5FF2313EAD0541DBF13EAD1529C4291
:102D60009A4239E0A41ADA0780EA0103134042EAE2
:102D7000012142EA0020421A3CBF641E01EB4202DC
:102D8000090AB2FBF1FE01FB1E221202B2FBF1F0B6
:102D900001FB10226EF30F201202B2FBF1FE4EEA8D
:102DA00000207F3406DDFE2C24DA53EA500050EB7D
:102DB000C45010BDD4F1020401FB1E2240F080710A
:102DC000192C1DDC21FA04F0C4F12004A1401143A8
:102DD00071F10042584110BD9C421ABF03EAD15222
:102DE0009A420FE080EA010E0EF00043400004D04A
:102DF000490016D143F0FF4010BD490008BFD3433E
:102E0000180010BD9C4205D1D21AF7D001F0004144
:102E1000484010BD4A0212BF0846484000F000403A
:102E200010BD4AB90902B1FA81F2914044B1A41827
:102E3000C00140F000409EE7C90141F0004152420C
:102E40000002B0FA80F4A040141B94E790EA010F4E
:102E50007FF512AF81F00041421A3CBF801A8918F9
:102E60004FF0004CC0F3C752FF2A24D0C1F3C75320
:102E700013B3D21AD2F1190327DD4CEA01214CFA1F
:102E800003F321EA0303D140C20D4CEA00204018AD
:102E900034BF20EA0C004CEA5000D20553EA00632C
:102EA00073EB0C0C52EB1020420012F1807F38BF04
:102EB0007047C00DC0057047490212BF9A4200EB2F
:102EC0005120F8E7D2F11703D9D570474FF0807C35
:102ED0001CEB400F94BF1CEB410F05E040EA010CD6
:102EE0001CEB0C0F01D28142704718BF884270471B
:102EF000C0F3C75181B1FF2906D0C110400721F0AE
:102F0000E04101F16051704741020CBF40F4E00123
:102F10006FF000410020704700F0004100020AD02D
:102F2000B0FA80FC00FA0CF001F16051A1EB0C51F9
:102F300001EBD02140057047B0B581EA030C0CF0DD
:102F4000004C40F2FF7515EA11541DBF15EA1357E6
:102F5000AC42AF4239E0E41923EA455343F480130D
:102F6000C90241F0004141EA505EC7021100A7FBCF
:102F7000020200284FF00000EEFB01204FF000019C
:102F8000E3FB072118BF42F001024018002149412C
:102F9000E3FB0E01A4F580640F0302D2520040410E
:102FA000494154F101046CDD470872F1004250F1CF
:102FB000000051EB0451A1F580115CBF41EA0C0106
:102FC000B0BD4CEA05510020B0BD05EA1357AC4234
:102FD00014BFAF4241E050EA410E1CBF52EA430E1B
:102FE00002E061460020B0BD24423C441BD15FEAB0
:102FF000070EF6D0090302BF01460020AEF1140E01
:10300000B1FA81F7AEEB070401FA07FE0C37C7F1FE
:10301000200100FA07F7C8404EEA000E23EA4553A4
:1030200043F48013A2E733F00043B3FA83F704BFFD
:10303000B2FA82FE77440B3FE41BB7F1200E2FBF9C
:1030400002FA0EF3BB40C7F1200E22FA0EFE38BF83
:1030500043EA0E03BA40641C82E750EA410E14BFF3
:1030600052EA430E6FF000014FF4001717EB430FC5
:103070008ABF194617EB410FB5E74CEA055100200E
:10308000B0BDD4F10104B4F120070FDAC4F1200778
:10309000520828BF42F0010210FA07F501FA07F7BB
:1030A000E1BF2A43E0403843E1400FE0352C98DC93
:1030B000C7F1200452EA400220FA07F218BF42F09A
:1030C000010231FA07F0A1400A43002172F10042E7
:1030D00050F1000051EB0C01B0BD000001F00042C6
:1030E0008B1AA3F16051B1F5801F0ADBB1F17F6F3C
:1030F0001FD242EAC102C10071F1004142EB50709F
:1031000070470B15C3F10903212B10D2890241EA44
:10311000905180020128494141F0004121FA03F019
:10312000C3F12003994071F10041504170471000F4
:1031300070476FF0000013EB103F5CBF000E42EAD7
:10314000C0507047C11768B14840401AB0FA80F2C9
:103150009040D21CC907C2F5846241EA025202EBD8
:10316000D021400570470000F0B540F2FF7581EABC
:10317000030C0CF0004C15EA11541DBF15EA13574F
:10318000AC42AF42E5E0BC41C1F31301C3F313030A
:10319000801A994143F4801304D2641E40004941CF
:1031A00080185941C90241EA5051B1FBF3F603FBC3
:1031B0001611A2FB0675D7EBC020A94102D2761EDC
:1031C00080185941C90241EA5051B1FBF3FE03FB9B
:1031D0001E11A2FB0E75D7EBC020A94103D2AEF1A0
:1031E000010E80185941890241EA9051760546EA5C
:1031F0008E2EB1FBF3F603FB1611A2FB0675D7EB7F
:103200008020A94102D2761E80185941C90241EAA4
:1032100050514EEA060EB1FBF3F603FB1611A2FB6A
:103220000675D7EBC020A94102D2761E80185941FD
:10323000C90241EA5051B1FBF3F703FB1711A2FB9E
:103240000735D3EBC020A94167F100070CBF00424E
:1032500047F0010766F3D5274FEA1E31B80814F589
:10326000806412DDBD0775F1004250EB0E5051EB4A
:10327000045111F5801F5CBF41EA0C01F0BD4CF018
:103280007F6141F0E0410020F0BDBD076D0840EADC
:103290000E5041F48011D4F10104B4F120060ADA91
:1032A000C4F120060200E04001FA06F3E1401843B1
:1032B000B24015430EE0342C13DCC6F1200445EA7D
:1032C00040056D0820FA06F2154321FA06F0A140E8
:1032D0000D43002175F1004250F1000051EB0C014B
:1032E000F0BD00205FEA0C01F0BDCFB992185B4140
:1032F000B3FA83F704BFB2FA82F6BF190B3FB7F1F6
:1033000020062FBF02FA06F3BB40C7F1200622FABF
:1033100006F638BF3343BA401CB1E419641E33E7E4
:103320007F4231F00041B1FA81F404BFB0FA80F677
:10333000A4190B3CB4F120062FBF00FA06F1A140FE
:10334000C4F1200620FA06F638BF3143A0403C1BEA
:103350001AE7AC421ABF05EA1357AF4212E050EA2F
:1033600041061CBF52EA4306BFE750EA4107304618
:1033700061461CBF41EA0551F0BD52EA430C08BF4B
:10338000C143F0BD00204FF4001616EB410F98BF6B
:1033900016EB430F08BF16EB410F24BFC14305E0F6
:1033A00016EB430F0CBF61464CEA0551F0BD00001F
:1033B00038B504000D00200040B2002806D00228D5
:1033C00067D04BD3032800F07F80C6E0DFF8F80514
:1033D000016851F080710160280040B200280BD0D4
:1033E000022815D00ED304281ED017D3062827D0C4
:1033F00020D307282AD02FE04FF48061412000F02D
:1034000001FC2AE04FF48061422000F0FBFB24E045
:103410004FF48061432000F0F5FB1EE04FF4407153
:10342000062000F0EFFB18E04FF44071072000F099
:10343000E9FB12E04FF48061652000F0E3FB0CE053
:103440004FF48061662000F0DDFB06E04FF4806100
:10345000672000F0D7FB00E07FE07EE0DFF8680542
:10346000016851F000710160280040B2002802D0CC
:10347000012806D00BE04FF44071202000F0C2FB81
:1034800006E04FF44071212000F0BCFB00E064E056
:1034900063E0DFF83805016851F0807101602800B1
:1034A00040B2002802D0012806D00BE04FF4407152
:1034B000322000F0A7FB06E04FF44071332000F00B
:1034C000A1FB00E049E048E0DFF80005016851F0A9
:1034D00000710160280040B200280BD0022816D0ED
:1034E0000ED304281FD018D3062828D021D30728AC
:1034F0002BD030E04FF4C061852000F083FB2BE03F
:103500004FF48271DFF8C80400F0E8FA24E04FF4C9
:10351000C061872000F076FB1EE04FF4C061882078
:1035200000F070FB18E04FF4C061892000F06AFBE6
:1035300012E04FF4C0618A2000F064FB0CE04FF40D
:10354000C0618B2000F05EFB06E04FF4C0618C2070
:1035500000F058FB00E000E0FFE731BD2DE9F84F37
:1035600004000D0016001F00200040B2002815D0F6
:10357000200040B2032811D0200040B201280DD015
:10358000200040B2022803D1280040B2022805DB07
:1035900040F27B11DFF8380400F0A0FA290049B2AC
:1035A000200040B2FFF704FFDFF82804D0F80090B5
:1035B0004FF47A7000FB09F94846000CB0FBF6FAAC
:1035C0005FF0000B504680B250FA0BF0012802DB8E
:1035D0001BF1010BF6E75846C0B2082805DB4FF493
:1035E000CB71DFF8EC0300F079FA484630FA0BF0C3
:1035F000B0FBF6F0210049B2002903D0022917D010
:103600000BD320E0010089B2491C01FB07F142F213
:103610001072B1FBF2F1884615E0010089B2491C35
:1036200001FB07F142F21072B1FBF2F188460AE0A9
:10363000010089B2491C01FB07F142F21072B1FB93
:10364000F2F18846FFE7DFF89013220052B251F8FA
:1036500022202B005BB202EBC30223005BB251F8C5
:103660002330AC464FFA8CFC03EBCC03DB6833F021
:103670000403D360220052B251F822202B005BB227
:1036800002EBC3022823D3605A46D2B212F00702DB
:1036900052F0080223005BB251F823301A60020096
:1036A00092B223005BB251F823309A6000222300CB
:1036B0005BB251F82330DA64220052B251F8222072
:1036C0002B005BB202EBC30243469BB213610022A4
:1036D00023005BB251F823104A60BDE8F18F2DE959
:1036E000F04180460D0016000024404640B20328F9
:1036F00015D0404640B2002811D0404640B20128C3
:1037000003D0404640B2022803D1280040B202282C
:1037100005DB4FF4EA71DFF8B80200F0DFF940464C
:1037200040B2002805D0022819D00DD3032821D09B
:103730002BE042F21170864205D340F2D911DFF836
:10374000900200F0CBF920E042F21170864205D3DE
:1037500040F2DD11DFF8780200F0C0F915E042F226
:103760001170864205D340F2E111DFF8640200F0E7
:10377000B5F90AE042F21170864205D34FF4F271B6
:10378000DFF84C0200F0AAF9FFE7DFF84C024146EF
:1037900049B250F8211089680C00002CF5D0414640
:1037A00049B2002905D0022915D00BD303291BD01B
:1037B00023E0611C01FB06F142F21072B1FBF2F151
:1037C0000F001AE0611C01FB06F142F21072B1FB1E
:1037D000F2F10F0011E0611C01FB06F142F21072E0
:1037E000B1FBF2F10F0008E0611C01FB06F142F2AF
:1037F0001072B1FBF2F10F00FFE7414649B250F8F9
:103800002100290049B200EBC1000761BDE8F08149
:10381000F8B504000D0016001F00200040B200287B
:1038200010D0200040B2012803D0200040B202286E
:1038300003D1280040B2022804DB40F24D21644845
:1038400000F04CF9290049B2200040B2FFF7B0FD6A
:10385000300040B2002803D0022855D02AD37CE0A3
:103860005D48210049B250F821102A0052B201EB04
:10387000C201220052B250F822202B005BB202EBB0
:10388000C302D26852F04402CA60210049B250F823
:1038900021102A0052B201EBC201220052B250F8AC
:1038A00022002A0052B200EBC200C06830F038009B
:1038B000C86052E04848210049B250F821102A005F
:1038C00052B201EBC201220052B250F822202B006A
:1038D0005BB202EBC302D26852F04802CA60210018
:1038E00049B250F821102A0052B201EBC201220065
:1038F00052B250F822002A0052B200EBC200C06857
:1039000030F03400C86028E03348210049B250F854
:1039100021102A0052B201EBC201220052B250F82B
:1039200022202B005BB202EBC302D26852F04C02A1
:10393000CA60210049B250F821102A0052B201EBAE
:10394000C201220052B250F822002A0052B200EB0B
:10395000C200C06830F03000C8601F48390049B26A
:1039600011F0070151F00801220052B250F8222054
:103970001160210049B250F82110496D51F0040145
:10398000220052B250F8222051650021220052B28A
:1039900050F822205166210049B250F82110496D9B
:1039A00049084900220052B250F8222051650021F6
:1039B000220052B250F82220D1640021220052B2DB
:1039C00050F822000165F1BD3C8004403080044085
:1039D000647E0000E40FFF1F200BFF1F002848BF7C
:1039E00040427047FF2212EAD05C1DBF12EAD15359
:1039F000944593422BE09C44D30780EA01021A408D
:103A000043EA002043EA0121A1FB0030C04238BF55
:103A100040007CF17F010BDBFE294ADA5B0842EAB9
:103A2000C15153EA006373F1004C51EB1020704711
:103A3000D1F1080CDCF120012FDB5B0810FA01F159
:103A40000B4320FA0CF073F100415041704794454C
:103A50001CBF02EAD153934280EA010202F0004205
:103A60001DD0400019D0490017D05BB9634514D070
:103A70000902B1FA81F39940BCEB030CC00140F09C
:103A80000040C1E70002B0FA80FC10FA0CF0B3EB82
:103A90000C0CC90141F00041B6E71000704740002E
:103AA0000AD0490008D010F1807F94BF11F1807FC7
:103AB00002E042F0FF407047D0437047DFF800F06B
:103AC000690CFF1FBFF34F8F46490A6812F4E0628A
:103AD000454802430A60BFF34F8FFEE738B5040044
:103AE0000D00002000F0ECFE2A0021003F4800F00D
:103AF00027FF002000F004FF4FF47A7000F04DFF24
:103B0000F2E738B504000D00210049B2042001F0AD
:103B100055F8200032BD10B50024042001F068F8EB
:103B2000042001F09FF8002842D1002000F0C8FED8
:103B3000042001F097F8012801D1012004000020A1
:103B400000F0DEFE2A4800F0FBFE4FF4FA7000F0B1
:103B500024FF2000C0B20128EAD1042001F082F83D
:103B60000028E5D1042001F07DF8002806D10020CE
:103B700000F0C6FE642000F010FFF3E7042001F01F
:103B800071F8012806D1002000F0BAFE322000F0C2
:103B900004FFF3E7174800F0D3FEFFF78FFF642020
:103BA00000F0FBFE0020FCF737FCFFF78BFFBFE7C0
:103BB00010BD10B510480468012000F081FE0120FE
:103BC00000F09EFE0D492200D2B20F2042430A446B
:103BD0002100C9B20A4800F0B3FE4FF47A7000F039
:103BE000DCFEECE70CED00E00400FA057C80000050
:103BF00038810000B080000004ED00E01804FF1FD1
:103C00001880000030B4264B1C684FF40075020089
:103C1000D2B2520995402C431C60224B0200D2B212
:103C2000521153F82240012510F01F029540C4F8AC
:103C3000A0500200D2B2521153F822200300DBB28E
:103C400013F01F0342F8231030BC704730B4144BFC
:103C50001C684FF400750200D2B2520995402C4303
:103C60001C6031F4E0610F4A0300DBB25B1152F8D3
:103C700023300400E4B214F01F0453F8243013F48A
:103C8000E06319430300DBB25B1152F82320030009
:103C9000DBB213F01F0342F8231030BC7047000062
:103CA000388004408C0BFF1F2DE9F0439FB00FF6C6
:103CB000A836269CDFF804898DF83B400291002449
:103CC0000B944FF0FF37044691461D460AE019F861
:103CD000011B0298A0470028029000F0A1800B98D9
:103CE000401C0B9099F8000050B12528EFD100211D
:103CF0000022059106920791089209910A9203E029
:103D00000B98A0E041F0010119F8010F2028F9D02B
:103D100023280CD02B2804D02D2805D0302809D0FA
:103D200080E041F00201EFE741F00401ECE741F0EF
:103D30000801E9E741F01001E6E70D920AE00D986D
:103D4000404505DA00EB800002EB4002303A0D926C
:103D500009F1010999F80020A2F130000A28EED3F8
:103D600099F800002E2818BF0C9726D119F8010FDA
:103D70002A2808D12868286009F1010950F8042B85
:103D800028600C9219E02D280CBF09F101090020D0
:103D900000220C920BE040B90C9A424505DA02EB86
:103DA000820203EB4203303B0C9309F1010999F8BD
:103DB0000030A3F130020A2AEDD3ADF838103046B6
:103DC00099F8001000F066FF08B119F8010B8DF8A2
:103DD0003A009DF83A00682805D199F80000682853
:103DE0000CD1622106E06C2804BF99F800006C2811
:103DF00004D171218DF83A1009F1010910A804903D
:103E00002A4619F8013B6946204600F05CF838B9AB
:103E100010AA6946204600F086F900287FF562AFB7
:103E2000384610E02A2888D12A682A6052F8040B04
:103E30002A6000280D9003D540420D9041F0040106
:103E400009F101098CE71FB0BDE8F083622820D09A
:103E5000682811D06A2803D06C2827D0712825D172
:103E60000868C01D20F007000860D0E90023083072
:103E70000860194610467047002A0A680A601068F0
:103E800003D0121D0A6000B217E0121D0A6080B252
:103E900017E0002A0A680A60106803D0121D0A6041
:103EA00040B20AE0121D0A60C0B20AE0002A0A68A5
:103EB0000A60106803D0121D0A60C1177047121DF6
:103EC0000A600021704770B51C460D46B4F125000C
:103ED0002E69114600F015812038022863D9133865
:103EE00040D00B3816D0401E1ED0401E02285AD992
:103EF000001F19D0401F00F08180401E32D0401EAC
:103F000000F0CB80C01E00F0DA80801E2AD0C01ED8
:103F100028D0FCE06869421C6A610A680A6052F8AD
:103F2000043B0A603354FCE095F83A000122FFF7A5
:103F30008DFFC5E90001002904D56869411C69614C
:103F40002D220DE0288F810704D56869411C696125
:103F50002B2205E0C00721D56869411C6961202238
:103F600032541BE095F83A000022FFF76FFFC5E9D5
:103F7000000195F83800010710D5D5E90023002B82
:103F800008BF002A0AD044F02000782806D16869CA
:103F900030213154401C421C6A6134542146686906
:103FA0003044E86087E00868C01D20F00700086022
:103FB000D0E9002308300860C5E90023D5E90001F5
:103FC000C80F04D06869411C69612D220DE0288F5B
:103FD000810704D56869411C69612B2205E0C0078F
:103FE00004D56869411C69612022325468693044F3
:103FF000E8602146284600F0C4F992E005F13A0253
:10400000507820B14FF0FF340FF6540062E0107882
:10401000622808D0682824D06A2812D06C282ED0B4
:1040200071280ED02BE00A680A6052F8040B0A606F
:1040300020B94FF0FF340FF640004BE0E96A017001
:104040006FE00A680A6052F8040B0A6020B94FF06A
:10405000FF340FF624003DE0EA6AD317C0E90023DD
:104060005FE00A680A6052F8040B0A6020B94FF05A
:10407000FF340FF604002DE0E96A018051E00A6880
:104080000A6052F8040B0A6020B94FF0FF340FF2B7
:10409000E8701FE0E96A016043E00A680A6052F8CC
:1040A000040B0A60002120F0000221F0FF33C5E973
:1040B0000023EE607821284600F0BBF831E0086864
:1040C000086050F8044B0860EC603CB94FF0FF34D6
:1040D0000FF2BC7000F0EAFD201A70BD2E6B002EAE
:1040E00004D5204600F002FE044608E032460021D6
:1040F000204600F017FE002814BF041B3446AC61B4
:104100000FE06869411C69612522325409E0696940
:10411000481C686125227254210002D0431C6B6147
:104120003454002070BD2DE9FC410F4606469046F0
:104130007A6B7869396ABC6A121AB869521A796A54
:10414000121AF869521A121A97F83800141B41070C
:104150000FD42020002C8DF800000ADD2546012315
:104160006A463946304600F05FFB00285DD16D1E7F
:10417000F5D17B6942463946304600F055FB0028B0
:1041800053D130208DF800003D6A002D09DD012358
:104190006A463946304600F047FB002845D16D1E7F
:1041A000F5D1BB69FA683946304600F03DFB00287E
:1041B0003BD130208DF800007D6A002D08DD012301
:1041C0006A463946304600F02FFB70BB6D1EF6D1B3
:1041D000F868B969FB6942183946304600F024FB9B
:1041E00018BB30208DF80000BD6A002D08DD0123CA
:1041F0006A463946304600F017FBB0B96D1EF6D15D
:1042000097F8380041070DD52020002C8DF80000CC
:1042100008DD01236A463946304600F005FB20B927
:10422000641EF6D10020BDE8F6814FF0FF30BDE8F6
:10423000F6812DE9FC4307466F293E6908BF082433
:1042400005D041F02000782814BF0A2410243C2512
:10425000D7E90023642918BF69299046994605D1FA
:10426000002B03D5D8F1000869EB4909B9F1000F1B
:1042700008BFB8F1000F1FD1386BE8B9082C4CD13A
:1042800097F83800010748D530203B2586F83B00D9
:1042900043E000280ED597F8380000F014001028ED
:1042A00008D17B6B7969386A5B1A1B1A9A1A002A43
:1042B000C8BF3A62BDE8F3838DF800104046494616
:1042C0002246E31700F05AFD3032D0B26D1E3A2874
:1042D000019504DB9DF80000A0F151018A18725588
:1042E000404649462246E31700F048FD80465FEA13
:1042F000010908BFB8F1000F03D0F86871198842AE
:10430000DCD3082C09D197F83800010705D5705D7A
:10431000302802D06D1E30207055C5F13C02BA61C4
:104320007119F960386B8242B3DA821A3A624FF639
:10433000EF70398F01403987BDE8F3832DE9D04311
:1043400006460F4614464FF00008DFF8749212E05C
:10435000E00707D542464B4630463946FEF7ECFDAE
:1043600006460F464046494642464B46FEF7E4FDA8
:10437000641080468946002CEAD130463946BDE8B3
:10438000D0832DE9F047064689468EB0D6E9000174
:10439000CDE9020104AC306B002802D50620306361
:1043A00005E001BF49F02000672801213163D6E90B
:1043B000002358004015401C0DD119030BD0A9F162
:1043C000610103201A29B06102D20FF2E04110E02E
:1043D0000FF2DC410DE059004915491C0ED11803BC
:1043E0000CD1A9F1610103201A29B06116D30FF293
:1043F000C841F068032200F0D9FDDBE023F000475C
:10440000B7F5801F1046194622F000050DD2002294
:10441000002F08BF002D019203D116E00FF2944146
:10442000E7E701AA00F016FE08E06648664900EBDF
:10443000175001906548034010461943019B644D95
:1044400047F29752534393FBF5F2C6E9000120F07F
:10445000000331F0004104BF002B002300F0A280D4
:10446000DDE90240019220F00045D2F1070204DDAF
:1044700020462946FFF762FF0AE0524200205549D4
:10448000FFF75CFF02460B4620462946FEF76CFE0E
:10449000044649F0200ABAF1660F306B06BF019D51
:1044A0000A3506252D18142DC8BF1425302088463E
:1044B0008DF810000DF11107002D33DD2046414627
:1044C00000F000FE01460A4607F1080304200A270F
:1044D000B2FBF7F707EB870EA2EB4E02303203F880
:1044E000012C0A22B7FBF2F202EB820EA7EB4E0779
:1044F0003037401E03F8027DE9D1083D002D03F15D
:104500000807D9DD084600F0F1FD02460B462046BB
:10451000414600F0F9FD00222F4BFEF70DFD044649
:104520008846CBE70DF111003F1A0DF1110404E0AC
:104530000198401E7F1E0190641C20783028F7D01F
:10454000BAF1660F02D10198401C04E0BAF1650F80
:104550000CBF01200020336BC3189F42B8BF7B1EE5
:10456000002B1ED4BB4204DAE05C3528A8BF3920FA
:1045700000DA30201946621E02EB010800E05B1EE3
:1045800018F80179491E8742F9D0392802D1605CB8
:10459000401C6054002904D50198401C14465B1C43
:1045A0000190019800B200901BB222464946304665
:1045B00000F014F80EB0BDE8F0870000CBCCCC0CB6
:1045C0000000244002FCFFFF0000E03FFFFF0F80DF
:1045D000A08601000000F03F84D797412DE9F847FD
:1045E00083B005468A469146984600F0FFFDB8F133
:1045F000000F406A2F6B067803DC4FF001080FF2C2
:10460000BC294AF02000BDF93040662808BF641C70
:1046100013D0672840F08F8014F1040F7ADBBC427E
:1046200078DA95F83800641C010702D4B845B8BFA1
:10463000474620B23F1A48BF00270FFA84FAE868BD
:10464000A969BAF1000F23DC4A1C30234354002F20
:1046500003DC95F83800010702D5E8688654521C3F
:1046600017EB0A0FB8BF7C4224B2E71960424745F6
:10467000B8BFB846AA6168620FFA88F4EC61E868CE
:10468000AB6922464946184400F090FC3F1B18E0F5
:1046900022B29045084416DA4246494600F086FCAC
:1046A000A8694044A861AAEB0801002F696203DCF5
:1046B00095F838100A0704D5E9680E54E869401CDB
:1046C000E861AF6299E0494600F070FCA869002FEC
:1046D0005044A8EB040803DC95F838100A0702D50B
:1046E000E9680E54401CA8610FFA88F08742EB6815
:1046F000A869B8BFB8460FFA88F209EB0A01184456
:1047000000F054FCA9690FFA88F00144A961381A35
:10471000686272E0B84504DA95F838100A0758BFA5
:1047200047467F1E48BF0027BAF1670F0CBF4FF006
:10473000650A4FF0450AA969EB68481CA861002F7B
:1047400019F8012B5A5403DC95F838100A0719D5CB
:10475000E968431CAB610E54002F13DDA8F101067C
:1047600030B28742D5F80CC0B8BF3E4632B2494697
:104770000CEB030000F01AFCA86936B23018BF1B1E
:10478000A8616F62E868A9690844002C80F800A05D
:1047900003D42B224270811C03E02D21417064421E
:1047A000811C00206A460AE023460A2493FBF4F4A5
:1047B00004EB8406A3EB460302F8013B401C24B241
:1047C000002CF1DC012806DC4AF02002652A04BF37
:1047D000302201F8012B48B9302001F8010B07E025
:1047E000401E1DF80030303301F8013B0028F7DC93
:1047F000EA68A8691044091AE96195F8380000F0E0
:10480000140010280DD16A69A969686A8A18E969D3
:104810008218A86A8A188218686B8242BCBF821A02
:104820002A6204B0BDE8F087F8B505460E46174683
:104830001C46002074B117F8011BB068A847B0608F
:1048400030B1F06A401CF0620020641EF3D1F2BD6A
:104850004FF0FF30F2BD0000686A6C747A4C0000C3
:104860007072696E74665F733A20256E2064697396
:10487000616C6C6F776564007072696E74663A2063
:1048800062616420256E20617267756D656E7400CB
:104890007072696E74665F733A206261642025737A
:1048A00020617267756D656E740000006E616E0048
:1048B0004E414E00696E6600494E460030000000D1
:1048C00010B50400200040B2042808DA01220121BA
:1048D0001A4823005BB2C05CFEF712F90FE0042017
:1048E00004002000441E40B2002808D0012201210B
:1048F000124823005BB2C05CFEF702F9F1E710BD7D
:1049000010B50400200040B2042806DA0B4821004C
:1049100049B2405CFEF74FF90DE00420040020008E
:10492000441E40B2002806D00448210049B2405C31
:10493000FEF741F9F3E710BD00000000C00BFF1FB8
:104940000EB4C0B5024603A800210190009101AB4E
:104950000121044878440C30FFF7A6F906BC5DF845
:1049600010FB00BF9F37000010B50400002C13D0CF
:10497000B4F1807F03D329210E48FFF7AFF80E482A
:10498000002101600D490C6000210D4A11600521D4
:1049900001600168C903FCD510BD10B504002000FA
:1049A000441E002804D007480068FFF7DDFFF6E743
:1049B00010BD0000587D000010E000E014E000E0B1
:1049C00018E000E0DC0FFF1F2DE9F84304000D00A4
:1049D000200040B2002808D0022828D016D304288E
:1049E00047D035D3052855D065E0DFF8EC010168E4
:1049F00051F4806101604FF440713020FFF702F9FB
:104A00004FF440713120FFF7FDF854E0DFF8C801A2
:104A1000016851F4006101604FF440714320FFF7D9
:104A2000F1F84FF440714420FFF7ECF843E0DFF871
:104A3000A801016851F4805101604FF44071632076
:104A4000FFF7E0F84FF440716220FFF7DBF832E047
:104A5000DFF88401016851F4005101604FF44071A6
:104A60002B20FFF7CFF84FF440712A20FFF7CAF848
:104A700021E0DFF86801016851F4806101604FF4C2
:104A800040719920FFF7BEF84FF440719820FFF76E
:104A9000B9F810E0DFF84401016851F400610160E9
:104AA0004FF440718920FFF7ADF84FF44071882032
:104AB000FFF7A8F8FFE7DFF82861200040B256F8BA
:104AC0002000C07810F0F300210049B256F8211000
:104AD000C870200040B256F820008078210049B20A
:104AE00056F821108870200040B2002803D0200022
:104AF00040B2012805D13B4807684FF47A7047431C
:104B000004E0394807684FF47A7047432801B7FB3F
:104B1000F0F8404680B2B0F5005F02DB41F6FF706E
:104B20008046B7FBF5F9404680B2B9EB001948461C
:104B300080B2202804DB40F203112C48FEF7CEFFA0
:104B4000200040B256F82000007810F0E000C8F3D2
:104B500004210143220052B256F822201170210094
:104B600049B256F8211081F80180210049B256F867
:104B70002110897A11F0E00119F01F020A43230085
:104B80005BB256F823309A72220052B256F82220B5
:104B9000127C52F0880223005BB256F823301A745C
:104BA000220052B256F82220D27852F00C02230092
:104BB0005BB256F82330DA70BDE8F183084A03008F
:104BC0005BB252F823301B791B06F7D503005BB2AA
:104BD00052F82320D171704734800440288004406B
:104BE000A00BFF1FDC0FFF1FE40FFF1F6C7F0000F7
:104BF00038B50400200040B208280EDA244D002207
:104C00000021200040B2285CFDF77AFF032120003C
:104C100040B2285CFFF71AF815E0082004002000D5
:104C2000441E40B200280ED0194D00220021200061
:104C300040B2285CFDF764FF0321200040B2285CED
:104C4000FFF704F8EBE731BD10B504001048210070
:104C500049B2405CFDF7CCFF002801D1002000E004
:104C6000012010BD10B50400200040B2FFF7ECFF9A
:104C700000280AD10A20FFF790FE200040B2FFF77B
:104C8000E3FF002801D1002000E0012010BD00005A
:104C9000B80BFF1FC9B202788A421AB11CBF10F8C4
:104CA000012FF9E718BF00207047000080B500B958
:104CB00006A005490B681BB122220021984701E09C
:104CC00000F098FA222002BDE80FFF1F636F6E7399
:104CD000747261696E742068616E646C65723A20EA
:104CE000626164206D6573736167650000F10103A3
:104CF000810704D010F8011B820781B1FAD1026844
:104D0000A2F10131914311F0803104BF50F8042F1A
:104D1000F6E709BAB1FA81F100EBD100401CC01AE4
:104D200070470000C9B2830706D0521E22D310F884
:104D3000013B9942F7D11FE0083A13D302F1040274
:104D400041EA012141EA014150F8043B121F21BF11
:104D50004B40A3F1013C2CEA030C1CF0803FF3D044
:104D6000C9B2001F083210F8013B521E28BF91EA59
:104D7000030FF8D818BF0120401E7047BBBBE1B13C
:104D8000B2F5803F80F07E80022A1ED98C46B1FBAE
:104D9000F2F102FB11C31B0443EA1043B3FBF2FC24
:104DA00002FB1C3380B240EA0343B3FBF2F002FB88
:104DB000103240EA0C4000237047022A05D984468D
:104DC000B0FBF2F002FB10C270474AB105D100F00F
:104DD000010249085FEA3000704700220023704753
:104DE00000F00CBA0B000200002100207047904236
:104DF00071EB030CF6D3B3F5803F2FD2F0B5B3FAC5
:104E000083F7B1FA81F4A7F10F0E3D1B5340CEF1A9
:104E1000200602FA0EF2F3415340B5F10F0746D8CF
:104E20000F3C2C444140C4F12006A040F1414140D8
:104E3000B1FBF3F603FB1611A2FB0645001BA941CB
:104E400002D2761E8018594180EA010221FA0EF33F
:104E500062FA0EF200215A403046F0BD30B4B1FB88
:104E6000F3FC03FB1C11A2FB0C45001BA94103D260
:104E7000ACF1010C8018594130BC02460B4660462B
:104E800000217047B2F1807F65D3F0B5B2FA82F7A6
:104E9000B1FA81F4C7F10F063D1B22FA06F307F1C0
:104EA000110EF24120355A40B5F10F07B8D94140F3
:104EB000C4F12006A040F1414140B1FBF3FC03FBEB
:104EC0001C11A2FB0C45001BA94103D2BCF1010C33
:104ED000801859410F2F12D30F3FC90341EA5041A7
:104EE000B1FBF3F603FB1611A2FB0645D4EBC03071
:104EF000A94102D2761E8018594146EACC3C07B33C
:104F00004140C7F12006B840F1414140B1FBF3F602
:104F100003FB1611A2FB0645001BA94102D2761E17
:104F20008018594180EA010221FA0EF3C7F12004EA
:104F300062FA0EF20CFA07F05A402CFA04F13043F0
:104F4000F0BD80EA010221FA0EF3002162FA0EF2AE
:104F500060465A40F0BD8C46B1FBF2F102FB11C332
:104F60001B0243EA1063B3FBF2FC02FB1C331B027F
:104F70004CEA002043EA1063B3FBF2FC02FB1C3353
:104F80001B024CEA002043EA1063B3FBF2FC02FB75
:104F90001C331B024CEA002043EA1063B3FBF2FC13
:104FA00002FB1C324CEA00200023704762B38B07DF
:104FB00008D0521E11F8013B00F8013B00F024809C
:104FC0008B07F6D1830740F0208000BF103A07D34B
:104FD00030B4B1E83810103AA0E83810F9D230BC3B
:104FE000530724BFB1E80810A0E8081044BF51F8E7
:104FF000043B40F8043BD20724BF31F8022B20F8D1
:10500000022B44BF0B7803707047121F17D35B004D
:1050100009D151F8043B20F8023B1B0C121F20F869
:10502000023BF6D20BE051F8043B00F8013B1B0AAF
:1050300020F8023B1B0C121F00F8013BF3D238BFD3
:10504000121D521E24BF11F8013B00F8013BF8D895
:105050007047000010B5144600F002F8226010BD41
:10506000C1F30A5343B14A0012F5001F28D2A3F23C
:10507000FE32A1EB0251704750EA410C20D001F002
:10508000004C31EA0C01B1FA81F204BFB0FA80F3AE
:10509000D2180B3AB2F120032CBF00FA03F1914071
:1050A00041EA0C013EBFC2F1200C20FA0CF3194377
:1050B0009040524240F2FD33D21A01EB0351704747
:1050C00000227047400D491840EA81200CD2490D5A
:1050D000A1F58061491C40F0004005DBD1F11F01C2
:1050E00054BFC840C017704700207047014648B100
:1050F000B0FA80F18840C91CC1F58461090501EB53
:10510000D02140057047000070B44FF0004591EA8F
:10511000030F40F175806B40841A71EB030603D2D4
:10512000001BB141121973414FF4001C1CEB410FDD
:1051300034BF7CEB430442E00C0DA4EB1356352E38
:105140004FDC45EAC323DB0A45EAC121C912B6F1A7
:1051500020050DDD63FA05F6EB4086EA03051242F1
:1051600018BF45F00105C01851F100010CD213E041
:1051700062FA06F5F2405540F3415A40B340F3401D
:105180005A408018594107D349085FEA30005FEA66
:10519000350528BF45F0010501F58011420875F17C
:1051A000004250F1000041EB04514E0016F5001F83
:1051B00070BC38BF70470020090D090570471CEB13
:1051C000410F10D252EA43060BD0BCEB410F05D879
:1051D0000C0DAB43661E342EB6DD02E0AB438018E7
:1051E000594170BC704770BC704700000048704760
:1051F000C40BFF1F012000F0B9B800007047000089
:10520000841A71EB030604D26E40001BB1411219DF
:1052100073414FF4001C1CEB410F34BF7CEB430681
:1052200083E00C0DA4EB1356362E00F37C80012E88
:1052300045EAC32341DC43EA525312BFD202920231
:105240005B08240545EAC12141EA5051D2EBC02058
:10525000994125D407D1B0FA80F610FA06F162D050
:105260000020203608E0B1FA81F6B140C6F12002F4
:1052700020FA02F21143B0404FEAF474B4EB465402
:1052800034F001064FEA74040AD8D6F50016760DFC
:1052900004F00044F04061FA06F25040F14048400A
:1052A000C00A40EA415021F0004128BF5FEA5005A2
:1052B00050F1000044EBD12135E0DB0A45EAC12181
:1052C000C90AB6F120050EDD42EA0242120CC5F110
:1052D000200603FA06F6EB4042EA06056D429841C5
:1052E00061F100010DE062FA06F5F240554063FA03
:1052F00006FC82EA0C02F3405A406D42904161EB99
:10530000030111F4801F05D1641E620502D06D00F7
:105310004041494121F48011430875F1004350F1A7
:10532000000041EB045170BC70471CEB410F15D2DB
:1053300023F0004352EA43060BD04FEA4C0CBCEB7F
:10534000410F04D80C0D661E342EB7DDEBE7801A32
:10535000994150EA410608BF0021E4E708BF1CEB71
:10536000430F28BF6FF00001DDE700002021090393
:1053700026311820ABBEF9E710B5DFF89C4C206849
:10538000800880002060FBF726FBFCF72DFFFBF771
:10539000F5FB206850F001002060206850F0030009
:1053A000206010BD10B52C4C206880088000206063
:1053B0002A480178491C0170017832290CD100215A
:1053C000017000F012F800F04DF800202449086048
:1053D0000020DFF8481C0860206850F001002060C1
:1053E000206850F00300206010BD10B41C48DFF8A6
:1053F000301C0A680260DFF8242CDFF8283C1C68A7
:105400001460046810680419022094FBF0F0DFF8BF
:10541000182C1060002008600020186010BC704735
:10542000F8B504002F00DFF8040C00682100FEF737
:10543000D9FA060030003900FDF708FDDFF8F01B4F
:105440000968FEF7CFFA3100FDF710FCFDF7F4FB19
:10545000DFF8E01B0880F1BD1C7103405810FF1FEE
:10546000100EFF1F10B5DFF8D00B0168012940F0C6
:105470006A81DFF8C80B01780B291AD14FF48271C9
:10548000DFF8BC2B11805FF07E51DFF8B82B116084
:10549000DFF8B42BDFF8B43B1A600022DFF8B03B32
:1054A0001A60DFF8882B11600021DFF8842B11606F
:1054B00045E101780A291AD14FF48271DFF8802B77
:1054C00011805FF07E51DFF87C2B1160DFF8782BC4
:1054D000DFF8783B1A600022DFF8743B1A60DFF8CF
:1054E0004C2B11600021DFF8482B116027E1017877
:1054F00009291AD14FF48271DFF8442B11805FF033
:105500007E51DFF8402B1160DFF83C2BDFF83C3B8D
:105510001A600022DFF8383B1A60DFF8102B1160A8
:105520000021DFF80C2B116009E1017808291AD15C
:105530004FF48271DFF8082B11805FF07E51DFF8A5
:10554000042B1160DFF8002BDFF8003B1A6000220B
:10555000DFF8FC3A1A60DFF8D42A11600021DFF886
:10556000D02A1160EBE0017807291AD14FF482713B
:10557000DFF8CC2A11805FF07E51DFF8C82A116075
:10558000DFF8C42ADFF8C43A1A600022DFF8C03A14
:105590001A60DFF8982A11600021DFF8942A116060
:1055A000CDE0017806291AD14FF48271DFF8902AF4
:1055B00011805FF07E51DFF88C2A1160DFF8882AB5
:1055C000DFF8883A1A600022DFF8843A1A60DFF8C0
:1055D0005C2A11600021DFF8582A1160AFE00178E1
:1055E00005291AD14FF48271DFF8542A11805FF037
:1055F0007E51DFF8502A1160DFF84C2ADFF84C3A70
:105600001A600022DFF8483A1A60DFF8202A116099
:105610000021DFF81C2A116091E0017804291AD1D9
:105620004FF48271DFF8182A11805FF07E51DFF8A5
:10563000142A1160DFF8102ADFF8103A1A600022ED
:10564000DFF80C3A1A60DFF8E42911600021DFF876
:10565000E029116073E0017803291AD14FF48271B7
:10566000DFF8DC2911805FF07E51DFF8D829116066
:10567000DFF8D429DFF8D4391A600022DFF8D039F6
:105680001A60DFF8A82911600021DFF8A429116051
:1056900055E0017802291AD14FF48271DFF8A02970
:1056A00011805FF07E51DFF89C291160DFF89829A6
:1056B000DFF898391A600022DFF894391A60DFF8B1
:1056C0006C2911600021DFF86829116037E001784A
:1056D00001291AD14FF48271DFF8642911805FF03B
:1056E0007E51DFF860291160DFF85C29DFF85C3952
:1056F0001A600022DFF858391A60DFF8302911608B
:105700000021DFF82C29116019E04FF48271DFF8D5
:10571000302911805FF07E51DFF828291160DFF811
:105720002829DFF828391A600022DFF824391A60A6
:10573000DFF8F82811600021DFF8F428116000215B
:10574000017000F033BC0168022940F06981DFF884
:10575000EC0801780B291AD14FF48771DFF8E028A3
:1057600011805FF07E51DFF8DC281160DFF8D82867
:10577000DFF8D8381A600022DFF8D4381A60DFF872
:10578000AC2811600021DFF8A828116045E10178FC
:105790000A291AD14FF48771DFF8A42811805FF02D
:1057A0007E51DFF8A0281160DFF89C28DFF89C38D4
:1057B0001A600022DFF898381A60DFF8702811604C
:1057C0000021DFF86C28116027E1017809291AD13E
:1057D0004FF48771DFF8682811805FF07E51DFF8A1
:1057E00064281160DFF86028DFF860381A60002252
:1057F000DFF85C381A60DFF8342811600021DFF828
:105800003028116009E1017808291AD14FF4877115
:10581000DFF82C2811805FF07E51DFF82828116016
:10582000DFF82428DFF824381A600022DFF8203857
:105830001A60DFF8F82711600021DFF8F427116003
:10584000EBE0017807291AD14FF48771DFF8F027D0
:1058500011805FF07E51DFF8EC271160DFF8E82758
:10586000DFF8E8371A600022DFF8E4371A60DFF863
:10587000BC2711600021DFF8B8271160CDE0017866
:1058800006291AD14FF48771DFF8B42711805FF031
:105890007E51DFF8B0271160DFF8AC27DFF8AC37B6
:1058A0001A600022DFF8A8371A60DFF8802711603D
:1058B0000021DFF87C271160AFE0017805291AD1BB
:1058C0004FF48771DFF8782711805FF07E51DFF8A1
:1058D00074271160DFF87027DFF870371A60002234
:1058E000DFF86C371A60DFF8442711600021DFF819
:1058F0004027116091E0017804291AD14FF4877193
:10590000DFF83C2711805FF07E51DFF83827116007
:10591000DFF83427DFF834371A600022DFF8303739
:105920001A60DFF8082711600021DFF804271160F2
:1059300073E0017803291AD14FF48771DFF800274B
:1059400011805FF07E51DFF8FC261160DFF8F82649
:10595000DFF8F8361A600022DFF8F4361A60DFF854
:10596000CC2611600021DFF8C826116055E00178CF
:1059700002291AD14FF48771DFF8C42611805FF035
:105980007E51DFF8C0261160DFF8BC26DFF8BC3698
:105990001A600022DFF8B8361A60DFF8902611602E
:1059A0000021DFF88C26116037E0017801291AD137
:1059B0004FF48771DFF8882611805FF07E51DFF8A1
:1059C00084261160DFF88026DFF880361A60002216
:1059D000DFF87C361A60DFF8542611600021DFF80A
:1059E0005026116019E04FF48771DFF854261180BA
:1059F0005FF07E51DFF84C261160DFF84C26DFF8AF
:105A00004C361A600022DFF848361A60DFF81C2690
:105A100011600021DFF81826116000210170C5E235
:105A20000068032840F06881DFF8100601780B2930
:105A30001AD14FF48771DFF8082611805FF07E518C
:105A4000DFF800261160DFF80026DFF800361A6064
:105A50000022DFF8FC351A60DFF8D0251160002144
:105A6000DFF8CC25116044E101780A291AD14FF4FE
:105A70008771DFF8CC2511805FF07E51DFF8C425F7
:105A80001160DFF8C425DFF8C4351A600022DFF8A2
:105A9000C0351A60DFF8942511600021DFF89025E9
:105AA000116026E1017809291AD14FF48771DFF8D6
:105AB000902511805FF07E51DFF888251160DFF8B6
:105AC0008825DFF888351A600022DFF884351A60EF
:105AD000DFF8582511600021DFF85425116008E136
:105AE000017808291AD14FF48771DFF85425118005
:105AF0005FF07E51DFF84C251160DFF84C25DFF8B0
:105B00004C351A600022DFF848351A60DFF81C2592
:105B100011600021DFF818251160EAE001780729FB
:105B20001AD14FF48771DFF8182511805FF07E518C
:105B3000DFF810251160DFF81025DFF810351A6046
:105B40000022DFF80C351A60DFF8E0241160002134
:105B5000DFF8DC241160CCE0017806291AD14FF47B
:105B60008771DFF8DC2411805FF07E51DFF8D424E8
:105B70001160DFF8D424DFF8D4341A600022DFF893
:105B8000D0341A60DFF8A42411600021DFF8A024CB
:105B90001160AEE0017805291AD14FF48C71DFF85D
:105BA000A02411805FF07E51DFF898241160DFF8A7
:105BB0009824DFF898341A600022DFF894341A60D1
:105BC000DFF8682411600021DFF86424116090E0A0
:105BD000017804291AD14FF48C71DFF86424118004
:105BE0005FF07E51DFF85C241160DFF85C24DFF8A1
:105BF0005C341A600022DFF858341A60DFF82C2475
:105C000011600021DFF82824116072E00178032977
:105C10001AD14FF48C71DFF8282411805FF07E5187
:105C2000DFF820241160DFF82024DFF820341A6028
:105C30000022DFF81C341A60DFF8F0231160002125
:105C4000DFF8EC23116054E0017802291AD14FF4F7
:105C50008C71DFF8EC2311805FF07E51DFF8E423D4
:105C60001160DFF8E423DFF8E4331A600022DFF884
:105C7000E0331A60DFF8B42311600021DFF8B023AD
:105C8000116036E0017801291AD14FF48C71DFF8E8
:105C9000B02311805FF07E51DFF8A8231160DFF898
:105CA000A823DFF8A8331A600022DFF8A4331A60B3
:105CB000DFF8782311600021DFF87423116018E009
:105CC000FA21DFF87C2311805FF07E51DFF8742326
:105CD0001160DFF87423DFF874331A600022DFF8F4
:105CE00070331A60DFF8442311600021DFF840238D
:105CF00011600021017059E1DFF858030178012992
:105D00001ED1F021DFF838231180DFF84C13DFF8C3
:105D100034231160DFF84413DFF830231160DFF81B
:105D20004013DFF82C2311605FF07E51DFF8FC2276
:105D300011600021DFF8F82211600021017032E1CA
:105D4000DFF82003017801291CD1C821DFF8F022F7
:105D500011805FF08041DFF8EC221160DFF808135A
:105D6000DFF8E8221160DFF8F812DFF8E4221160B2
:105D70005FF07E51AD4A11600021AD4A11600021F3
:105D8000017010E1AD4801780B2913D1FA20AC491C
:105D900008800020AB490860B448AC490860002086
:105DA000AB4908605FF07E50A04908600020A04920
:105DB0000860F8E001780A2913D1FA20A049088088
:105DC0000020A0490860A948A04908600020A04917
:105DD00008605FF07E509549086000209449086093
:105DE000E1E00178092913D1FA20954908800020C3
:105DF000944908609D4895490860002094490860CE
:105E00005FF07E5089490860002089490860CAE037
:105E10000178082913D1FA2089490880002089498E
:105E200008609248894908600020894908605FF04D
:105E30007E507E49086000207D490860B3E001780B
:105E4000072913D1FA207E49088000207D49086087
:105E500086487E49086000207D4908605FF07E50DA
:105E6000724908600020724908609CE001780629A8
:105E700013D1FA20724908800020724908607B48DB
:105E8000724908600020724908605FF07E506749DF
