:10000000F8FF002011040000A7240000A72400002E
:10001000A7240000A7240000A7240000A7240000B4
:10002000A7240000A7240000A7240000A7240000A4
:10003000A7240000A7240000A7240000A724000094
:10004000A7240000A7240000A7240000A724000084
:10040000FFFFFFFFFFFFFFFFFFFFFFFFFEFFFFFFFD
:1004100062B606F06BF8FEE7DFF800F08B0CFF1F0A
:10042000DFF800F0E30CFF1F80B52E2000F0ACFEDB
:100430000E2000F0A9FE2F2000F0A6FE0D2000F0F7
:10044000A3FE0C2000F0A0FE332000F09DFE202033
:1004500000F09AFE132000F097FE002000F094FEBA
:1004600001BD2DE9F04104000D0016005FF0000809
:10047000002738003100C0B2C9B288420AD2290030
:1004800049B2200040B200F080FF18FA80F08046A8
:100490007F1CEEE73000C0B2B8FBF0F080B2BDE8E0
:1004A000F0812DE9F04F89B000200890002500264A
:1004B00000275FF000080020DFF8D8A7CAF8100076
:1004C000CAF80C00CAF80800CAF80400CAF800000C
:1004D000DFF8C407DFF8C4170861C86088604860A7
:1004E0000860DFF8BC070068082840F08980DFF862
:1004F000B41706A800F0A2FF06AA0021002001F010
:10050000C5F8DFF8A41704A800F098FF04AA022198
:10051000002001F0BBF85FF0000B584680B2B0F548
:10052000AF6F52DADFF88497142201213320FFF7EE
:1005300098FF01F07FF9C9F8000014220121202062
:10054000FFF78FFF01F076F9C9F8040014220121AA
:100550001320FFF786FF01F06DF9C9F80800142297
:1005600001210020FFF77DFF01F064F9C9F80C00BC
:10057000142201210E20FFF774FF01F05BF9C9F886
:10058000100000200400200080B2052814DA2000AA
:1005900080B25AF82000210089B259F8211001F0E8
:1005A00057F907D2200080B259F82000210089B203
:1005B0004AF82100641CE6E7DFF8F406016803202E
:1005C00001F08EF91BF1010BA7E7FE20FFF724FFD6
:1005D0005FF00009484680B205284CDA484680B2F0
:1005E0005AF8200001F0DCF902001FFA89F95FEAED
:1005F000890189B2FE20FFF713FF19F10109E9E72C
:100600005FF00009484680B2042818DA0020040090
:10061000200080B205280FDA200080B2800010F59B
:10062000FE20B0F9000000B201F0E8F9210089B223
:100630004AF82100641CEBE719F10109E2E7DFF851
:10064000741602A800F0FAFE02AA0021002001F0B0
:100650001DF8DFF85416684600F0F0FE6A460221E5
:10066000002001F013F8DFF848060168C820414374
:10067000032001F035F901220121342001F0D0F9E5
:10068000DFF82C0601684FF47A704143032001F033
:1006900027F900220121342001F0C2F900F07CFF8B
:1006A00009B0BDE8F08F2DE9F0470027380000B20F
:1006B00005283EDADFF80086142201213320FFF7F7
:1006C000D0FE01F0B7F8390009B248F82100142231
:1006D00001212020FFF7C5FE01F0ACF8390009B276
:1006E00008EB81014861142201211320FFF7B9FEB4
:1006F00001F0A0F8390009B208EB810188621422E8
:1007000001210020FFF7ADFE01F094F8390009B295
:1007100008EB8101C863142201210E20FFF7A1FE1E
:1007200001F088F8390009B208EB810108657F1CE7
:10073000BCE75FF00008404600B2052852DA00200E
:100740000400200000B2042849DA00200500280037
:1007500000B2210009B2D1F1040188423DDA142728
:10076000DFF8549518FB07F04844290009B200EB64
:100770008100406818FB07F149442A0012B251F881
:10078000221001F065F826D218FB07F04844290032
:1007900009B200EB8100406801F0DEF9060018FBA9
:1007A00007F04844290009B200EB810018FB07F16B
:1007B00049442A0012B251F82210416018FB07F098
:1007C00009EB0007A9460FFA89F9300000B201F0E1
:1007D00015F947F829006D1CB9E7641CB1E718F159
:1007E0000108A8E70027380000B2052829DADFF859
:1007F000CC845FF01409DFF8C0A417FB09F0504463
:10080000406817FB09F15144896801F0BFF917FBF3
:1008100009F15144C96801F0B9F9390009B248F841
:100820002100380000B258F82000DFF8941401F0DD
:100830001FFADFF890143A0012B241F822007F1C30
:10084000D1E70020010009B2042934DADFF8781476
:10085000020012B201EB8202526803001BB241F89F
:100860002320020012B201EB8202926903001BB244
:1008700001EB83035A61020012B201EB8202D26AD9
:1008800003001BB201EB83039A62020012B201EB78
:100890008202126C03001BB201EB8303DA630200D5
:1008A00012B201EB8202526D03001BB201EB830115
:1008B0000A65401CC6E70021080000B205280EDAD0
:1008C000DFF800040A0012B250F82200DFF8F82323
:1008D000142311FB03F31A441061491CECE70027B1
:1008E000380000B205283BDADFF8E083DFF8D89360
:1008F000D8F80000390009B259F8211001F046F982
:10090000C8F80000D8F80400390009B209EB8101E9
:10091000496901F03BF9C8F80400D8F8080039002B
:1009200009B209EB8101896A01F030F9C8F80800C1
:10093000D8F80C00390009B209EB8101C96B01F04C
:1009400025F9C8F80C00D8F81000390009B209EBF5
:100950008101096D01F01AF9C8F810007F1CBFE78A
:100960005FF00008404600B2052816DADFF85C7335
:10097000404600B257F82000C74901F079F9DFF886
:100980005013424612B241F822000020414609B2FB
:1009900047F8210018F10108E4E7BDE8F087F8B551
:1009A000FFF781FE0024200000B2052854DADFF8AA
:1009B0002453BA4EDFF81803210009B250F8210081
:1009C000210009B256F8211001F0D0F90700B14812
:1009D000210009B250F82100210009B256F8211077
:1009E00001F0C4F90100380001F042F9210009B218
:1009F00045F82100200000B255F82000002100F049
:100A000027FF05D8DFF8D002210009B245F8210000
:100A1000200000B255F82000DFF8C01201F0E6F91E
:100A200005D85FF07E50210009B245F82100200072
:100A300000B255F8200001F0EBF90022DFF8A032F7
:100A400001F00AFA01F0DAFADFF89812220012B285
:100A500041F82200641CA6E7DFF8885228685FF09E
:100A60007E5100F0F5FE02D25FF07E5000E0286873
:100A7000286068685FF07E5100F0EAFE02D25FF005
:100A80007E5000E068686860A8685FF07E5100F002
:100A9000DFFE02D25FF07E5000E0A868A860E86840
:100AA0005FF07E5100F0D4FE02D25FF07E5000E095
:100AB000E868E860286801F04FF8DFF82C12088039
:100AC000686801F049F8DFF824120880A86801F08E
:100AD00043F8DFF81C120880E86801F03DF8DFF801
:100AE00014120880DFF810626C4DDFF8D80100693D
:100AF000296901F03BF9070066480069296901F09E
:100B000035F90100380001F0B3F830603068002199
:100B100000F09EFE02D8DFF8C0013060DFF8DC553F
:100B2000306801F075F90022DFF8D43501F094F94E
:100B300001F064FA2860286801F00EF8DFF8C415A7
:100B40000880F1BD30B40200002080231900C9B232
:100B500000290FD018181400A4B20500EDB201004E
:100B6000C9B24D43AC4200DAC01ADBB2022193FB9A
:100B7000F1F3EBE7C0B280B230BC70472DE9F84327
:100B8000DFF86841DFF8605128882188081880B2B2
:100B9000FFF7D8FF8046DFF85861DFF858711FFA79
:100BA00088F838883188081880B2FFF7CBFFB8EB97
:100BB0000008404601F056FA0022DFF8243101F027
:100BC0004BF9804689462888398811FA80F02188B7
:100BD00010FA81F0318810FA81F001F043FA020036
:100BE0000B004046494601F04FFA01F007FADFF8E2
:100BF00018150860DFF814050178002905D00229CE
:100C00002DD017D303293DD041E00121DFF8002585
:100C1000117001210170298801290AD12188012937
:100C200007D13188012904D13988012901D1032153
:100C300001702CE00121DFF8D8241170022101702D
:100C4000298801290AD12188012907D13188012960
:100C500004D13988012901D10321017017E0012154
:100C6000DFF8AC241170298801290AD121880129D3
:100C700007D13188012904D13988012901D1032103
:100C8000017004E00020DFF888140870FFE7BDE879
:100C9000F1830000C80EFF1F0000A040DC0EFF1F04
:100CA000000EFF1F786A0000846A0000A00EFF1F7C
:100CB000DC0FFF1F9C6A0000F00EFF1F680FFF1F74
:100CC00000004040540FFF1F3C0EFF1FB40EFF1FDB
:100CD000840FFF1FAC0FFF1F6F12833A0100803F8C
:100CE00000408F40980FFF1F3E10FF1F4010FF1F56
:100CF0004210FF1F4410FF1F7C0FFF1F2DE9F04122
:100D000040F28535DFF80C743888A8425BDBDFF8E9
:100D10000884B8F80000A84255DB40F2B730DFF88D
:100D2000FC130A88824204DBDFF8F4231288322A9B
:100D300007DBDFF8EC231288824244DB0888322884
:100D400041DADFF8C4633888B8F80010401A01F0BF
:100D500089F90022DFF8A83301F07EF804000D00C5
:100D60003888B8F8001011FA80F001F07BF9020021
:100D70000B002000290001F087F901F03FF93060F5
:100D8000DFF8A043DFF8A0533068210001F0A0FA9B
:100D9000DFF8981300F0FAFE07003068DFF89013D0
:100DA000096800F0E3FF290001F092FA390000F031
:100DB000EDFE00F0F5FDDFF87C1308600120DFF8A0
:100DC0007813087073E1DFF84043206800F0C4FE38
:100DD00001F0EAFA652820DADFF86053DFF8606393
:100DE0002068290001F074FADFF8401300F0CEFE0D
:100DF00007002068DFF83813096800F0B7FF3100FA
:100E000001F066FA390000F0C1FE00F0C9FDC949E1
:100E100008600220C849087049E1206800F09CFE83
:100E200001F0C2FAC9281DDA5FF08245C54E20687C
:100E3000290001F04DFABD4900F0A8FE0700206826
:100E4000BB49096800F092FF310001F041FA390016
:100E500000F09CFE00F0A4FDB64908600320B649EE
:100E6000087024E1206800F077FE01F09DFA40F25E
:100E70002D1188421CDAB44DB44E2068290001F0CF
:100E800027FAAA4900F082FE07002068A8490968ED
:100E900000F06CFF310001F01BFA390000F076FE23
:100EA00000F07EFDA34908600420A3490870FEE01D
:100EB000206800F051FE01F077FA40F2911188426B
:100EC0001CDAA34DA34E2068290001F001FA9749CE
:100ED00000F05CFE070020689549096800F046FFB5
:100EE000310001F0F5F9390000F050FE00F058FD36
:100EF00090490860052090490870D8E0206800F00B
:100F00002BFE01F051FA40F2F51188421CDA924DA5
:100F1000924E2068290001F0DBF9844900F036FE8A
:100F2000070020688249096800F020FF310001F0C5
:100F3000CFF9390000F02AFE00F032FD7D4908604B
:100F400006207D490870B2E0206800F005FE01F03F
:100F50002BFA40F2592188421CDA814D814E2068DB
:100F6000290001F0B5F9714900F010FE0700206872
:100F70006F49096800F0FAFE310001F0A9F9390063
:100F800000F004FE00F00CFD6A49086007206A4981
:100F900008708CE0206800F0DFFD01F005FA40F2F7
:100FA000BD2188421CDA704D704E2068290001F086
:100FB0008FF95E4900F0EAFD070020685C49096886
:100FC00000F0D4FE310001F083F9390000F0DEFDBD
:100FD00000F0E6FC5749086008205749087066E0B1
:100FE000206800F0B9FD01F0DFF940F221318842BC
:100FF0001CDA5F4D5F4E2068290001F069F94B490A
:1010000000F0C4FD070020684949096800F0AEFE01
:10101000310001F05DF9390000F0B8FD00F0C0FCCE
:101020004449086009204449087040E0206800F005
:1010300093FD01F0B9F9A8421CDA3A4D4E4E2068F2
:10104000290001F045F9394900F0A0FD07002068AA
:101050003749096800F08AFE310001F039F939009A
:1010600000F094FD00F09CFC324908600A203249EF
:1010700008701CE05FF08345404E2068290001F0B5
:1010800027F92A4900F082FD0700206828490968ED
:1010900000F06CFE310001F01BF9390000F076FD24
:1010A00000F07EFC234908600B2023490870164C91
:1010B000206800F051FD01F077F900F09FFC304905
:1010C00008601B4D2068296800F050FE2D4908601B
:1010D000206828601748016840F2EE32914203D23E
:1010E00040F2ED31016005E040F28B4102688A4236
:1010F00000D30160006800B2BDE8F081800FFF1FDF
:10110000000059404610FF1FC00FFF1F4A10FF1F6D
:101110004B10FF1F3E10FF1F4410FF1F4010FF1F0A
:101120004210FF1F000070410000C841004087448A
:10113000C40FFF1FD00FFF1F4C10FF1F0000E04027
:1011400000005C4200008242000010410000964214
:10115000000020410000AA42000030410000BE42D1
:10116000000040410000D242000050410000E64231
:10117000000060410000FA420000074300001143F4
:10118000C80FFF1FCC0FFF1F38B5040025006DB23C
:101190006D112800C0B2002802D001280DD019E03E
:1011A000A148016851F000610160A048016831F078
:1011B000900101600168016010E09D48016851F0F4
:1011C000006101609948016831F4104101600168D3
:1011D000016003E03321974801F0FAF8200040B2A3
:1011E000002800F08980012800F08680032800F0A4
:1011F000838008284ED0092851D00A2854D00B28C3
:1012000057D00C285AD00D285DD00E2860D00F285A
:1012100063D0102870D0112864D0122867D013280A
:101220006AD0142868D01A2866D01D2864D01E28D9
:1012300062D0202861D021285FD023285DD02428C7
:101240005CD025285FD0262862D0272865D02828A2
:1012500068D029286BD02A286ED02B2871D02C2852
:1012600074D02D2877D02E287AD02F287DD0302802
:1012700000F0858031287DD0322800F0808033282E
:101280007DD034287BD03A2879D03D2877D03E28AD
:1012900075D075E00021202001F02EF974E00021C6
:1012A000212001F029F96FE00021072001F024F945
:1012B0006AE00021082001F01FF965E000212220EA
:1012C00001F01AF960E00021232001F015F95BE03C
:1012D0000021402001F010F956E00021412001F0EA
:1012E0000BF951E00021982001F006F94CE00021B3
:1012F000992001F001F947E046E045E00021802017
:1013000001F0FAF840E00021812001F0F5F83BE01F
:101310000021822001F0F0F836E00021832001F066
:10132000EBF831E00021202001F0E6F82CE000216C
:10133000212001F0E1F827E00021242001F0DCF871
:1013400022E00021252001F0D7F81DE00021262011
:1013500001F0D2F818E00021272001F0CDF813E0C9
:1013600000212A2001F0C8F80EE000212B2001F016
:10137000C3F809E00021112001F0BEF804E003E009
:101380009A212C4801F024F831BDF8B504000D0075
:10139000260076B276110027290049B2200040B21B
:1013A00000F01BF82449300040B251F820000068DA
:1013B0000006F7D5300040B251F820000069320035
:1013C00052B251F82220126832F0800233005BB230
:1013D00051F823100A6080B2F2BD70B4020052B21C
:1013E000521110F01F03144C0D006DB2AD0015F03A
:1013F0000C0555F05005160076B254F82660B5601D
:101400000425160076B254F82660F5601D00EDB292
:1014100015F01F0555F04005160076B254F8264029
:10142000256070BC704700003C8004401880044078
:1014300030800440A06600001004FF1F0CB430B5DB
:1014400083B00A4606A9029104460025019400953E
:1014500002AB01A9084878441E3001F09FF8019AB8
:10146000157000284EBF04460198041B204603B0A7
:1014700030BC5DF80CFB00BF0B07000010B4082265
:101480000121DFF89C33196000BFDFF89833002199
:10149000196000BF11004A1EC9B2002911D001060F
:1014A00004D50121DFF88043216003E00021DFF84B
:1014B000784321600121196000BF002119604000BC
:1014C000E8E710BC7047000010B408220021DFF8E4
:1014D00050331960DFF84C330021196011004A1EA7
:1014E000C9B2002911D0010604D50121DFF8384323
:1014F000216003E00021DFF8304321600121196001
:1015000000BF002119604000E8E710BC704738B503
:1015100004000D00B5F15000C0B2FFF7D5FF200068
:10152000C0B2000950F01000C0B2FFF7CDFF14F0B8
:101530000F00FFF7C9FF31BD70B50400002528007A
:10154000C0B2082818DAB5F15000C0B2FFF7BCFFEE
:101550000120FFF7B9FF1020FFF7B6FF00200600BB
:101560003000C0B2802805DA2000C0B2FFF786FF45
:10157000761CF5E76D1CE2E770BD010089B2002919
:1015800009D043F226410A0011004A1E89B20029FF
:10159000FAD1401EF1E7704710B5012201210D205C
:1015A00000F03EFA012201210E2000F039FA01225A
:1015B00001210F2000F034FA01220121102000F057
:1015C0002FFADFF86842002020603220FFF7D5FFB5
:1015D00001202060AE20FFF777FF0020FFF774FFA7
:1015E0001020FFF771FF4020FFF76EFF8120FFF70B
:1015F0006BFFCF20FFF768FFA120FFF765FFC82032
:10160000FFF762FFA620FFF75FFFA820FFF75CFF50
:101610003F20FFF759FFD320FFF756FF0020FFF7C9
:1016200053FFD520FFF750FF8020FFF74DFFD92053
:10163000FFF74AFFF120FFF747FFDA20FFF744FFEB
:101640001220FFF741FFDB20FFF73EFF4020FFF7AE
:101650003BFF2020FFF738FF0220FFF735FF8D20EA
:10166000FFF732FF1420FFF72FFFA420FFF72CFF16
:10167000A620FFF729FFAF20FFF726FF0020FFF786
:101680005BFF00210020FFF742FF10BD2DE9F84F5E
:1016900004000D0016005FF000085FF000095FF025
:1016A000000A5046C0B2305C002800F0B7805046B7
:1016B000C0B23044407800286FD15046C0B2305C90
:1016C000203880462000C0B2792802DB00200400C8
:1016D0006D1C2900C9B22000C0B2FFF718FF5FF0EF
:1016E000000B5846C0B208280CDADFF84401414626
:1016F000C9B2090151FA8BF1405CFFF7BFFE1BF143
:10170000010BEEE7691CC9B22000C0B2FFF7FFFE73
:101710005FF000094846C0B208280DDADFF8100172
:101720004146C9B2090151FA89F10844007AFFF72C
:10173000A5FE19F10109EDE7002007003800C0B24D
:101740005146C9B2D1F10701884264DA0834290050
:10175000C9B22000C0B2FFF7DAFE5FF0000B5846B6
:10176000C0B2082805DA0020FFF788FE1BF1010B44
:10177000F5E7691CC9B22000C0B2FFF7C8FE5FF0F0
:1017800000094846C0B2082805DA0020FFF776FEB7
:1017900019F10109F5E77F1CD0E75046C0B2305C73
:1017A000203880462000C0B2792802DB00200400E7
:1017B0006D1C2900C9B22000C0B2FFF7A8FE5FF07F
:1017C000000B5846C0B208280BDA19484146C9B286
:1017D000090151FA8BF1405CFFF750FE1BF1010B40
:1017E000EFE7691CC9B22000C0B2FFF790FE5FF0BE
:1017F00000094846C0B208280CDA0D484146C9B273
:10180000090151FA89F10844007AFFF737FE19F10E
:101810000109EEE708341AF1010A42E7BDE8F18F49
:101820003C00FE433800FE433400FE434000FE43CC
:10183000FC54000000280AD0B0FA80F18840D1F1B1
:101840009D01C905020672F1004241EB102070476C
:101850004FF0807C1CEB400F94BF1CEB410F05E068
:1018600040EA010C1CEB0C0F01D28842704718BFF4
:101870008142704738B505000C00002C03D12421AB
:10188000434800F0A5FD4348016851F400010160A0
:101890000020414908604148611E2A0052B21201ED
:1018A0008150290049B209010144C96851F0010180
:1018B0002A0052B212010244D160290049B2090142
:1018C00001448968490849002A0052B212010244C1
:1018D000916003212A0052B212011044816031BD8F
:1018E00038B505000C00002C03D14721284800F032
:1018F0006FFD2848016851F4000101602648016825
:101900008908890001602548290049B2090101447C
:101910008968490849002A0052B2120102449160C4
:10192000611E2A0052B212018150290049B20901F8
:101930000144C96851F001012A0052B21201024467
:10194000D160290049B20901014489684908490068
:101950002A0052B212010244916001212A0052B2BF
:10196000120102449160290049B209010144C96889
:10197000C907F8D5290049B209010144C96851F0E5
:1019800001012A0052B212011044C16031BD0000B1
:10199000006800003C800440007003400071034078
:1019A00000180CD2010E7F3909D4D1F11F015DBF9F
:1019B000C00140F00040C8406FF0000070470020B8
:1019C000704730B4002513E050F8042BD30744BF10
:1019D000A9F101039A18091F042942F8045BFAD2FD
:1019E00013468C0744BF15809B1CC90748BF1D7058
:1019F00050F8041B0029E7D130BC7047C217504093
:101A0000801AB0FA80F10AD08840D1F19D01D20746
:101A100042EAC151020672F1004241EB10207047C8
:101A2000F8B504000D0016004FF480712000C0B21C
:101A300000F062FD280040B2002812D14448210085
:101A4000C9B2491150F821102200D2B2521150F8F7
:101A500022004269012314F01F0083409A434A6127
:101A600038E001213A4A2000C0B2401152F820006B
:101A70002300DBB25B1152F823305B6914F01F07BF
:101A800011FA07F73B4343613000C0B2002811D17F
:101A90002000C0B2401152F82000036814F01F006B
:101AA000814033EA01012000C0B2401152F8200009
:101AB00001600FE02000C0B2401152F8200003681E
:101AC00014F01F00814019432000C0B2401152F8A9
:101AD00020000160F1BD38B504001D4D2000C0B2EA
:101AE000401155F82000406914F01F01C840C0079C
:101AF00003D47B21174800F06BFC2000C0B24011DA
:101B000055F82010012214F01F008240CA6031BD38
:101B100038B504000E4D2000C0B2401155F8200029
:101B2000406914F01F01C840C00703D58C21094843
:101B300000F04EFC2000C0B2401155F820000069B2
:101B400014F01F04E04010F0010032BD000000005E
:101B5000300BFF1FA8670000C0F3C7517E390EDDB0
:101B6000C217D1F1200106DD000240F00040C8405C
:101B7000104450407047D04380F000407047002030
:101B800070470268531C03601170704790EA010FA0
:101B900040F1F28081F00041431A4FF000423EBF15
:101BA0005340C01AC91800BFD3095FEAD05C13EBD9
:101BB000400F34BFB3EB410F40E07CEBD1530CD36B
:101BC00042EA012122D8D1EB402009D3400A28BFA4
:101BD0005FEA500140EBCC507047401A15D04002EC
:101BE000B0FA80F2521C9040400A4FEA3C23B3EB1B
:101BF000026384BF00EB730007E040F400001A1694
:101C0000DB07C2F10102D04018437047182BFCDCFF
:101C100031FA03F202FA03F3591A38BF42F0010213
:101C2000D2EB40203CBF4000ACF1010C5FEACC5C41
:101C3000C20572F100414CEB5020704713EB400F8E
:101C40000FD2C94209D0ACEBD153022B03DB4902BE
:101C5000172BDDDD70479143401AC042D5D10020DB
:101C6000704713EB410FD0D36FF0000070470000B6
:101C700010B5FF2313EAD0541DBF13EAD1529C4282
:101C80009A4239E0A41ADA0780EA0103134042EAD3
:101C9000012142EA0020421A3CBF641E01EB4202CD
:101CA000090AB2FBF1FE01FB1E221202B2FBF1F0A7
:101CB00001FB10226EF30F201202B2FBF1FE4EEA7E
:101CC00000207F3406DDFE2C24DA53EA500050EB6E
:101CD000C45010BDD4F1020401FB1E2240F08071FB
:101CE000192C1DDC21FA04F0C4F12004A140114399
:101CF00071F10042584110BD9C421ABF03EAD15213
:101D00009A420FE080EA010E0EF00043400004D03A
:101D1000490016D143F0FF4010BD490008BFD3432E
:101D2000180010BD9C4205D1D21AF7D001F0004135
:101D3000484010BD4A0212BF0846484000F000402B
:101D400010BD4AB90902B1FA81F2914044B1A41818
:101D5000C00140F000409EE7C90141F000415242FD
:101D60000002B0FA80F4A040141B94E790EA010F3F
:101D70007FF512AF81F00041421A3CBF801A8918EA
:101D80004FF0004CC0F3C752FF2A24D0C1F3C75311
:101D900013B3D21AD2F1190327DD4CEA01214CFA10
:101DA00003F321EA0303D140C20D4CEA002040189E
:101DB00034BF20EA0C004CEA5000D20553EA00631D
:101DC00073EB0C0C52EB1020420012F1807F38BFF5
:101DD0007047C00DC0057047490212BF9A4200EB20
:101DE0005120F8E7D2F11703D9D570474FF0807C26
:101DF0001CEB400F94BF1CEB410F05E040EA010CC7
:101E00001CEB0C0F01D28142704718BF884270470B
:101E1000C0F3C75181B1FF2906D0C110400721F09E
:101E2000E04101F16051704741020CBF40F4E00114
:101E30006FF000410020704700F0004100020AD01E
:101E4000B0FA80FC00FA0CF001F16051A1EB0C51EA
:101E500001EBD02140057047B0B581EA030C0CF0CE
:101E6000004C40F2FF7515EA11541DBF15EA1357D7
:101E7000AC42AF4239E0E41923EA455343F48013FE
:101E8000C90241F0004141EA505EC7021100A7FBC0
:101E9000020200284FF00000EEFB01204FF000018D
:101EA000E3FB072118BF42F001024018002149411D
:101EB000E3FB0E01A4F580640F0302D252004041FF
:101EC000494154F101046CDD470872F1004250F1C0
:101ED000000051EB0451A1F580115CBF41EA0C01F7
:101EE000B0BD4CEA05510020B0BD05EA1357AC4225
:101EF00014BFAF4241E050EA410E1CBF52EA430E0C
:101F000002E061460020B0BD24423C441BD15FEAA0
:101F1000070EF6D0090302BF01460020AEF1140EF1
:101F2000B1FA81F7AEEB070401FA07FE0C37C7F1EF
:101F3000200100FA07F7C8404EEA000E23EA455395
:101F400043F48013A2E733F00043B3FA83F704BFEE
:101F5000B2FA82FE77440B3FE41BB7F1200E2FBF8D
:101F600002FA0EF3BB40C7F1200E22FA0EFE38BF74
:101F700043EA0E03BA40641C82E750EA410E14BFE4
:101F800052EA430E6FF000014FF4001717EB430FB6
:101F90008ABF194617EB410FB5E74CEA05510020FF
:101FA000B0BDD4F10104B4F120070FDAC4F1200769
:101FB000520828BF42F0010210FA07F501FA07F7AC
:101FC000E1BF2A43E0403843E1400FE0352C98DC84
:101FD000C7F1200452EA400220FA07F218BF42F08B
:101FE000010231FA07F0A1400A43002172F10042D8
:101FF00050F1000051EB0C01B0BD000001F00042B7
:102000008B1AA3F16051B1F5801F0ADBB1F17F6F2C
:102010001FD242EAC102C10071F1004142EB50708F
:1020200070470B15C3F10903212B10D2890241EA35
:10203000905180020128494141F0004121FA03F00A
:10204000C3F12003994071F10041504170471000E5
:1020500070476FF0000013EB103F5CBF000E42EAC8
:10206000C0507047C11768B14840401AB0FA80F2BA
:102070009040D21CC907C2F5846241EA025202EBC9
:10208000D021400570470000F0B540F2FF7581EAAD
:10209000030C0CF0004C15EA11541DBF15EA135740
:1020A000AC42AF42E5E0BC41C1F31301C3F31303FB
:1020B000801A994143F4801304D2641E40004941C0
:1020C00080185941C90241EA5051B1FBF3F603FBB4
:1020D0001611A2FB0675D7EBC020A94102D2761ECD
:1020E00080185941C90241EA5051B1FBF3FE03FB8C
:1020F0001E11A2FB0E75D7EBC020A94103D2AEF191
:10210000010E80185941890241EA9051760546EA4C
:102110008E2EB1FBF3F603FB1611A2FB0675D7EB6F
:102120008020A94102D2761E80185941C90241EA95
:1021300050514EEA060EB1FBF3F603FB1611A2FB5B
:102140000675D7EBC020A94102D2761E80185941EE
:10215000C90241EA5051B1FBF3F703FB1711A2FB8F
:102160000735D3EBC020A94167F100070CBF00423F
:1021700047F0010766F3D5274FEA1E31B80814F57A
:10218000806412DDBD0775F1004250EB0E5051EB3B
:10219000045111F5801F5CBF41EA0C01F0BD4CF009
:1021A0007F6141F0E0410020F0BDBD076D0840EACD
:1021B0000E5041F48011D4F10104B4F120060ADA82
:1021C000C4F120060200E04001FA06F3E1401843A2
:1021D000B24015430EE0342C13DCC6F1200445EA6E
:1021E00040056D0820FA06F2154321FA06F0A140D9
:1021F0000D43002175F1004250F1000051EB0C013C
:10220000F0BD00205FEA0C01F0BDCFB992185B4130
:10221000B3FA83F704BFB2FA82F6BF190B3FB7F1E6
:1022200020062FBF02FA06F3BB40C7F1200622FAB0
:1022300006F638BF3343BA401CB1E419641E33E7D5
:102240007F4231F00041B1FA81F404BFB0FA80F668
:10225000A4190B3CB4F120062FBF00FA06F1A140EF
:10226000C4F1200620FA06F638BF3143A0403C1BDB
:102270001AE7AC421ABF05EA1357AF4212E050EA20
:1022800041061CBF52EA4306BFE750EA4107304609
:1022900061461CBF41EA0551F0BD52EA430C08BF3C
:1022A000C143F0BD00204FF4001616EB410F98BF5C
:1022B00016EB430F08BF16EB410F24BFC14305E0E7
:1022C00016EB430F0CBF61464CEA0551F0BD000010
:1022D000FF2212EAD05C1DBF12EAD153944593420B
:1022E0002BE09C44D30780EA01021A4043EA002015
:1022F00043EA0121A1FB0030C04238BF40007CF11D
:102300007F010BDBFE294ADA5B0842EAC15153EA3E
:10231000006373F1004C51EB10207047D1F1080CB1
:10232000DCF120012FDB5B0810FA01F10B4320FAEE
:102330000CF073F100415041704794451CBF02EA14
:10234000D153934280EA010202F000421DD04000C6
:1023500019D0490017D05BB9634514D00902B1FA0E
:1023600081F39940BCEB030CC00140F00040C1E791
:102370000002B0FA80FC10FA0CF0B3EB0C0CC901AF
:1023800041F00041B6E71000704740000AD0490014
:1023900008D010F1807F94BF11F1807F02E042F0FD
:1023A000FF407047D0437047002848BF4042704705
:1023B000DFF800F0690CFF1FBFF34F8F46490A6832
:1023C00012F4E062454802430A60BFF34F8FFEE714
:1023D00038B504000D00002000F0ECFE2A002100BA
:1023E0003F4800F027FF002000F004FF4FF47A7010
:1023F00000F04DFFF2E738B504000D00210049B2AE
:10240000042001F055F8200032BD10B5002404204E
:1024100001F068F8042001F09FF8002842D1002064
:1024200000F0C8FE042001F097F8012801D1012036
:102430000400002000F0DEFE2A4800F0FBFE4FF40E
:10244000FA7000F024FF2000C0B20128EAD1042075
:1024500001F082F80028E5D1042001F07DF8002881
:1024600006D1002000F0C6FE642000F010FFF3E764
:10247000042001F071F8012806D1002000F0BAFE16
:10248000322000F004FFF3E7174800F0D3FEFFF717
:102490008FFF642000F0FBFE0020FDF7BDFFFFF77B
:1024A0008BFFBFE710BD10B510480468012000F095
:1024B00081FE012000F09EFE0D492200D2B20F20C5
:1024C00042430A442100C9B20A4800F0B3FE4FF467
:1024D0007A7000F0DCFEECE70CED00E00400FA0599
:1024E00068690000386A00009C69000004ED00E0A3
:1024F0001804FF1F0469000030B4264B1C684FF419
:1025000000750200D2B2520995402C431C60224B48
:102510000200D2B2521153F82240012510F01F02DE
:102520009540C4F8A0500200D2B2521153F82220B4
:102530000300DBB213F01F0342F8231030BC7047D6
:1025400030B4144B1C684FF400750200D2B252092B
:1025500095402C431C6031F4E0610F4A0300DBB26C
:102560005B1152F823300400E4B214F01F0453F856
:10257000243013F4E06319430300DBB25B1152F81B
:1025800023200300DBB213F01F0342F8231030BCFA
:1025900070470000388004408C0BFF1F2DE9F0438A
:1025A0009FB00FF6A836269CDFF804898DF83B40D3
:1025B000029100240B944FF0FF37044691461D46CC
:1025C0000AE019F8011B0298A0470028029000F0C9
:1025D000A1800B98401C0B9099F8000050B1252861
:1025E000EFD10021002205910692079108920991EE
:1025F0000A9203E00B98A0E041F0010119F8010FE5
:102600002028F9D023280CD02B2804D02D2805D041
:10261000302809D080E041F00201EFE741F00401E9
:10262000ECE741F00801E9E741F01001E6E70D921F
:102630000AE00D98404505DA00EB800002EB40020D
:10264000303A0D9209F1010999F80020A2F1300009
:102650000A28EED399F800002E2818BF0C9726D12F
:1026600019F8010F2A2808D12868286009F1010902
:1026700050F8042B28600C9219E02D280CBF09F1AA
:102680000109002000220C920BE040B90C9A42454F
:1026900005DA02EB820203EB4203303B0C9309F1B3
:1026A000010999F80030A3F130020A2AEDD3ADF800
:1026B0003810304699F8001000F066FF08B119F89C
:1026C000010B8DF83A009DF83A00682805D199F879
:1026D000000068280CD1622106E06C2804BF99F83C
:1026E00000006C2804D171218DF83A1009F101091C
:1026F00010A804902A4619F8013B6946204600F0CC
:102700005CF838B910AA6946204600F086F900281E
:102710007FF562AF384610E02A2888D12A682A60FF
:1027200052F8040B2A6000280D9003D540420D900A
:1027300041F0040109F101098CE71FB0BDE8F08305
:10274000622820D0682811D06A2803D06C2827D0AE
:10275000712825D10868C01D20F007000860D0E965
:10276000002308300860194610467047002A0A689E
:102770000A60106803D0121D0A6000B217E0121D33
:102780000A6080B217E0002A0A680A60106803D065
:10279000121D0A6040B20AE0121D0A60C0B20AE0CF
:1027A000002A0A680A60106803D0121D0A60C11767
:1027B0007047121D0A600021704770B51C460D4617
:1027C000B4F125002E69114600F015812038022849
:1027D00063D9133840D00B3816D0401E1ED0401E8F
:1027E00002285AD9001F19D0401F00F08180401ED6
:1027F00032D0401E00F0CB80C01E00F0DA80801E78
:102800002AD0C01E28D0FCE06869421C6A610A68B0
:102810000A6052F8043B0A603354FCE095F83A0031
:102820000122FFF78DFFC5E90001002904D5686981
:10283000411C69612D220DE0288F810704D568694C
:10284000411C69612B2205E0C00721D56869411C44
:102850006961202232541BE095F83A000022FFF70C
:102860006FFFC5E9000195F83800010710D5D5E9DB
:102870000023002B08BF002A0AD044F0200078284B
:1028800006D1686930213154401C421C6A613454BD
:10289000214668693044E86087E00868C01D20F080
:1028A00007000860D0E9002308300860C5E900236C
:1028B000D5E90001C80F04D06869411C69612D2267
:1028C0000DE0288F810704D56869411C69612B22BE
:1028D00005E0C00704D56869411C696120223254B3
:1028E00068693044E8602146284600F0C4F992E067
:1028F00005F13A02507820B14FF0FF340FF6540042
:1029000062E01078622808D0682824D06A2812D0A3
:102910006C282ED071280ED02BE00A680A6052F87D
:10292000040B0A6020B94FF0FF340FF640004BE073
:10293000E96A01706FE00A680A6052F8040B0A60E5
:1029400020B94FF0FF340FF624003DE0EA6AD317B8
:10295000C0E900235FE00A680A6052F8040B0A60CD
:1029600020B94FF0FF340FF604002DE0E96A018032
:1029700051E00A680A6052F8040B0A6020B94FF06F
:10298000FF340FF2E8701FE0E96A016043E00A6873
:102990000A6052F8040B0A60002120F0000221F0C6
:1029A000FF33C5E90023EE607821284600F0BBF82C
:1029B00031E00868086050F8044B0860EC603CB9EE
:1029C0004FF0FF340FF2BC7000F0EAFD201A70BD2A
:1029D0002E6B002E04D5204600F002FE044608E0CF
:1029E00032460021204600F017FE002814BF041BC9
:1029F0003446AC610FE06869411C6961252232549C
:102A000009E06969481C686125227254210002D0DE
:102A1000431C6B613454002070BD2DE9FC410F460E
:102A2000064690467A6B7869396ABC6A121AB869A8
:102A3000521A796A121AF869521A121A97F838005B
:102A4000141B41070FD42020002C8DF800000ADD54
:102A5000254601236A463946304600F05FFB0028D0
:102A60005DD16D1EF5D17B6942463946304600F096
:102A700055FB002853D130208DF800003D6A002D11
:102A800009DD01236A463946304600F047FB00283D
:102A900045D16D1EF5D1BB69FA683946304600F064
:102AA0003DFB00283BD130208DF800007D6A002DD1
:102AB00008DD01236A463946304600F02FFB70BB23
:102AC0006D1EF6D1F868B969FB694218394630467F
:102AD00000F024FB18BB30208DF80000BD6A002DEB
:102AE00008DD01236A463946304600F017FBB0B9CD
:102AF0006D1EF6D197F8380041070DD52020002C27
:102B00008DF8000008DD01236A463946304600F0A2
:102B100005FB20B9641EF6D10020BDE8F6814FF018
:102B2000FF30BDE8F6812DE9FC4307466F293E6979
:102B300008BF082405D041F02000782814BF0A24DB
:102B400010243C25D7E90023642918BF6929904641
:102B5000994605D1002B03D5D8F1000869EB490946
:102B6000B9F1000F08BFB8F1000F1FD1386BE8B9F9
:102B7000082C4CD197F83800010748D530203B2568
:102B800086F83B0043E000280ED597F8380000F0A7
:102B90001400102808D17B6B7969386A5B1A1B1AFC
:102BA0009A1A002AC8BF3A62BDE8F3838DF8001074
:102BB000404649462246E31700F05AFD3032D0B273
:102BC0006D1E3A28019504DB9DF80000A0F151012B
:102BD0008A187255404649462246E31700F048FDE0
:102BE00080465FEA010908BFB8F1000F03D0F8681A
:102BF00071198842DCD3082C09D197F838000107F5
:102C000005D5705D302802D06D1E30207055C5F19D
:102C10003C02BA617119F960386B8242B3DA821AE8
:102C20003A624FF6EF70398F01403987BDE8F38380
:102C30002DE9D04306460F4614464FF00008DFF852
:102C4000749212E0E00707D542464B4630463946BB
:102C5000FFF702F906460F464046494642464B46B4
:102C6000FFF7FAF8641080468946002CEAD1304616
:102C70003946BDE8D0832DE9F047064689468EB037
:102C8000D6E90001CDE9020104AC306B002802D581
:102C90000620306305E001BF49F0200067280121CC
:102CA0003163D6E9002358004015401C0DD11903AB
:102CB0000BD0A9F1610103201A29B06102D20FF2F1
:102CC000E04110E00FF2DC410DE059004915491CCC
:102CD0000ED118030CD1A9F1610103201A29B061AA
:102CE00016D30FF2C841F068032200F0D9FDDBE0F3
:102CF00023F00047B7F5801F1046194622F0000563
:102D00000DD20022002F08BF002D019203D116E042
:102D10000FF29441E7E701AA00F016FE08E06648CA
:102D2000664900EB1750019065480340104619436F
:102D3000019B644D47F29752534393FBF5F2C6E96A
:102D4000000120F0000331F0004104BF002B0023FC
:102D500000F0A280DDE90240019220F00045D2F1AE
:102D6000070204DD20462946FFF762FF0AE05242CF
:102D700000205549FFF75CFF02460B4620462946D6
:102D8000FFF782F9044649F0200ABAF1660F306B6A
:102D900006BF019D0A3506252D18142DC8BF142520
:102DA000302088468DF810000DF11107002D33DD1D
:102DB0002046414600F000FE01460A4607F108039E
:102DC00004200A27B2FBF7F707EB870EA2EB4E02AF
:102DD000303203F8012C0A22B7FBF2F202EB820E2A
:102DE000A7EB4E073037401E03F8027DE9D1083DBE
:102DF000002D03F10807D9DD084600F0F1FD024679
:102E00000B462046414600F0F9FD00222F4BFFF70C
:102E100023F804468846CBE70DF111003F1A0DF167
:102E2000110404E00198401E7F1E0190641C20786C
:102E30003028F7D0BAF1660F02D10198401C04E0A7
:102E4000BAF1650F0CBF01200020336BC3189F42FD
:102E5000B8BF7B1E002B1ED4BB4204DAE05C3528D1
:102E6000A8BF392000DA30201946621E02EB0108A3
:102E700000E05B1E18F80179491E8742F9D0392815
:102E800002D1605C401C6054002904D50198401CAC
:102E900014465B1C0190019800B200901BB22246C0
:102EA0004946304600F014F80EB0BDE8F087000047
:102EB000CBCCCC0C0000244002FCFFFF0000E03F24
:102EC000FFFF0F80A08601000000F03F84D79741EC
:102ED0002DE9F84783B005468A469146984600F0AA
:102EE000FFFDB8F1000F406A2F6B067803DC4FF04E
:102EF00001080FF2BC294AF02000BDF930406628D5
:102F000008BF641C13D0672840F08F8014F1040FB1
:102F10007ADBBC4278DA95F83800641C010702D4E9
:102F2000B845B8BF474620B23F1A48BF00270FFA3E
:102F300084FAE868A969BAF1000F23DC4A1C30233F
:102F40004354002F03DC95F83800010702D5E868E8
:102F50008654521C17EB0A0FB8BF7C4224B2E71903
:102F600060424745B8BFB846AA6168620FFA88F464
:102F7000EC61E868AB6922464946184400F090FCD1
:102F80003F1B18E022B29045084416DA42464946F3
:102F900000F086FCA8694044A861AAEB0801002F54
:102FA000696203DC95F838100A0704D5E9680E5405
:102FB000E869401CE861AF6299E0494600F070FCA6
:102FC000A869002F5044A8EB040803DC95F83810DA
:102FD0000A0702D5E9680E54401CA8610FFA88F070
:102FE0008742EB68A869B8BFB8460FFA88F209EBC8
:102FF0000A01184400F054FCA9690FFA88F0014452
:10300000A961381A686272E0B84504DA95F8381098
:103010000A0758BF47467F1E48BF0027BAF1670F0F
:103020000CBF4FF0650A4FF0450AA969EB68481CD0
:10303000A861002F19F8012B5A5403DC95F83810B9
:103040000A0719D5E968431CAB610E54002F13DD44
:10305000A8F1010630B28742D5F80CC0B8BF3E4691
:1030600032B249460CEB030000F01AFCA86936B2F4
:103070003018BF1BA8616F62E868A9690844002C7A
:1030800080F800A003D42B224270811C03E02D2184
:1030900041706442811C00206A460AE023460A24EB
:1030A00093FBF4F404EB8406A3EB460302F8013B24
:1030B000401C24B2002CF1DC012806DC4AF020027E
:1030C000652A04BF302201F8012B48B9302001F8ED
:1030D000010B07E0401E1DF80030303301F8013BC2
:1030E0000028F7DCEA68A8691044091AE96195F834
:1030F000380000F0140010280DD16A69A969686AC7
:103100008A18E9698218A86A8A188218686B82424C
:10311000BCBF821A2A6204B0BDE8F087F8B5054644
:103120000E4617461C46002074B117F8011BB06804
:10313000A847B06030B1F06A401CF0620020641E05
:10314000F3D1F2BD4FF0FF30F2BD0000686A6C743D
:103150007A4C00007072696E74665F733A20256E57
:1031600020646973616C6C6F776564007072696E5E
:1031700074663A2062616420256E20617267756D05
:10318000656E74007072696E74665F733A20626176
:103190006420257320617267756D656E7400000090
:1031A0006E616E004E414E00696E6600494E4600EB
:1031B0003000000010B50400200040B2042808DAF6
:1031C000012201211A4823005BB2C05CFEF728FCF3
:1031D0000FE0042004002000441E40B2002808D064
:1031E00001220121124823005BB2C05CFEF718FCEB
:1031F000F1E710BD10B50400200040B2042806DA43
:103200000B48210049B2405CFEF765FC0DE004204C
:1032100004002000441E40B2002806D004482100CB
:1032200049B2405CFEF757FCF3E710BD0000000018
:10323000C00BFF1F0EB4C0B5024603A800210190C9
:10324000009101AB0121044878440C30FFF7A6F946
:1032500006BC5DF810FB00BF9737000010B50400F6
:10326000002C13D0B4F1807F03D329210E48FFF73F
:10327000AFF80E48002101600D490C6000210D4A95
:103280001160052101600168C903FCD510BD10B5AE
:1032900004002000441E002804D007480068FFF7FF
:1032A000DDFFF6E710BD00004466000010E000E01E
:1032B00014E000E018E000E0D40FFF1F2DE9F84310
:1032C00004000D00200040B2002808D0022828D0B9
:1032D00016D3042847D035D3052855D065E0DFF84C
:1032E000EC01016851F4806101604FF440713020BD
:1032F000FFF702F94FF440713120FFF7FDF854E079
:10330000DFF8C801016851F4006101604FF44071B9
:103310004320FFF7F1F84FF440714420FFF7ECF839
:1033200043E0DFF8A801016851F4805101604FF4D7
:1033300040716320FFF7E0F84FF440716220FFF71F
:10334000DBF832E0DFF88401016851F400510160DC
:103350004FF440712B20FFF7CFF84FF440712A2033
:10336000FFF7CAF821E0DFF86801016851F48061D5
:1033700001604FF440719920FFF7BEF84FF440719F
:103380009820FFF7B9F810E0DFF84401016851F424
:10339000006101604FF440718920FFF7ADF84FF4F0
:1033A00040718820FFF7A8F8FFE7DFF828612000C8
:1033B00040B256F82000C07810F0F300210049B266
:1033C00056F82110C870200040B256F820008078CE
:1033D000210049B256F821108870200040B2002820
:1033E00003D0200040B2012805D13B4807684FF4C4
:1033F0007A70474304E0394807684FF47A704743CE
:103400002801B7FBF0F8404680B2B0F5005F02DB60
:1034100041F6FF708046B7FBF5F9404680B2B9EB44
:103420000019484680B2202804DB40F203112C48E2
:10343000FEF7CEFF200040B256F82000007810F0D2
:10344000E000C8F304210143220052B256F82220C2
:103450001170210049B256F8211081F80180210035
:1034600049B256F82110897A11F0E00119F01F02D3
:103470000A4323005BB256F823309A72220052B2FC
:1034800056F82220127C52F0880223005BB256F8D4
:1034900023301A74220052B256F82220D27852F009
:1034A0000C0223005BB256F82330DA70BDE8F183DA
:1034B000084A03005BB252F823301B791B06F7D58C
:1034C00003005BB252F82320D1717047348004406E
:1034D00028800440A00BFF1FD40FFF1FDC0FFF1F2D
:1034E0005868000038B50400200040B208280EDA01
:1034F000244D00220021200040B2285CFEF790FA03
:103500000321200040B2285CFFF71AF815E00820DC
:1035100004002000441E40B200280ED0194D0022A5
:103520000021200040B2285CFEF77AFA0321200037
:1035300040B2285CFFF704F8EBE731BD10B504009A
:103540001048210049B2405CFEF7E2FA002801D1A0
:10355000002000E0012010BD10B50400200040B2A2
:10356000FFF7ECFF00280AD10A20FFF790FE2000A9
:1035700040B2FFF7E3FF002801D1002000E0012066
:1035800010BD0000B80BFF1FC9B202788A421AB101
:103590001CBF10F8012FF9E718BF0020704700008A
:1035A00080B500B906A005490B681BB12222002195
:1035B000984701E000F098FA222002BDE00FFF1FBB
:1035C000636F6E73747261696E742068616E646C8F
:1035D00065723A20626164206D657373616765008E
:1035E00000F10103810704D010F8011B820781B1AB
:1035F000FAD10268A2F10131914311F0803104BF88
:1036000050F8042FF6E709BAB1FA81F100EBD100C6
:10361000401CC01A70470000C9B2830706D0521E72
:1036200022D310F8013B9942F7D11FE0083A13D397
:1036300002F1040241EA012141EA014150F8043B50
:10364000121F21BF4B40A3F1013C2CEA030C1CF0DC
:10365000803FF3D0C9B2001F083210F8013B521E60
:1036600028BF91EA030FF8D818BF0120401E704709
:10367000BBBBE1B1B2F5803F80F07E80022A1ED94B
:103680008C46B1FBF2F102FB11C31B0443EA104369
:10369000B3FBF2FC02FB1C3380B240EA0343B3FBF2
:1036A000F2F002FB103240EA0C4000237047022A7D
:1036B00005D98446B0FBF2F002FB10C270474AB154
:1036C00005D100F0010249085FEA3000704700228E
:1036D0000023704700F00CBA0B000200002100200C
:1036E0007047904271EB030CF6D3B3F5803F2FD2B5
:1036F000F0B5B3FA83F7B1FA81F4A7F10F0E3D1BD1
:103700005340CEF1200602FA0EF2F3415340B5F1D8
:103710000F0746D80F3C2C444140C4F12006A0407E
:10372000F1414140B1FBF3F603FB1611A2FB064544
:10373000001BA94102D2761E8018594180EA01027D
:1037400021FA0EF362FA0EF200215A403046F0BD23
:1037500030B4B1FBF3FC03FB1C11A2FB0C45001BB6
:10376000A94103D2ACF1010C8018594130BC02468A
:103770000B46604600217047B2F1807F65D3F0B5FB
:10378000B2FA82F7B1FA81F4C7F10F063D1B22FAB3
:1037900006F307F1110EF24120355A40B5F10F073B
:1037A000B8D94140C4F12006A040F1414140B1FBED
:1037B000F3FC03FB1C11A2FB0C45001BA94103D227
:1037C000BCF1010C801859410F2F12D30F3FC903D0
:1037D00041EA5041B1FBF3F603FB1611A2FB06458B
:1037E000D4EBC030A94102D2761E8018594146EA76
:1037F000CC3C07B34140C7F12006B840F1414140FD
:10380000B1FBF3F603FB1611A2FB0645001BA94111
:1038100002D2761E8018594180EA010221FA0EF385
:10382000C7F1200462FA0EF20CFA07F05A402CFAA3
:1038300004F13043F0BD80EA010221FA0EF30021C9
:1038400062FA0EF260465A40F0BD8C46B1FBF2F1CE
:1038500002FB11C31B0243EA1063B3FBF2FC02FB41
:103860001C331B024CEA002043EA1063B3FBF2FC5A
:1038700002FB1C331B024CEA002043EA1063B3FB3B
:10388000F2FC02FB1C331B024CEA002043EA1063EB
:10389000B3FBF2FC02FB1C324CEA00200023704711
:1038A00062B38B0708D0521E11F8013B00F8013BB0
:1038B00000F024808B07F6D1830740F0208000BF02
:1038C000103A07D330B4B1E83810103AA0E83810F5
:1038D000F9D230BC530724BFB1E80810A0E80810A3
:1038E00044BF51F8043B40F8043BD20724BF31F8F1
:1038F000022B20F8022B44BF0B7803707047121F75
:1039000017D35B0009D151F8043B20F8023B1B0C94
:10391000121F20F8023BF6D20BE051F8043B00F8EE
:10392000013B1B0A20F8023B1B0C121F00F8013B55
:10393000F3D238BF121D521E24BF11F8013B00F80C
:10394000013BF8D87047000010B5144600F002F8AB
:10395000226010BDC1F30A5343B14A0012F5001FA3
:1039600028D2A3F2FE32A1EB0251704750EA410C7B
:1039700020D001F0004C31EA0C01B1FA81F204BF11
:10398000B0FA80F3D2180B3AB2F120032CBF00FA40
:1039900003F1914041EA0C013EBFC2F1200C20FA34
:1039A0000CF319439040524240F2FD33D21A01EB1E
:1039B0000351704700227047400D491840EA8120AA
:1039C0000CD2490DA1F58061491C40F0004005DB97
:1039D000D1F11F0154BFC840C01770470020704785
:1039E000014648B1B0FA80F18840C91CC1F5846134
:1039F000090501EBD02140057047000070B44FF07D
:103A0000004591EA030F40F175806B40841A71EB19
:103A1000030603D2001BB141121973414FF4001C7D
:103A20001CEB410F34BF7CEB430442E00C0DA4EBD4
:103A30001356352E4FDC45EAC323DB0A45EAC12184
:103A4000C912B6F120050DDD63FA05F6EB4086EAF2
:103A50000305124218BF45F00105C01851F10001DD
:103A60000CD213E062FA06F5F2405540F3415A4099
:103A7000B340F3405A408018594107D349085FEAE0
:103A800030005FEA350528BF45F0010501F58011DA
:103A9000420875F1004250F1000041EB04514E0024
:103AA00016F5001F70BC38BF70470020090D0905CE
:103AB00070471CEB410F10D252EA43060BD0BCEB0F
:103AC000410F05D80C0DAB43661E342EB6DD02E067
:103AD000AB438018594170BC704770BC7047000000
:103AE00000487047C40BFF1F012000F0B9B8000068
:103AF00070470000841A71EB030604D26E40001B6D
:103B0000B141121973414FF4001C1CEB410F34BF3B
:103B10007CEB430683E00C0DA4EB1356362E00F32A
:103B20007C80012E45EAC32341DC43EA525312BF95
:103B3000D20292025B08240545EAC12141EA5051B4
:103B4000D2EBC020994125D407D1B0FA80F610FA03
:103B500006F162D00020203608E0B1FA81F6B140CB
:103B6000C6F1200220FA02F21143B0404FEAF47489
:103B7000B4EB465434F001064FEA74040AD8D6F583
:103B80000016760D04F00044F04061FA06F2504051
:103B9000F1404840C00A40EA415021F0004128BFAE
:103BA0005FEA500550F1000044EBD12135E0DB0A1B
:103BB00045EAC121C90AB6F120050EDD42EA0242FA
:103BC000120CC5F1200603FA06F6EB4042EA0605A0
:103BD0006D42984161F100010DE062FA06F5F24094
:103BE000554063FA06FC82EA0C02F3405A406D42EB
:103BF000904161EB030111F4801F05D1641E620541
:103C000002D06D004041494121F48011430875F113
:103C1000004350F1000041EB045170BC70471CEBB5
:103C2000410F15D223F0004352EA43060BD04FEA6E
:103C30004C0CBCEB410F04D80C0D661E342EB7DDC6
:103C4000EBE7801A994150EA410608BF0021E4E7FA
:103C500008BF1CEB430F28BF6FF00001DDE7000039
:103C60002021090326311820ABBEF9E700B003403C
:103C700000B00B4000000000000000000000000049
:103C80000000000000000000000000000000000034
:103C900000004E6F6E4D61736B61626C65000000D9
:103CA00000486172644661756C7400000000000099
:103CB0004D656D4D616E6167656D656E74000042A6
:103CC00075734661756C7400000000000000557348
:103CD0006167654661756C740000000000000000BB
:103CE00000000000000000000000000000000000D4
:103CF00000000000000000000000000000000000C4
:103D000000000000000000000000000000000000B3
:103D1000000000000000000000535643616C6C007E
:103D2000000000000000000044656275674D6F6E82
:103D300069746F72000000000000000000000000C5
:103D400000000000000050656E6453560000000043
:103D500000000000005379735469636B0000000099
:103D600000000000444D4130000000000000000051
:103D7000000000444D413100000000000000000040
:103D80000000444D4132000000000000000000002F
:103D900000444D413300000000000000000000001E
:103DA000444D4134000000000000000000000044C9
:103DB0004D41350000000000000000000000444DAF
:103DC00041360000000000000000000000444D41AA
:103DD000370000000000000000000000444D4138A2
:103DE0000000000000000000000000444D413900C8
:103DF00000000000000000000000444D4131300090
:103E0000000000000000000000444D41313100007E
:103E10000000000000000000444D4131320000006D
:103E200000000000000000444D413133000000005C
:103E3000000000000000444D41313400000000004B
:103E40000000000000444D4131350000000000003A
:103E500000000000444D415F4572726F7200000027
:103E60000000004D434D0000000000000000000075
:103E700000004654464C0000000000000000000016
:103E800000526561645F436F6C6C6973696F6E00AB
:103E90004C56445F4C565700000000000000004C98
:103EA0004C570000000000000000000000005761B7
:103EB000746368646F6700000000000000524E47A2
:103EC0000000000000000000000000004932433004
:103ED00000000000000000000000004932433100F3
:103EE00000000000000000000000535049300000B6
:103EF00000000000000000000053504931000000A5
:103F00000000000000000000535049320000000093
:103F10000000000000000043414E305F4F525F4DF3
:103F2000425F6275660043414E305F4275735F4F7A
:103F3000666600000043414E305F4572726F72004A
:103F40000000000043414E305F54785F5761726E4D
:103F5000696E6743414E305F52785F5761726E6998
:103F60006E6743414E305F57616B655F557000006F
:103F7000005265736572766564353100000000009B
:103F80005265736572766564353200000000004347
:103F9000414E315F4F525F4D425F62756600434153
:103FA0004E315F4275735F4F666600000043414EBD
:103FB000315F4572726F72000000000043414E3164
:103FC0005F54785F5761726E696E6743414E315F2F
:103FD00052785F5761726E696E6743414E315F5729
:103FE000616B655F557000000052657365727665A0
:103FF00064353900000000005265736572766564AF
:104000003630000000000055415254305F52585F76
:1040100054580000000055415254305F4552520040
:10402000000000000055415254315F52585F54580F
:104030000000000055415254315F455252000000CB
:1040400000000055415254325F52585F54580000EE
:10405000000055415254325F4552520000000000AA
:104060000055415254335F52585F545800000000CD
:1040700055415254335F4552520000000000005534
:10408000415254345F52585F54580000000055416B
:104090005254345F45525200000000000055415216
:1040A00054355F52585F5458000000005541525437
:1040B000355F45525200000000000041444330008B
:1040C00000000000000000000000414443310000F7
:1040D000000000000000000000434D5030000000D0
:1040E0000000000000000000434D503100000000BF
:1040F00000000000000000434D50320000000000AE
:1041000000000000000046544D3000000000000098
:10411000000000000046544D310000000000000087
:104120000000000046544D32000000000000000076
:10413000000000434D54000000000000000000009B
:104140000000525443000000000000000000000086
:1041500000526573657276656438330000000000B4
:1041600050495430000000000000000000000050E2
:1041700049543100000000000000000000005049D8
:1041800054320000000000000000000000504954BC
:1041900033000000000000000000000050444230E6
:1041A00000000000000000000000005553423000F5
:1041B000000000000000000000005553424443444A
:1041C000000000000000000000454E45545F3135FE
:1041D00038385F54696D6572454E45545F5472615D
:1041E0006E736D69740000454E45545F526563659A
:1041F000697665000000454E45545F4572726F72E6
:1042000000000000004932533000000000000000B0
:10421000000000005344484300000000000000007C
:104220000000004441433000000000000000000096
:104230000000444143310000000000000000000085
:10424000005453493000000000000000000000004E
:104250004D43470000000000000000000000004C3B
:104260005054696D65720000000000000000526546
:1042700073657276656431303200000000504F5231
:10428000544100000000000000000000504F525454
:104290004200000000000000000000504F52544354
:1042A00000000000000000000000504F5254440085
:1042B000000000000000000000504F525445000074
:1042C00000000000000000005265736572766564AE
:1042D00031303800000000526573657276656431D4
:1042E00030390000000052657365727665643131C3
:1042F00030000000005265736572766564313131BB
:1043000000000000526573657276656431313200D9
:1043100000000052657365727665643131330000C8
:1043200000005265736572766564313134000000B7
:1043300000526573657276656431313500000000A6
:104340005265736572766564313136000000005243
:10435000657365727665643131370000000052651F
:104360007365727665643131380000000052657300
:1043700065727665643131390000000000800340C9
:104380000090034000800B4000900B4000F00F4075
:1043900040F00F4080F00F40C0F00F4000F10F40A0
:1043A000F0000A1D300018003200180160001818D3
:1043B0006400181A6E00181F780013187D00131A75
:1043C0008200131C8C000E1296000E15A0000E1811
:1043D000AA000E1BB4000E1EC8000C1CE1000B1E30
:1043E000FA000A1F000109080090044000A00440E0
:1043F00000B0044000C0044000D0044000A00640CB
:1044000000B0064000C0064000D0064000A00E40AC
:1044100000B00E406A6E6B6C676D4E4F34353637A8
:10442000A46A0000A46A0000A46A0000A46A000054
:10443000A46A0000A46A0000A46A0000FFFFFFFF56
:10444000FFFFFFFFA66A0000A46A0000A46A000044
:10445000FFFFFFFFFFFF000002040101E40FFF1F49
:104460003410FF1FE40FFF1FE40FFF1F00000000C8
:10447000E40FFF1F00000000400CFF1F2C0CFF1F6B
:10448000000000000000000000000000000000002C
:10449000000000000000000000000000000000001C
:1044A00038B588B072B600F047FB62B6DFF8E04579
:1044B000DFF8E00503882288DFF8DC1506A8FCF7A2
:1044C000BDFF06AA00210020FDF7E0F8DFF8CC557B
:1044D0002B88DFF8CC050288DFF8C81504A8FCF7A4
:1044E000ADFF04AA02210020FDF7D0F8DFF8B805DF
:1044F0000378DFF8B8050288DFF8B41502A8FCF7E6
:104500009DFF02AA04210020FDF7C0F82288288818
:10451000121ADFF8A0156846FCF790FF6A460621DC
:104520000020FDF7B3F8C1E738B5DFF88C45206807
:10453000012835D1DFF884050068012830D1DFF883
:104540008005006801282BD140F2F23200210120C1
:1045500000F031FDDFF86C5529684FF4F0704143ED
:104560000220FDF7BDF94FF491620021012000F017
:1045700022FD296840F28A2041430220FDF7B0F96C
:1045800040F23A420021012000F015FD29684FF465
:10459000167041430220FDF7A3F9002020602EE2AF
:1045A0002068012835D1DFF814050068012830D1D2
:1045B000DFF80C05006802282BD140F2F23200210E
:1045C000012000F0F8FCDFF8FC5429684FF4F0708B
:1045D00041430220FDF784F94FF49162002101204C
:1045E00000F0E9FC296840F28A2041430220FDF7EF
:1045F00077F940F23A420021012000F0DCFC296802
:104600004FF4167041430220FDF76AF90020206044
:10461000F5E12068012835D1DFF8A0040068012801
:1046200030D1DFF89C04006802282BD140F2F2322E
:104630000021012000F0BFFCDFF8885429684FF406
:10464000F07041430220FDF74BF94FF491620021D5
:10465000012000F0B0FC296840F28A20414302208A
:10466000FDF73EF940F23A420021012000F0A3FCA0
:1046700029684FF4167041430220FDF731F90020FC
:104680002060BCE12068012835D1DFF830040068E3
:10469000012830D1DFF82804006804282BD140F22B
:1046A000F2320021012000F086FCDFF8185429685E
:1046B0004FF4F07041430220FDF712F94FF491627C
:1046C0000021012000F077FC296840F28A20414354
:1046D0000220FDF705F940F23A420021012000F0E6
:1046E0006AFC29684FF4167041430220FDF7F8F880
:1046F0000020206083E12068012835D1DFF8BC0369
:104700000068012830D1DFF8B803006805282BD1F4
:1047100040F2F2320021012000F04DFCDFF8A453FA
:1047200029684FF4F07041430220FDF7D9F84FF4A7
:1047300091620021012000F03EFC296840F28A20AD
:1047400041430220FDF7CCF840F23A42002101201B
:1047500000F031FC29684FF4167041430220FDF748
:10476000BFF8002020604AE12068012832D1D348F8
:10477000006801282ED1D248006806282AD140F2CC
:10478000F2320021012000F016FCCE4D29684FF4D2
:10479000F07041430220FDF7A3F84FF4916200212D
:1047A000012000F008FC296840F28A2041430220E1
:1047B000FDF796F840F23A420021012000F0FBFBA1
:1047C00029684FF4167041430220FDF789F8002054
:1047D000206014E12068012832D1B848006801281F
:1047E0002ED1B748006807282AD140F2F2320021C2
:1047F000012000F0E0FBB34D29684FF4F070414315
:104800000220FDF76DF84FF491620021012000F0C5
:10481000D2FB296840F28A2041430220FDF760F86C
:1048200040F23A420021012000F0C5FB29684FF414
:10483000167041430220FDF753F800202060DEE0AF
:104840002068012832D19D48006801282ED19C485B
:10485000006808282AD140F2F2320021012000F03D
:10486000AAFB984D29684FF4F07041430220FDF7F0
:1048700037F84FF491620021012000F09CFB296879
:1048800040F28A2041430220FDF72AF840F23A42E2
:104890000021012000F08FFB29684FF4167041437E
:1048A0000220FDF71DF800202060A8E02068012804
:1048B00032D18248006801282ED181480068092839
:1048C0002AD140F2F2320021012000F074FB7D4D2C
:1048D00029684FF4F07041430220FDF701F84FF4CE
:1048E00091620021012000F066FB296840F28A20D5
:1048F00041430220FCF7F4FF40F23A42002101203C
:1049000000F059FB29684FF4167041430220FCF770
:10491000E7FF0020206072E02068012832D167485C
:10492000006801282ED1664800680A282AD140F282
:10493000F2320021012000F03EFB624D29684FF465
:10494000F07041430220FCF7CBFF4FF4916200214D
:10495000012000F030FB296840F28A204143022008
:10496000FCF7BEFF40F23A420021012000F023FB99
:1049700029684FF4167041430220FCF7B1FF002074
:1049800020603CE02068012832D14C4800680128B2
:104990002ED14B4800680B282AD140F2F232002178
:1049A000012000F008FB474D29684FF4F0704143A7
:1049B0000220FCF795FF4FF491620021012000F0E6
:1049C000FAFA296840F28A2041430220FCF788FF66
:1049D00040F23A420021012000F0EDFA29684FF43C
:1049E000167041430220FCF77BFF0020206006E0A8
:1049F000FCF784F902000021012000F0DCFA31BD4F
:104A000010B531485FF0FF310160002115240068C6
:104A1000E040C0070AD52948016801600168491CC7
:104A20000160012024490860FFF77EFD10BDF8B544
:104A300026480468002101600025012616FA05F0C9
:104A40002100C9B201420DD03120FDF761F80028E4
:104A500004D01F480168491C016003E01C4801683C
:104A6000491E01600127BE402000C0B230420DD077
:104A70003020FDF74DF8002804D016480168491C85
:104A8000016003E013480168491E0160F1BD0000A8
:104A90003E10FF1F4010FF1F4C6A00004410FF1F14
:104AA0004210FF1F5C6A00004910FF1F4610FF1FE5
:104AB000246A00006C6A00002C0EFF1F300EFF1FDE
:104AC0004C10FF1FDC0FFF1FA0A0044050800B40C4
:104AD000380EFF1F340EFF1F10B410F00703584CA0
:104AE00022684FF6FF010A40564951EA03210A4362
:104AF000226010BC7047012210F01F018A40524909
:104B000003005BB25B0941F82320704710B4020038
:104B100052B2002A09D50A014C4B040064B214F0C9
:104B20000F04234403F8042C04E00A01484B04005A
:104B300064B21A5510BC704710B5FCF72DFD002269
:104B400001214520FCF76CFF002201215220FCF7D7
:104B500067FF002201211320FCF762FF00220121E0
:104B60003420FCF75DFF002200213520FCF758FFC0
:104B7000012200213120FCF753FF012200213020C7
:104B8000FCF74EFF00F096FB00F0BAFBFBF74CFC85
:104B9000FBF787FC4FF416510420FEF78FFB40F221
:104BA0003A44230032220021012000F043F9220080
:104BB0000021012000F0FFF900F0F2FB00F056F8B0
:104BC00024493520FDF798FC0320FFF785FF0021DD
:104BD0005820FFF79BFF01214420FFF797FF022198
:104BE0004020FFF793FF03214520FFF78FFF1A496D
:104BF000682000F06CFC5820FFF77DFF174C2168FF
:104C00000A2041430020FCF735FE1549542000F0EE
:104C10005EFC4420FFF76FFF21680120FCF72AFEAD
:104C20001049552000F053FC4520FFF764FF0E4962
:104C3000502000F04CFC4020FFF75DFF10BD00004D
:104C40000CED00E00000FA0500E100E018ED00E0E6
:104C500000E400E013010800014A0000DC0FFF1F20
:104C6000ED5A0000235B00002F4A000080B50123AD
:104C700001220021022000F037FA01230122012144
:104C8000022000F031FA01BD38B504000D0020000B
:104C900040B2002806D0022867D04BD3032800F08A
:104CA0007F80C6E0DFF8F805016851F0807101608F
:104CB000280040B200280BD0022815D00ED30428BB
:104CC0001ED017D3062827D020D307282AD02FE0BC
:104CD0004FF480614120FDF70FFC2AE04FF4806122
:104CE0004220FDF709FC24E04FF480614320FDF7EA
:104CF00003FC1EE04FF440710620FDF7FDFB18E0B9
:104D00004FF440710720FDF7F7FB12E04FF480618C
:104D10006520FDF7F1FB0CE04FF480616620FDF7A4
:104D2000EBFB06E04FF480616720FDF7E5FB00E058
:104D30007FE07EE0DFF86805016851F000710160F6
:104D4000280040B2002802D0012806D00BE04FF422
:104D500040712020FDF7D0FB06E04FF44071212088
:104D6000FDF7CAFB00E064E063E0DFF838050168A6
:104D700051F080710160280040B2002802D0012863
:104D800006D00BE04FF440713220FDF7B5FB06E092
:104D90004FF440713320FDF7AFFB00E049E048E0FD
:104DA000DFF80005016851F000710160280040B291
:104DB00000280BD0022816D00ED304281FD018D3F9
:104DC000062828D021D307282BD030E04FF4C0612B
:104DD0008520FDF791FB2BE04FF48271DFF8C804CA
:104DE000FDF7F6FA24E04FF4C0618720FDF784FB5D
:104DF0001EE04FF4C0618820FDF77EFB18E04FF401
:104E0000C0618920FDF778FB12E04FF4C0618A2071
:104E1000FDF772FB0CE04FF4C0618B20FDF76CFBDB
:104E200006E04FF4C0618C20FDF766FB00E000E077
:104E3000FFE731BD2DE9F84F04000D0016001F00FB
:104E4000200040B2002815D0200040B2032811D025
:104E5000200040B201280DD0200040B2022803D12A
:104E6000280040B2022805DB40F27B11DFF838044D
:104E7000FDF7AEFA290049B2200040B2FFF704FF67
:104E8000DFF82804D0F800904FF47A7000FB09F99D
:104E90004846000CB0FBF6FA5FF0000B504680B2BB
:104EA00050FA0BF0012802DB1BF1010BF6E7584624
:104EB000C0B2082805DB4FF4CB71DFF8EC03FDF737
:104EC00087FA484630FA0BF0B0FBF6F0210049B201
:104ED000002903D0022917D00BD320E0010089B2AA
:104EE000491C01FB07F142F21072B1FBF2F1884656
:104EF00015E0010089B2491C01FB07F142F2107272
:104F0000B1FBF2F188460AE0010089B2491C01FBBD
:104F100007F142F21072B1FBF2F18846FFE7DFF8C9
:104F20009013220052B251F822202B005BB202EB08
:104F3000C30223005BB251F82330AC464FFA8CFC1D
:104F400003EBCC03DB6833F00403D360220052B2DE
:104F500051F822202B005BB202EBC3022823D3605E
:104F60005A46D2B212F0070252F0080223005BB296
:104F700051F823301A60020092B223005BB251F85C
:104F800023309A60002223005BB251F82330DA64A8
:104F9000220052B251F822202B005BB202EBC30276
:104FA00043469BB21361002223005BB251F82310E9
:104FB0004A60BDE8F18F2DE9F04180460D001600F2
:104FC0000024404640B2032815D0404640B2002895
:104FD00011D0404640B2012803D0404640B20228DA
:104FE00003D1280040B2022805DB4FF4EA71DFF854
:104FF000B802FDF7EDF9404640B2002805D002287E
:1050000019D00DD3032821D02BE042F21170864233
:1050100005D340F2D911DFF89002FDF7D9F920E06D
:1050200042F21170864205D340F2DD11DFF87802BA
:10503000FDF7CEF915E042F21170864205D340F239
:10504000E111DFF86402FDF7C3F90AE042F21170E2
:10505000864205D34FF4F271DFF84C02FDF7B8F940
:10506000FFE7DFF84C02414649B250F82110896849
:105070000C00002CF5D0414649B2002905D0022988
:1050800015D00BD303291BD023E0611C01FB06F1D3
:1050900042F21072B1FBF2F10F001AE0611C01FB49
:1050A00006F142F21072B1FBF2F10F0011E0611C47
:1050B00001FB06F142F21072B1FBF2F10F0008E0C1
:1050C000611C01FB06F142F21072B1FBF2F10F001C
:1050D000FFE7414649B250F82100290049B200EBF0
:1050E000C1000761BDE8F081F8B504000D001600AD
:1050F0001F00200040B2002810D0200040B201283C
:1051000003D0200040B2022803D1280040B2022878
:1051100004DB40F24D216448FDF75AF9290049B2F9
:10512000200040B2FFF7B0FD300040B2002803D0AD
:10513000022855D02AD37CE05D48210049B250F8BE
:1051400021102A0052B201EBC201220052B250F8E3
:1051500022202B005BB202EBC302D26852F0440261
:10516000CA60210049B250F821102A0052B201EB66
:10517000C201220052B250F822002A0052B200EBC3
:10518000C200C06830F03800C86052E048482100D2
:1051900049B250F821102A0052B201EBC20122009C
:1051A00052B250F822202B005BB202EBC302D2684D
:1051B00052F04802CA60210049B250F821102A007A
:1051C00052B201EBC201220052B250F822002A0072
:1051D00052B200EBC200C06830F03400C86028E072
:1051E0003348210049B250F821102A0052B201EB95
:1051F000C201220052B250F822202B005BB202EB17
:10520000C302D26852F04C02CA60210049B250F881
:1052100021102A0052B201EBC201220052B250F812
:1052200022002A0052B200EBC200C06830F0300009
:10523000C8601F48390049B211F0070151F0080158
:10524000220052B250F822201160210049B250F8D9
:105250002110496D51F00401220052B250F8222071
:1052600051650021220052B250F8222051662100DF
:1052700049B250F82110496D49084900220052B244
:1052800050F8222051650021220052B250F822200D
:10529000D1640021220052B250F822000165F1BD14
:1052A0003C8004403080044050670000DC0FFF1F4A
:1052B000200BFF1F80B5002200214820FCF7B0FB27
:1052C00012214820FDF73CF9002200214920FCF77B
:1052D000A7FB12214920FDF733F9002200214A20C3
:1052E000FCF79EFB12214A20FDF72AF9002200213B
:1052F0004B20FCF795FB12214B20FDF721F901BD56
:105300001E480068012803D101201D49086002E001
:1053100000201B4908601B480068012803D10120B8
:105320001949086002E00020174908601748006822
:10533000012803D101201649086002E00020144929
:10534000086014480068012803D101201249086050
:1053500002E00020104908600F4800680C49096805
:1053600010EB41000849096810EB81000449096805
:1053700010EBC10009490860704700002012FE438D
:10538000FC0DFF1F2412FE43F80DFF1F2812FE43E1
:10539000F40DFF1F2C12FE43F00DFF1F000EFF1F28
:1053A00010B543F2C8240023220000210020FFF79B
:1053B00041FD0023220001210020FFF73BFD0023D7
:1053C000220002210020FFF735FD002322000321E7
:1053D0000020FFF72FFD10BD10B5040041F288300A
:1053E000210009B2814201DB040006E0200000B286
:1053F0002C49884201DA2C480400200000B2002821
:105400000BD4220012B200210020FFF7D4FD0022AD
:1054100001210020FFF7CFFD10E0200000B200289E
:105420000CD524B26442002200210020FFF7C3FD06
:10543000220012B201210020FFF7BDFD10BD10B502
:10544000040041F28830210009B2814201DB0400EE
:1054500006E0200000B21349884201DA1248040035
:10546000200000B200280BD4220012B2022100203A
:10547000FFF7A1FD002203210020FFF79CFD10E0B3
:10548000200000B200280CD524B264420022022180
:105490000020FFF790FD220012B203210020FFF749
:1054A0008AFD10BD79ECFFFF78ECFFFF10B504001A
:1054B0004FF4007094FBF0F100FB1140002803D082
:1054C0001E210B48FCF784FF0A48046010BD70B52C
:1054D00004000D00084E07480068B04203D0302198
:1054E0000348FCF775FF200040B246F8205070BD1D
:1054F000B068000008ED00E00000FF1F00000000A1
:10550000000000000000000000000000000000F8A3
:1055100000000000000000333000000000100C0606
:10552000100C0600000000000000000040C07840A1
:10553000C0784000043F04043F040400007088FC6D
:1055400008300000001820FF211E0000F008F000C5
:10555000E018000000211C031E211E0000F0088836
:10556000700000001E2123241927211010160E00A0
:10557000000000000000000000000000000000E04B
:105580001804020000000007182040000002041860
:10559000E00000000040201807000000404080F0BC
:1055A000804040000202010F01020200000000F0F2
:1055B000000000000101011F0101010000000000C6
:1055C0000000000080B0700000000000000000003B
:1055D00000000000000101010101010100000000C4
:1055E000000000000030300000000000000000005B
:1055F00080601804006018060100000000E0100838
:105600000810E000000F102020100F00001010F80C
:10561000000000000020203F20200000007008084B
:1056200008887000003028242221300000300888CB
:10563000884830000018202020110E000000C020F3
:1056400010F8000000070424243F240000F8088814
:10565000880808000019212020110E0000E01088A1
:1056600088180000000F112020110E0000380808D3
:10567000C83808000000003F0000000000708808E3
:1056800008887000001C222121221C0000E0100864
:105690000810E0000000312222110F00000000C0BD
:1056A000C00000000000003030000000000000805A
:1056B000000000000000806000000000000080404A
:1056C0002010080000010204081020004040404063
:1056D00040404000040404040404040000081020B6
:1056E00040800000002010080402010000704808FB
:1056F0000808F0000000003036010000C030C82863
:10570000E810E0000718272423140B000000C0381D
:10571000E0000000203C23020227382008F8888897
:1057200088700000203F202020110E00C0300808A3
:1057300008083800071820202010080008F808087A
:105740000810E000203F202020100F0008F8888873
:10575000E8081000203F20202320180008F888883F
:10576000E8081000203F200003000000C0300808B7
:105770000838000007182020221E020008F8080040
:105780000008F808203F210101213F20000808F807
:10579000080800000020203F20200000000008082A
:1057A000F8080800C08080807F00000008F888C0EA
:1057B00028180800203F20012638200008F808009B
:1057C00000000000203F20202020300008F8F800D2
:1057D000F8F80800203F003F003F200008F830C0E4
:1057E0000008F808203F200007183F00E0100808D4
:1057F0000810E0000F10202020100F0008F8080803
:105800000808F000203F210101010000E010080815
:105810000810E0000F18242438504F0008F888883A
:1058200088887000203F2000030C3020007088081A
:10583000080838000038202121221C00180808F828
:10584000080818000000203F2000000008F80800A9
:105850000008F808001F202020201F00087888007A
:1058600000C83808000007380E010000F80800F8EA
:105870000008F800033C0700073C03000818688094
:105880008068180820302C03032C30200838C8000A
:10589000C83808000000203F200000001008080859
:1058A000C83808002038262120201800000000FEFB
:1058B000020202000000007F40404000000C30C0A7
:1058C00000000000000000010638C00000020202D3
:1058D000FE000000004040407F0000000000040285
:1058E00002020400000000000000000000000000B0
:1058F00000000000808080808080808000020204A0
:105900000000000000000000000000000000808097
:10591000808000000019242222223F2008F8008005
:1059200080000000003F112020110E0000000080C8
:1059300080800000000E1120202011000000008057
:105940008088F800000E112020103F200000808089
:1059500080800000001F222222221300008080F09D
:10596000888888180020203F2020000000008080C8
:1059700080808000006B94949493600008F800800D
:1059800080800000203F210000203F200080989868
:10599000000000000020203F2020000000000080C8
:1059A0009898000000C08080807F000008F8000008
:1059B00080808000203F24022D302000000808F85D
:1059C000000000000020203F202000008080808018
:1059D00080808000203F20003F20003F80800080AA
:1059E00080800000203F210000203F2000008080B8
:1059F00080800000001F202020201F008080008069
:105A00008000000080FFA12020110E000000008017
:105A100080808000000E112020A0FF808080800008
:105A20008080800020203F21200001000000808035
:105A3000808080000033242424241900008080E02A
:105A4000808000000000001F2020000080800000F7
:105A500000808000001F202020103F2080808000D8
:105A60000080808000010E300806010080800080E8
:105A7000008080800F300C030C300F00008080000D
:105A8000808080000020312E0E3120008080800038
:105A90000080808080818E701806010000808080E8
:105AA000808080000021302C222130000000000086
:105AB000807C020200000000003F40400000000027
:105AC000FF00000000000000FF0000000002027C58
:105AD000800000000040403F00000000000601017F
:105AE00002020404000000000000000010B5DFF80E
:105AF00098432068800880002060FAF750FFFBF789
:105B00003DF8FBF7FBF8020000210120FFF753FAF4
:105B1000206850F001002060206850F003002060F1
:105B200010BD10B5DFF86443206880088000206055
:105B3000DFF85C030178491C0170017832290DD12E
:105B40000021017000F013F800F05CF80020DFF88D
:105B5000441308600020DFF840130860206850F00C
:105B600001002060206850F00300206010BD70B577
:105B7000DFF82813DFF8280302680A600268521C65
:105B80000260DFF81023DFF81C4320681060DFF8A4
:105B90000803DFF814532B680360DFF8103316682E
:105BA00000688619022096FBF0F01860186800283B
:105BB00008D01068002805D01A680968DFF8F002DC
:105BC000FDF738FB002020600020286070BDF8B58C
:105BD00004002F00DFF8DC0200682100FCF778FBEE
:105BE000060030003900FCF7C1F8DFF8CC12096874
:105BF000FCF76EFB3100FBF7C9FFFBF7ADFFAF49C8
:105C00000880F1BD10B5AE480178012912D10021FC
:105C1000AC4A1160AC49AD4A11600021AC4A116038
:105C2000DC21AC4A1180AC49A24A1160AB49A24ABE
:105C30001160F6E00178022913D10021A14A116018
:105C4000A149A24A11600021A14A1160C821A14ABC
:105C500011805FF08141974A1160A049964A116016
:105C6000DFE00178032913D10021964A116096499B
:105C7000964A11600021964A1160C821954A118008
:105C80005FF081418B4A116094498B4A1160C8E0F2
:105C90000178042913D100218A4A11608A498B4A6C
:105CA000116000218A4A1160C8218A4A11805FF080
:105CB0008141804A116089497F4A1160B1E00178D1
:105CC000052913D100217F4A11607F497F4A116065
:105CD00000217F4A1160C8217E4A11805FF0814116
:105CE000744A11607D49744A11609AE0017806296E
:105CF00013D10021734A11607349744A1160002165
:105D0000734A1160AA21734A11805FF08141694A88
:105D100011607249684A116083E00178072913D144
:105D20000021684A11606849684A11600021684A88
:105D30001160A021674A11805FF081415D4A1160C6
:105D400066495D4A11606CE00178082913D1002191
:105D50005C4A11605C495D4A116000215C4A116037
:105D600096215C4A11805FF08141524A11605B4983
:105D7000514A116055E00178092913D10021514A97
:105D800011605149514A11600021514A11608C2122
:105D9000504A11805FF08141464A11604F49464A9E
:105DA00011603EE001780A2913D10021454A1160B3
:105DB0004549464A11600021454A11609621454AED
:105DC00011805FF081413B4A116044493A4A1160B9
:105DD00027E001780B2912D100213A4A11603A4993
:105DE0003A4A116000213A4A11607821394A1180FB
:105DF0003B49304A116039492F4A116011E00021B6
:105E0000304A11603049314A11600021304A116036
:105E1000C821304A11803349264A11602F49264A49
:105E200011600021017030480068FFF7D0FE2F4A52
:105E30002249284B1C880888241A14802C4C1B8863
:105E40000888C31823802B480078002806D100203A
:105E5000FFF7C2FA0020FFF7F2FA13E00D480168DD
:105E600009B2B2F9000000F047F800B2FFF7B4FA47
:105E70000948016809B2B4F9000000F03DF800B229
:105E8000FFF7DDFA10BD00000C7103401C710340E8
