:10000000F8FF002011040000A7240000A72400002E
:10001000A7240000A7240000A7240000A7240000B4
:10002000A7240000A7240000A7240000A7240000A4
:10003000A7240000A7240000A7240000A724000094
:10004000A7240000A7240000A7240000A724000084
:10040000FFFFFFFFFFFFFFFFFFFFFFFFFEFFFFFFFD
:1004100062B605F031FCFEE7DFF800F08B0CFF1F41
:10042000DFF800F0E30CFF1F80B52E2000F098FEEF
:100430000E2000F095FE2F2000F092FE0D2000F01F
:100440008FFE0C2000F08CFE332000F089FE20206F
:1004500000F086FE132000F083FE002000F080FEF6
:1004600001BD2DE9F04104000D0016005FF0000809
:10047000002738003100C0B2C9B288420AD2290030
:1004800049B2200040B200F06CFF18FA80F08046BC
:100490007F1CEEE73000C0B2B8FBF0F080B2BDE8E0
:1004A000F0812DE9F04F89B0002008905FF000093D
:1004B0005FF00008002400250020DFF8A8A7CAF894
:1004C0001000CAF80C00CAF80800CAF80400CAF8FC
:1004D0000000DFF89407DFF894170861C8608860AF
:1004E00048600860DFF888070068082840F08080CE
:1004F000DFF8801706A800F08DFF06AA0021002073
:1005000001F0B0F8DFF8701704A800F083FF04AA28
:100510000221002001F0A6F85FF0000B584680B2DF
:10052000B0F5AF6F4DDADFF8547714220121332094
:10053000FFF797FF01F06AF93860142201212020AB
:10054000FFF78FFF01F062F9786014220121132078
:10055000FFF787FF01F05AF9B8601422012100204B
:10056000FFF77FFF01F052F9F860142201210E20FD
:10057000FFF777FF01F04AF93861002006003000EC
:1005800080B2052814DA300080B25AF82000310019
:1005900089B257F8211001F047F907D2300080B234
:1005A00057F82000310089B24AF82100761CE6E7AE
:1005B000DFF8CC060168032001F07EF91BF1010B86
:1005C000ACE7FE20FFF728FF0027380080B205289F
:1005D00047DA380080B25AF8200001F0CDF9020065
:1005E000BFB2B90089B2FE20FFF71AFF7F1CECE70B
:1005F0000027380080B2042817DA002006003000F7
:1006000080B205280FDA300080B2800010F5FE209D
:10061000B0F9000000B201F0DDF9310089B24AF80A
:100620002100761CEBE77F1CE3E7DFF8581602A8F1
:1006300000F0F0FE02AA0021002001F013F8DFF81C
:100640003816684600F0E6FE6A460221002001F0F6
:1006500009F8DFF82C060168C8204143032001F0A7
:100660002BF901220121342001F0C6F9DFF8100630
:10067000006801F05DFA0022DFF80C3601F06EFA36
:1006800001F03EFB0100032001F016F900220121D8
:10069000342001F0B1F900F06BFF09B0BDE8F08F34
:1006A0002DE9F0470027380000B205283EDADFF8D0
:1006B000DC85142201213320FFF7D3FE01F0A6F8D8
:1006C000390009B248F82100142201212020FFF747
:1006D000C8FE01F09BF8390009B208EB81014861BE
:1006E000142201211320FFF7BCFE01F08FF839001E
:1006F00009B208EB81018862142201210020FFF772
:10070000B0FE01F083F8390009B208EB8101C8633B
:10071000142201210E20FFF7A4FE01F077F8390022
:1007200009B208EB810108657F1CBCE75FF0000897
:10073000404600B2052852DA00200400200000B232
:10074000042849DA00200500280000B2210009B27F
:10075000D1F1040188423DDA1427DFF8309518FB07
:1007600007F04844290009B200EB8100406818FBFB
:1007700007F149442A0012B251F8221001F054F84E
:1007800026D218FB07F04844290009B200EB81008B
:10079000406801F0C9FA060018FB07F04844290038
:1007A00009B200EB810018FB07F149442A0012B29C
:1007B00051F82210416018FB07F009EB0007A94629
:1007C0000FFA89F9300000B201F004F947F8290066
:1007D0006D1CB9E7641CB1E718F10108A8E7002710
:1007E000380000B2052829DADFF8A4845FF0140984
:1007F000DFF898A417FB09F05044406817FB09F193
:100800005144896801F0A6FA17FB09F15144C968FF
:1008100001F0A0FA390009B248F82100380000B20E
:1008200058F82000DFF86C1401F006FBDFF86814BC
:100830003A0012B241F822007F1CD1E700200100EB
:1008400009B2042934DADFF85414020012B201EBC1
:100850008202526803001BB241F82320020012B248
:1008600001EB8202926903001BB201EB83035A6120
:10087000020012B201EB8202D26A03001BB201EB4A
:1008800083039A62020012B201EB8202126C03002F
:100890001BB201EB8303DA63020012B201EB8202A6
:1008A000526D03001BB201EB83010A65401CC6E7D1
:1008B0000021080000B205280EDADFF8DC030A0088
:1008C00012B250F82200DFF8D423142311FB03F3F3
:1008D0001A441061491CECE70027380000B20528D3
:1008E0003BDADFF8BC83DFF8B493D8F800003900B6
:1008F00009B259F8211001F02DFAC8F80000D8F813
:100900000400390009B209EB8101496901F022FABA
:10091000C8F80400D8F80800390009B209EB8101D1
:10092000896A01F017FAC8F80800D8F80C003900F5
:1009300009B209EB8101C96B01F00CFAC8F80C008F
:10094000D8F81000390009B209EB8101096D01F0F6
:1009500001FAC8F810007F1CBFE75FF000084046AE
:1009600000B2052816DADFF83873404600B257F8AF
:100970002000BD4901F060FADFF82813424612B2A8
:1009800041F822000020414609B247F8210018F141
:100990000108E4E7BDE8F087F8B5FFF781FE002421
:1009A000200000B2052854DADFF8FC52AF4EDFF821
:1009B000F402210009B250F82100210009B256F8D2
:1009C000211001F0B7FA0700A648210009B250F83B
:1009D0002100210009B256F8211001F0ABFA010004
:1009E000380001F029FA210009B245F82100200061
:1009F00000B255F82000002100F016FF05D8DFF8FE
:100A0000AC02210009B245F82100200000B255F8DF
:100A10002000DFF89C1201F0CDFA05D85FF07E507F
:100A2000210009B245F82100200000B255F820004D
:100A300001F0D2FA0022DFF87C3201F08FF801F0E9
:100A4000EFFADFF87412220012B241F82200641C9F
:100A5000A6E7DFF8645228685FF07E5100F0E4FEFC
:100A600002D25FF07E5000E02868286068685FF07E
:100A70007E5100F0D9FE02D25FF07E5000E068683F
:100A80006860A8685FF07E5100F0CEFE02D25FF091
:100A90007E5000E0A868A860E8685FF07E5100F032
:100AA000C3FE02D25FF07E5000E0E868E86028688C
:100AB00001F03AF9DFF804120880686801F034F9AF
:100AC000DFF8FC110880A86801F02EF9DFF8F411B6
:100AD0000880E86801F028F9DFF8EC110880DFF8F9
:100AE000F065624DDFF8B0010069296901F022FA72
:100AF00007005C480069296901F01CFA0100380010
:100B000001F09AF930603068002100F08DFE02D8C3
:100B1000DFF898013060DFF8BC55306801F05CFA0E
:100B20000022DFF8643101F019F801F079FA286049
:100B3000286801F0F9F8DFF8A0150880F1BD30B49D
:100B40000200002080231900C9B200290FD0181814
:100B50001400A4B20500EDB20100C9B24D43AC428D
:100B600000DAC01ADBB2022193FBF1F3EBE7C0B26B
:100B700080B230BC70472DE9F843DFF84441DFF81C
:100B80003C5128882188081880B2FFF7D8FF80469A
:100B9000DFF83061DFF830711FFA88F83888318863
:100BA000081880B2FFF7CBFFB8EB0008404600F012
:100BB000BFFF0022DFF8FC3000F0D0FF80468946FE
:100BC0002888398811FA80F0218810FA81F031885C
:100BD00010FA81F000F0ACFF02000B0040464946DD
:100BE00001F052FA01F01CFADFF8F0140860DFF8A7
:100BF000F0040178002905D002291FD010D3032961
:100C000028D02CE00121DFF8DC24117001210170D3
:100C1000DFF8D4140968642901D1032101701EE0B2
:100C20000121DFF8C024117002210170DFF8B8142F
:100C30000968642901D10321017010E00121DFF866
:100C4000A4241170DFF8A0140968642901D10321DC
:100C5000017004E00020DFF88C140870FFE7BDE8A5
:100C6000F1830000C80EFF1F0000A040DC0EFF1F34
:100C7000000EFF1FD4620000E0620000A00EFF1F04
:100C8000DC0FFF1F1063000000005940F00EFF1F33
:100C9000680FFF1F00004040540FFF1F3C0EFF1F56
:100CA000B40EFF1F840FFF1FAC0FFF1F6F12833A9C
:100CB0000100803F00408F40980FFF1F3E10FF1F34
:100CC0004010FF1F4210FF1F4410FF1F2DE9F0418D
:100CD00040F28535DFF814743888A8425ADBDFF813
:100CE0001084B8F80000A84254DB40F2B730DFF8B7
:100CF00004140A88824204DBDFF8FC231288322ABB
:100D000007DBDFF8F4231288824243DB08883228AD
:100D100040DADFF8C8633888B8F80010401A00F0ED
:100D200007FF0022DFF8D43300F018FF04000D00A5
:100D30003888B8F8001011FA80F000F0F9FE0200CF
:100D40000B002000290001F09FF901F069F93060E3
:100D5000DFF8AC4300253068210001F0B9FADFF874
:100D6000A41300F0F7FF07003068DFF89C13096850
:100D700001F0E0F8290001F0ABFA390000F0EAFFD9
:100D800000F0FAFDDFF8841308600120DFF880131B
:100D9000087075E1DFF84443206800F0C5FF01F0FA
:100DA00003FB652822DADFF86C53DFF86C632068F8
:100DB000290001F08DFADFF84C1300F0CBFF07009B
:100DC0002068DFF84413096801F0B4F8310001F03D
:100DD0007FFA390000F0BEFF00F0CEFDDFF82C13E3
:100DE00008600220DFF82813087049E1206800F04D
:100DF0009BFF01F0D9FAC9281CDAC74DC74E2068FD
:100E0000290001F065FABF4900F0A4FF070020683F
:100E1000BD49096801F08EF8310001F059FA390036
:100E200000F098FF00F0A8FDB84908600320B84919
:100E3000087025E1206800F077FF01F0B5FA40F274
:100E40002D1188421DDA5FF08345B54E20682900D8
:100E500001F03EFAAB4900F07DFF07002068AA4987
:100E6000096801F067F8310001F032FA390000F04A
:100E700071FF00F081FDA54908600420A4490870B5
:100E8000FEE0206800F050FF01F08EFA40F2911170
:100E900088421CDAA34DA44E2068290001F018FAFC
:100EA000984900F057FF070020689749096801F04A
:100EB00041F8310001F00CFA390000F04BFF00F06E
:100EC0005BFD92490860052091490870D8E02068D0
:100ED00000F02AFF01F068FA40F2F51188421CDAAE
:100EE000924D934E2068290001F0F2F9854900F0F7
:100EF00031FF070020688449096801F01BF83100C0
:100F000001F0E6F9390000F025FF00F035FD7F49DA
:100F1000086006207E490870B2E0206800F004FFF7
:100F200001F042FA40F2592188421DDA5FF084450F
:100F3000804E2068290001F0CBF9724900F00AFFC9
:100F4000070020687049096800F0F4FF310001F0E3
:100F5000BFF9390000F0FEFE00F00EFD6B4908609D
:100F600007206B4908708BE0206800F0DDFE01F07F
:100F70001BFA40F2BD2188421CDA6F4D6F4E20688B
:100F8000290001F0A5F95F4900F0E4FE07002068A0
:100F90005D49096800F0CEFF310001F099F9390090
:100FA00000F0D8FE00F0E8FC5849086008205849D5
:100FB000087065E0206800F0B7FE01F0F5F940F236
:100FC000213188421CDA5E4D5E4E2068290001F016
:100FD0007FF94C4900F0BEFE070020684A490968C5
:100FE00000F0A8FF310001F073F9390000F0B2FE03
:100FF00000F0C2FC454908600920454908703FE0FF
:10100000206800F091FE01F0CFF9A8421CDA4E4DA5
:101010004E4E2068290001F05BF93A4900F09AFE33
:10102000070020683849096800F084FF310001F0AA
:101030004FF9390000F08EFE00F09EFC3349086045
:101040000A20334908701BE0414D424E20682900B8
:1010500001F03EF92B4900F07DFE070020682A4987
:10106000096800F067FF310001F032F9390000F043
:1010700071FE00F081FC254908600B2024490870AE
:10108000164C206800F050FE01F08EF900F0A2FC32
:10109000314908601C4D2068296800F04BFF2F493A
:1010A0000860206828601948016840F2EE329142D9
:1010B00003D240F2ED31016005E040F28B4102685D
:1010C0008A4200D30160006800B2BDE8F0810000F0
:1010D0007C0FFF1F800FFF1F4610FF1FC00FFF1F59
:1010E0004910FF1F4A10FF1F2C0EFF1F3E10FF1F4D
:1010F0004410FF1F4010FF1F4210FF1F0000594007
:101100000000A04000408744C40FFF1FD00FFF1F06
:101110004B10FF1F0000C040000020410000A04114
:101120000000F0410000C041000020420000E0410A
:1011300000004842000070420000084200008C425B
:10114000000018420000A042000028420000B44203
:10115000000038420000C842C80FFF1FCC0FFF1F1D
:1011600038B5040025006DB26D112800C0B200280A
:1011700002D001280DD019E0A148016851F00061AA
:101180000160A048016831F09001016001680160D0
:1011900010E09D48016851F00061016099480168C4
:1011A00031F4104101600168016003E03321974888
:1011B00001F00EF9200040B2002800F089800128DB
:1011C00000F08680032800F0838008284ED009288C
:1011D00051D00A2854D00B2857D00C285AD00D28AB
:1011E0005DD00E2860D00F2863D0102870D0112851
:1011F00064D0122867D013286AD0142868D01A281F
:1012000066D01D2864D01E2862D0202861D02128F5
:101210005FD023285DD024285CD025285FD02628E5
:1012200062D0272865D0282868D029286BD02A28A2
:101230006ED02B2871D02C2874D02D2877D02E2852
:101240007AD02F287DD0302800F0858031287DD0BD
:10125000322800F0808033287DD034287BD03A2893
:1012600079D03D2877D03E2875D075E00021202028
:1012700001F042F974E00021212001F03DF96FE016
:101280000021072001F038F96AE00021082001F070
:1012900033F965E00021222001F02EF960E0002101
:1012A000232001F029F95BE00021402001F024F91E
:1012B00056E00021412001F01FF951E00021982063
:1012C00001F01AF94CE00021992001F015F947E0EE
:1012D00046E045E00021802001F00EF940E00021C9
:1012E000812001F009F93BE00021822001F004F99E
:1012F00036E00021832001F0FFF831E000212020BA
:1013000001F0FAF82CE00021212001F0F5F827E0A7
:101310000021242001F0F0F822E00021252001F036
:10132000EBF81DE00021262001F0E6F818E000218E
:10133000272001F0E1F813E000212A2001F0DCF879
:101340000EE000212B2001F0D7F809E00021112048
:1013500001F0D2F804E003E09A212C4801F038F8BB
:1013600031BDF8B504000D00260076B276110027D5
:10137000290049B2200040B200F01BF82449300097
:1013800040B251F8200000680006F7D5300040B2A6
:1013900051F820000069320052B251F82220126840
:1013A00032F0800233005BB251F823100A6080B241
:1013B000F2BD70B4020052B2521110F01F03144C6F
:1013C0000D006DB2AD0015F00C0555F0500516007E
:1013D00076B254F82660B5600425160076B254F84B
:1013E0002660F5601D00EDB215F01F0555F04005B3
:1013F000160076B254F82640256070BC7047000095
:101400003C80044018800440308004403C5F000071
:101410001004FF1F0CB430B583B00A4606A9029130
:10142000044600250194009502AB01A908487844C0
:101430001E3001F0B3F8019A157000284EBF044623
:101440000198041B204603B030BC5DF80CFB00BFC4
:101450000307000010B408220121DFF89C33196053
:1014600000BFDFF898330021196000BF11004A1E49
:10147000C9B2002911D0010604D50121DFF880434B
:10148000216003E00021DFF8784321600121196029
:1014900000BF002119604000E8E710BC7047000061
:1014A00010B408220021DFF850331960DFF84C3304
:1014B0000021196011004A1EC9B2002911D001068D
:1014C00004D50121DFF83843216003E00021DFF873
:1014D000304321600121196000BF002119604000E4
:1014E000E8E710BC704738B504000D00B5F15000B6
:1014F000C0B2FFF7D5FF2000C0B2000950F01000C5
:10150000C0B2FFF7CDFF14F00F00FFF7C9FF31BDE8
:1015100070B5040000252800C0B2082818DAB5F11B
:101520005000C0B2FFF7BCFF0120FFF7B9FF102049
:10153000FFF7B6FF002006003000C0B2802805DAB1
:101540002000C0B2FFF786FF761CF5E76D1CE2E7CE
:1015500070BD010089B2002909D043F226410A007A
:1015600011004A1E89B20029FAD1401EF1E77047E6
:1015700010B5012201210D2000F03EFA01220121C7
:101580000E2000F039FA012201210F2000F034FA78
:1015900001220121102000F02FFADFF8684200201C
:1015A00020603220FFF7D5FF01202060AE20FFF73A
:1015B00077FF0020FFF774FF1020FFF771FF402036
:1015C000FFF76EFF8120FFF76BFFCF20FFF768FF6B
:1015D000A120FFF765FFC820FFF762FFA620FFF7F5
:1015E0005FFFA820FFF75CFF3F20FFF759FFD320E4
:1015F000FFF756FF0020FFF753FFD520FFF750FFFE
:101600008020FFF74DFFD920FFF74AFFF120FFF7B9
:1016100047FFDA20FFF744FF1220FFF741FFDB20EE
:10162000FFF73EFF4020FFF73BFF2020FFF738FF8A
:101630000220FFF735FF8D20FFF732FF1420FFF760
:101640002FFFA420FFF72CFFA620FFF729FFAF20D4
:10165000FFF726FF0020FFF75BFF00210020FFF7C8
:1016600042FF10BD2DE9F84F04000D0016005FF099
:1016700000085FF000095FF0000A5046C0B2305C1D
:10168000002800F0B7805046C0B2304440780028AF
:101690006FD15046C0B2305C203880462000C0B2C6
:1016A000792802DB002004006D1C2900C9B220004B
:1016B000C0B2FFF718FF5FF0000B5846C0B2082811
:1016C0000CDADFF844014146C9B2090151FA8BF145
:1016D000405CFFF7BFFE1BF1010BEEE7691CC9B2CE
:1016E0002000C0B2FFF7FFFE5FF000094846C0B21D
:1016F00008280DDADFF810014146C9B2090151FA94
:1017000089F10844007AFFF7A5FE19F10109EDE718
:10171000002007003800C0B25146C9B2D1F107011C
:10172000884264DA08342900C9B22000C0B2FFF749
:10173000DAFE5FF0000B5846C0B2082805DA002038
:10174000FFF788FE1BF1010BF5E7691CC9B2200009
:10175000C0B2FFF7C8FE5FF000094846C0B20828D3
:1017600005DA0020FFF776FE19F10109F5E77F1C85
:10177000D0E75046C0B2305C203880462000C0B26E
:10178000792802DB002004006D1C2900C9B220006A
:10179000C0B2FFF7A8FE5FF0000B5846C0B20828A1
:1017A0000BDA19484146C9B2090151FA8BF1405C84
:1017B000FFF750FE1BF1010BEFE7691CC9B22000D7
:1017C000C0B2FFF790FE5FF000094846C0B208289B
:1017D0000CDA0D484146C9B2090151FA89F10844B1
:1017E000007AFFF737FE19F10109EEE708341AF124
:1017F000010A42E7BDE8F18F3C00FE433800FE439A
:101800003400FE434000FE43A44A000000280AD0F2
:10181000B0FA80F18840D1F19D01C905020672F14C
:10182000004241EB102070474FF0807C1CEB400FD2
:1018300094BF1CEB410F05E040EA010C1CEB0C0FC0
:1018400001D28842704718BF8142704738B5050001
:101850000C00002C03D12421434800F0B9FD43487B
:10186000016851F4000101600020414908604148CD
:10187000611E2A0052B212018150290049B20901A9
:101880000144C96851F001012A0052B21201024418
:10189000D160290049B20901014489684908490019
:1018A0002A0052B212010244916003212A0052B26E
:1018B00012011044816031BD38B505000C00002CC8
:1018C00003D14721284800F083FD2848016851F4DE
:1018D00000010160264801688908890001602548E7
:1018E000290049B2090101448968490849002A00D0
:1018F00052B2120102449160611E2A0052B21201DA
:101900008150290049B209010144C96851F001011F
:101910002A0052B212010244D160290049B20901E1
:1019200001448968490849002A0052B21201024460
:10193000916001212A0052B21201024491602900F3
:1019400049B209010144C968C907F8D5290049B25B
:1019500009010144C96851F001012A0052B2120183
:101960001044C16031BD00009C6000003C80044018
:10197000007003400071034000180CD2010E7F3943
:1019800009D4D1F11F015DBFC00140F00040C84043
:101990006FF0000070470020704730B4002513E05E
:1019A00050F8042BD30744BFA9F101039A18091F6B
:1019B000042942F8045BFAD213468C0744BF158011
:1019C0009B1CC90748BF1D7050F8041B0029E7D1B4
:1019D00030BC7047C2175040801AB0FA80F10AD06C
:1019E0008840D1F19D01D20742EAC151020672F14D
:1019F000004241EB10207047F8B504000D001600BE
:101A00004FF480712000C0B200F076FD280040B293
:101A1000002812D144482100C9B2491150F82110C0
:101A20002200D2B2521150F822004269012314F070
:101A30001F0083409A434A6138E001213A4A20005E
:101A4000C0B2401152F820002300DBB25B1152F803
:101A500023305B6914F01F0711FA07F73B4343611A
:101A60003000C0B2002811D12000C0B2401152F89D
:101A70002000036814F01F00814033EA01012000B8
:101A8000C0B2401152F8200001600FE02000C0B247
:101A9000401152F82000036814F01F0081401943E0
:101AA0002000C0B2401152F820000160F1BD38B5ED
:101AB00004001D4D2000C0B2401155F820004069BF
:101AC00014F01F01C840C00703D47B21174800F061
:101AD0007FFC2000C0B2401155F82010012214F004
:101AE0001F008240CA6031BD38B504000E4D200091
:101AF000C0B2401155F82000406914F01F01C840E1
:101B0000C00703D58C21094800F062FC2000C0B258
:101B1000401155F82000006914F01F04E04010F057
:101B2000010032BD00000000300BFF1F44600000C8
:101B3000C11768B14840401AB0FA80F29040D21CF8
:101B4000C907C2F5846241EA025202EBD021400586
:101B500070470268531C036011707047B0B581EA8A
:101B6000030C0CF0004C40F2FF7515EA11541DBF38
:101B700015EA1357AC42AF4239E0E41923EA455362
:101B800043F48013C90241F0004141EA505EC702AC
:101B90001100A7FB020200284FF00000EEFB01201D
:101BA0004FF00001E3FB072118BF42F0010240188B
:101BB00000214941E3FB0E01A4F580640F0302D22A
:101BC00052004041494154F101046CDD470872F173
:101BD000004250F1000051EB0451A1F580115CBFAF
:101BE00041EA0C01B0BD4CEA05510020B0BD05EA48
:101BF0001357AC4214BFAF4241E050EA410E1CBF44
:101C000052EA430E02E061460020B0BD24423C444B
:101C10001BD15FEA070EF6D0090302BF0146002080
:101C2000AEF1140EB1FA81F7AEEB070401FA07FE2C
:101C30000C37C7F1200100FA07F7C8404EEA000E42
:101C400023EA455343F48013A2E733F00043B3FA89
:101C500083F704BFB2FA82FE77440B3FE41BB7F16F
:101C6000200E2FBF02FA0EF3BB40C7F1200E22FA5E
:101C70000EFE38BF43EA0E03BA40641C82E750EA06
:101C8000410E14BF52EA430E6FF000014FF40017EB
:101C900017EB430F8ABF194617EB410FB5E74CEA24
:101CA00005510020B0BDD4F10104B4F120070FDAD2
:101CB000C4F12007520828BF42F0010210FA07F5CC
:101CC00001FA07F7E1BF2A43E0403843E1400FE063
:101CD000352C98DCC7F1200452EA400220FA07F2C2
:101CE00018BF42F0010231FA07F0A1400A43002177
:101CF00072F1004250F1000051EB0C01B0BD000048
:101D0000400D491840EA81200CD2490DA1F58061AF
:101D1000491C40F0004005DBD1F11F0154BFC84011
:101D2000C017704700207047C0F3C7517E390EDDE1
:101D3000C217D1F1200106DD000240F00040C8408A
:101D4000104450407047D04380F00040704700205E
:101D50007047000090EA010F40F1F28081F00041ED
:101D6000431A4FF000423EBF5340C01AC91800BF8B
:101D7000D3095FEAD05C13EB400F34BFB3EB410FE4
:101D800040E07CEBD1530CD342EA012122D8D1EBC5
:101D9000402009D3400A28BF5FEA500140EBCC50F5
:101DA0007047401A15D04002B0FA80F2521C9040A1
:101DB000400A4FEA3C23B3EB026384BF00EB73009D
:101DC00007E040F400001A16DB07C2F10102D04020
:101DD00018437047182BFCDC31FA03F202FA03F3C4
:101DE000591A38BF42F00102D2EB40203CBF4000FC
:101DF000ACF1010C5FEACC5CC20572F100414CEB26
:101E00005020704713EB400F0FD2C94209D0ACEB02
:101E1000D153022B03DB4902172BDDDD70479143C1
:101E2000401AC042D5D10020704713EB410FD0D3E8
:101E30006FF000007047000010B5FF2313EAD05484
:101E40001DBF13EAD1529C429A4239E0A41ADA0724
:101E500080EA0103134042EA012142EA0020421ACB
:101E60003CBF641E01EB4202090AB2FBF1FE01FB1A
:101E70001E221202B2FBF1F001FB10226EF30F20C2
:101E80001202B2FBF1FE4EEA00207F3406DDFE2C8A
:101E900024DA53EA500050EBC45010BDD4F10204D0
:101EA00001FB1E2240F08071192C1DDC21FA04F088
:101EB000C4F12004A140114371F10042584110BD0A
:101EC0009C421ABF03EAD1529A420FE080EA010E07
:101ED0000EF00043400004D0490016D143F0FF400B
:101EE00010BD490008BFD343180010BD9C4205D166
:101EF000D21AF7D001F00041484010BD4A0212BF8B
:101F00000846484000F0004010BD4AB90902B1FA45
:101F100081F2914044B1A418C00140F000409EE716
:101F2000C90141F0004152420002B0FA80F4A040E1
:101F3000141B94E790EA010F7FF512AF81F0004186
:101F4000421A3CBF801A89184FF0004CC0F3C752A8
:101F5000FF2A24D0C1F3C75313B3D21AD2F1190305
:101F600027DD4CEA01214CFA03F321EA0303D140B7
:101F7000C20D4CEA0020401834BF20EA0C004CEAA5
:101F80005000D20553EA006373EB0C0C52EB1020A7
:101F9000420012F1807F38BF7047C00DC005704706
:101FA000490212BF9A4200EB5120F8E7D2F1170321
:101FB000D9D570474FF0807C1CEB400F94BF1CEBD1
:101FC000410F05E040EA010C1CEB0C0F01D28142ED
:101FD000704718BF88427047C0F3C75181B1FF29CD
:101FE00006D0C110400721F0E04101F16051704777
:101FF00041020CBF40F4E0016FF000410020704747
:1020000000F0004100020AD0B0FA80FC00FA0CF0A7
:1020100001F16051A1EB0C5101EBD021400570475B
:1020200001F000428B1AA3F16051B1F5801F0ADB69
:10203000B1F17F6F1FD242EAC102C10071F10041CC
:1020400042EB507070470B15C3F10903212B10D2DE
:10205000890241EA905180020128494141F0004142
:1020600021FA03F0C3F12003994071F1004150417E
:102070007047100070476FF0000013EB103F5CBF1B
:10208000000E42EAC0507047F0B540F2FF7581EA99
:10209000030C0CF0004C15EA11541DBF15EA135740
:1020A000AC42AF42E5E0BC41C1F31301C3F31303FB
:1020B000801A994143F4801304D2641E40004941C0
:1020C00080185941C90241EA5051B1FBF3F603FBB4
:1020D0001611A2FB0675D7EBC020A94102D2761ECD
:1020E00080185941C90241EA5051B1FBF3FE03FB8C
:1020F0001E11A2FB0E75D7EBC020A94103D2AEF191
:10210000010E80185941890241EA9051760546EA4C
:102110008E2EB1FBF3F603FB1611A2FB0675D7EB6F
:102120008020A94102D2761E80185941C90241EA95
:1021300050514EEA060EB1FBF3F603FB1611A2FB5B
:102140000675D7EBC020A94102D2761E80185941EE
:10215000C90241EA5051B1FBF3F703FB1711A2FB8F
:102160000735D3EBC020A94167F100070CBF00423F
:1021700047F0010766F3D5274FEA1E31B80814F57A
:10218000806412DDBD0775F1004250EB0E5051EB3B
:10219000045111F5801F5CBF41EA0C01F0BD4CF009
:1021A0007F6141F0E0410020F0BDBD076D0840EACD
:1021B0000E5041F48011D4F10104B4F120060ADA82
:1021C000C4F120060200E04001FA06F3E1401843A2
:1021D000B24015430EE0342C13DCC6F1200445EA6E
:1021E00040056D0820FA06F2154321FA06F0A140D9
:1021F0000D43002175F1004250F1000051EB0C013C
:10220000F0BD00205FEA0C01F0BDCFB992185B4130
:10221000B3FA83F704BFB2FA82F6BF190B3FB7F1E6
:1022200020062FBF02FA06F3BB40C7F1200622FAB0
:1022300006F638BF3343BA401CB1E419641E33E7D5
:102240007F4231F00041B1FA81F404BFB0FA80F668
:10225000A4190B3CB4F120062FBF00FA06F1A140EF
:10226000C4F1200620FA06F638BF3143A0403C1BDB
:102270001AE7AC421ABF05EA1357AF4212E050EA20
:1022800041061CBF52EA4306BFE750EA4107304609
:1022900061461CBF41EA0551F0BD52EA430C08BF3C
:1022A000C143F0BD00204FF4001616EB410F98BF5C
:1022B00016EB430F08BF16EB410F24BFC14305E0E7
:1022C00016EB430F0CBF61464CEA0551F0BD000010
:1022D000FF2212EAD05C1DBF12EAD153944593420B
:1022E0002BE09C44D30780EA01021A4043EA002015
:1022F00043EA0121A1FB0030C04238BF40007CF11D
:102300007F010BDBFE294ADA5B0842EAC15153EA3E
:10231000006373F1004C51EB10207047D1F1080CB1
:10232000DCF120012FDB5B0810FA01F10B4320FAEE
:102330000CF073F100415041704794451CBF02EA14
:10234000D153934280EA010202F000421DD04000C6
:1023500019D0490017D05BB9634514D00902B1FA0E
:1023600081F39940BCEB030CC00140F00040C1E791
:102370000002B0FA80FC10FA0CF0B3EB0C0CC901AF
:1023800041F00041B6E71000704740000AD0490014
:1023900008D010F1807F94BF11F1807F02E042F0FD
:1023A000FF407047D0437047002848BF4042704705
:1023B000DFF800F0690CFF1FBFF34F8F46490A6832
:1023C00012F4E062454802430A60BFF34F8FFEE714
:1023D00038B504000D00002000F0ECFE2A002100BA
:1023E0003F4800F027FF002000F004FF4FF47A7010
:1023F00000F04DFFF2E738B504000D00210049B2AE
:10240000042001F055F8200032BD10B5002404204E
:1024100001F068F8042001F09FF8002842D1002064
:1024200000F0C8FE042001F097F8012801D1012036
:102430000400002000F0DEFE2A4800F0FBFE4FF40E
:10244000FA7000F024FF2000C0B20128EAD1042075
:1024500001F082F80028E5D1042001F07DF8002881
:1024600006D1002000F0C6FE642000F010FFF3E764
:10247000042001F071F8012806D1002000F0BAFE16
:10248000322000F004FFF3E7174800F0D3FEFFF717
:102490008FFF642000F0FBFE0020FDF7BDFFFFF77B
:1024A0008BFFBFE710BD10B510480468012000F095
:1024B00081FE012000F09EFE0D492200D2B20F20C5
:1024C00042430A442100C9B20A4800F0B3FE4FF467
:1024D0007A7000F0DCFEECE70CED00E00400FA0599
:1024E00004620000C06200003862000004ED00E0F9
:1024F0001804FF1FA061000030B4264B1C684FF485
:1025000000750200D2B2520995402C431C60224B48
:102510000200D2B2521153F82240012510F01F02DE
:102520009540C4F8A0500200D2B2521153F82220B4
:102530000300DBB213F01F0342F8231030BC7047D6
:1025400030B4144B1C684FF400750200D2B252092B
:1025500095402C431C6031F4E0610F4A0300DBB26C
:102560005B1152F823300400E4B214F01F0453F856
:10257000243013F4E06319430300DBB25B1152F81B
:1025800023200300DBB213F01F0342F8231030BCFA
:1025900070470000388004408C0BFF1F2DE9F0438A
:1025A0009FB00FF6A836269CDFF804898DF83B40D3
:1025B000029100240B944FF0FF37044691461D46CC
:1025C0000AE019F8011B0298A0470028029000F0C9
:1025D000A1800B98401C0B9099F8000050B1252861
:1025E000EFD10021002205910692079108920991EE
:1025F0000A9203E00B98A0E041F0010119F8010FE5
:102600002028F9D023280CD02B2804D02D2805D041
:10261000302809D080E041F00201EFE741F00401E9
:10262000ECE741F00801E9E741F01001E6E70D921F
:102630000AE00D98404505DA00EB800002EB40020D
:10264000303A0D9209F1010999F80020A2F1300009
:102650000A28EED399F800002E2818BF0C9726D12F
:1026600019F8010F2A2808D12868286009F1010902
:1026700050F8042B28600C9219E02D280CBF09F1AA
:102680000109002000220C920BE040B90C9A42454F
:1026900005DA02EB820203EB4203303B0C9309F1B3
:1026A000010999F80030A3F130020A2AEDD3ADF800
:1026B0003810304699F8001000F066FF08B119F89C
:1026C000010B8DF83A009DF83A00682805D199F879
:1026D000000068280CD1622106E06C2804BF99F83C
:1026E00000006C2804D171218DF83A1009F101091C
:1026F00010A804902A4619F8013B6946204600F0CC
:102700005CF838B910AA6946204600F086F900281E
:102710007FF562AF384610E02A2888D12A682A60FF
:1027200052F8040B2A6000280D9003D540420D900A
:1027300041F0040109F101098CE71FB0BDE8F08305
:10274000622820D0682811D06A2803D06C2827D0AE
:10275000712825D10868C01D20F007000860D0E965
:10276000002308300860194610467047002A0A689E
:102770000A60106803D0121D0A6000B217E0121D33
:102780000A6080B217E0002A0A680A60106803D065
:10279000121D0A6040B20AE0121D0A60C0B20AE0CF
:1027A000002A0A680A60106803D0121D0A60C11767
:1027B0007047121D0A600021704770B51C460D4617
:1027C000B4F125002E69114600F015812038022849
:1027D00063D9133840D00B3816D0401E1ED0401E8F
:1027E00002285AD9001F19D0401F00F08180401ED6
:1027F00032D0401E00F0CB80C01E00F0DA80801E78
:102800002AD0C01E28D0FCE06869421C6A610A68B0
:102810000A6052F8043B0A603354FCE095F83A0031
:102820000122FFF78DFFC5E90001002904D5686981
:10283000411C69612D220DE0288F810704D568694C
:10284000411C69612B2205E0C00721D56869411C44
:102850006961202232541BE095F83A000022FFF70C
:102860006FFFC5E9000195F83800010710D5D5E9DB
:102870000023002B08BF002A0AD044F0200078284B
:1028800006D1686930213154401C421C6A613454BD
:10289000214668693044E86087E00868C01D20F080
:1028A00007000860D0E9002308300860C5E900236C
:1028B000D5E90001C80F04D06869411C69612D2267
:1028C0000DE0288F810704D56869411C69612B22BE
:1028D00005E0C00704D56869411C696120223254B3
:1028E00068693044E8602146284600F0C4F992E067
:1028F00005F13A02507820B14FF0FF340FF6540042
:1029000062E01078622808D0682824D06A2812D0A3
:102910006C282ED071280ED02BE00A680A6052F87D
:10292000040B0A6020B94FF0FF340FF640004BE073
:10293000E96A01706FE00A680A6052F8040B0A60E5
:1029400020B94FF0FF340FF624003DE0EA6AD317B8
:10295000C0E900235FE00A680A6052F8040B0A60CD
:1029600020B94FF0FF340FF604002DE0E96A018032
:1029700051E00A680A6052F8040B0A6020B94FF06F
:10298000FF340FF2E8701FE0E96A016043E00A6873
:102990000A6052F8040B0A60002120F0000221F0C6
:1029A000FF33C5E90023EE607821284600F0BBF82C
:1029B00031E00868086050F8044B0860EC603CB9EE
:1029C0004FF0FF340FF2BC7000F0EAFD201A70BD2A
:1029D0002E6B002E04D5204600F002FE044608E0CF
:1029E00032460021204600F017FE002814BF041BC9
:1029F0003446AC610FE06869411C6961252232549C
:102A000009E06969481C686125227254210002D0DE
:102A1000431C6B613454002070BD2DE9FC410F460E
:102A2000064690467A6B7869396ABC6A121AB869A8
:102A3000521A796A121AF869521A121A97F838005B
:102A4000141B41070FD42020002C8DF800000ADD54
:102A5000254601236A463946304600F05FFB0028D0
:102A60005DD16D1EF5D17B6942463946304600F096
:102A700055FB002853D130208DF800003D6A002D11
:102A800009DD01236A463946304600F047FB00283D
:102A900045D16D1EF5D1BB69FA683946304600F064
:102AA0003DFB00283BD130208DF800007D6A002DD1
:102AB00008DD01236A463946304600F02FFB70BB23
:102AC0006D1EF6D1F868B969FB694218394630467F
:102AD00000F024FB18BB30208DF80000BD6A002DEB
:102AE00008DD01236A463946304600F017FBB0B9CD
:102AF0006D1EF6D197F8380041070DD52020002C27
:102B00008DF8000008DD01236A463946304600F0A2
:102B100005FB20B9641EF6D10020BDE8F6814FF018
:102B2000FF30BDE8F6812DE9FC4307466F293E6979
:102B300008BF082405D041F02000782814BF0A24DB
:102B400010243C25D7E90023642918BF6929904641
:102B5000994605D1002B03D5D8F1000869EB490946
:102B6000B9F1000F08BFB8F1000F1FD1386BE8B9F9
:102B7000082C4CD197F83800010748D530203B2568
:102B800086F83B0043E000280ED597F8380000F0A7
:102B90001400102808D17B6B7969386A5B1A1B1AFC
:102BA0009A1A002AC8BF3A62BDE8F3838DF8001074
:102BB000404649462246E31700F05AFD3032D0B273
:102BC0006D1E3A28019504DB9DF80000A0F151012B
:102BD0008A187255404649462246E31700F048FDE0
:102BE00080465FEA010908BFB8F1000F03D0F8681A
:102BF00071198842DCD3082C09D197F838000107F5
:102C000005D5705D302802D06D1E30207055C5F19D
:102C10003C02BA617119F960386B8242B3DA821AE8
:102C20003A624FF6EF70398F01403987BDE8F38380
:102C30002DE9D04306460F4614464FF00008DFF852
:102C4000749212E0E00707D542464B4630463946BB
:102C5000FEF784FF06460F464046494642464B462D
:102C6000FEF77CFF641080468946002CEAD130468E
:102C70003946BDE8D0832DE9F047064689468EB037
:102C8000D6E90001CDE9020104AC306B002802D581
:102C90000620306305E001BF49F0200067280121CC
:102CA0003163D6E9002358004015401C0DD11903AB
:102CB0000BD0A9F1610103201A29B06102D20FF2F1
:102CC000E04110E00FF2DC410DE059004915491CCC
:102CD0000ED118030CD1A9F1610103201A29B061AA
:102CE00016D30FF2C841F068032200F0D9FDDBE0F3
:102CF00023F00047B7F5801F1046194622F0000563
:102D00000DD20022002F08BF002D019203D116E042
:102D10000FF29441E7E701AA00F016FE08E06648CA
:102D2000664900EB1750019065480340104619436F
:102D3000019B644D47F29752534393FBF5F2C6E96A
:102D4000000120F0000331F0004104BF002B0023FC
:102D500000F0A280DDE90240019220F00045D2F1AE
:102D6000070204DD20462946FFF762FF0AE05242CF
:102D700000205549FFF75CFF02460B4620462946D6
:102D8000FFF782F9044649F0200ABAF1660F306B6A
:102D900006BF019D0A3506252D18142DC8BF142520
:102DA000302088468DF810000DF11107002D33DD1D
:102DB00020464146FEF7A4FF01460A4607F10803F4
:102DC00004200A27B2FBF7F707EB870EA2EB4E02AF
:102DD000303203F8012C0A22B7FBF2F202EB820E2A
:102DE000A7EB4E073037401E03F8027DE9D1083DBE
:102DF000002D03F10807D9DD084600F0DDFD02468D
:102E00000B462046414600F0E5FD00222F4BFEF721
:102E1000A5FE04468846CBE70DF111003F1A0DF1DF
:102E2000110404E00198401E7F1E0190641C20786C
:102E30003028F7D0BAF1660F02D10198401C04E0A7
:102E4000BAF1650F0CBF01200020336BC3189F42FD
:102E5000B8BF7B1E002B1ED4BB4204DAE05C3528D1
:102E6000A8BF392000DA30201946621E02EB0108A3
:102E700000E05B1E18F80179491E8742F9D0392815
:102E800002D1605C401C6054002904D50198401CAC
:102E900014465B1C0190019800B200901BB22246C0
:102EA0004946304600F014F80EB0BDE8F087000047
:102EB000CBCCCC0C0000244002FCFFFF0000E03F24
:102EC000FFFF0F80A08601000000F03F84D79741EC
:102ED0002DE9F84783B005468A469146984600F0AA
:102EE000EBFDB8F1000F406A2F6B067803DC4FF062
:102EF00001080FF2BC294AF02000BDF930406628D5
:102F000008BF641C13D0672840F08F8014F1040FB1
:102F10007ADBBC4278DA95F83800641C010702D4E9
:102F2000B845B8BF474620B23F1A48BF00270FFA3E
:102F300084FAE868A969BAF1000F23DC4A1C30233F
:102F40004354002F03DC95F83800010702D5E868E8
:102F50008654521C17EB0A0FB8BF7C4224B2E71903
:102F600060424745B8BFB846AA6168620FFA88F464
:102F7000EC61E868AB6922464946184400F090FCD1
:102F80003F1B18E022B29045084416DA42464946F3
:102F900000F086FCA8694044A861AAEB0801002F54
:102FA000696203DC95F838100A0704D5E9680E5405
:102FB000E869401CE861AF6299E0494600F070FCA6
:102FC000A869002F5044A8EB040803DC95F83810DA
:102FD0000A0702D5E9680E54401CA8610FFA88F070
:102FE0008742EB68A869B8BFB8460FFA88F209EBC8
:102FF0000A01184400F054FCA9690FFA88F0014452
:10300000A961381A686272E0B84504DA95F8381098
:103010000A0758BF47467F1E48BF0027BAF1670F0F
:103020000CBF4FF0650A4FF0450AA969EB68481CD0
:10303000A861002F19F8012B5A5403DC95F83810B9
:103040000A0719D5E968431CAB610E54002F13DD44
:10305000A8F1010630B28742D5F80CC0B8BF3E4691
:1030600032B249460CEB030000F01AFCA86936B2F4
:103070003018BF1BA8616F62E868A9690844002C7A
:1030800080F800A003D42B224270811C03E02D2184
:1030900041706442811C00206A460AE023460A24EB
:1030A00093FBF4F404EB8406A3EB460302F8013B24
:1030B000401C24B2002CF1DC012806DC4AF020027E
:1030C000652A04BF302201F8012B48B9302001F8ED
:1030D000010B07E0401E1DF80030303301F8013BC2
:1030E0000028F7DCEA68A8691044091AE96195F834
:1030F000380000F0140010280DD16A69A969686AC7
:103100008A18E9698218A86A8A188218686B82424C
:10311000BCBF821A2A6204B0BDE8F087F8B5054644
:103120000E4617461C46002074B117F8011BB06804
:10313000A847B06030B1F06A401CF0620020641E05
:10314000F3D1F2BD4FF0FF30F2BD0000686A6C743D
:103150007A4C00007072696E74665F733A20256E57
:1031600020646973616C6C6F776564007072696E5E
:1031700074663A2062616420256E20617267756D05
:10318000656E74007072696E74665F733A20626176
:103190006420257320617267756D656E7400000090
:1031A0006E616E004E414E00696E6600494E4600EB
:1031B0003000000010B50400200040B2042808DAF6
:1031C000012201211A4823005BB2C05CFEF714FC07
:1031D0000FE0042004002000441E40B2002808D064
:1031E00001220121124823005BB2C05CFEF704FCFF
:1031F000F1E710BD10B50400200040B2042806DA43
:103200000B48210049B2405CFEF751FC0DE0042060
:1032100004002000441E40B2002806D004482100CB
:1032200049B2405CFEF743FCF3E710BD000000002C
:10323000C00BFF1F0EB4C0B5024603A800210190C9
:10324000009101AB0121044878440C30FFF7A6F946
:1032500006BC5DF810FB00BF3330000010B5040061
:10326000002C13D0B4F1807F03D329210E48FFF73F
:10327000AFF80E48002101600D490C6000210D4A95
:103280001160052101600168C903FCD510BD10B5AE
:1032900004002000441E002804D007480068FFF7FF
:1032A000DDFFF6E710BD0000E05E000010E000E08A
:1032B00014E000E018E000E0D40FFF1F2DE9F84310
:1032C00004000D00200040B2002808D0022828D0B9
:1032D00016D3042847D035D3052855D065E0DFF84C
:1032E000EC01016851F4806101604FF440713020BD
:1032F000FFF702F94FF440713120FFF7FDF854E079
:10330000DFF8C801016851F4006101604FF44071B9
:103310004320FFF7F1F84FF440714420FFF7ECF839
:1033200043E0DFF8A801016851F4805101604FF4D7
:1033300040716320FFF7E0F84FF440716220FFF71F
:10334000DBF832E0DFF88401016851F400510160DC
:103350004FF440712B20FFF7CFF84FF440712A2033
:10336000FFF7CAF821E0DFF86801016851F48061D5
:1033700001604FF440719920FFF7BEF84FF440719F
:103380009820FFF7B9F810E0DFF84401016851F424
:10339000006101604FF440718920FFF7ADF84FF4F0
:1033A00040718820FFF7A8F8FFE7DFF828612000C8
:1033B00040B256F82000C07810F0F300210049B266
:1033C00056F82110C870200040B256F820008078CE
:1033D000210049B256F821108870200040B2002820
:1033E00003D0200040B2012805D13B4807684FF4C4
:1033F0007A70474304E0394807684FF47A704743CE
:103400002801B7FBF0F8404680B2B0F5005F02DB60
:1034100041F6FF708046B7FBF5F9404680B2B9EB44
:103420000019484680B2202804DB40F203112C48E2
:10343000FEF7CEFF200040B256F82000007810F0D2
:10344000E000C8F304210143220052B256F82220C2
:103450001170210049B256F8211081F80180210035
:1034600049B256F82110897A11F0E00119F01F02D3
:103470000A4323005BB256F823309A72220052B2FC
:1034800056F82220127C52F0880223005BB256F8D4
:1034900023301A74220052B256F82220D27852F009
:1034A0000C0223005BB256F82330DA70BDE8F183DA
:1034B000084A03005BB252F823301B791B06F7D58C
:1034C00003005BB252F82320D1717047348004406E
:1034D00028800440A00BFF1FD40FFF1FDC0FFF1F2D
:1034E000F460000038B50400200040B208280EDA6D
:1034F000244D00220021200040B2285CFEF77CFA17
:103500000321200040B2285CFFF71AF815E00820DC
:1035100004002000441E40B200280ED0194D0022A5
:103520000021200040B2285CFEF766FA032120004B
:1035300040B2285CFFF704F8EBE731BD10B504009A
:103540001048210049B2405CFEF7CEFA002801D1B4
:10355000002000E0012010BD10B50400200040B2A2
:10356000FFF7ECFF00280AD10A20FFF790FE2000A9
:1035700040B2FFF7E3FF002801D1002000E0012066
:1035800010BD0000B80BFF1FC9B202788A421AB101
:103590001CBF10F8012FF9E718BF0020704700008A
:1035A00080B500B906A005490B681BB12222002195
:1035B000984701E000F084FA222002BDE00FFF1FCF
:1035C000636F6E73747261696E742068616E646C8F
:1035D00065723A20626164206D657373616765008E
:1035E00000F10103810704D010F8011B820781B1AB
:1035F000FAD10268A2F10131914311F0803104BF88
:1036000050F8042FF6E709BAB1FA81F100EBD100C6
:10361000401CC01A70470000C9B2830706D0521E72
:1036200022D310F8013B9942F7D11FE0083A13D397
:1036300002F1040241EA012141EA014150F8043B50
:10364000121F21BF4B40A3F1013C2CEA030C1CF0DC
:10365000803FF3D0C9B2001F083210F8013B521E60
:1036600028BF91EA030FF8D818BF0120401E704709
:10367000BBBBE1B1B2F5803F80F07E80022A1ED94B
:103680008C46B1FBF2F102FB11C31B0443EA104369
:10369000B3FBF2FC02FB1C3380B240EA0343B3FBF2
:1036A000F2F002FB103240EA0C4000237047022A7D
:1036B00005D98446B0FBF2F002FB10C270474AB154
:1036C00005D100F0010249085FEA3000704700228E
:1036D0000023704700F0F8B90B0002000021002021
:1036E0007047904271EB030CF6D3B3F5803F2FD2B5
:1036F000F0B5B3FA83F7B1FA81F4A7F10F0E3D1BD1
:103700005340CEF1200602FA0EF2F3415340B5F1D8
:103710000F0746D80F3C2C444140C4F12006A0407E
:10372000F1414140B1FBF3F603FB1611A2FB064544
:10373000001BA94102D2761E8018594180EA01027D
:1037400021FA0EF362FA0EF200215A403046F0BD23
:1037500030B4B1FBF3FC03FB1C11A2FB0C45001BB6
:10376000A94103D2ACF1010C8018594130BC02468A
:103770000B46604600217047B2F1807F65D3F0B5FB
:10378000B2FA82F7B1FA81F4C7F10F063D1B22FAB3
:1037900006F307F1110EF24120355A40B5F10F073B
:1037A000B8D94140C4F12006A040F1414140B1FBED
:1037B000F3FC03FB1C11A2FB0C45001BA94103D227
:1037C000BCF1010C801859410F2F12D30F3FC903D0
:1037D00041EA5041B1FBF3F603FB1611A2FB06458B
:1037E000D4EBC030A94102D2761E8018594146EA76
:1037F000CC3C07B34140C7F12006B840F1414140FD
:10380000B1FBF3F603FB1611A2FB0645001BA94111
:1038100002D2761E8018594180EA010221FA0EF385
:10382000C7F1200462FA0EF20CFA07F05A402CFAA3
:1038300004F13043F0BD80EA010221FA0EF30021C9
:1038400062FA0EF260465A40F0BD8C46B1FBF2F1CE
:1038500002FB11C31B0243EA1063B3FBF2FC02FB41
:103860001C331B024CEA002043EA1063B3FBF2FC5A
:1038700002FB1C331B024CEA002043EA1063B3FB3B
:10388000F2FC02FB1C331B024CEA002043EA1063EB
:10389000B3FBF2FC02FB1C324CEA00200023704711
:1038A00062B38B0708D0521E11F8013B00F8013BB0
:1038B00000F024808B07F6D1830740F0208000BF02
:1038C000103A07D330B4B1E83810103AA0E83810F5
:1038D000F9D230BC530724BFB1E80810A0E80810A3
:1038E00044BF51F8043B40F8043BD20724BF31F8F1
:1038F000022B20F8022B44BF0B7803707047121F75
:1039000017D35B0009D151F8043B20F8023B1B0C94
:10391000121F20F8023BF6D20BE051F8043B00F8EE
:10392000013B1B0A20F8023B1B0C121F00F8013B55
:10393000F3D238BF121D521E24BF11F8013B00F80C
:10394000013BF8D87047000010B5144600F002F8AB
:10395000226010BDC1F30A5343B14A0012F5001FA3
:1039600028D2A3F2FE32A1EB0251704750EA410C7B
:1039700020D001F0004C31EA0C01B1FA81F204BF11
:10398000B0FA80F3D2180B3AB2F120032CBF00FA40
:1039900003F1914041EA0C013EBFC2F1200C20FA34
:1039A0000CF319439040524240F2FD33D21A01EB1E
:1039B0000351704700227047014648B1B0FA80F1C8
:1039C0008840C91CC1F58461090501EBD02140057F
:1039D0007047000070B44FF0004591EA030F40F1CA
:1039E00075806B40841A71EB030603D2001BB14152
:1039F000121973414FF4001C1CEB410F34BF7CEBD8
:103A0000430442E00C0DA4EB1356352E4FDC45EA7F
:103A1000C323DB0A45EAC121C912B6F120050DDD39
:103A200063FA05F6EB4086EA0305124218BF45F03B
:103A30000105C01851F100010CD213E062FA06F53D
:103A4000F2405540F3415A40B340F3405A40801889
:103A5000594107D349085FEA30005FEA350528BFBE
:103A600045F0010501F58011420875F1004250F161
:103A7000000041EB04514E0016F5001F70BC38BF2A
:103A800070470020090D090570471CEB410F10D24B
:103A900052EA43060BD0BCEB410F05D80C0DAB43EB
:103AA000661E342EB6DD02E0AB438018594170BC6F
:103AB000704770BC7047000000487047C40BFF1F80
:103AC000012000F0B9B8000070470000841A71EBC3
:103AD000030604D26E40001BB141121973414FF42A
:103AE000001C1CEB410F34BF7CEB430683E00C0D44
:103AF000A4EB1356362E00F37C80012E45EAC32337
:103B000041DC43EA525312BFD20292025B08240501
:103B100045EAC12141EA5051D2EBC020994125D458
:103B200007D1B0FA80F610FA06F162D000202036F4
:103B300008E0B1FA81F6B140C6F1200220FA02F2A3
:103B40001143B0404FEAF474B4EB465434F001062C
:103B50004FEA74040AD8D6F50016760D04F0004436
:103B6000F04061FA06F25040F1404840C00A40EA95
:103B7000415021F0004128BF5FEA500550F100009C
:103B800044EBD12135E0DB0A45EAC121C90AB6F18F
:103B900020050EDD42EA0242120CC5F1200603FAAE
:103BA00006F6EB4042EA06056D42984161F10001DC
:103BB0000DE062FA06F5F240554063FA06FC82EA2F
:103BC0000C02F3405A406D42904161EB030111F445
:103BD000801F05D1641E620502D06D00404149413D
:103BE00021F48011430875F1004350F1000041EBCE
:103BF000045170BC70471CEB410F15D223F00043F9
:103C000052EA43060BD04FEA4C0CBCEB410F04D8F0
:103C10000C0D661E342EB7DDEBE7801A994150EA91
:103C2000410608BF0021E4E708BF1CEB430F28BF93
:103C30006FF00001DDE70000202109032631182084
:103C4000ABBEF9E700B0034000B00B40000000003D
:103C50000000000000000000000000000000000064
:103C6000000000000000000000004E6F6E4D617308
:103C70006B61626C650000000048617264466175AA
:103C80006C740000000000004D656D4D616E616751
:103C9000656D656E7400004275734661756C7400E5
:103CA00000000000000055736167654661756C7423
:103CB0000000000000000000000000000000000004
:103CC00000000000000000000000000000000000F4
:103CD00000000000000000000000000000000000E4
:103CE00000000000000000000000000000000000D4
:103CF00000535643616C6C0000000000000000009F
:103D000044656275674D6F6E69746F7200000000E4
:103D100000000000000000000000000000005065EE
:103D20006E645356000000000000000000537973D9
:103D30005469636B0000000000000000444D4130F6
:103D40000000000000000000000000444D41310070
:103D500000000000000000000000444D413200005F
:103D6000000000000000000000444D41330000004E
:103D70000000000000000000444D4134000000003D
:103D800000000000000000444D413500000000002C
:103D9000000000000000444D41360000000000001B
:103DA0000000000000444D4137000000000000000A
:103DB00000000000444D41380000000000000000F9
:103DC000000000444D4139000000000000000000E8
:103DD0000000444D413130000000000000000000B0
:103DE00000444D413131000000000000000000009F
:103DF000444D41313200000000000000000000444A
:103E00004D41313300000000000000000000444D2F
:103E100041313400000000000000000000444D412A
:103E2000313500000000000000000000444D415FFB
:103E30004572726F720000000000004D434D00009B
:103E4000000000000000000000004654464C000046
:103E5000000000000000000000526561645F436FD5
:103E60006C6C6973696F6E004C56445F4C5657001A
:103E7000000000000000004C4C5700000000000053
:103E80000000000000005761746368646F67000001
:103E90000000000000524E4700000000000000003B
:103EA0000000000049324330000000000000000024
:103EB0000000004932433100000000000000000013
:103EC00000005350493000000000000000000000D6
:103ED00000535049310000000000000000000000C5
:103EE0005350493200000000000000000000004371
:103EF000414E305F4F525F4D425F627566004341F5
:103F00004E305F4275735F4F666600000043414E5E
:103F1000305F4572726F72000000000043414E3006
:103F20005F54785F5761726E696E6743414E305FD0
:103F300052785F5761726E696E6743414E305F57CA
:103F4000616B655F55700000005265736572766540
:103F50006435310000000000526573657276656457
:103F60003532000000000043414E315F4F525F4D3B
:103F7000425F6275660043414E315F4275735F4F29
:103F8000666600000043414E315F4572726F7200F9
:103F90000000000043414E315F54785F5761726EFC
:103FA000696E6743414E315F52785F5761726E6947
:103FB0006E6743414E315F57616B655F557000001E
:103FC0000052657365727665643539000000000043
:103FD00052657365727665643630000000000055E6
:103FE000415254305F52585F545800000000554110
:103FF0005254305F455252000000000000554152BB
:1040000054315F52585F54580000000055415254DB
:10401000315F4552520000000000005541525432B9
:104020005F52585F54580000000055415254325FAF
:1040300045525200000000000055415254335F5277
:10404000585F54580000000055415254335F4552A8
:104050005200000000000055415254345F52585F36
:1040600054580000000055415254345F45525200EC
:10407000000000000055415254355F52585F5458BB
:104080000000000055415254355F45525200000077
:104090000000004144433000000000000000000028
:1040A0000000414443310000000000000000000017
:1040B00000434D50300000000000000000000000F0
:1040C000434D50310000000000000000000000439C
:1040D0004D50320000000000000000000000465477
:1040E0004D30000000000000000000000046544D6C
:1040F00031000000000000000000000046544D3276
:104100000000000000000000000000434D540000CB
:1041100000000000000000000000525443000000B6
:1041200000000000000000000052657365727665B3
:104130006438330000000000504954300000000093
:104140000000000000000050495431000000000051
:104150000000000000005049543200000000000040
:10416000000000000050495433000000000000002F
:104170000000000050444230000000000000000039
:104180000000005553423000000000000000000015
:10419000000055534244434400000000000000006A
:1041A00000454E45545F313538385F54696D65724E
:1041B000454E45545F5472616E736D6974000045DD
:1041C0004E45545F52656365697665000000454E53
:1041D00045545F4572726F7200000000004932530F
:1041E000300000000000000000000000534448437D
:1041F00000000000000000000000004441433000C7
:1042000000000000000000000000444143310000B5
:10421000000000000000000000545349300000007E
:1042200000000000000000004D43470000000000B7
:10423000000000000000004C5054696D65720000E1
:1042400000000000000052657365727665643130CD
:104250003200000000504F525441000000000000A6
:1042600000000000504F52544200000000000000C7
:10427000000000504F5254430000000000000000B6
:104280000000504F525444000000000000000000A5
:1042900000504F5254450000000000000000000094
:1042A00052657365727665643130380000000052E3
:1042B00065736572766564313039000000005265BF
:1042C00073657276656431313000000000526573A9
:1042D00065727665643131310000000052657365A6
:1042E0007276656431313200000000526573657288
:1042F0007665643131330000000052657365727673
:104300006564313134000000005265736572766572
:104310006431313500000000526573657276656462
:104320003131360000000052657365727665643184
:104330003137000000005265736572766564313173
:10434000380000000052657365727665643131395A
:1043500000000000008003400090034000800B40FC
:1043600000900B4000F00F4040F00F4080F00F40F5
:10437000C0F00F4000F10F40F0000A1D300018009F
:1043800032001801600018186400181A6E00181F17
:10439000780013187D00131A8200131C8C000E1273
:1043A00096000E15A0000E18AA000E1BB4000E1EDB
:1043B000C8000C1CE1000B1EFA000A1F00010908CE
:1043C0000090044000A0044000B0044000C004403D
:1043D00000D0044000A0064000B0064000C00640E7
:1043E00000D0064000A00E4000B00E406A6E6B6C1C
:1043F000676D4E4F34353637186300001863000080
:1044000018630000186300001863000018630000C0
:1044100018630000FFFFFFFFFFFFFFFF1A630000AC
:104420001863000018630000FFFFFFFFFFFF00009C
:1044300002040101E40FFF1F3410FF1FE40FFF1FF0
:10444000E40FFF1F00000000E40FFF1F000000004A
:10445000400CFF1F2C0CFF1F00000000000000009C
:10446000000000000000000000000000000000004C
:10447000000000000000000038B504000D0020001E
:1044800040B2002806D0022867D04BD3032800F0A2
:104490007F80C6E0DFF8F805016851F080710160A7
:1044A000280040B200280BD0022815D00ED30428D3
:1044B0001ED017D3062827D020D307282AD02FE0D4
:1044C0004FF480614120FEF717F82AE04FF4806135
:1044D0004220FEF711F824E04FF480614320FEF7FC
:1044E0000BF81EE04FF440710620FEF705F818E0C7
:1044F0004FF440710720FDF7FFFF12E04FF4806199
:104500006520FDF7F9FF0CE04FF480616620FDF7B0
:10451000F3FF06E04FF480616720FDF7EDFF00E058
:104520007FE07EE0DFF86805016851F0007101600E
:10453000280040B2002802D0012806D00BE04FF43A
:1045400040712020FDF7D8FF06E04FF44071212094
:10455000FDF7D2FF00E064E063E0DFF838050168B2
:1045600051F080710160280040B2002802D001287B
:1045700006D00BE04FF440713220FDF7BDFF06E09E
:104580004FF440713320FDF7B7FF00E049E048E009
:10459000DFF80005016851F000710160280040B2A9
:1045A00000280BD0022816D00ED304281FD018D311
:1045B000062828D021D307282BD030E04FF4C06143
:1045C0008520FDF799FF2BE04FF48271DFF8C804D6
:1045D000FDF7FEFE24E04FF4C0618720FDF78CFF5D
:1045E0001EE04FF4C0618820FDF786FF18E04FF40D
:1045F000C0618920FDF780FF12E04FF4C0618A207E
:10460000FDF77AFF0CE04FF4C0618B20FDF774FFDB
:1046100006E04FF4C0618C20FDF76EFF00E000E083
:10462000FFE731BD2DE9F84F04000D0016001F0013
:10463000200040B2002815D0200040B2032811D03D
:10464000200040B201280DD0200040B2022803D142
:10465000280040B2022805DB40F27B11DFF8380465
:10466000FDF7B6FE290049B2200040B2FFF704FF73
:10467000DFF82804D0F800904FF47A7000FB09F9B5
:104680004846000CB0FBF6FA5FF0000B504680B2D3
:1046900050FA0BF0012802DB1BF1010BF6E758463C
:1046A000C0B2082805DB4FF4CB71DFF8EC03FDF74F
:1046B0008FFE484630FA0BF0B0FBF6F0210049B20D
:1046C000002903D0022917D00BD320E0010089B2C2
:1046D000491C01FB07F142F21072B1FBF2F188466E
:1046E00015E0010089B2491C01FB07F142F210728A
:1046F000B1FBF2F188460AE0010089B2491C01FBD6
:1047000007F142F21072B1FBF2F18846FFE7DFF8E1
:104710009013220052B251F822202B005BB202EB20
:10472000C30223005BB251F82330AC464FFA8CFC35
:1047300003EBCC03DB6833F00403D360220052B2F6
:1047400051F822202B005BB202EBC3022823D36076
:104750005A46D2B212F0070252F0080223005BB2AE
:1047600051F823301A60020092B223005BB251F874
:1047700023309A60002223005BB251F82330DA64C0
:10478000220052B251F822202B005BB202EBC3028E
:1047900043469BB21361002223005BB251F8231001
:1047A0004A60BDE8F18F2DE9F04180460D0016000A
:1047B0000024404640B2032815D0404640B20028AD
:1047C00011D0404640B2012803D0404640B20228F2
:1047D00003D1280040B2022805DB4FF4EA71DFF86C
:1047E000B802FDF7F5FD404640B2002805D002288A
:1047F00019D00DD3032821D02BE042F2117086424C
:1048000005D340F2D911DFF89002FDF7E1FD20E079
:1048100042F21170864205D340F2DD11DFF87802D2
:10482000FDF7D6FD15E042F21170864205D340F245
:10483000E111DFF86402FDF7CBFD0AE042F21170EE
:10484000864205D34FF4F271DFF84C02FDF7C0FD4C
:10485000FFE7DFF84C02414649B250F82110896861
:104860000C00002CF5D0414649B2002905D00229A0
:1048700015D00BD303291BD023E0611C01FB06F1EB
:1048800042F21072B1FBF2F10F001AE0611C01FB61
:1048900006F142F21072B1FBF2F10F0011E0611C5F
:1048A00001FB06F142F21072B1FBF2F10F0008E0D9
:1048B000611C01FB06F142F21072B1FBF2F10F0034
:1048C000FFE7414649B250F82100290049B200EB08
:1048D000C1000761BDE8F081F8B504000D001600C5
:1048E0001F00200040B2002810D0200040B2012854
:1048F00003D0200040B2022803D1280040B2022891
:1049000004DB40F24D216448FDF762FD290049B205
:10491000200040B2FFF7B0FD300040B2002803D0C5
:10492000022855D02AD37CE05D48210049B250F8D6
:1049300021102A0052B201EBC201220052B250F8FB
:1049400022202B005BB202EBC302D26852F0440279
:10495000CA60210049B250F821102A0052B201EB7E
:10496000C201220052B250F822002A0052B200EBDB
:10497000C200C06830F03800C86052E048482100EA
:1049800049B250F821102A0052B201EBC2012200B4
:1049900052B250F822202B005BB202EBC302D26865
:1049A00052F04802CA60210049B250F821102A0092
:1049B00052B201EBC201220052B250F822002A008A
:1049C00052B200EBC200C06830F03400C86028E08A
:1049D0003348210049B250F821102A0052B201EBAD
:1049E000C201220052B250F822202B005BB202EB2F
:1049F000C302D26852F04C02CA60210049B250F89A
:104A000021102A0052B201EBC201220052B250F82A
:104A100022002A0052B200EBC200C06830F0300021
:104A2000C8601F48390049B211F0070151F0080170
:104A3000220052B250F822201160210049B250F8F1
:104A40002110496D51F00401220052B250F8222089
:104A500051650021220052B250F8222051662100F7
:104A600049B250F82110496D49084900220052B25C
:104A700050F8222051650021220052B250F8222025
:104A8000D1640021220052B250F822000165F1BD2C
:104A90003C80044030800440EC5F0000DC0FFF1FCE
:104AA000200BFF1F000000000000000000000000BD
:104AB00000000000000000F80000000000000033CB
:104AC0003000000000100C06100C06000000000072
:104AD0000000000040C07840C0784000043F04045B
:104AE0003F040400007088FC08300000001820FF1C
:104AF000211E0000F008F000E018000000211C0357
:104B00001E211E0000F00888700000001E212324D2
:104B10001927211010160E000000000000000000F0
:104B200000000000000000E0180402000000000780
:104B30001820400000020418E00000000040201887
:104B400007000000404080F0804040000202010F5A
:104B500001020200000000F0000000000101011F3E
:104B600001010100000000000000000080B07000A2
:104B70000000000000000000000000000001010132
:104B800001010101000000000000000000303000C1
:104B9000000000000000000080601804006018069B
:104BA0000100000000E010080810E000000F1020D5
:104BB00020100F00001010F8000000000020203F1F
:104BC00020200000007008080888700000302824A9
:104BD000222130000030088888483000001820204A
:104BE00020110E000000C02010F80000000704246F
:104BF000243F240000F808888808080000192120B4
:104C000020110E0000E0108888180000000F11200D
:104C100020110E0000380808C83808000000003FC6
:104C2000000000000070880808887000001C222125
:104C300021221C0000E010080810E00000003122D2
:104C400022110F00000000C0C00000000000003072
:104C500030000000000000800000000000008060C4
:104C60000000000000008040201008000001020445
:104C7000081020004040404040404000040404042C
:104C800004040400000810204080000000201008E8
:104C900004020100007048080808F000000000301D
:104CA00036010000C030C828E810E00007182724AB
:104CB00023140B000000C038E0000000203C230259
:104CC0000227382008F8888888700000203F2020BC
:104CD00020110E00C03008080808380007182020EE
:104CE0002010080008F808080810E000203F2020E5
:104CF00020100F0008F88888E8081000203F2020C6
:104D00002320180008F88888E8081000203F2000B9
:104D100003000000C03008080838000007182020F1
:104D2000221E020008F808000008F808203F2101B0
:104D300001213F20000808F8080800000020203F5B
:104D40002020000000000808F8080800C0808080CB
:104D50007F00000008F888C028180800203F2001C4
:104D60002638200008F8080000000000203F20201E
:104D70002020300008F8F800F8F80800203F003F35
:104D8000003F200008F830C00008F808203F20004D
:104D900007183F00E01008080810E0000F1020205E
:104DA00020100F0008F808080808F000203F210133
:104DB00001010000E01008080810E0000F1824248A
:104DC00038504F0008F8888888887000203F2000FD
:104DD000030C3020007088080808380000382021B3
:104DE00021221C00180808F8080818000000203FBD
:104DF0002000000008F808000008F808001F202024
:104E000020201F000878880000C8380800000738F4
:104E10000E010000F80800F80008F800033C070045
:104E2000073C0300081868808068180820302C03AD
:104E3000032C30200838C800C83808000000203F84
:104E40002000000010080808C83808002038262173
:104E500020201800000000FE020202000000007F77
:104E600040404000000C30C0000000000000000185
:104E70000638C00000020202FE0000000040404070
:104E80007F00000000000402020204000000000095
:104E90000000000000000000000000008080808012
:104EA00080808080000202040000000000000000FA
:104EB0000000000000008080808000000019242293
:104EC00022223F2008F8008080000000003F1120CF
:104ED00020110E000000008080800000000E1120D4
:104EE00020201100000000808088F800000E1120B2
:104EF00020103F200000808080800000001F2222C0
:104F000022221300008080F0888888180020203F2B
:104F1000202000000000808080808000006B94943E
:104F20009493600008F8008080800000203F2100FA
:104F300000203F2000809898000000000020203FC3
:104F400020200000000000809898000000C08080B1
:104F5000807F000008F8000080808000203F24024D
:104F60002D302000000808F8000000000020203F3D
:104F7000202000008080808080808000203F2000F2
:104F80003F20003F8080008080800000203F210083
:104F900000203F200000808080800000001F202033
:104FA00020201F00808000808000000080FFA12062
:104FB00020110E000000008080808000000E112073
:104FC00020A0FF80808080008080800020203F2102
:104FD00020000100000080808080800000332424B5
:104FE00024241900008080E0808000000000001F61
:104FF000202000008080000000808000001F202012
:1050000020103F20808080000080808000010E30D2
:105010000806010080800080008080800F300C0333
:105020000C300F0000808000808080000020312E36
:105030000E312000808080000080808080818E7012
:105040001806010000808080808080000021302CC4
:105050002221300000000000807C020200000000DD
:10506000003F404000000000FF0000000000000082
:10507000FF0000000002027C800000000040403F72
:10508000000000000006010102020404000000000C
:1050900000000000DFF800F0A90DFF1F10B4DFF8DA
:1050A0008813020052B231F82210020052B2012AD3
:1050B000C0F26C81020052B2112A80F26781DFF8DF
:1050C0006C23002313700B009BB2312B02DA0023F8
:1050D000537077E00B009BB2612B02DA012353700F
:1050E00070E00B009BB2912B02DA0223537069E04F
:1050F0000B009BB2C12B02DA0323537062E00B005A
:105100009BB2F12B02DA042353705BE00B009BB2DD
:1051100040F22114A34202DA0523537052E00B003F
:105120009BB240F25114A34202DA0623537049E0C5
:105130000B009BB240F28114A34202DA07235370A2
:1051400040E00B009BB240F2B114A34202DA082304
:10515000537037E00B009BB240F2E114A34202DA35
:10516000092353702EE00B009BB240F21124A3429E
:1051700002DA0A23537025E00B009BB240F241246F
:10518000A34202DA0B2353701CE00B009BB240F2E7
:105190007124A34202DA0C23537013E00B009BB27C
:1051A00040F2A124A34202DA0D2353700AE00B005F
:1051B0009BB240F2D124A34202DA0E23537001E0E5
:1051C0000F2353700B009BB21A2B02DA002393704B
:1051D0006AE00B009BB2332B02DA0123937063E089
:1051E0000B009BB24C2B02DA022393705CE00B00A5
:1051F0009BB2652B02DA0323937055E00B009BB240
:105200007E2B02DA042393704EE00B009BB2972BA7
:1052100002DA0523937047E00B009BB2B02B02DA51
:105220000623937040E00B009BB2C92B02DA0723E0
:10523000937039E00B009BB2E22B02DA08239370E3
:1052400032E00B009BB2FB2B02DA092393702BE0B8
:105250000B009BB2B3F58A7F02DA0A23937023E036
:105260000B009BB240F22D14A34202DA0B23937081
:105270001AE00B009BB2B3F5A37F02DA0C23937004
:1052800012E00B009BB240F25F14A34202DA0D233E
:10529000937009E00B009BB2B3F5BC7F02DA0E23DA
:1052A000937001E00F2393700B009BB21A2B02DA6C
:1052B0000023D3706AE00B009BB2332B02DA012388
:1052C000D37063E00B009BB24C2B02DA0223D37045
:1052D0005CE00B009BB2652B02DA0323D37055E030
:1052E0000B009BB27E2B02DA0423D3704EE00B003E
:1052F0009BB2972B02DA0523D37047E00B009BB2D9
:10530000B02B02DA0623D37040E00B009BB2C92B0E
:1053100002DA0723D37039E00B009BB2E22B02DAEA
:105320000823D37032E00B009BB2FB2B02DA092377
:10533000D3702BE00B009BB2B3F58A7F02DA0A230D
:10534000D37023E00B009BB240F22D14A34202DA8B
:105350000B23D3701AE00B009BB2B3F5A37F02DAE4
:105360000C23D37012E00B009BB240F25F14A342F7
:1053700002DA0D23D37009E00B009BB2B3F5BC7FBA
:1053800002DA0E23D37001E00F23D37010BC7047F4
:1053900070B50400200040B2FFF780FE2448017879
:1053A00011F0FD010170017851F010010170214DE3
:1053B000B8202870204E3078C006FBD43078C0F377
:1053C00081000228FAD11948C378827841780078A0
:1053D000FFF760FE1448210049B200EB8101897893
:1053E00011F01F01154A1170210049B200EB810133
:1053F000C97811F01F0151F04001114A1170317844
:105400008906FCD531784906FCD5297811F03F0191
:1054100029703178C1F381010329FAD164B230F8DF
:105420002400C0B270BD0000440BFF1F880BFF1F9B
:105430000140064000400640064006400440064049
:105440000540064010B5634C20688008800020604D
:10545000FBF7A2FAFBF78FFBFBF738FC02000021F9
:105460000120FFF7A0F9206850F0010020602068BB
:1054700050F00300206010BD10B5574C2068800824
:105480008000206055480178491C0170017832295C
:105490000BD10021017000F011F800F058F8002045
:1054A0004F49086000204F490860206850F0010013
:1054B0002060206850F00300206010BD70B54A499C
:1054C0004A4802680A600268521C0260484B494C14
:1054D000494D2A6820688218022092FBF0F018607B
:1054E0003F4A2868106020683E4E30601868434E7E
:1054F00030601868401C18601868002809D01068CF
:10550000002806D01A68501C186009683C48FDF74E
:1055100091FE002028600020206070BDF8B50400D6
:105520002F00384800682100FCF7D2FE060030004A
:105530003900FCF7FFFC34490968FCF7C9FE31006B
:10554000FCF708FCFCF7F0FB30490880F1BD38B5EA
:1055500000202F4908602F482F49086000202F495C
:1055600008602F4CD22020802E48264908602E4803
:10557000254908602D480068FFF7D0FF2C4A2349D1
:10558000238808881B1A13802A4D23880888C3188B
:105590002B8029480078002806D1002000F06AF806
:1055A000002000F09AF813E00D48016809B2B2F942
:1055B000000000F0C9F800B200F05CF8094801688A
:1055C00009B2B5F9000000F0BFF800B200F085F8AC
:1055D00031BD00000C7103401C7103404810FF1FD7
:1055E000100EFF1F140EFF1F240EFF1F280EFF1F9B
:1055F0000C0EFF1F340EFF1F380EFF1F2C0EFF1F57
:10560000AC620000040EFF1F080EFF1F3410FF1FC6
:10561000180EFF1FCDCCCC3D1C0EFF1F200EFF1F10
:105620003610FF1F000040409A99193FC80FFF1F16
:105630003810FF1F3A10FF1F4A10FF1F10B543F22A
:10564000C8240023220000210020FEF7EBFF0023E6
:10565000220001210020FEF7E5FF002322000221A5
:105660000020FEF7DFFF0023220003210020FEF7C9
:10567000D9FF10BD10B5040041F28830210009B2F5
:10568000814201DB040006E0200000B22C49884280
:1056900001DA2C480400200000B200280BD42200BC
:1056A00012B200210020FFF77EF800220121002025
:1056B000FFF779F810E0200000B200280CD524B2E2
:1056C0006442002200210020FFF76DF8220012B290
:1056D00001210020FFF767F810BD10B5040041F26A
:1056E0008830210009B2814201DB040006E020007D
:1056F00000B21349884201DA12480400200000B2C7
:1057000000280BD4220012B202210020FFF74BF830
:10571000002203210020FFF746F810E0200000B22D
:1057200000280CD524B26442002202210020FFF799
:105730003AF8220012B203210020FFF734F810BD1E
:1057400079ECFFFF78ECFFFF2DE9FE4F05000E001E
:10575000280000B237003FB2C71B3800FCF73AF907
:105760001B490968FCF7B4FDFCF7DEFA8046B94630
:10577000CDF80490B7EB490A019810EB0A0ADFF85C
:1057800054B0BBF800000090B7EB0900FCF722F919
:1057900011490968FCF79CFD04004046FCF71AF922
:1057A0002100FCF7D7FA04005046FCF713F90B4927
:1057B0000968FCF78DFD2100FCF7CCFAFCF7B4FA80
:1057C00000994018ABF80000BBF90000BDE8FE8F5F
:1057D0001C0EFF1F3C10FF1F180EFF1F200EFF1F87
:1057E00010B410F00703584C22684FF6FF010A402E
:1057F000564951EA03210A43226010BC7047012236
:1058000010F01F018A40524903005BB25B0941F866
:105810002320704710B4020052B2002A09D50A01B1
:105820004C4B040064B214F00F04234403F8042C1E
:1058300004E00A01484B040064B21A5510BC7047DA
:1058400010B5FBF795FE002201214520FCF7D4F8A6
:10585000002201215220FCF7CFF800220121132061
:10586000FCF7CAF8002201213420FCF7C5F8002219
:1058700000213520FCF7C0F8012200213120FCF77F
:10588000BBF8012200213020FCF7B6F800F080F8C8
:1058900000F0A4F8FAF7C8FDFAF703FE4FF416512A
:1058A0000420FDF70BFD40F23A4423003222002190
:1058B0000120FEF7B7FE220000210120FEF773FF52
:1058C000FFF7BCFE00F056F824493520FCF714FE23
:1058D0000320FFF785FF00215820FFF79BFF0121E0
:1058E0004420FFF797FF02214020FFF793FF032199
:1058F0004520FFF78FFF1A49682000F0D0F85820A4
:10590000FFF77DFF174C21680A2041430020FBF779
:105910009DFF1549542000F0C2F84420FFF76FFFA7
:1059200021680120FBF792FF1049552000F0B7F8DD
:105930004520FFF764FF0E49502000F0B0F84020EA
:10594000FFF75DFF10BD00000CED00E00000FA0560
:1059500000E100E018ED00E000E400E013010A00BF
:105960003F5E0000DC0FFF1F45540000795400002B
:105970005B5E000080B50123012200210220FEF7BA
:10598000ABFF0123012201210220FEF7A5FF01BD8B
:1059900080B5002200214820FCF72EF81221482073
:1059A000FCF7CEFD002200214920FCF725F812214A
:1059B0004920FCF7C5FD002200214A20FCF71CF815
:1059C00012214A20FCF7BCFD002200214B20FCF7ED
:1059D00013F812214B20FCF7B3FD01BD1E480068EF
:1059E000012803D101201D49086002E000201B4965
:1059F00008601B480068012803D10120194908608C
:105A000002E000201749086017480068012803D108
:105A100001201649086002E000201449086014487B
:105A20000068012803D101201249086002E000202B
:105A3000104908600F4800680C49096810EB4100E4
:105A40000849096810EB81000449096810EBC1009E
:105A500009490860704700002012FE43FC0DFF1F3B
:105A60002412FE43F80DFF1F2812FE43F40DFF1F02
:105A70002C12FE43F00DFF1F000EFF1F10B5040097
:105A80004FF4007094FBF0F100FB1140002803D0AC
:105A90001E210B48FCF79CFC0A48046010BD70B541
:105AA00004000D00084E07480068B04203D03021C2
:105AB0000348FCF78DFC200040B246F8205070BD32
:105AC0004C61000008ED00E00000FF1FDFF800F06F
:105AD000D12300004A48F021017001780906FCD565
:105AE000007810F0710F01D0002000E00120704715
:105AF0004448016851F4002101604348016851F4B1
:105B0000002101603E4801780906FBD5F0210170B3
:105B100070471CB50400210089B24FF40060414376
:105B200000910920394908709DF802003849087031
:105B30009DF80100374908709DF80000364908704B
:105B4000FFF7C8FF002801D100200DE0200080B23F
:105B5000002808D17FF0010240F20C41200080B201
:105B600000F003F800E0012016BD7CB506000C0033
:105B70001500310089B24FF40060414311FA84F0FE
:105B80000190200080B2042190FBF1F201FB120091
:105B9000002803D0F3212148FFF798FF200080B2AE
:105BA00040F60101884203DBF5211C48FFF78EFF18
:105BB0009DF80600164908709DF805001549087003
:105BC0009DF804001449087000959DF803001449DD
:105BD00008709DF80200134908709DF801001249F1
:105BE00008709DF8000011490870062007490870E8
:105BF000FFF770FF002801D1002000E0012076BDF2
:105C00000000024004F0014008F00140070002409B
:105C1000060002400500024004000240945F0000BC
:105C20000B0002400A000240090002400800024046
:105C3000F0B40F4E3468356855F47F0535600D06B5
:105C400015F0706555EA0075170517F470073D43A8
:105C50001F0417F470273D43064F3D6000252F00B9
:105C6000FFB29F4201D26D1CF9E73460F0BC70476F
:105C700000F001404480044080B500F089F800F055
:105C800028F800F00AF8FCF7C0FB012201210420EB
:105C9000FBF7B2FE00F09CF8FEE710B52E4C032097
:105CA000FFF776FB20602D4922684FF47A7042435B
:105CB0000A6008682A490968C1F30361491CB0FBFE
:105CC000F1F0284908605FF4E1310420FDF7F6FAAD
:105CD00010BD2DE9F0412449244888420AD0002211
:105CE0001400B4F5826F05D251F8242040F8242026
:105CF000641CF6E7FFF7C2FE1D4B1E4A1E498E1AB2
:105D00003000461E002804D010781870521C5B1C0E
:105D1000F6E71A4D1A4C671B3800471E002803D0BF
:105D2000002028706D1CF7E7DFF858C0DFF858E056
:105D3000DFF85880B8EB0E063000461E002808D069
:105D40009EF800008CF800001EF1010E1CF1010C01
:105D5000F2E7BDE8F0810000D80FFF1FD40FFF1F4E
:105D600044800440DC0FFF1F000000000000FF1F04
:105D70001004FF1F443C000078440000F00DFF1F9A
:105D80004C10FF1F440CFF1FCC5A0000785C000031
:105D900080B500F009F80C490A884FF6FE70024001
:105DA0000A8001BD00000000EFF3118072B60749C0
:105DB0004CF220520A804DF628120A800100C9B226
:105DC000002900D162B67047002005400E20054032
:105DD00080B586B072B6FFF733FD62B604A8002125
:105DE0000022C0E9001202A800210022C0E900122E
:105DF000684600210022C0E900123048026830499C
:105E000004A8FBF707FB04AA00210020FBF72AFCEB
:105E10002C4802682C4902A8FBF7FCFA02AA0221CE
:105E20000020FBF71FFC2948026829496846FBF758
:105E3000F1FA6A4604210020FBF714FCCEE70021AA
:105E4000152224480368D340DB0702D50121224BE9
:105E500019605FF0FF3101607047F8B51F480468B2
:105E6000002101600025012616FA05F02100C9B2C3
:105E700001420DD03120FBF737FE002804D00F4837
:105E80000168491C016003E00C480168491E01607B
