:10000000F8FF002011040000AB3A0000AB3A0000FA
:10001000AB3A0000AB3A0000AB3A0000AB3A00004C
:10002000AB3A0000AB3A0000AB3A0000AB3A00003C
:10003000AB3A0000AB3A0000AB3A0000AB3A00002C
:10004000AB3A0000AB3A0000AB3A0000AB3A00001C
:10040000FFFFFFFFFFFFFFFFFFFFFFFFFEFFFFFFFD
:1004100062B607F075FCFEE7DFF800F08B0CFF1FFB
:10042000DFF800F0E30CFF1F80B52E2001F098FEEE
:100430000E2001F095FE2F2001F092FE0D2001F01C
:100440008FFE0C2001F08CFE332001F089FE20206D
:1004500001F086FE132001F083FE002001F080FEF3
:1004600001BD2DE9F04104000D0016005FF0000809
:10047000002738003100C0B2C9B288420AD2290030
:1004800049B2200040B201F06CFF18FA80F08046BB
:100490007F1CEEE73000C0B2B8FBF0F080B2BDE8E0
:1004A000F0812DE9F04F89B000200890002500264A
:1004B00000275FF000080020DFF800A8CAF810004D
:1004C000CAF80C00CAF80800CAF80400CAF800000C
:1004D000DFF8EC07DFF8EC170861C8608860486057
:1004E0000860DFF8E4070068082840F08980DFF83A
:1004F000DC1706A801F08EFF06AA0021002002F0FA
:10050000B1F8DFF8CC1704A801F084FF04AA022197
:10051000002002F0A7F85FF0000B584680B2B0F55B
:10052000AF6F52DADFF8AC97142201213320FFF7C6
:1005300098FF02F06BF9C9F8000014220121202075
:10054000FFF78FFF02F062F9C9F8040014220121BD
:100550001320FFF786FF02F059F9C9F808001422AA
:1005600001210020FFF77DFF02F050F9C9F80C00CF
:10057000142201210E20FFF774FF02F047F9C9F899
:10058000100000200400200080B2052814DA2000AA
:1005900080B25AF82000210089B259F8211002F0E7
:1005A00043F907D2200080B259F82000210089B217
:1005B0004AF82100641CE6E7DFF8A80C0168032074
:1005C00002F07AF91BF1010BA7E7FE20FFF724FFE9
:1005D0005FF00009484680B205284CDA484680B2F0
:1005E0005AF8200002F0C8F902001FFA89F95FEA00
:1005F000890189B2FE20FFF713FF19F10109E9E72C
:100600005FF00009484680B2042818DA0020040090
:10061000200080B205280FDA200080B2800010F59B
:10062000FE20B0F9000000B202F0D4F9210089B236
:100630004AF82100641CEBE719F10109E2E7DFF851
:10064000981602A801F0E6FE02AA0021002002F09E
:1006500009F8DFF87C16684601F0DCFE6A460221E4
:10066000002001F0FFFFDFF8FC0B0168C8204143C8
:10067000032002F021F901220121342002F0BCF90B
:100680004FF4167ADFF8DCBBDBF800100AFB01F14F
:10069000032002F011F900220121342002F0ACF90C
:1006A000DBF800104FF4C8704143032002F004F956
:1006B00001220121342002F09FF9DBF800000AFB3F
:1006C00000FA5146032002F0F7F8002201213420FD
:1006D00002F092F901F04CFF09B0BDE8F08F2DE96E
:1006E000F0470027380000B205283EDADFF8788BA3
:1006F000142201213320FFF7B4FE02F087F83900FD
:1007000009B248F82100142201212020FFF7A9FE98
:1007100002F07CF8390009B208EB8101486114222B
:1007200001211320FFF79DFE02F070F8390009B295
:1007300008EB81018862142201210020FFF791FE5D
:1007400002F064F8390009B208EB8101C863142291
:1007500001210E20FFF785FE02F058F8390009B29A
:1007600008EB810108657F1CBCE75FF0000840468C
:1007700000B2052852DA00200400200000B204284C
:1007800049DA00200500280000B2210009B2D1F1A9
:10079000040188423DDA1427DFF8CC9A18FB07F0F1
:1007A0004844290009B200EB8100406818FB07F1BA
:1007B00049442A0012B251F8221002F035F826D22C
:1007C00018FB07F04844290009B200EB810040689B
:1007D00002F0AEF9060018FB07F04844290009B200
:1007E00000EB810018FB07F149442A0012B251F8CE
:1007F0002210416018FB07F009EB0007A9460FFA29
:1008000089F9300000B202F0E5F847F829006D1CC4
:10081000B9E7641CB1E718F10108A8E70027380020
:1008200000B2052829DADFF8448A5FF01409DFF8FE
:1008300038AA17FB09F05044406817FB09F15144EE
:10084000896802F08FF917FB09F15144C96802F079
:1008500089F9390009B248F82100380000B258F887
:100860002000DFF80C1A02F0EFF9DFF8081A3A005E
:1008700012B241F822007F1CD1E70020010009B22A
:10088000042934DADFF8F019020012B201EB820217
:10089000526803001BB241F82320020012B201EBA0
:1008A0008202926903001BB201EB83035A610200CA
:1008B00012B201EB8202D26A03001BB201EB830386
:1008C0009A62020012B201EB8202126C03001BB2A8
:1008D00001EB8303DA63020012B201EB8202526D74
:1008E00003001BB201EB83010A65401CC6E700212F
:1008F000080000B205280EDADFF878090A0012B203
:1009000050F82200DFF87029142311FB03F31A4476
:100910001061491CECE70027380000B205283BDADB
:10092000DFF85889DFF85099D8F80000390009B28B
:1009300059F8211002F016F9C8F80000D8F80400A0
:10094000390009B209EB8101496902F00BF9C8F8D5
:100950000400D8F80800390009B209EB8101896A5E
:1009600002F000F9C8F80800D8F80C00390009B204
:1009700009EB8101C96B02F0F5F8C8F80C00D8F852
:100980001000390009B209EB8101096D02F0EAF8A3
:10099000C8F810007F1CBFE75FF00008404600B2B7
:1009A000052816DADFF8D478404600B257F8200060
:1009B000C34902F049F9DFF8C818424612B241F8BB
:1009C00022000020414609B247F8210018F1010831
:1009D000E4E7BDE8F087F8B5FFF781FE00242000CA
:1009E00000B2052854DADFF89C58B64EDFF89008BC
:1009F000210009B250F82100210009B256F8211057
:100A000002F0A0F90700AD48210009B250F821001A
:100A1000210009B256F8211002F094F901003800C3
:100A200002F012F9210009B245F82100200000B2BD
:100A300055F82000002101F0F7FE05D8DFF848083E
:100A4000210009B245F82100200000B255F820002D
:100A5000DFF8381802F0B6F905D85FF07E502100B3
:100A600009B245F82100200000B255F8200002F03C
:100A7000BBF90022DFF8183802F0DAF902F0AAFA1E
:100A8000DFF81018220012B241F82200641CA6E719
:100A9000DFF8005828685FF07E5101F0C5FE02D2F1
:100AA0005FF07E5000E02868286068685FF07E5143
:100AB00001F0BAFE02D25FF07E5000E06868686024
:100AC000A8685FF07E5101F0AFFE02D25FF07E5069
:100AD00000E0A868A860E8685FF07E5101F0A4FE1D
:100AE00002D25FF07E5000E0E868E860286802F01B
:100AF0001FF8DFF8A4170880686802F019F8DFF81B
:100B00009C170880A86802F013F8DFF89417088093
:100B1000E86802F00DF8DFF88C170880DFF88867C6
:100B2000684DDFF850070069296902F00BF90700EA
:100B300062480069296902F005F90100380002F0F5
:100B400083F830603068002101F06EFE02D8DFF8D3
:100B500038073060DFF85457306802F045F900225A
:100B6000DFF82C3702F064F902F034FA28602868C4
:100B700001F0DEFFDFF838170880F1BD2DE9F843FA
:100B8000DFF81C47DFF83058DFF81067DFF82C7803
:100B90003888318811FA80F02988401A2188401A53
:100BA00002F04CFA0022DFF8E83602F041F9804604
:100BB00089463888298811FA80F0318810FA81F046
:100BC000218810FA81F002F039FA02000B00404649
:100BD000494602F045FA02F0FDF9DFF8D816086040
:100BE000DFF8D48698F80000002805D002283BD012
:100BF0001ED3032853D057E00120DFF8C016087039
:100C0000012088F800003888012808D130880128A0
:100C100005D12088012802D12888012804D0DFF8D6
:100C2000A0060068012802D1032088F800003BE0FC
:100C30000120DFF888160870022088F80000388844
:100C4000012808D13088012805D12088012802D147
:100C50002888012804D0DFF868060068012802D13E
:100C6000032088F800001FE00120DFF8501608700C
:100C700000F034F83888012808D13088012805D1DF
:100C80002088012802D12888012804D0DFF8300606
:100C90000068012802D1032088F8000004E0002049
:100CA000DFF818160870FFE700F018FB00B202002A
:100CB0000021012002F08FFCBDE8F183BC0EFF1F74
:100CC0000000A040D00EFF1F000EFF1FA8820000F2
:100CD000B4820000940EFF1FCC8200002DE9F04D7D
:100CE000DFF8E08598F80000002816D0022800F010
:100CF000A8806CD3042800F01B81C0F0DC8006289B
:100D000000F0A581C0F05081082800F02982C0F0D1
:100D1000F181092800F06982A2E2DFF88445DFF85A
:100D20008455DFF87865DFF870753888318811FAF6
:100D300080F02988401A2188401A02F07FF90022A9
:100D4000DFF84C3502F074F882468B4638882988E3
:100D500011FA80F0318810FA81F0218810FA81F0C0
:100D600002F06CF902000B005046594602F078F987
:100D700002F030F9DFF83C150860308815280FDBE9
:100D8000208833280CDB2088462809DA3888512847
:100D900006DB2888512803DB012088F8000015E0D5
:100DA000208815280FDB308833280CDB3088462854
:100DB00009DA3888512806DB2888512803DB02200D
:100DC00088F8000002E0002088F8000048E2DFF820
:100DD000D044DFF8D054DFF8C464DFF8BC7438883E
:100DE000318811FA80F02988401A2188401A02F0CF
:100DF00025F90022DFF8983402F01AF882468B4673
:100E00003888298811FA80F0318810FA81F0218819
:100E100010FA81F002F012F902000B005046594618
:100E200002F01EF902F0D6F8DFF888140860308866
:100E3000152805DB2088292802DB032088F800001C
:100E40000EE2DFF85C44DFF85C54DFF85064DFF852
:100E500048743888318811FA80F02988401A21882E
:100E6000401A02F0EBF80022DFF8243401F0E0FF32
:100E700082468B463888298811FA80F0318810FA2A
:100E800081F0218810FA81F002F0D8F802000B00FE
:100E90005046594602F0E4F802F09CF8DFF81414CA
:100EA00008603088292805DB2088152802DB04200B
:100EB00088F80000D4E1DFF8E843DFF8E853DFF812
:100EC000DC63DFF8D4733888318811FA80F0298820
:100ED000401A2188401A02F0B1F80022DFF8B0333E
:100EE00001F0A6FF82468B463888298811FA80F0E7
:100EF000318810FA81F0218810FA81F002F09EF812
:100F000002000B005046594602F0AAF802F062F8BF
:100F1000DFF8A01308603088152808DB30882828FF
:100F200005DA2088512802DB052088F8000097E1C7
:100F3000DFF86C43DFF86C53DFF86063DFF8587359
:100F40003888318811FA80F02988401A2188401A9F
:100F500002F074F80022DFF8383301F069FF8246AE
:100F60008B463888298811FA80F0318810FA81F090
:100F7000218810FA81F002F061F802000B0050465F
:100F8000594602F06DF802F025F8CA490860208839
:100F9000152808DB2088282805DA3088512802DB4C
:100FA000062088F800005BE1BD4CBE4DBB4EBA4F39
:100FB0003888318811FA80F02988401A2188401A2F
:100FC00002F03CF80022B24B01F032FF82468B4621
:100FD0003888298811FA80F0318810FA81F0218848
:100FE00010FA81F002F02AF802000B005046594630
:100FF00002F036F801F0EEFFAE490860208858286C
:1010000024DB3088202821DA40F2F232002101204E
:1010100002F0E1FA934801684FF4AA7041430320BB
:1010200001F04AFC3888502810DA30880A280DDA96
:10103000208851280ADB2888512807DB012201215A
:10104000342001F0D9FC072088F8000008E1944C16
:10105000944D924E904F3888318811FA80F029884B
:10106000401A2188401A01F0E9FF0022884B01F064
:10107000DFFE82468B463888298811FA80F0318855
:1010800010FA81F0218810FA81F001F0D7FF0200F8
:101090000B005046594601F0E3FF01F09BFF8549E4
:1010A00008603088582824DB2088202821DA4FF473
:1010B00091620021012002F08EFA6A4801684FF423
:1010C000AA704143032001F0F7FB3888512810DB58
:1010D000308851280DDB20880A280ADA2888502811
:1010E00007DA01220121342001F086FC072088F86C
:1010F0000000B5E06B4E684F38883188401A01F027
:101100009DFF0022704B01F093FE04000D00388813
:10111000318811FA80F001F091FF02000B002000ED
:10112000290001F09DFF01F055FF624908605B490D
:101130000888152806DB5A480288152A02DB008831
:10114000462809DB56480088152808DB088815283A
:1011500005DB0888462802DA082088F800007FE0CE
:101160004F4C504D4D4E4C4F3888318811FA80F01D
:101170002988401A2188401A01F060FF0022444B60
:1011800001F056FE82468B463888298811FA80F095
:10119000318810FA81F0218810FA81F001F04EFFB9
:1011A00002000B005046594601F05AFF01F012FFB1
:1011B000404908603888512816DB2888512813DBFD
:1011C0003888424908803088414908802088414950
:1011D000088028884049088000220121342001F03D
:1011E0000BFC092088F800003AE02D4C2D4D2B4EC9
:1011F000294F3888318811FA80F02988401A2188CF
:10120000401A01F01BFF00222F4B01F011FE824615
:101210008B463888298811FA80F0318810FA81F0DD
:10122000218810FA81F001F009FF02000B005046FE
:10123000594601F015FF01F0CDFE1E4908603888BF
:101240003188401A02F046FB282808DA2088502806
:1012500005DA2888502802DA002088F80000FFE725
:10126000BDE8F08DE00FFF1FE40EFF1F5C0FFF1FB6
:1012700000004040480FFF1F300EFF1FA80EFF1F49
:10128000780FFF1FA00FFF1F6F12833A0100803FEE
:10129000000059408C0FFF1F4A10FF1F4C10FF1F0A
:1012A0004E10FF1F5010FF1F700FFF1F740FFF1F06
:1012B0005210FF1FB40FFF1F5610FF1F5710FF1FC4
:1012C000CC0FFF1F5910FF1F000069404210FF1F85
:1012D0004410FF1F4610FF1F4810FF1F2DE9F0416B
:1012E000364F38885B285ADBDFF8CC80B8F800002E
:1012F0005B2854DBDFF8C00D0188602904DBDFF8D0
:10130000BC1D0988052907DBDFF8B01D09886029A5
:1013100045DB0088052842DADFF8A46D3888B8F884
:101320000010401A01F08AFE0022DFF8983D01F01B
:101330007FFD04000D003888B8F8001011FA80F025
:1013400001F07CFE02000B002000290001F088FE65
:1013500001F040FE3060DFF8704D5FF07E55306880
:10136000210002F0BBFADFF8641D01F0FBFB07006F
:101370003068DFF8B01D096801F0E4FC290002F0D4
:10138000ADFA390001F0EEFB01F0F6FADFF8981D36
:1013900008600120DFF8941D087000F06CBEDFF8D3
:1013A000300D006801280BD0022800F0AD81042820
:1013B00000F04D8300F0EEBC5010FF1F4A10FF1FDD
:1013C0000120DFF8101D0860DFF8F44C206801F000
:1013D000AFFB02F07FFA0B2822DA5FF07E555FF058
:1013E00080462068290002F079FADFF8E01C01F05D
:1013F000B9FB07002068DFF82C1D096801F0A2FC8A
:10140000310002F06BFA390001F0ACFB01F0B4FAE4
:10141000DFF8141D08600220DFF8101D087071E16C
:10142000206801F085FB02F055FA152822DA5FF0FA
:101430007E555FF080462068290002F04FFADFF801
:101440008C1C01F08FFB07002068DFF8D81C0968AE
:1014500001F078FC310002F041FA390001F082FB22
:1014600001F08AFADFF8C01C08600320DFF8BC1C1A
:10147000087047E1206801F05BFB02F02BFA1F289F
:1014800022DA5FF07E55DFF8A86C2068290002F0B0
:1014900025FADFF8381C01F065FB07002068DFF84B
:1014A000841C096801F04EFC310002F017FA390083
:1014B00001F058FB01F060FADFF86C1C08600420B2
:1014C000DFF8681C08701DE1206801F031FB02F0B4
:1014D00001FA292822DA5FF07E555FF08146206804
:1014E000290002F0FBF9DFF8E41B01F03BFB0700E9
:1014F0002068DFF8301C096801F024FC310002F09C
:10150000EDF9390001F02EFB01F036FADFF8181C76
:1015100008600520DFF8141C0870F3E0206801F073
:1015200007FB02F0D7F9332822DA5FF07E55DFF8A7
:10153000046C2068290002F0D1F9DFF8901B01F05B
:1015400011FB07002068DFF8DC1B096801F0FAFBDB
:10155000310002F0C3F9390001F004FB01F00CFA8C
:10156000DFF8C41B08600620DFF8C01B0870C9E064
:10157000206801F0DDFA02F0ADF93D2822DA5FF0D3
:101580007E55DFF8B06B2068290002F0A7F9DFF87C
:101590003C1B01F0E7FA07002068DFF8881B0968A8
:1015A00001F0D0FB310002F099F9390001F0DAFACC
:1015B00001F0E2F9DFF8701B08600720DFF86C1B10
:1015C00008709FE0206801F0B3FA02F083F9472821
:1015D00022DA5FF07E55DFF85C6B2068290002F0AC
:1015E0007DF9DFF8E81A01F0BDFA07002068DFF89E
:1015F000341B096801F0A6FB310002F06FF93900D5
:1016000001F0B0FA01F0B8F9DFF81C1B08600820FF
:10161000DFF8181B087075E0206801F089FA02F005
:1016200059F9512822DA5FF07E55DFF8086B2068FF
:10163000290002F053F9DFF8941A01F093FA070039
:101640002068DFF8E01A096801F07CFB310002F045
:1016500045F9390001F086FA01F08EF9DFF8C81A71
:1016600008600920DFF8C41A08704BE0206801F018
:101670005FFA02F02FF95B2822DA5FF07E55DFF87F
:10168000B46A2068290002F029F9DFF8401A01F055
:1016900069FA07002068DFF88C1A096801F052FB2C
:1016A000310002F01BF9390001F05CFA01F064F935
:1016B000DFF8741A08600A20DFF8701A087021E059
:1016C0005FF07E55DFF86C6A2068290002F006F9A9
:1016D000DFF8F81901F046FA07002068DFF8441A2D
:1016E000096801F02FFB310002F0F8F8390001F031
:1016F00039FA01F041F9DFF8301A08600B20DFF801
:101700002C1A087000F0B7BC0220DFF8C819086076
:10171000DFF8AC49206801F00BFA02F0DBF80B2887
:1017200022DA5FF07E555FF080462068290002F0E3
:10173000D5F8DFF8981901F015FA07002068DFF8EE
:10174000E419096801F0FEFA310002F0C7F8390027
:1017500001F008FA01F010F9DFF8CC190860022056
:10176000DFF8C819087071E1206801F0E1F902F0B2
:10177000B1F8152822DA5FF07E555FF080462068C8
:10178000290002F0ABF8DFF8441901F0EBF907008B
:101790002068DFF89019096801F0D4FA310002F0EE
:1017A0009DF8390001F0DEF901F0E6F8DFF878196C
:1017B00008600320DFF87419087047E1206801F021
:1017C000B7F902F087F81F2822DA5FF07E55DFF8BC
:1017D00060692068290002F081F8DFF8F01801F054
:1017E000C1F907002068DFF83C19096801F0AAFA7E
:1017F000310002F073F8390001F0B4F901F0BCF8DF
:10180000DFF8241908600420DFF8201908701DE1B2
:10181000206801F08DF902F05DF8292822DA5FF0E6
:101820007E555FF081462068290002F057F8DFF806
:101830009C1801F097F907002068DFF8E81809689C
:1018400001F080FA310002F049F8390001F08AF91C
:1018500001F092F8DFF8D01808600520DFF8CC1806
:101860000870F3E0206801F063F902F033F83328E0
:1018700022DA5FF07E55DFF8BC682068290002F0AC
:101880002DF8DFF8481801F06DF907002068DFF83F
:101890009418096801F056FA310002F01FF8390077
:1018A00001F060F901F068F8DFF87C1808600620A4
:1018B000DFF878180870C9E0206801F039F902F003
:1018C00009F83D2822DA5FF07E55DFF86868206865
:1018D000290002F003F8DFF8F41701F043F90700DC
:1018E0002068DFF84018096801F02CFA310001F097
:1018F000F5FF390001F036F901F03EF8DFF828185D
:1019000008600720DFF8241808709FE0206801F0C5
:101910000FF901F0DFFF472822DA5FF07E55DFF88C
:1019200014682068290001F0D9FFDFF8A01701F042
:1019300019F907002068DFF8EC17096801F002FACE
:10194000310001F0CBFF390001F00CF901F014F87F
:10195000DFF8D41708600820DFF8D017087075E0AA
:10196000206801F0E5F801F0B5FF512822DA5FF0B8
:101970007E55DFF8C0672068290001F0AFFFDFF86F
:101980004C1701F0EFF807002068DFF89817096896
:1019900001F0D8F9310001F0A1FF390001F0E2F8BF
:1019A00000F0EAFFDFF8801708600920DFF87C17F5
:1019B00008704BE0206801F0BBF801F08BFF5B285A
:1019C00022DA5FF07E55DFF86C672068290001F0AD
:1019D00085FFDFF8F81601F0C5F807002068DFF88A
:1019E0004417096801F0AEF9310001F077FF3900C2
:1019F00001F0B8F800F0C0FFDFF82C1708600A20EB
:101A0000DFF82817087021E05FF07E55DFF82467C3
:101A10002068290001F062FFDFF8B01601F0A2F89B
:101A200007002068DFF8FC16096801F08BF9310027
:101A300001F054FF390001F095F800F09DFFDFF848
:101A4000E81608600B20DFF8E416087013E30320A3
:101A5000DFF880160860DFF86846206801F068F853
:101A600001F038FF0B2822DA5FF07E555FF08046E8
:101A70002068290001F032FFDFF8501601F072F8FB
:101A800007002068DFF89C16096801F05BF9310057
:101A900001F024FF390001F065F800F06DFFDFF878
:101AA000881608600220DFF88416087071E120684B
:101AB00001F03EF801F00EFF152822DA5FF07E55A6
:101AC0005FF080462068290001F008FFDFF8FC1570
:101AD00001F048F807002068DFF84816096801F0AF
:101AE00031F9310001F0FAFE390001F03BF800F065
:101AF00043FFDFF8341608600320DFF83016087063
:101B000047E1206801F014F801F0E4FE1F2822DA12
:101B10005FF07E55DFF818662068290001F0DEFED0
:101B2000DFF8A81501F01EF807002068DFF8F415AB
:101B3000096801F007F9310001F0D0FE390001F029
:101B400011F800F019FFDFF8E01508600420DFF855
:101B5000DC1508701DE1206800F0EAFF01F0BAFE14
:101B6000292822DA5FF07E555FF08146206829003F
:101B700001F0B4FEDFF8541500F0F4FF0700206810
:101B8000DFF8A015096801F0DDF8310001F0A6FECC
:101B9000390000F0E7FF00F0EFFEDFF88C15086079
:101BA0000520DFF888150870F3E0206800F0C0FF1A
:101BB00001F090FE332822DA5FF07E55DFF874657D
:101BC0002068290001F08AFEDFF8001500F0CAFF46
:101BD00007002068DFF84C15096801F0B3F8310000
:101BE00001F07CFE390000F0BDFF00F0C5FEDFF81B
:101BF000381508600620DFF834150870C9E0206841
:101C000000F096FF01F066FE3D2822DA5FF07E5577
:101C1000DFF820652068290001F060FEDFF8AC14D1
:101C200000F0A0FF07002068DFF8F814096801F051
:101C300089F8310001F052FE390000F093FF00F006
:101C40009BFEDFF8E41408600720DFF8E01408705A
:101C50009FE0206800F06CFF01F03CFE472822DA8C
:101C60005FF07E55DFF8CC642068290001F036FE75
:101C7000DFF8581400F076FF07002068DFF8A4149E
:101C8000096801F05FF8310001F028FE390000F02A
:101C900069FF00F071FEDFF8901408600820DFF89B
:101CA0008C14087075E0206800F042FF01F012FE0D
:101CB000512822DA5FF07E55DFF878642068290029
:101CC00001F00CFEDFF8041400F04CFF0700206860
:101CD000DFF85014096801F035F8310001F0FEFD1D
:101CE000390000F03FFF00F047FEDFF83C140860C9
:101CF0000920DFF8381408704BE0206800F018FF66
:101D000001F0E8FD5B2822DA5FF07E55DFF82464FD
:101D10002068290001F0E2FDDFF8B01300F022FF97
:101D200007002068DFF8FC13096801F00BF83100A8
:101D300001F0D4FD390000F015FF00F01DFEDFF8C2
:101D4000E81308600A20DFF8E413087021E05FF070
:101D50007E55DFF8E0632068290001F0BFFDDFF861
:101D60006C1300F0FFFE07002068DFF8B813096865
:101D700000F0E8FF310001F0B1FD390000F0F2FEA3
:101D800000F0FAFDDFF8A01308600B20DFF89C13C9
:101D9000087070E1CA4C206800F0CAFE01F09AFD9C
:101DA0000B2821DA5FF07E555FF08046206829001D
:101DB00001F094FDC54900F0D5FE07002068DFF86A
:101DC0006413096800F0BEFF310001F087FD39009F
:101DD00000F0C8FE00F0D0FDDFF84C1308600220D0
:101DE000DFF84813087046E1206800F0A1FE01F01A
:101DF00071FD15281EDA5FF07E555FF08046206881
:101E0000290001F06BFDB14900F0ACFE070020682D
:101E1000C449096800F096FF310001F05FFD390008
:101E200000F0A0FE00F0A8FDBF4908600320BF49F4
:101E3000087020E1206800F07BFE01F04BFD1F28B8
:101E40001DDA5FF07E55BA4E2068290001F046FD8C
:101E50009E4900F087FE07002068B249096800F03B
:101E600071FF310001F03AFD390000F07BFE00F017
:101E700083FDAD4908600420AC490870FBE0206890
:101E800000F056FE01F026FD29281EDA5FF07E558F
:101E90005FF081462068290001F020FD8B4900F0A9
:101EA00061FE070020689F49096800F04BFF310080
:101EB00001F014FD390000F055FE00F05DFD9A4977
:101EC0000860052099490870D5E0206800F030FED0
:101ED00001F000FD33281DDA5FF07E55964E206834
:101EE000290001F0FBFC794900F03CFE0700206866
:101EF0008C49096800F026FF310001F0EFFC390041
:101F000000F030FE00F038FD874908600620874960
:101F10000870B0E0206800F00BFE01F0DBFC3D280B
:101F20001DDA5FF07E55854E2068290001F0D6FC51
:101F3000664900F017FE070020687A49096800F03A
:101F400001FF310001F0CAFC390000F00BFE00F087
:101F500013FD754908600720744908708BE02068FC
:101F600000F0E6FD01F0B6FC47281DDA5FF07E5573
:101F7000704E2068290001F0B1FC544900F0F2FDD8
:101F8000070020686749096800F0DCFE310001F0B5
:101F9000A5FC390000F0E6FD00F0EEFC62490860A7
:101FA00008206249087066E0206800F0C1FD01F079
:101FB00091FC51281DDA5FF07E55614E20682900A2
:101FC00001F08CFC414900F0CDFD07002068554927
:101FD000096800F0B7FE310001F080FC390000F024
:101FE000C1FD00F0C9FC5049086009204F49087044
:101FF00041E0206800F09CFD01F06CFC5B281DDADC
:102000005FF07E554F4E2068290001F067FC2F4994
:1020100000F0A8FD070020684249096800F092FE20
:10202000310001F05BFC390000F09CFD00F0A4FCE5
:102030003D4908600A203D4908701CE05FF07E556C
:10204000414E2068290001F049FC204900F08AFD3A
:10205000070020683349096800F074FE310001F080
:102060003DFC390000F07EFD00F086FC2E49086042
:102070000B202E490870124C206834490860294D05
:102080002068296800F05EFE3149086020682860F9
:102090002548016840F2EE32914203D240F2ED3120
:1020A000016005E040F28B4102688A4200D3016082
:1020B000006800B2BDE8F0814C10FF1F4E10FF1FFA
:1020C000B40FFF1F00005940000048420040874401
:1020D000000EFF1FC80FFF1F80B54D2000F004FD4C
:1020E000002802D101201B4908604D2000F0FCFCB3
:1020F000012808D117480168012904D10021016095
:102100000120154908604D2000F0EEFC002806D1A2
:1021100011480068012802D101201049086001BD62
:1021200000000000B80FFF1FC40FFF1F5810FF1F53
:10213000000040400000B8410000A8410000B0414C
:102140000000C0410000C8410000D041BC0FFF1F8B
:10215000C00FFF1FD40FFF1FD00FFF1FCC0FFF1F9B
:1021600038B5040025006DB26D112800C0B20028FA
:1021700002D001280DD019E0A148016851F000619A
:102180000160A048016831F09001016001680160C0
:1021900010E09D48016851F00061016099480168B4
:1021A00031F4104101600168016003E03321974878
:1021B00001F010FC200040B2002800F089800128C6
:1021C00000F08680032800F0838008284ED009287C
:1021D00051D00A2854D00B2857D00C285AD00D289B
:1021E0005DD00E2860D00F2863D0102870D0112841
:1021F00064D0122867D013286AD0142868D01A280F
:1022000066D01D2864D01E2862D0202861D02128E5
:102210005FD023285DD024285CD025285FD02628D5
:1022200062D0272865D0282868D029286BD02A2892
:102230006ED02B2871D02C2874D02D2877D02E2842
:102240007AD02F287DD0302800F0858031287DD0AD
:10225000322800F0808033287DD034287BD03A2883
:1022600079D03D2877D03E2875D075E00021202018
:1022700001F044FC74E00021212001F03FFC6FE0FC
:102280000021072001F03AFC6AE00021082001F05B
:1022900035FC65E00021222001F030FC60E00021E7
:1022A000232001F02BFC5BE00021402001F026FC04
:1022B00056E00021412001F021FC51E0002198204E
:1022C00001F01CFC4CE00021992001F017FC47E0D4
:1022D00046E045E00021802001F010FC40E00021B4
:1022E000812001F00BFC3BE00021822001F006FC84
:1022F00036E00021832001F001FC31E000212020A4
:1023000001F0FCFB2CE00021212001F0F7FB27E08D
:102310000021242001F0F2FB22E00021252001F021
:10232000EDFB1DE00021262001F0E8FB18E0002174
:10233000272001F0E3FB13E000212A2001F0DEFB5F
:102340000EE000212B2001F0D9FB09E00021112033
:1023500001F0D4FB04E003E09A212C4801F03AFBA1
:1023600031BDF8B504000D00260076B276110027C5
:10237000290049B2200040B200F01BF82449300087
:1023800040B251F8200000680006F7D5300040B296
:1023900051F820000069320052B251F82220126830
:1023A00032F0800233005BB251F823100A6080B231
:1023B000F2BD70B4020052B2521110F01F03144C5F
:1023C0000D006DB2AD0015F00C0555F0500516006E
:1023D00076B254F82660B5600425160076B254F83B
:1023E0002660F5601D00EDB215F01F0555F04005A3
:1023F000160076B254F82640256070BC7047000085
:102400003C8004401880044030800440B47E0000CA
:102410001004FF1F0CB430B583B00A4606A9029120
:10242000044600250194009502AB01A908487844B0
:102430001E3001F0B5FB019A157000284EBF04460E
:102440000198041B204603B030BC5DF80CFB00BFB4
:102450000B07000010B408220121DFF89C3319603B
:1024600000BFDFF898330021196000BF11004A1E39
:10247000C9B2002911D0010604D50121DFF880433B
:10248000216003E00021DFF8784321600121196019
:1024900000BF002119604000E8E710BC7047000051
:1024A00010B408220021DFF850331960DFF84C33F4
:1024B0000021196011004A1EC9B2002911D001067D
:1024C00004D50121DFF83843216003E00021DFF863
:1024D000304321600121196000BF002119604000D4
:1024E000E8E710BC704738B504000D00B5F15000A6
:1024F000C0B2FFF7D5FF2000C0B2000950F01000B5
:10250000C0B2FFF7CDFF14F00F00FFF7C9FF31BDD8
:1025100070B5040000252800C0B2082818DAB5F10B
:102520005000C0B2FFF7BCFF0120FFF7B9FF102039
:10253000FFF7B6FF002006003000C0B2802805DAA1
:102540002000C0B2FFF786FF761CF5E76D1CE2E7BE
:1025500070BD010089B2002909D043F226410A006A
:1025600011004A1E89B20029FAD1401EF1E77047D6
:1025700010B5012201210D2000F03EFA01220121B7
:102580000E2000F039FA012201210F2000F034FA68
:1025900001220121102000F02FFADFF8684200200C
:1025A00020603220FFF7D5FF01202060AE20FFF72A
:1025B00077FF0020FFF774FF1020FFF771FF402026
:1025C000FFF76EFF8120FFF76BFFCF20FFF768FF5B
:1025D000A020FFF765FFC020FFF762FFA620FFF7EE
:1025E0005FFFA820FFF75CFF3F20FFF759FFD320D4
:1025F000FFF756FF0020FFF753FFD520FFF750FFEE
:102600008020FFF74DFFD920FFF74AFFF120FFF7A9
:1026100047FFDA20FFF744FF1220FFF741FFDB20DE
:10262000FFF73EFF4020FFF73BFF2020FFF738FF7A
:102630000220FFF735FF8D20FFF732FF1420FFF750
:102640002FFFA420FFF72CFFA620FFF729FFAF20C4
:10265000FFF726FF0020FFF75BFF00210020FFF7B8
:1026600042FF10BD2DE9F84F04000D0016005FF089
:1026700000085FF000095FF0000A5046C0B2305C0D
:10268000002800F0B7805046C0B23044407800289F
:102690006FD15046C0B2305C203880462000C0B2B6
:1026A000792802DB002004006D1C2900C9B220003B
:1026B000C0B2FFF718FF5FF0000B5846C0B2082801
:1026C0000CDADFF844014146C9B2090151FA8BF135
:1026D000405CFFF7BFFE1BF1010BEEE7691CC9B2BE
:1026E0002000C0B2FFF7FFFE5FF000094846C0B20D
:1026F00008280DDADFF810014146C9B2090151FA84
:1027000089F10844007AFFF7A5FE19F10109EDE708
:10271000002007003800C0B25146C9B2D1F107010C
:10272000884264DA08342900C9B22000C0B2FFF739
:10273000DAFE5FF0000B5846C0B2082805DA002028
:10274000FFF788FE1BF1010BF5E7691CC9B22000F9
:10275000C0B2FFF7C8FE5FF000094846C0B20828C3
:1027600005DA0020FFF776FE19F10109F5E77F1C75
:10277000D0E75046C0B2305C203880462000C0B25E
:10278000792802DB002004006D1C2900C9B220005A
:10279000C0B2FFF7A8FE5FF0000B5846C0B2082891
:1027A0000BDA19484146C9B2090151FA8BF1405C74
:1027B000FFF750FE1BF1010BEFE7691CC9B22000C7
:1027C000C0B2FFF790FE5FF000094846C0B208288B
:1027D0000CDA0D484146C9B2090151FA89F10844A1
:1027E000007AFFF737FE19F10109EEE708341AF114
:1027F000010A42E7BDE8F18F3C00FE433800FE438A
:102800003400FE434000FE43B471000000280AD0AB
:10281000B0FA80F18840D1F19D01C905020672F13C
:10282000004241EB102070474FF0807C1CEB400FC2
:1028300094BF1CEB410F05E040EA010C1CEB0C0FB0
:1028400001D28842704718BF8142704738B50500F1
:102850000C00002C03D12421434801F0BBF843486D
:10286000016851F4000101600020414908604148BD
:10287000611E2A0052B212018150290049B2090199
:102880000144C96851F001012A0052B21201024408
:10289000D160290049B20901014489684908490009
:1028A0002A0052B212010244916003212A0052B25E
:1028B00012011044816031BD38B505000C00002CB8
:1028C00003D14721284801F085F82848016851F4D0
:1028D00000010160264801688908890001602548D7
:1028E000290049B2090101448968490849002A00C0
:1028F00052B2120102449160611E2A0052B21201CA
:102900008150290049B209010144C96851F001010F
:102910002A0052B212010244D160290049B20901D1
:1029200001448968490849002A0052B21201024450
:10293000916001212A0052B21201024491602900E3
:1029400049B209010144C968C907F8D5290049B24B
:1029500009010144C96851F001012A0052B2120173
:102960001044C16031BD0000148000003C80044070
:10297000007003400071034000180CD2010E7F3933
:1029800009D4D1F11F015DBFC00140F00040C84033
:102990006FF0000070470020704730B4002513E04E
:1029A00050F8042BD30744BFA9F101039A18091F5B
:1029B000042942F8045BFAD213468C0744BF158001
:1029C0009B1CC90748BF1D7050F8041B0029E7D1A4
:1029D00030BC7047C2175040801AB0FA80F10AD05C
:1029E0008840D1F19D01D20742EAC151020672F13D
:1029F000004241EB10207047F8B504000D001600AE
:102A00004FF480712000C0B201F078F8280040B285
:102A1000002812D144482100C9B2491150F82110B0
:102A20002200D2B2521150F822004269012314F060
:102A30001F0083409A434A6138E001213A4A20004E
:102A4000C0B2401152F820002300DBB25B1152F8F3
:102A500023305B6914F01F0711FA07F73B4343610A
:102A60003000C0B2002811D12000C0B2401152F88D
:102A70002000036814F01F00814033EA01012000A8
:102A8000C0B2401152F8200001600FE02000C0B237
:102A9000401152F82000036814F01F0081401943D0
:102AA0002000C0B2401152F820000160F1BD38B5DD
:102AB00004001D4D2000C0B2401155F820004069AF
:102AC00014F01F01C840C00703D47B21174800F051
:102AD00081FF2000C0B2401155F82010012214F0EF
:102AE0001F008240CA6031BD38B504000E4D200081
:102AF000C0B2401155F82000406914F01F01C840D1
:102B0000C00703D58C21094800F064FF2000C0B243
:102B1000401155F82000006914F01F04E04010F047
:102B2000010032BD00000000300BFF1FBC7F000021
:102B3000C0F3C7517E390EDDC217D1F1200106DD89
:102B4000000240F00040C840104450407047D0435D
:102B500080F000407047002070470268531C0360FB
:102B60001170704790EA010F40F1F28081F000414E
:102B7000431A4FF000423EBF5340C01AC91800BF6D
:102B8000D3095FEAD05C13EB400F34BFB3EB410FC6
:102B900040E07CEBD1530CD342EA012122D8D1EBA7
:102BA000402009D3400A28BF5FEA500140EBCC50D7
:102BB0007047401A15D04002B0FA80F2521C904083
:102BC000400A4FEA3C23B3EB026384BF00EB73007F
:102BD00007E040F400001A16DB07C2F10102D04002
:102BE00018437047182BFCDC31FA03F202FA03F3A6
:102BF000591A38BF42F00102D2EB40203CBF4000DE
:102C0000ACF1010C5FEACC5CC20572F100414CEB07
:102C10005020704713EB400F0FD2C94209D0ACEBE4
:102C2000D153022B03DB4902172BDDDD70479143A3
:102C3000401AC042D5D10020704713EB410FD0D3CA
:102C40006FF000007047000010B5FF2313EAD05466
:102C50001DBF13EAD1529C429A4239E0A41ADA0706
:102C600080EA0103134042EA012142EA0020421AAD
:102C70003CBF641E01EB4202090AB2FBF1FE01FBFC
:102C80001E221202B2FBF1F001FB10226EF30F20A4
:102C90001202B2FBF1FE4EEA00207F3406DDFE2C6C
:102CA00024DA53EA500050EBC45010BDD4F10204B2
:102CB00001FB1E2240F08071192C1DDC21FA04F06A
:102CC000C4F12004A140114371F10042584110BDEC
:102CD0009C421ABF03EAD1529A420FE080EA010EE9
:102CE0000EF00043400004D0490016D143F0FF40ED
:102CF00010BD490008BFD343180010BD9C4205D148
:102D0000D21AF7D001F00041484010BD4A0212BF6C
:102D10000846484000F0004010BD4AB90902B1FA27
:102D200081F2914044B1A418C00140F000409EE7F8
:102D3000C90141F0004152420002B0FA80F4A040C3
:102D4000141B94E790EA010F7FF512AF81F0004168
:102D5000421A3CBF801A89184FF0004CC0F3C7528A
:102D6000FF2A24D0C1F3C75313B3D21AD2F11903E7
:102D700027DD4CEA01214CFA03F321EA0303D14099
:102D8000C20D4CEA0020401834BF20EA0C004CEA87
:102D90005000D20553EA006373EB0C0C52EB102089
:102DA000420012F1807F38BF7047C00DC0057047E8
:102DB000490212BF9A4200EB5120F8E7D2F1170303
:102DC000D9D570474FF0807C1CEB400F94BF1CEBB3
:102DD000410F05E040EA010C1CEB0C0F01D28142CF
:102DE000704718BF88427047C0F3C75181B1FF29AF
:102DF00006D0C110400721F0E04101F16051704759
:102E000041020CBF40F4E0016FF000410020704728
:102E100000F0004100020AD0B0FA80FC00FA0CF089
:102E200001F16051A1EB0C5101EBD021400570473D
:102E3000B0B581EA030C0CF0004C40F2FF7515EAC6
:102E400011541DBF15EA1357AC42AF4239E0E419E3
:102E500023EA455343F48013C90241F0004141EA9B
:102E6000505EC7021100A7FB020200284FF00000CD
:102E7000EEFB01204FF00001E3FB072118BF42F0F9
:102E80000102401800214941E3FB0E01A4F58064D2
:102E90000F0302D252004041494154F101046CDD5C
:102EA000470872F1004250F1000051EB0451A1F5C6
:102EB00080115CBF41EA0C01B0BD4CEA0551002015
:102EC000B0BD05EA1357AC4214BFAF4241E050EA2F
:102ED000410E1CBF52EA430E02E061460020B0BD25
:102EE00024423C441BD15FEA070EF6D0090302BF1F
:102EF00001460020AEF1140EB1FA81F7AEEB0704E3
:102F000001FA07FE0C37C7F1200100FA07F7C840A5
:102F10004EEA000E23EA455343F48013A2E733F050
:102F20000043B3FA83F704BFB2FA82FE77440B3F43
:102F3000E41BB7F1200E2FBF02FA0EF3BB40C7F11E
:102F4000200E22FA0EFE38BF43EA0E03BA40641C7C
:102F500082E750EA410E14BF52EA430E6FF00001BF
:102F60004FF4001717EB430F8ABF194617EB410FB9
:102F7000B5E74CEA05510020B0BDD4F10104B4F12D
:102F800020070FDAC4F12007520828BF42F00102DF
:102F900010FA07F501FA07F7E1BF2A43E04038438A
:102FA000E1400FE0352C98DCC7F1200452EA4002E2
:102FB00020FA07F218BF42F0010231FA07F0A140EF
:102FC0000A43002172F1004250F1000051EB0C0164
:102FD000B0BD000001F000428B1AA3F16051B1F5C1
:102FE000801F0ADBB1F17F6F1FD242EAC102C1002C
:102FF00071F1004142EB507070470B15C3F10903AA
:10300000212B10D2890241EA9051800201284941C6
:1030100041F0004121FA03F0C3F12003994071F11E
:10302000004150417047100070476FF0000013EBF3
:10303000103F5CBF000E42EAC0507047C11768B134
:103040004840401AB0FA80F29040D21CC907C2F53D
:10305000846241EA025202EBD02140057047000031
:10306000F0B540F2FF7581EA030C0CF0004C15EA54
:1030700011541DBF15EA1357AC42AF42E5E0BC4105
:10308000C1F31301C3F31303801A994143F480136E
:1030900004D2641E4000494180185941C90241EAE6
:1030A0005051B1FBF3F603FB1611A2FB0675D7EBEB
:1030B000C020A94102D2761E80185941C90241EAB6
:1030C0005051B1FBF3FE03FB1E11A2FB0E75D7EBB3
:1030D000C020A94103D2AEF1010E801859418902E6
:1030E00041EA9051760546EA8E2EB1FBF3F603FBDA
:1030F0001611A2FB0675D7EB8020A94102D2761EDD
:1031000080185941C90241EA50514EEA060EB1FBFE
:10311000F3F603FB1611A2FB0675D7EBC020A941FD
:1031200002D2761E80185941C90241EA5051B1FBC2
:10313000F3F703FB1711A2FB0735D3EBC020A9411E
:1031400067F100070CBF004247F0010766F3D5277F
:103150004FEA1E31B80814F5806412DDBD0775F121
:10316000004250EB0E5051EB045111F5801F5CBF33
:1031700041EA0C01F0BD4CF07F6141F0E0410020DC
:10318000F0BDBD076D0840EA0E5041F48011D4F146
:103190000104B4F120060ADAC4F120060200E0407E
:1031A00001FA06F3E1401843B24015430EE0342C17
:1031B00013DCC6F1200445EA40056D0820FA06F24A
:1031C000154321FA06F0A1400D43002175F100429C
:1031D00050F1000051EB0C01F0BD00205FEA0C0142
:1031E000F0BDCFB992185B41B3FA83F704BFB2FACE
:1031F00082F6BF190B3FB7F120062FBF02FA06F384
:10320000BB40C7F1200622FA06F638BF3343BA4066
:103210001CB1E419641E33E77F4231F00041B1FA7A
:1032200081F404BFB0FA80F6A4190B3CB4F1200677
:103230002FBF00FA06F1A140C4F1200620FA06F6DD
:1032400038BF3143A0403C1B1AE7AC421ABF05EA25
:103250001357AF4212E050EA41061CBF52EA430640
:10326000BFE750EA4107304661461CBF41EA0551BD
:10327000F0BD52EA430C08BFC143F0BD00204FF43B
:10328000001616EB410F98BF16EB430F08BF16EB65
:10329000410F24BFC14305E016EB430F0CBF61464D
:1032A0004CEA0551F0BD000038B504000D002000C7
:1032B00040B2002806D0022867D04BD3032800F084
:1032C0007F80C6E0DFF8F805016851F08071016089
:1032D000280040B200280BD0022815D00ED30428B5
:1032E0001ED017D3062827D020D307282AD02FE0B6
:1032F0004FF48061412000F001FC2AE04FF480612E
:10330000422000F0FBFB24E04FF48061432000F0FA
:10331000F5FB1EE04FF44071062000F0EFFB18E0D3
:103320004FF44071072000F0E9FB12E04FF4806198
:10333000652000F0E3FB0CE04FF48061662000F0B4
:10334000DDFB06E04FF48061672000F0D7FB00E072
:103350007FE07EE0DFF86805016851F000710160F0
:10336000280040B2002802D0012806D00BE04FF41C
:103370004071202000F0C2FB06E04FF44071212094
:1033800000F0BCFB00E064E063E0DFF838050168B2
:1033900051F080710160280040B2002802D001285D
:1033A00006D00BE04FF44071322000F0A7FB06E09E
:1033B0004FF44071332000F0A1FB00E049E048E009
:1033C000DFF80005016851F000710160280040B28B
:1033D00000280BD0022816D00ED304281FD018D3F3
:1033E000062828D021D307282BD030E04FF4C06125
:1033F000852000F083FB2BE04FF48271DFF8C804D6
:1034000000F0E8FA24E04FF4C061872000F076FB7A
:103410001EE04FF4C061882000F070FB18E04FF40C
:10342000C061892000F06AFB12E04FF4C0618A207D
:1034300000F064FB0CE04FF4C0618B2000F05EFBF9
:1034400006E04FF4C0618C2000F058FB00E000E083
:10345000FFE731BD2DE9F84F04000D0016001F00F5
:10346000200040B2002815D0200040B2032811D01F
:10347000200040B201280DD0200040B2022803D124
:10348000280040B2022805DB40F27B11DFF8380447
:1034900000F0A0FA290049B2200040B2FFF704FF73
:1034A000DFF82804D0F800904FF47A7000FB09F997
:1034B0004846000CB0FBF6FA5FF0000B504680B2B5
:1034C00050FA0BF0012802DB1BF1010BF6E758461E
:1034D000C0B2082805DB4FF4CB71DFF8EC0300F035
:1034E00079FA484630FA0BF0B0FBF6F0210049B209
:1034F000002903D0022917D00BD320E0010089B2A4
:10350000491C01FB07F142F21072B1FBF2F188464F
:1035100015E0010089B2491C01FB07F142F210726B
:10352000B1FBF2F188460AE0010089B2491C01FBB7
:1035300007F142F21072B1FBF2F18846FFE7DFF8C3
:103540009013220052B251F822202B005BB202EB02
:10355000C30223005BB251F82330AC464FFA8CFC17
:1035600003EBCC03DB6833F00403D360220052B2D8
:1035700051F822202B005BB202EBC3022823D36058
:103580005A46D2B212F0070252F0080223005BB290
:1035900051F823301A60020092B223005BB251F856
:1035A00023309A60002223005BB251F82330DA64A2
:1035B000220052B251F822202B005BB202EBC30270
:1035C00043469BB21361002223005BB251F82310E3
:1035D0004A60BDE8F18F2DE9F04180460D001600EC
:1035E0000024404640B2032815D0404640B200288F
:1035F00011D0404640B2012803D0404640B20228D4
:1036000003D1280040B2022805DB4FF4EA71DFF84D
:10361000B80200F0DFF9404640B2002805D0022889
:1036200019D00DD3032821D02BE042F2117086422D
:1036300005D340F2D911DFF8900200F0CBF920E079
:1036400042F21170864205D340F2DD11DFF87802B4
:1036500000F0C0F915E042F21170864205D340F245
:10366000E111DFF8640200F0B5F90AE042F21170EE
:10367000864205D34FF4F271DFF84C0200F0AAF94C
:10368000FFE7DFF84C02414649B250F82110896843
:103690000C00002CF5D0414649B2002905D0022982
:1036A00015D00BD303291BD023E0611C01FB06F1CD
:1036B00042F21072B1FBF2F10F001AE0611C01FB43
:1036C00006F142F21072B1FBF2F10F0011E0611C41
:1036D00001FB06F142F21072B1FBF2F10F0008E0BB
:1036E000611C01FB06F142F21072B1FBF2F10F0016
:1036F000FFE7414649B250F82100290049B200EBEA
:10370000C1000761BDE8F081F8B504000D001600A6
:103710001F00200040B2002810D0200040B2012835
:1037200003D0200040B2022803D1280040B2022872
:1037300004DB40F24D21644800F04CF9290049B205
:10374000200040B2FFF7B0FD300040B2002803D0A7
:10375000022855D02AD37CE05D48210049B250F8B8
:1037600021102A0052B201EBC201220052B250F8DD
:1037700022202B005BB202EBC302D26852F044025B
:10378000CA60210049B250F821102A0052B201EB60
:10379000C201220052B250F822002A0052B200EBBD
:1037A000C200C06830F03800C86052E048482100CC
:1037B00049B250F821102A0052B201EBC201220096
:1037C00052B250F822202B005BB202EBC302D26847
:1037D00052F04802CA60210049B250F821102A0074
:1037E00052B201EBC201220052B250F822002A006C
:1037F00052B200EBC200C06830F03400C86028E06C
:103800003348210049B250F821102A0052B201EB8E
:10381000C201220052B250F822202B005BB202EB10
:10382000C302D26852F04C02CA60210049B250F87B
:1038300021102A0052B201EBC201220052B250F80C
:1038400022002A0052B200EBC200C06830F0300003
:10385000C8601F48390049B211F0070151F0080152
:10386000220052B250F822201160210049B250F8D3
:103870002110496D51F00401220052B250F822206B
:1038800051650021220052B250F8222051662100D9
:1038900049B250F82110496D49084900220052B23E
:1038A00050F8222051650021220052B250F8222007
:1038B000D1640021220052B250F822000165F1BD0E
:1038C0003C80044030800440647F0000E00FFF1F14
:1038D000200BFF1F002848BF40427047FF2212EA1A
:1038E000D05C1DBF12EAD153944593422BE09C4417
:1038F000D30780EA01021A4043EA002043EA01218B
:10390000A1FB0030C04238BF40007CF17F010BDBDF
:10391000FE294ADA5B0842EAC15153EA006373F1B7
:10392000004C51EB10207047D1F1080CDCF1200164
:103930002FDB5B0810FA01F10B4320FA0CF073F156
:1039400000415041704794451CBF02EAD153934255
:1039500080EA010202F000421DD0400019D0490067
:1039600017D05BB9634514D00902B1FA81F39940CD
:10397000BCEB030CC00140F00040C1E70002B0FA0C
:1039800080FC10FA0CF0B3EB0C0CC90141F00041C3
:10399000B6E71000704740000AD0490008D010F187
:1039A000807F94BF11F1807F02E042F0FF407047BA
:1039B000D0437047DFF800F0690CFF1FBFF34F8F53
:1039C00046490A6812F4E062454802430A60BFF3C0
:1039D0004F8FFEE738B504000D00002000F0ECFE2C
:1039E0002A0021003F4800F027FF002000F004FFDC
:1039F0004FF47A7000F04DFFF2E738B504000D0087
:103A0000210049B2042001F055F8200032BD10B564
:103A10000024042001F068F8042001F09FF8002839
:103A200042D1002000F0C8FE042001F097F80128E0
:103A300001D101200400002000F0DEFE2A4800F041
:103A4000FBFE4FF4FA7000F024FF2000C0B2012802
:103A5000EAD1042001F082F80028E5D1042001F029
:103A60007DF8002806D1002000F0C6FE642000F09A
:103A700010FFF3E7042001F071F8012806D10020BF
:103A800000F0BAFE322000F004FFF3E7174800F020
:103A9000D3FEFFF78FFF642000F0FBFE0020FCF751
:103AA000BBFCFFF78BFFBFE710BD10B510480468E3
:103AB000012000F081FE012000F09EFE0D49220051
:103AC000D2B20F2042430A442100C9B20A4800F092
:103AD000B3FE4FF47A7000F0DCFEECE70CED00E092
:103AE0000400FA057C81000038820000B0810000EB
:103AF00004ED00E01804FF1F1881000030B4264BCD
:103B00001C684FF400750200D2B2520995402C4354
:103B10001C60224B0200D2B2521153F82240012500
:103B200010F01F029540C4F8A0500200D2B252110A
:103B300053F822200300DBB213F01F0342F82310D6
:103B400030BC704730B4144B1C684FF40075020051
:103B5000D2B2520995402C431C6031F4E0610F4A07
:103B60000300DBB25B1152F823300400E4B214F01E
:103B70001F0453F8243013F4E06319430300DBB24D
:103B80005B1152F823200300DBB213F01F0342F84D
:103B9000231030BC70470000388004408C0BFF1F9E
:103BA0002DE9F0439FB00FF6A836269CDFF8048974
:103BB0008DF83B40029100240B944FF0FF370446F0
:103BC00091461D460AE019F8011B0298A0470028FB
:103BD000029000F0A1800B98401C0B9099F8000017
:103BE00050B12528EFD100210022059106920791BE
:103BF000089209910A9203E00B98A0E041F00101BC
:103C000019F8010F2028F9D023280CD02B2804D034
:103C10002D2805D0302809D080E041F00201EFE7DF
:103C200041F00401ECE741F00801E9E741F010013F
:103C3000E6E70D920AE00D98404505DA00EB8000BA
:103C400002EB4002303A0D9209F1010999F8002087
:103C5000A2F130000A28EED399F800002E2818BFF0
:103C60000C9726D119F8010F2A2808D12868286056
:103C700009F1010950F8042B28600C9219E02D2855
:103C80000CBF09F10109002000220C920BE040B9A1
:103C90000C9A424505DA02EB820203EB4203303B09
:103CA0000C9309F1010999F80030A3F130020A2AB6
:103CB000EDD3ADF83810304699F8001000F066FFEB
:103CC00008B119F8010B8DF83A009DF83A00682800
:103CD00005D199F8000068280CD1622106E06C2813
:103CE00004BF99F800006C2804D171218DF83A10B6
:103CF00009F1010910A804902A4619F8013B694608
:103D0000204600F05CF838B910AA6946204600F059
:103D100086F900287FF562AF384610E02A2888D15E
:103D20002A682A6052F8040B2A6000280D9003D5F7
:103D300040420D9041F0040109F101098CE71FB0E8
:103D4000BDE8F083622820D0682811D06A2803D00B
:103D50006C2827D0712825D10868C01D20F00700E5
:103D60000860D0E900230830086019461046704703
:103D7000002A0A680A60106803D0121D0A6000B2A7
:103D800017E0121D0A6080B217E0002A0A680A6074
:103D9000106803D0121D0A6040B20AE0121D0A60CA
:103DA000C0B20AE0002A0A680A60106803D0121D37
:103DB0000A60C1177047121D0A600021704770B574
:103DC0001C460D46B4F125002E69114600F0158100
:103DD0002038022863D9133840D00B3816D0401E43
:103DE0001ED0401E02285AD9001F19D0401F00F0D3
:103DF0008180401E32D0401E00F0CB80C01E00F0FB
:103E0000DA80801E2AD0C01E28D0FCE06869421CDF
:103E10006A610A680A6052F8043B0A603354FCE0A5
:103E200095F83A000122FFF78DFFC5E9000100294E
:103E300004D56869411C69612D220DE0288F810736
:103E400004D56869411C69612B2205E0C00721D5B2
:103E50006869411C6961202232541BE095F83A00E0
:103E60000022FFF76FFFC5E9000195F83800010750
:103E700010D5D5E90023002B08BF002A0AD044F052
:103E80002000782806D1686930213154401C421C3A
:103E90006A613454214668693044E86087E0086804
:103EA000C01D20F007000860D0E90023083008603A
:103EB000C5E90023D5E90001C80F04D06869411C99
:103EC00069612D220DE0288F810704D56869411CA6
:103ED00069612B2205E0C00704D56869411C69614E
:103EE0002022325468693044E8602146284600F0B8
:103EF000C4F992E005F13A02507820B14FF0FF3456
:103F00000FF6540062E01078622808D0682824D0A8
:103F10006A2812D06C282ED071280ED02BE00A68A7
:103F20000A6052F8040B0A6020B94FF0FF340FF614
:103F300040004BE0E96A01706FE00A680A6052F8DD
:103F4000040B0A6020B94FF0FF340FF624003DE067
:103F5000EA6AD317C0E900235FE00A680A6052F8F2
:103F6000040B0A6020B94FF0FF340FF604002DE077
:103F7000E96A018051E00A680A6052F8040B0A609D
:103F800020B94FF0FF340FF2E8701FE0E96A0160DA
:103F900043E00A680A6052F8040B0A60002120F02E
:103FA000000221F0FF33C5E90023EE6078212846A6
:103FB00000F0BBF831E00868086050F8044B086076
:103FC000EC603CB94FF0FF340FF2BC7000F0EAFD3A
:103FD000201A70BD2E6B002E04D5204600F002FE84
:103FE000044608E032460021204600F017FE002873
:103FF00014BF041B3446AC610FE06869411C696161
:104000002522325409E06969481C686125227254EE
:10401000210002D0431C6B613454002070BD2DE997
:10402000FC410F46064690467A6B7869396ABC6A4D
:10403000121AB869521A796A121AF869521A121ABF
:1040400097F83800141B41070FD42020002C8DF85E
:1040500000000ADD254601236A463946304600F055
:104060005FFB00285DD16D1EF5D17B694246394664
:10407000304600F055FB002853D130208DF8000069
:104080003D6A002D09DD01236A463946304600F0BD
:1040900047FB002845D16D1EF5D1BB69FA6839464A
:1040A000304600F03DFB00283BD130208DF8000069
:1040B0007D6A002D08DD01236A463946304600F04E
:1040C0002FFB70BB6D1EF6D1F868B969FB69421809
:1040D0003946304600F024FB18BB30208DF8000034
:1040E000BD6A002D08DD01236A463946304600F0DE
:1040F00017FBB0B96D1EF6D197F8380041070DD502
:104100002020002C8DF8000008DD01236A46394686
:10411000304600F005FB20B9641EF6D10020BDE852
:10412000F6814FF0FF30BDE8F6812DE9FC430746EC
:104130006F293E6908BF082405D041F02000782887
:1041400014BF0A2410243C25D7E90023642918BF92
:1041500069299046994605D1002B03D5D8F100086E
:1041600069EB4909B9F1000F08BFB8F1000F1FD181
:10417000386BE8B9082C4CD197F83800010748D5BE
:1041800030203B2586F83B0043E000280ED597F809
:10419000380000F01400102808D17B6B7969386A68
:1041A0005B1A1B1A9A1A002AC8BF3A62BDE8F38349
:1041B0008DF80010404649462246E31700F05AFDAC
:1041C0003032D0B26D1E3A28019504DB9DF8000014
:1041D000A0F151018A187255404649462246E3171C
:1041E00000F048FD80465FEA010908BFB8F1000F02
:1041F00003D0F86871198842DCD3082C09D197F8EC
:104200003800010705D5705D302802D06D1E3020C2
:104210007055C5F13C02BA617119F960386B824280
:10422000B3DA821A3A624FF6EF70398F014039875C
:10423000BDE8F3832DE9D04306460F4614464FF000
:104240000008DFF8749212E0E00707D542464B46BB
:1042500030463946FEF7ECFD06460F4640464946D5
:1042600042464B46FEF7E4FD641080468946002C2A
:10427000EAD130463946BDE8D0832DE9F0470646FD
:1042800089468EB0D6E90001CDE9020104AC306B5D
:10429000002802D50620306305E001BF49F0200068
:1042A000672801213163D6E9002358004015401CDE
:1042B0000DD119030BD0A9F1610103201A29B061B6
:1042C00002D20FF2E04110E00FF2DC410DE05900A4
:1042D0004915491C0ED118030CD1A9F16101032025
:1042E0001A29B06116D30FF2C841F068032200F01A
:1042F000D9FDDBE023F00047B7F5801F10461946D3
:1043000022F000050DD20022002F08BF002D0192DF
:1043100003D116E00FF29441E7E701AA00F016FE80
:1043200008E06648664900EB175001906548034075
:1043300010461943019B644D47F29752534393FB38
:10434000F5F2C6E9000120F0000331F0004104BF9E
:10435000002B002300F0A280DDE90240019220F052
:104360000045D2F1070204DD20462946FFF762FF2F
:104370000AE0524200205549FFF75CFF02460B4617
:1043800020462946FEF76CFE044649F0200ABAF1A1
:10439000660F306B06BF019D0A3506252D18142DBA
:1043A000C8BF1425302088468DF810000DF1110784
:1043B000002D33DD2046414600F000FE01460A464E
:1043C00007F1080304200A27B2FBF7F707EB870E73
:1043D000A2EB4E02303203F8012C0A22B7FBF2F2B4
:1043E00002EB820EA7EB4E073037401E03F8027D2A
:1043F000E9D1083D002D03F10807D9DD084600F09A
:10440000F1FD02460B462046414600F0F9FD002230
:104410002F4BFEF70DFD04468846CBE70DF111004A
:104420003F1A0DF1110404E00198401E7F1E019017
:10443000641C20783028F7D0BAF1660F02D10198B9
:10444000401C04E0BAF1650F0CBF01200020336B63
:10445000C3189F42B8BF7B1E002B1ED4BB4204DA98
:10446000E05C3528A8BF392000DA30201946621EEA
:1044700002EB010800E05B1E18F80179491E874233
:10448000F9D0392802D1605C401C6054002904D561
:104490000198401C14465B1C0190019800B20090EA
:1044A0001BB222464946304600F014F80EB0BDE873
:1044B000F0870000CBCCCC0C0000244002FCFFFFB6
:1044C0000000E03FFFFF0F80A08601000000F03FEA
:1044D00084D797412DE9F84783B005468A4691462F
:1044E000984600F0FFFDB8F1000F406A2F6B067888
:1044F00003DC4FF001080FF2BC294AF02000BDF99F
:104500003040662808BF641C13D0672840F08F80B5
:1045100014F1040F7ADBBC4278DA95F83800641C99
:10452000010702D4B845B8BF474620B23F1A48BF7A
:1045300000270FFA84FAE868A969BAF1000F23DCB2
:104540004A1C30234354002F03DC95F83800010740
:1045500002D5E8688654521C17EB0A0FB8BF7C429C
:1045600024B2E71960424745B8BFB846AA616862FD
:104570000FFA88F4EC61E868AB69224649461844B2
:1045800000F090FC3F1B18E022B29045084416DA78
:104590004246494600F086FCA8694044A861AAEB5F
:1045A0000801002F696203DC95F838100A0704D56A
:1045B000E9680E54E869401CE861AF6299E0494639
:1045C00000F070FCA869002F5044A8EB040803DC3D
:1045D00095F838100A0702D5E9680E54401CA86106
:1045E0000FFA88F08742EB68A869B8BFB8460FFA9F
:1045F00088F209EB0A01184400F054FCA9690FFA8B
:1046000088F00144A961381A686272E0B84504DA9A
:1046100095F838100A0758BF47467F1E48BF002745
:10462000BAF1670F0CBF4FF0650A4FF0450AA96950
:10463000EB68481CA861002F19F8012B5A5403DCC1
:1046400095F838100A0719D5E968431CAB610E5478
:10465000002F13DDA8F1010630B28742D5F80CC057
:10466000B8BF3E4632B249460CEB030000F01AFCDC
:10467000A86936B23018BF1BA8616F62E868A969E3
:104680000844002C80F800A003D42B224270811C27
:1046900003E02D2141706442811C00206A460AE03B
:1046A00023460A2493FBF4F404EB8406A3EB4603AD
:1046B00002F8013B401C24B2002CF1DC012806DC8E
:1046C0004AF02002652A04BF302201F8012B48B9C4
:1046D000302001F8010B07E0401E1DF80030303398
:1046E00001F8013B0028F7DCEA68A8691044091AC0
:1046F000E96195F8380000F0140010280DD16A69BE
:10470000A969686A8A18E9698218A86A8A188218E9
:10471000686B8242BCBF821A2A6204B0BDE8F0878F
:10472000F8B505460E4617461C46002074B117F82A
:10473000011BB068A847B06030B1F06A401CF0625D
:104740000020641EF3D1F2BD4FF0FF30F2BD000037
:10475000686A6C747A4C00007072696E74665F737C
:104760003A20256E20646973616C6C6F7765640014
:104770007072696E74663A2062616420256E2061F1
:104780007267756D656E74007072696E74665F73C2
:104790003A2062616420257320617267756D656ED1
:1047A000740000006E616E004E414E00696E66003E
:1047B000494E46003000000010B50400200040B211
:1047C000042808DA012201211A4823005BB2C05CE8
:1047D000FEF712F90FE0042004002000441E40B24E
:1047E000002808D001220121124823005BB2C05CDE
:1047F000FEF702F9F1E710BD10B50400200040B249
:10480000042806DA0B48210049B2405CFEF74FF954
:104810000DE0042004002000441E40B2002806D011
:104820000448210049B2405CFEF741F9F3E710BDAE
:1048300000000000C00BFF1F0EB4C0B5024603A865
:1048400000210190009101AB0121044878440C3013
:10485000FFF7A6F906BC5DF810FB00BFA739000002
:1048600010B50400002C13D0B4F1807F03D32921AC
:104870000E48FFF7AFF80E48002101600D490C60AB
:1048800000210D4A1160052101600168C903FCD5B2
:1048900010BD10B504002000441E002804D00748B5
:1048A0000068FFF7DDFFF6E710BD0000587E00004E
:1048B00010E000E014E000E018E000E0D80FFF1F77
:1048C0002DE9F84304000D00200040B2002808D074
:1048D000022828D016D3042847D035D3052855D030
:1048E00065E0DFF8EC01016851F4806101604FF48C
:1048F00040713020FFF702F94FF440713120FFF78B
:10490000FDF854E0DFF8C801016851F4006101606E
:104910004FF440714320FFF7F1F84FF44071442009
:10492000FFF7ECF843E0DFF8A801016851F480518B
:1049300001604FF440716320FFF7E0F84FF44071DD
:104940006220FFF7DBF832E0DFF88401016851F400
:10495000005101604FF440712B20FFF7CFF84FF466
:1049600040712A20FFF7CAF821E0DFF868010168EA
:1049700051F4806101604FF440719920FFF7BEF857
:104980004FF440719820FFF7B9F810E0DFF84401C8
:10499000016851F4006101604FF440718920FFF714
:1049A000ADF84FF440718820FFF7A8F8FFE7DFF873
:1049B0002861200040B256F82000C07810F0F300C3
:1049C000210049B256F82110C870200040B256F8B4
:1049D00020008078210049B256F82110887020000C
:1049E00040B2002803D0200040B2012805D13B4846
:1049F00007684FF47A70474304E0394807684FF47A
:104A00007A7047432801B7FBF0F8404680B2B0F512
:104A1000005F02DB41F6FF708046B7FBF5F94046C8
:104A200080B2B9EB0019484680B2202804DB40F27E
:104A300003112C48FEF7CEFF200040B256F82000AC
:104A4000007810F0E000C8F304210143220052B2C4
:104A500056F822201170210049B256F8211081F831
:104A60000180210049B256F82110897A11F0E00145
:104A700019F01F020A4323005BB256F823309A72E2
:104A8000220052B256F82220127C52F088022300F3
:104A90005BB256F823301A74220052B256F8222024
:104AA000D27852F00C0223005BB256F82330DA7051
:104AB000BDE8F183084A03005BB252F823301B794A
:104AC0001B06F7D503005BB252F82320D171704763
:104AD0003480044028800440A00BFF1FD80FFF1F24
:104AE000E00FFF1F6C80000038B50400200040B2CA
:104AF00008280EDA244D00220021200040B2285C54
:104B0000FDF77AFF0321200040B2285CFFF71AF876
:104B100015E0082004002000441E40B200280ED0FA
:104B2000194D00220021200040B2285CFDF764FFEF
:104B30000321200040B2285CFFF704F8EBE731BD09
:104B400010B504001048210049B2405CFDF7CCFFCD
:104B5000002801D1002000E0012010BD10B50400A4
:104B6000200040B2FFF7ECFF00280AD10A20FFF72F
:104B700090FE200040B2FFF7E3FF002801D10020A3
:104B800000E0012010BD0000B80BFF1FC9B2027881
:104B90008A421AB11CBF10F8012FF9E718BF002094
:104BA0007047000080B500B906A005490B681BB12D
:104BB00022220021984701E000F098FA222002BD4D
:104BC000E40FFF1F636F6E73747261696E74206807
:104BD000616E646C65723A20626164206D65737306
:104BE0006167650000F10103810704D010F8011B23
:104BF000820781B1FAD10268A2F10131914311F02B
:104C0000803104BF50F8042FF6E709BAB1FA81F1F8
:104C100000EBD100401CC01A70470000C9B28307E6
:104C200006D0521E22D310F8013B9942F7D11FE063
:104C3000083A13D302F1040241EA012141EA014199
:104C400050F8043B121F21BF4B40A3F1013C2CEA5A
:104C5000030C1CF0803FF3D0C9B2001F083210F8DB
:104C6000013B521E28BF91EA030FF8D818BF01205C
:104C7000401E7047BBBBE1B1B2F5803F80F07E8043
:104C8000022A1ED98C46B1FBF2F102FB11C31B04B0
:104C900043EA1043B3FBF2FC02FB1C3380B240EA50
:104CA0000343B3FBF2F002FB103240EA0C40002356
:104CB0007047022A05D98446B0FBF2F002FB10C20D
:104CC00070474AB105D100F0010249085FEA30009F
:104CD000704700220023704700F00CBA0B0002005E
:104CE000002100207047904271EB030CF6D3B3F51E
:104CF000803F2FD2F0B5B3FA83F7B1FA81F4A7F170
:104D00000F0E3D1B5340CEF1200602FA0EF2F34186
:104D10005340B5F10F0746D80F3C2C444140C4F135
:104D20002006A040F1414140B1FBF3F603FB161110
:104D3000A2FB0645001BA94102D2761E80185941EC
:104D400080EA010221FA0EF362FA0EF200215A40C3
:104D50003046F0BD30B4B1FBF3FC03FB1C11A2FBE9
:104D60000C45001BA94103D2ACF1010C801859413C
:104D700030BC02460B46604600217047B2F1807F8E
:104D800065D3F0B5B2FA82F7B1FA81F4C7F10F0634
:104D90003D1B22FA06F307F1110EF24120355A406D
:104DA000B5F10F07B8D94140C4F12006A040F14148
:104DB0004140B1FBF3FC03FB1C11A2FB0C45001BA3
:104DC000A94103D2BCF1010C801859410F2F12D315
:104DD0000F3FC90341EA5041B1FBF3F603FB161143
:104DE000A2FB0645D4EBC030A94102D2761E801842
:104DF000594146EACC3C07B34140C7F12006B840D0
:104E0000F1414140B1FBF3F603FB1611A2FB06454D
:104E1000001BA94102D2761E8018594180EA010286
:104E200021FA0EF3C7F1200462FA0EF20CFA07F031
:104E30005A402CFA04F13043F0BD80EA010221FA15
:104E40000EF3002162FA0EF260465A40F0BD8C4625
:104E5000B1FBF2F102FB11C31B0243EA1063B3FB87
:104E6000F2FC02FB1C331B024CEA002043EA1063F5
:104E7000B3FBF2FC02FB1C331B024CEA002043EAAA
:104E80001063B3FBF2FC02FB1C331B024CEA002054
:104E900043EA1063B3FBF2FC02FB1C324CEA002035
:104EA0000023704762B38B0708D0521E11F8013BF4
:104EB00000F8013B00F024808B07F6D1830740F017
:104EC000208000BF103A07D330B4B1E83810103A50
:104ED000A0E83810F9D230BC530724BFB1E808105D
:104EE000A0E8081044BF51F8043B40F8043BD20747
:104EF00024BF31F8022B20F8022B44BF0B7803703B
:104F00007047121F17D35B0009D151F8043B20F8FA
:104F1000023B1B0C121F20F8023BF6D20BE051F8AB
:104F2000043B00F8013B1B0A20F8023B1B0C121F3C
:104F300000F8013BF3D238BF121D521E24BF11F8F6
:104F4000013B00F8013BF8D87047000010B514464B
:104F500000F002F8226010BDC1F30A5343B14A00C9
:104F600012F5001F28D2A3F2FE32A1EB02517047C6
:104F700050EA410C20D001F0004C31EA0C01B1FAAA
:104F800081F204BFB0FA80F3D2180B3AB2F12003D9
:104F90002CBF00FA03F1914041EA0C013EBFC2F17F
:104FA000200C20FA0CF319439040524240F2FD339A
:104FB000D21A01EB0351704700227047400D491887
:104FC00040EA81200CD2490DA1F58061491C40F0D6
:104FD000004005DBD1F11F0154BFC840C017704726
:104FE00000207047014648B1B0FA80F18840C91CE2
:104FF000C1F58461090501EBD0214005704700002F
:1050000070B44FF0004591EA030F40F175806B409A
:10501000841A71EB030603D2001BB14112197341CC
:105020004FF4001C1CEB410F34BF7CEB430442E007
:105030000C0DA4EB1356352E4FDC45EAC323DB0AD7
:1050400045EAC121C912B6F120050DDD63FA05F666
:10505000EB4086EA0305124218BF45F00105C0186F
:1050600051F100010CD213E062FA06F5F24055400E
:10507000F3415A40B340F3405A408018594107D396
:1050800049085FEA30005FEA350528BF45F00105B1
:1050900001F58011420875F1004250F1000041EB2A
:1050A00004514E0016F5001F70BC38BF7047002039
:1050B000090D090570471CEB410F10D252EA430657
:1050C0000BD0BCEB410F05D80C0DAB43661E342E44
:1050D000B6DD02E0AB438018594170BC704770BC2C
:1050E0007047000000487047C40BFF1F012000F00C
:1050F000B9B8000070470000841A71EB030604D2AF
:105100006E40001BB141121973414FF4001C1CEB9F
:10511000410F34BF7CEB430683E00C0DA4EB135628
:10512000362E00F37C80012E45EAC32341DC43EA9E
:10513000525312BFD20292025B08240545EAC121F4
:1051400041EA5051D2EBC020994125D407D1B0FAA1
:1051500080F610FA06F162D00020203608E0B1FA9D
:1051600081F6B140C6F1200220FA02F21143B040AC
:105170004FEAF474B4EB465434F001064FEA740479
:105180000AD8D6F50016760D04F00044F04061FA16
:1051900006F25040F1404840C00A40EA415021F038
:1051A000004128BF5FEA500550F1000044EBD121D7
:1051B00035E0DB0A45EAC121C90AB6F120050EDD5A
:1051C00042EA0242120CC5F1200603FA06F6EB4051
:1051D00042EA06056D42984161F100010DE062FA74
:1051E00006F5F240554063FA06FC82EA0C02F340F1
:1051F0005A406D42904161EB030111F4801F05D1CB
:10520000641E620502D06D004041494121F48011C5
:10521000430875F1004350F1000041EB045170BCAC
:1052200070471CEB410F15D223F0004352EA4306AE
:105230000BD04FEA4C0CBCEB410F04D80C0D661E92
:10524000342EB7DDEBE7801A994150EA410608BFDA
:105250000021E4E708BF1CEB430F28BF6FF00001FB
:10526000DDE700002021090326311820ABBEF9E755
:1052700010B5DFF8DC4B2068800880002060FBF769
:10528000AAFBFCF729FFFBF779FC206850F001002E
:105290002060206850F00300206010BD10B5DFF8DA
:1052A000B44B2068800880002060DFF8AC0B0178E8
:1052B000491C0170017832290DD10021017000F0E4
:1052C00013F800F049F80020DFF8901B0860002078
:1052D000DFF88C1B0860206850F001002060206817
:1052E00050F00300206010BD10B4DFF8700BDFF841
:1052F000741B0A680260DFF8682BDFF86C3B1C68DF
:105300001460046810680419022094FBF0F0DFF8C0
:105310005C2B1060002008600020186010BC7047F3
:10532000F8B504002F00DFF8480B00682100FEF7F5
:10533000D5FA060030003900FDF704FDDFF8341B14
:105340000968FEF7CBFA3100FDF70CFCFDF7F0FB26
:10535000DFF8241B0880F1BD10B5DFF8200B0168D1
:10536000012940F06981DFF8180B01780B291AD167
:105370004FF48271DFF80C2B11805FF07E51DFF863
:10538000082B1160DFF8042BDFF8043B1A600022C1
:10539000DFF8003B1A60DFF8D82A11600021DFF83F
:1053A000D42A116045E101780A291AD14FF482719B
:1053B000DFF8D02A11805FF07E51DFF8CC2A11602F
:1053C000DFF8C82ADFF8C83A1A600022DFF8C43ACA
:1053D0001A60DFF89C2A11600021DFF8982A11601A
:1053E00027E1017809291AD14FF48271DFF8942A54
:1053F00011805FF07E51DFF8902A1160DFF88C2A6F
:10540000DFF88C3A1A600022DFF8883A1A60DFF879
:10541000602A11600021DFF85C2A116009E101783F
:1054200008291AD14FF48271DFF8582A11805FF0F1
:105430007E51DFF8542A1160DFF8502ADFF8503A25
:105440001A600022DFF84C3A1A60DFF8242A116053
:105450000021DFF8202A1160EBE0017807291AD13A
:105460004FF48271DFF81C2A11805FF07E51DFF863
:10547000182A1160DFF8142ADFF8143A1A600022A3
:10548000DFF8103A1A60DFF8E82911600021DFF830
:10549000E4291160CDE0017806291AD14FF4827118
:1054A000DFF8E02911805FF07E51DFF8DC29116020
:1054B000DFF8D829DFF8D8391A600022DFF8D439AC
:1054C0001A60DFF8AC2911600021DFF8A82911600B
:1054D000AFE0017805291AD14FF48271DFF8A429D1
:1054E00011805FF07E51DFF8A0291160DFF89C2960
:1054F000DFF89C391A600022DFF898391A60DFF86B
:10550000702911600021DFF86C29116091E00178A9
:1055100004291AD14FF48271DFF8682911805FF0F5
:105520007E51DFF864291160DFF86029DFF8603907
:105530001A600022DFF85C391A60DFF83429116044
:105540000021DFF83029116073E0017803291AD1B6
:105550004FF48271DFF82C2911805FF07E51DFF863
:1055600028291160DFF82429DFF824391A60002285
:10557000DFF820391A60DFF8F82811600021DFF821
:10558000F428116055E0017802291AD14FF4827194
:10559000DFF8F02811805FF07E51DFF8EC28116011
:1055A000DFF8E828DFF8E8381A600022DFF8E4388E
:1055B0001A60DFF8BC2811600021DFF8B8281160FC
:1055C00037E0017801291AD14FF48271DFF8B4284D
:1055D00011805FF07E51DFF8B0281160DFF8AC2851
:1055E000DFF8AC381A600022DFF8A8381A60DFF85C
:1055F000802811600021DFF87C28116019E04FF449
:105600008271DFF8802811805FF07E51DFF8782802
:105610001160DFF87828DFF878381A600022DFF8A8
:1056200074381A60DFF8482811600021DFF8442838
:10563000116000210170D6E30168022940F0698100
:10564000DFF83C0801780B291AD14FF48771DFF895
:10565000342811805FF07E51DFF82C281160DFF8CC
:105660002C28DFF82C381A600022DFF828381A605E
:10567000DFF8FC2711600021DFF8F827116045E111
:1056800001780A291AD14FF48771DFF8F8271180C1
:105690005FF07E51DFF8F0271160DFF8F027DFF8C8
:1056A000F0371A600022DFF8EC371A60DFF8C02705
:1056B00011600021DFF8BC27116027E1017809297A
:1056C0001AD14FF48771DFF8BC2711805FF07E514B
:1056D000DFF8B4271160DFF8B427DFF8B4371A60B9
:1056E0000022DFF8B0371A60DFF88427116000214C
:1056F000DFF88027116009E1017808291AD14FF4F9
:105700008771DFF8802711805FF07E51DFF87827FE
:105710001160DFF87827DFF878371A600022DFF8A9
:1057200074371A60DFF8482711600021DFF844273A
:105730001160EBE0017807291AD14FF48771DFF887
:10574000442711805FF07E51DFF83C271160DFF8BD
:105750003C27DFF83C371A600022DFF838371A6040
:10576000DFF80C2711600021DFF808271160CDE079
:10577000017806291AD14FF48771DFF808271180C4
:105780005FF07E51DFF800271160DFF80027DFF8B7
:1057900000371A600022DFF8FC361A60DFF8D026E6
:1057A00011600021DFF8CC261160AFE001780529F7
:1057B0001AD14FF48771DFF8CC2611805FF07E514B
:1057C000DFF8C4261160DFF8C426DFF8C4361A609B
:1057D0000022DFF8C0361A60DFF89426116000213D
:1057E000DFF89026116091E0017804291AD14FF476
:1057F0008771DFF8902611805FF07E51DFF88826F0
:105800001160DFF88826DFF888361A600022DFF89A
:1058100084361A60DFF8582611600021DFF854261C
:10582000116073E0017803291AD14FF48771DFF812
:10583000542611805FF07E51DFF84C261160DFF8AE
:105840004C26DFF84C361A600022DFF848361A6022
:10585000DFF81C2611600021DFF81826116055E0E2
:10586000017802291AD14FF48771DFF818261180C8
:105870005FF07E51DFF810261160DFF81026DFF8A8
:1058800010361A600022DFF80C361A60DFF8E025C7
:1058900011600021DFF8DC25116037E00178012973
:1058A0001AD14FF48771DFF8DC2511805FF07E514B
:1058B000DFF8D4251160DFF8D425DFF8D4351A607D
:1058C0000022DFF8D0351A60DFF8A425116000212E
:1058D000DFF8A025116019E04FF48771DFF8A425E7
:1058E00011805FF07E51DFF8A0251160DFF89C2564
:1058F000DFF89C351A600022DFF898351A60DFF86F
:10590000702511600021DFF86C2511600021017005
:1059100069E20068032840F05F81DFF864050178E0
:105920000B291AD14FF48771DFF8582511805FF0E9
:105930007E51DFF854251160DFF85025DFF850352F
:105940001A600022DFF84C351A60DFF82425116058
:105950000021DFF8202511603BE101780A291AD1E6
:105960004FF48771DFF81C2511805FF07E51DFF85E
:1059700018251160DFF81425DFF814351A600022AD
:10598000DFF810351A60DFF8E82411600021DFF835
:10599000E42411601DE1017809291AD14FF48771BF
:1059A000DFF8E02411805FF07E51DFF8DC24116025
:1059B000DFF8D824DFF8D8341A600022DFF8D434B6
:1059C0001A60DFF8AC2411600021DFF8A824116010
:1059D000FFE0017808291AD14FF48771DFF8A42479
:1059E00011805FF07E51DFF8A0241160DFF89C2465
:1059F000DFF89C341A600022DFF898341A60DFF870
:105A0000702411600021DFF86C241160E1E001785E
:105A100007291AD14FF48771DFF8682411805FF0ED
:105A20007E51DFF864241160DFF86024DFF8603411
:105A30001A600022DFF85C341A60DFF83424116049
:105A40000021DFF830241160C3E0017806291AD163
:105A50004FF48771DFF82C2411805FF07E51DFF85E
:105A600028241160DFF82424DFF824341A6000228F
:105A7000DFF820341A60DFF8F82311600021DFF826
:105A8000F4231160A5E0017805291AD14FF48C7137
:105A9000DFF8F02311805FF07E51DFF8EC23116016
:105AA000DFF8E823DFF8E8331A600022DFF8E43398
:105AB0001A60DFF8BC2311600021DFF8B823116001
:105AC00087E0017804291AD14FF48C71DFF8B423F0
:105AD00011805FF07E51DFF8B0231160DFF8AC2356
:105AE000DFF8AC331A600022DFF8A8331A60DFF861
:105AF000802311600021DFF87C23116069E00178C8
:105B000003291AD14FF48C71DFF8782311805FF0EC
:105B10007E51DFF874231160DFF87023DFF87033F3
:105B20001A600022DFF86C331A60DFF8442311603A
:105B30000021DFF8402311604BE0017802291AD1DF
:105B40004FF48C71DFF83C2311805FF07E51DFF859
:105B500038231160DFF83423DFF834331A60002271
:105B6000DFF830331A60DFF8082311600021DFF816
:105B7000042311602DE00178012918D14FF48C71B4
:105B8000DFF8002311805FF07E51DFF8FC22116006
:105B9000DFF8F822DFF8F8321A600022DFF8F4327A
:105BA0001A60B34A11600021B24A116011E0FA2173
:105BB000B44A11805FF07E51B34A1160B34AB44BCE
:105BC0001A600022B34B1A60A94A11600021A94A49
:105BD00011600021017006E1A94801780B2912D15A
:105BE000FA21A84A11805FF07E51A74A1160A74AA6
:105BF000A74B1A600022A74B1A609D4A1160002132
:105C00009C4A1160EDE001780A2912D1FA219D4ADF
:105C100011805FF07E519C4A11609C4A9C4B1A6037
:105C200000229C4B1A60924A11600021914A116037
:105C3000D7E00178092912D1FA21924A11805FF048
:105C40007E51914A1160914A914B1A600022914B0A
:105C50001A60874A11600021864A1160C1E001780C
:105C6000082912D1FA21874A11805FF07E51864AB5
:105C70001160864A864B1A600022864B1A607C4A65
:105C8000116000217B4A1160ABE00178072912D135
:105C9000FA217C4A11805FF07E517B4A11607B4A79
:105CA0007B4B1A6000227B4B1A60714A1160002105
:105CB000704A116095E00178062912D1FA21714AE3
:105CC00011805FF07E51704A1160734A704B1A6008
:105CD0000022704B1A60664A11600021654A11600B
:105CE0007FE00178052912D1FA21664A11805FF020
:105CF0007E51654A1160684A654B1A600022654B07
:105D00001A605B4A116000215A4A116069E001780B
:105D1000042912D1FA215B4A11805FF07E515A4A60
:105D200011605D4A5A4B1A6000225A4B1A60504A61
:105D3000116000214F4A116053E00178032912D10C
:105D4000FA21504A11805FF07E514F4A1160524A49
:105D50004F4B1A6000224F4B1A60454A11600021D8
:105D6000444A11603DE00178022912D1FA21454AE6
:105D700011805FF07E51444A1160474A444B1A60DB
:105D80000022444B1A603A4A11600021394A1160DE
:105D900027E00178012912D1FA213A4A11805FF0F7
:105DA0007E51394A11603C4A394B1A600022394B06
:105DB0001A602F4A116000212E4A116011E0FA2169
:105DC000304A11805FF07E512F4A1160324A304BC9
:105DD0001A6000222F4B1A60254A11600021254AC3
:105DE0001160002101702D480068FFF799FA2C4AD4
:105DF0002149244B1C880888241A1480294C1B88AC
:105E00000888C31823802848007800280BD1002078
:105E100000F068F8002000F098F8002201213420FA
:105E2000FCF7EAFD13E00D48016809B2B2F9000081
:105E300000F0C2F800B200F055F80948016809B254
:105E4000B4F9000000F0B8F800B200F07EF810BD20
:105E50000C7103401C7103405410FF1F100EFF1FF4
:105E6000140EFF1F2C0EFF1F280EFF1F0C0EFF1F0E
:105E7000040EFF1F080EFF1F3810FF1FC80FFF1F63
:105E80005810FF1F3A10FF1F180EFF1FCDCC4C3EBD
