:10000000F8FF002011040000A7340000A73400000E
:10001000A7340000A7340000A7340000A734000074
:10002000A7340000A7340000A7340000A734000064
:10003000A7340000A7340000A7340000A734000054
:10004000A7340000A7340000A7340000A734000044
:10040000FFFFFFFFFFFFFFFFFFFFFFFFFEFFFFFFFD
:1004100062B607F035F8FEE7DFF800F08B0CFF1F3F
:10042000DFF800F0E30CFF1F80B52E2001F096FBF3
:100430000E2001F093FB2F2001F090FB0D2001F026
:100440008DFB0C2001F08AFB332001F087FB20207C
:1004500001F084FB132001F081FB002001F07EFB02
:1004600001BD2DE9F04104000D0016005FF0000809
:10047000002738003100C0B2C9B288420AD2290030
:1004800049B2200040B201F06AFC18FA80F08046C0
:100490007F1CEEE73000C0B2B8FBF0F080B2BDE8E0
:1004A000F0812DE9F04F89B000200890002500264A
:1004B00000275FF000080020DFF8A8A7CAF81000A6
:1004C000CAF80C00CAF80800CAF80400CAF800000C
:1004D000DFF89407DFF894170861C8608860486007
:1004E0000860DFF88C070068082840F08980DFF892
:1004F000841706A801F08CFC06AA0021002001F058
:10050000AFFDDFF8741704A801F082FC04AA0221F1
:10051000002001F0A5FD5FF0000B584680B2B0F559
:10052000AF6F52DADFF85497142201213320FFF71E
:1005300098FF01F069FEC9F8000014220121202073
:10054000FFF78FFF01F060FEC9F8040014220121BB
:100550001320FFF786FF01F057FEC9F808001422A8
:1005600001210020FFF77DFF01F04EFEC9F80C00CD
:10057000142201210E20FFF774FF01F045FEC9F897
:10058000100000200400200080B2052814DA2000AA
:1005900080B25AF82000210089B259F8211001F0E8
:1005A00041FE07D2200080B259F82000210089B214
:1005B0004AF82100641CE6E7DFF8C406016803205E
:1005C00001F078FE1BF1010BA7E7FE20FFF724FFE7
:1005D0005FF00009484680B205284CDA484680B2F0
:1005E0005AF8200001F0C6FE02001FFA89F95FEAFE
:1005F000890189B2FE20FFF713FF19F10109E9E72C
:100600005FF00009484680B2042818DA0020040090
:10061000200080B205280FDA200080B2800010F59B
:10062000FE20B0F9000000B201F0D2FE210089B234
:100630004AF82100641CEBE719F10109E2E7DFF851
:10064000441602A801F0E4FB02AA0021002001F0F8
:1006500007FDDFF82416684601F0DAFB6A4602213E
:10066000002001F0FDFCDFF818060168C8204143B6
:10067000032001F01FFE01220121342001F0BAFE07
:100680004FF4167ADFF8F8B5DBF800100AFB01F139
:10069000032001F00FFE00220121342001F0AAFE08
:1006A000DBF800104FF4C8704143032001F002FE54
:1006B00001220121342001F09DFEDBF800000AFB3D
:1006C00000FA5146032001F0F5FD002201213420FB
:1006D00001F090FE01F04AFC09B0BDE8F08F2DE971
:1006E000F0470027380000B205283EDADFF8988589
:1006F000142201213320FFF7B4FE01F085FD3900FB
:1007000009B248F82100142201212020FFF7A9FE98
:1007100001F07AFD390009B208EB81014861142229
:1007200001211320FFF79DFE01F06EFD390009B293
:1007300008EB81018862142201210020FFF791FE5D
:1007400001F062FD390009B208EB8101C86314228F
:1007500001210E20FFF785FE01F056FD390009B298
:1007600008EB810108657F1CBCE75FF0000840468C
:1007700000B2052852DA00200400200000B204284C
:1007800049DA00200500280000B2210009B2D1F1A9
:10079000040188423DDA1427DFF8EC9418FB07F0D7
:1007A0004844290009B200EB8100406818FB07F1BA
:1007B00049442A0012B251F8221001F033FD26D22A
:1007C00018FB07F04844290009B200EB810040689B
:1007D00001F0ACFE060018FB07F04844290009B2FE
:1007E00000EB810018FB07F149442A0012B251F8CE
:1007F0002210416018FB07F009EB0007A9460FFA29
:1008000089F9300000B201F0E3FD47F829006D1CC2
:10081000B9E7641CB1E718F10108A8E70027380020
:1008200000B2052829DADFF864845FF01409DFF8E4
:1008300058A417FB09F05044406817FB09F15144D4
:10084000896801F08DFE17FB09F15144C96801F078
:1008500087FE390009B248F82100380000B258F884
:100860002000DFF82C1401F0EDFEDFF828143A0028
:1008700012B241F822007F1CD1E70020010009B22A
:10088000042934DADFF81014020012B201EB8202FC
:10089000526803001BB241F82320020012B201EBA0
:1008A0008202926903001BB201EB83035A610200CA
:1008B00012B201EB8202D26A03001BB201EB830386
:1008C0009A62020012B201EB8202126C03001BB2A8
:1008D00001EB8303DA63020012B201EB8202526D74
:1008E00003001BB201EB83010A65401CC6E700212F
:1008F000080000B205280EDADFF898030A0012B2E9
:1009000050F82200DFF89023142311FB03F31A445C
:100910001061491CECE70027380000B205283BDADB
:10092000DFF87883DFF87093D8F80000390009B257
:1009300059F8211001F014FEC8F80000D8F804009E
:10094000390009B209EB8101496901F009FEC8F8D3
:100950000400D8F80800390009B209EB8101896A5E
:1009600001F0FEFDC8F80800D8F80C00390009B203
:1009700009EB8101C96B01F0F3FDC8F80C00D8F850
:100980001000390009B209EB8101096D01F0E8FDA1
:10099000C8F810007F1CBFE75FF00008404600B2B7
:1009A000052816DADFF8F472404600B257F8200046
:1009B000AD4901F047FEDFF8E812424612B241F8B5
:1009C00022000020414609B247F8210018F1010831
:1009D000E4E7BDE8F087F8B5FFF781FE00242000CA
:1009E00000B2052854DADFF8BC52A04EDFF8B0029E
:1009F000210009B250F82100210009B256F8211057
:100A000001F09EFE07009748210009B250F821002E
:100A1000210009B256F8211001F092FE01003800C1
:100A200001F010FE210009B245F82100200000B2BB
:100A300055F82000002101F0F5FB05D8DFF8680229
:100A4000210009B245F82100200000B255F820002D
:100A5000DFF8581201F0B4FE05D85FF07E50210097
:100A600009B245F82100200000B255F8200001F03D
:100A7000B9FE0022DFF8383201F0D8FE01F0A8FFFD
:100A8000DFF83012220012B241F82200641CA6E7FF
:100A9000DFF8205228685FF07E5101F0C3FB02D2DC
:100AA0005FF07E5000E02868286068685FF07E5143
:100AB00001F0B8FB02D25FF07E5000E06868686029
:100AC000A8685FF07E5101F0ADFB02D25FF07E506E
:100AD00000E0A868A860E8685FF07E5101F0A2FB22
:100AE00002D25FF07E5000E0E868E860286801F01C
:100AF0001DFDDFF8C4110880686801F017FDDFF8FC
:100B0000BC110880A86801F011FDDFF8B41108805D
:100B1000E86801F00BFDDFF8AC110880DFF8A86190
:100B2000524DDFF870010069296901F009FE0700E4
:100B30004C480069296901F003FE0100380001F00A
:100B400081FD30603068002101F06CFB02D8DFF8D5
:100B500058013060DFF87451306801F043FE002224
:100B6000DFF84C3101F062FE01F032FF28602868A6
:100B700001F0DCFCDFF858110880F1BD2DE9F843E5
:100B8000DFF83C41DFF83852DFF83061DFF83472CB
:100B90003888318811FA80F02988401A2188401A53
:100BA00001F04AFF0022DFF8083101F03FFE8046E5
:100BB00089463888298811FA80F0318810FA81F046
:100BC000218810FA81F001F037FF02000B00404647
:100BD000494601F043FF01F0FBFEDFF8F810086022
:100BE0003888012808D13088012805D120880128BB
:100BF00002D12888012804D0DFF8DC000068012831
:100C000003D10320DFF8D4100870DFF8D00001789A
:100C1000002905D0022911D009D3032913D017E0E8
:100C20000121DFF8BC2011700121017010E00121C9
:100C3000DFF8AC2011700221017009E00120DFF81B
:100C4000A010087004E00020DFF894100870FFE79F
:100C500000F048F800B202000021012002F0B9F9CA
:100C6000BDE8F183C40EFF1F0000A040D80EFF1F97
:100C7000000EFF1F147A0000207A00009C0EFF1F58
:100C8000E80FFF1F387A0000EC0EFF1F640FFF1FF4
:100C900000004040500FFF1F380EFF1FB00EFF1F17
:100CA000800FFF1FA80FFF1F6F12833A0100803FC4
:100CB00000005940940FFF1F5210FF1F5410FF1FD8
:100CC0005610FF1F5810FF1F780FFF1F7C0FFF1FCC
:100CD0005A10FF1FBC0FFF1FD40FFF1F5D10FF1F17
:100CE0005E10FF1F2DE9F041364F38885B285ADB34
:100CF000DFF8CC80B8F800005B2854DBDFF8C40DC7
:100D00000188602904DBDFF8C01D0988052907DB9D
:100D1000DFF8B41D0988602945DB0088052842DA20
:100D2000DFF8A86D3888B8F80010401A01F084FE8A
:100D30000022DFF89C3D01F079FD04000D003888A9
:100D4000B8F8001011FA80F001F076FE02000B00F6
:100D50002000290001F082FE01F03AFE3060DFF849
:100D6000744D5FF07E553068210002F0B1FADFF873
:100D7000B81D01F0F5FB07003068DFF8B01D096809
:100D800001F0DEFC290002F0A3FA390001F0E8FBD3
:100D900001F0F0FADFF8981D08600120DFF8941DDB
:100DA000087000F06DBEDFF8300D006801280BD030
:100DB000022800F0AD81042800F04D8300F0EEBC65
:100DC0005810FF1F5210FF1F0120DFF86C1D086034
:100DD000DFF8F84C206801F0A9FB02F0E5FA0B28D7
:100DE00022DA5FF07E555FF080462068290002F02D
:100DF0006FFADFF8341D01F0B3FB07002068DFF85D
:100E00002C1D096801F09CFC310002F061FA3900E8
:100E100001F0A6FB01F0AEFADFF8141D0860022015
:100E2000DFF8101D087071E1206801F07FFB02F00F
:100E3000BBFA152822DA5FF07E555FF08046206805
:100E4000290002F045FADFF8E01C01F089FB0700F9
:100E50002068DFF8D81C096801F072FC310002F04C
:100E600037FA390001F07CFB01F084FADFF8C01C8E
:100E700008600320DFF8BC1C087047E1206801F01F
:100E800055FB02F091FA1F2822DA5FF07E55DFF859
:100E9000AC6C2068290002F01BFADFF88C1C01F012
:100EA0005FFB07002068DFF8841C096801F048FC3C
:100EB000310002F00DFA390001F052FB01F05AFA4C
:100EC000DFF86C1C08600420DFF8681C08701DE166
:100ED000206801F02BFB02F067FA292822DA5FF084
:100EE0007E555FF081462068290002F0F1F9DFF8B5
:100EF000381C01F035FB07002068DFF8301C09685A
:100F000001F01EFC310002F0E3F9390001F028FB8A
:100F100001F030FADFF8181C08600520DFF8141C17
:100F20000870F3E0206801F001FB02F03DFA33287D
:100F300022DA5FF07E55DFF8086C2068290002F0A5
:100F4000C7F9DFF8E41B01F00BFB07002068DFF8AE
:100F5000DC1B096801F0F4FB310002F0B9F939003B
:100F600001F0FEFA01F006FADFF8C41B0860062063
:100F7000DFF8C01B0870C9E0206801F0D7FA02F062
:100F800013FA3D2822DA5FF07E55DFF8B46B206853
:100F9000290002F09DF9DFF8901B01F0E1FA07004B
:100FA0002068DFF8881B096801F0CAFB310002F0F5
:100FB0008FF9390001F0D4FA01F0DCF9DFF8701B89
:100FC00008600720DFF86C1B08709FE0206801F0C4
:100FD000ADFA02F0E9F9472822DA5FF07E55DFF832
:100FE000606B2068290002F073F9DFF83C1B01F008
:100FF000B7FA07002068DFF8341B096801F0A0FB8E
:10100000310002F065F9390001F0AAFA01F0B2F9F5
:10101000DFF81C1B08600820DFF8181B087075E05B
:10102000206801F083FA02F0BFF9512822DA5FF05C
:101030007E55DFF80C6B2068290002F049F9DFF8D3
:10104000E81A01F08DFA07002068DFF8E01A096855
:1010500001F076FB310002F03BF9390001F080FA33
:1010600001F088F9DFF8C81A08600920DFF8C41A0F
:1010700008704BE0206801F059FA02F095F95B28FE
:1010800022DA5FF07E55DFF8B86A2068290002F0A6
:101090001FF9DFF8941A01F063FA07002068DFF8FF
:1010A0008C1A096801F04CFB310002F011F939008B
:1010B00001F056FA01F05EF9DFF8741A08600A20B0
:1010C000DFF8701A087021E05FF07E55DFF8706A73
:1010D0002068290002F0FCF8DFF84C1A01F040FA11
:1010E00007002068DFF8441A096801F029FB310085
:1010F00002F0EEF8390001F033FA01F03BF9DFF8C5
:10110000301A08600B20DFF82C1A087000F0B8BC09
:101110000220DFF8241A0860DFF8B049206801F0E7
:1011200005FA02F041F90B2822DA5FF07E555FF0F4
:1011300080462068290002F0CBF8DFF8EC1901F0B6
:101140000FFA07002068DFF8E419096801F0F8FADF
:10115000310002F0BDF8390001F002FA01F00AF99D
:10116000DFF8CC1908600220DFF8C819087071E1B7
:10117000206801F0DBF902F017F9152822DA5FF098
:101180007E555FF080462068290002F0A1F8DFF864
:10119000981901F0E5F907002068DFF8901909684F
:1011A00001F0CEFA310002F093F8390001F0D8F9DD
:1011B00001F0E0F8DFF8781908600320DFF874190F
:1011C000087047E1206801F0B1F902F0EDF81F283E
:1011D00022DA5FF07E55DFF864692068290002F0AA
:1011E00077F8DFF8441901F0BBF907002068DFF851
:1011F0003C19096801F0A4FA310002F069F83900DD
:1012000001F0AEF901F0B6F8DFF824190860042007
:10121000DFF8201908701DE1206801F087F902F05D
:10122000C3F8292822DA5FF07E555FF081462068F6
:10123000290002F04DF8DFF8F01801F091F90700ED
:101240002068DFF8E818096801F07AFA310002F046
:101250003FF8390001F084F901F08CF8DFF8D0187C
:1012600008600520DFF8CC180870F3E0206801F072
:101270005DF902F099F8332822DA5FF07E55DFF845
:10128000C0682068290002F023F8DFF89C1801F0FC
:1012900067F907002068DFF89418096801F050FA30
:1012A000310002F015F8390001F05AF901F062F846
:1012B000DFF87C1808600620DFF878180870C9E0AD
:1012C000206801F033F902F06FF83D2822DA5FF070
:1012D0007E55DFF86C682068290001F0F9FFDFF81F
:1012E000481801F03DF907002068DFF84018096848
:1012F00001F026FA310001F0EBFF390001F030F97E
:1013000001F038F8DFF8281808600720DFF8241803
:1013100008709FE0206801F009F902F045F84728BD
:1013200022DA5FF07E55DFF818682068290001F0A6
:10133000CFFFDFF8F41701F013F907002068DFF89A
:10134000EC17096801F0FCF9310001F0C1FF390028
:1013500001F006F901F00EF8DFF8D4170860082054
:10136000DFF8D017087075E0206801F0DFF802F0B0
:101370001BF8512822DA5FF07E55DFF8C467206839
:10138000290001F0A5FFDFF8A01701F0E9F8070038
:101390002068DFF89817096801F0D2F9310001F0F0
:1013A00097FF390001F0DCF800F0E4FFDFF8801768
:1013B00008600920DFF87C1708704BE0206801F016
:1013C000B5F801F0F1FF5B2822DA5FF07E55DFF817
:1013D00070672068290001F07BFFDFF84C1701F0EF
:1013E000BFF807002068DFF84417096801F0A8F982
:1013F000310001F06DFF390001F0B2F800F0BAFFE2
:10140000DFF82C1708600A20DFF82817087021E0A1
:101410005FF07E55DFF828672068290001F058FF4B
:10142000DFF8041701F09CF807002068DFF8FC16CD
:10143000096801F085F9310001F04AFF390001F037
:101440008FF800F097FFDFF8E81608600B20DFF850
:10145000E416087014E30320DFF8DC160860DFF8F8
:101460006C46206801F062F801F09EFF0B2822DA3A
:101470005FF07E555FF080462068290001F028FF6C
:10148000DFF8A41601F06CF807002068DFF89C165E
:10149000096801F055F9310001F01AFF390001F037
:1014A0005FF800F067FFDFF8881608600220DFF8B9
:1014B0008416087071E1206801F038F801F074FFBB
:1014C000152822DA5FF07E555FF0804620682900FB
:1014D00001F0FEFEDFF8501601F042F80700206828
:1014E000DFF84816096801F02BF9310001F0F0FE31
:1014F000390001F035F800F03DFFDFF834160860E0
:101500000320DFF83016087047E1206801F00EF87C
:1015100001F04AFF1F2822DA5FF07E55DFF81C66D3
:101520002068290001F0D4FEDFF8FC1501F018F85E
:1015300007002068DFF8F415096801F001F93100AF
:1015400001F0C6FE390001F00BF800F013FFDFF8E0
:10155000E01508600420DFF8DC1508701DE1206844
:1015600000F0E4FF01F020FF292822DA5FF07E5529
:101570005FF081462068290001F0AAFEDFF8A81577
:1015800000F0EEFF07002068DFF8A015096801F001
:10159000D7F8310001F09CFE390000F0E1FF00F0C7
:1015A000E9FEDFF88C1508600520DFF88815087063
:1015B000F3E0206800F0BAFF01F0F6FE332822DAEB
:1015C0005FF07E55DFF878652068290001F080FE25
:1015D000DFF8541500F0C4FF07002068DFF84C1551
:1015E000096801F0ADF8310001F072FE390000F039
:1015F000B7FF00F0BFFEDFF8381508600620DFF8FF
:1016000034150870C9E0206800F090FF01F0CCFEAE
:101610003D2822DA5FF07E55DFF824652068290036
:1016200001F056FEDFF8001500F09AFF0700206871
:10163000DFF8F814096801F083F8310001F048FE82
:10164000390000F08DFF00F095FEDFF8E41408602B
:101650000720DFF8E01408709FE0206800F066FFC4
:1016600001F0A2FE472822DA5FF07E55DFF8D06451
:101670002068290001F02CFEDFF8AC1400F070FFA8
:1016800007002068DFF8A414096801F059F8310058
:1016900001F01EFE390000F063FF00F06BFEDFF882
:1016A000901408600820DFF88C14087075E020683A
:1016B00000F03CFF01F078FE512822DA5FF07E5501
:1016C000DFF87C642068290001F002FEDFF858147E
:1016D00000F046FF07002068DFF85014096801F0A9
:1016E0002FF8310001F0F4FD390000F039FF00F06F
:1016F00041FEDFF83C1408600920DFF83814087058
:101700004BE0206800F012FF01F04EFE5B2822DA69
:101710005FF07E55DFF828642068290001F0D8FDCD
:10172000DFF8041400F01CFF07002068DFF8FC134A
:10173000096801F005F8310001F0CAFD390000F038
:101740000FFF00F017FEDFF8E81308600A20DFF84B
:10175000E413087021E05FF07E55DFF8E463206851
:10176000290001F0B5FDDFF8C01300F0F9FE070015
:101770002068DFF8B813096800F0E2FF310001F0DB
:10178000A7FD390000F0ECFE00F0F4FDDFF8A01337
:1017900008600B20DFF89C13087071E1CB4C2068C7
:1017A00000F0C4FE01F000FE0B2822DA5FF07E5547
:1017B0005FF080462068290001F08AFDDFF8681399
:1017C00000F0CEFE07002068DFF86013096800F023
:1017D000B7FF310001F07CFD390000F0C1FE00F0E0
:1017E000C9FDDFF84C1308600220DFF848130870C9
:1017F00046E1206800F09AFE01F0D6FD15281EDAB9
:101800005FF07E555FF080462068290001F060FDA2
:10181000C54900F0A5FE07002068C449096800F02A
:101820008FFF310001F054FD390000F099FE00F007
:10183000A1FDBF4908600320BE49087020E120686F
:1018400000F074FE01F0B0FD1F281DDA5FF07E5538
:10185000BA4E2068290001F03BFDB34900F080FE3C
:1018600007002068B149096800F06AFF310001F003
:101870002FFD390000F074FE00F07CFDAC490860DB
:101880000420AC490870FBE0206800F04FFE01F036
:101890008BFD29281EDA5FF07E555FF081462068B7
:1018A000290001F015FDA04900F05AFE070020684C
:1018B0009E49096800F044FF310001F009FD39003C
:1018C00000F04EFE00F056FD994908600520994948
:1018D0000870D5E0206800F029FE01F065FD33288E
:1018E0001DDA5FF07E55974E2068290001F0F0FC6C
:1018F0008D4900F035FE070020688C49096800F02A
:101900001FFF310001F0E4FC390000F029FE00F077
:1019100031FD87490860062086490870B0E02068DC
:1019200000F004FE01F040FD3D281DDA5FF07E5519
:10193000844E2068290001F0CBFC7B4900F010FEAA
:10194000070020687949096800F0FAFE310001F0CB
:10195000BFFC390000F004FE00F00CFD7449086083
:101960000720744908708BE0206800F0DFFD01F06B
:101970001BFD47281DDA5FF07E55724E2068290056
:1019800001F0A6FC684900F0EBFD070020686749FC
:10199000096800F0D5FE310001F09AFC390000F032
:1019A000DFFD00F0E7FC624908600820614908702B
:1019B00066E0206800F0BAFD01F0F6FC51281DDA5F
:1019C0005FF07E555F4E2068290001F081FC56498A
:1019D00000F0C6FD070020685449096800F0B0FE19
:1019E000310001F075FC390000F0BAFD00F0C2FCD6
:1019F0004F49086009204F49087041E0206800F015
:101A000095FD01F0D1FC5B281DDA5FF07E554D4E4F
:101A10002068290001F05CFC434900F0A1FD0700AB
:101A200020684249096800F08BFE310001F050FC4B
:101A3000390000F095FD00F09DFC3D4908600A204A
:101A40003C4908701CE05FF07E553E4E206829003E
:101A500001F03EFC344900F083FD07002068334963
:101A6000096800F06DFE310001F032FC390000F031
:101A700077FD00F07FFC2E4908600B202D4908708F
:101A8000124C206830490860284D2068296800F011
:101A900057FE2E490860206828602548016840F2FA
:101AA000EE32914203D240F2ED31016005E040F2A6
:101AB0008B4102688A4200D30160006800B2BDE831
:101AC000F08100005410FF1F5610FF1FBC0FFF1FB6
:101AD0000000594000004842000EFF1F80B536202C
:101AE00000F000FD002802D10120194908603620CD
:101AF00000F0F8FC012808D115480168012904D13B
:101B000000210160012013490860362000F0EAFC42
:101B1000002806D10F480068012802D101200E4993
:101B2000086001BD0000000000408744C00FFF1F97
:101B3000CC0FFF1F5F10FF1FD00FFF1F00004040A2
:101B40000000B8410000A041C40FFF1FC80FFF1FD5
:101B5000DC0FFF1FD80FFF1FD40FFF1F38B5040085
:101B600025006DB26D112800C0B2002802D00128F6
:101B70000DD019E0A148016851F000610160A04852
:101B8000016831F0900101600168016010E09D483A
:101B9000016851F0006101609948016831F4104119
:101BA00001600168016003E03321974801F010FCF7
:101BB000200040B2002800F08980012800F08680D3
:101BC000032800F0838008284ED0092851D00A2825
:101BD00054D00B2857D00C285AD00D285DD00E2891
:101BE00060D00F2863D0102870D0112864D012283C
:101BF00067D013286AD0142868D01A2866D01D2808
:101C000064D01E2862D0202861D021285FD02328EC
:101C10005DD024285CD025285FD0262862D02728D4
:101C200065D0282868D029286BD02A286ED02B2888
:101C300071D02C2874D02D2877D02E287AD02F2838
:101C40007DD0302800F0858031287DD0322800F00A
:101C5000808033287DD034287BD03A2879D03D2825
:101C600077D03E2875D075E00021202001F044FC9B
:101C700074E00021212001F03FFC6FE000210720EB
:101C800001F03AFC6AE00021082001F035FC65E033
:101C90000021222001F030FC60E00021232001F02F
:101CA0002BFC5BE00021402001F026FC56E00021E7
:101CB000412001F021FC51E00021982001F01CFCA2
:101CC0004CE00021992001F017FC47E046E045E098
:101CD0000021802001F010FC40E00021812001F073
:101CE0000BFC3BE00021822001F006FC36E00021E5
:101CF000832001F001FC31E00021202001F0FCFBF9
:101D00002CE00021212001F0F7FB27E00021242016
:101D100001F0F2FB22E00021252001F0EDFB1DE0A7
:101D20000021262001F0E8FB18E00021272001F027
:101D3000E3FB13E000212A2001F0DEFB0EE000218E
:101D40002B2001F0D9FB09E00021112001F0D4FB88
:101D500004E003E09A212C4801F03AFB31BDF8B5CC
:101D600004000D00260076B276110027290049B242
:101D7000200040B200F01BF82449300040B251F876
:101D8000200000680006F7D5300040B251F820006E
:101D90000069320052B251F82220126832F08002FB
:101DA00033005BB251F823100A6080B2F2BD70B408
:101DB000020052B2521110F01F03144C0D006DB20C
:101DC000AD0015F00C0555F05005160076B254F82C
:101DD0002660B5600425160076B254F82660F560DA
:101DE0001D00EDB215F01F0555F04005160076B246
:101DF00054F82640256070BC704700003C800440C9
:101E00001880044030800440347600001004FF1F26
:101E10000CB430B583B00A4606A9029104460025E9
:101E20000194009502AB01A9084878441E3001F0E6
:101E3000B5FB019A157000284EBF04460198041B9B
:101E4000204603B030BC5DF80CFB00BF0B07000060
:101E500010B408220121DFF89C33196000BFDFF8BD
:101E600098330021196000BF11004A1EC9B2002931
:101E700011D0010604D50121DFF88043216003E081
:101E80000021DFF8784321600121196000BF0021A3
:101E900019604000E8E710BC7047000010B4082249
:101EA0000021DFF850331960DFF84C33002119604E
:101EB00011004A1EC9B2002911D0010604D5012122
:101EC000DFF83843216003E00021DFF83043216070
:101ED0000121196000BF002119604000E8E710BC33
:101EE000704738B504000D00B5F15000C0B2FFF7DF
:101EF000D5FF2000C0B2000950F01000C0B2FFF7BB
:101F0000CDFF14F00F00FFF7C9FF31BD70B504001D
:101F100000252800C0B2082818DAB5F15000C0B278
:101F2000FFF7BCFF0120FFF7B9FF1020FFF7B6FF56
:101F3000002006003000C0B2802805DA2000C0B2C0
:101F4000FFF786FF761CF5E76D1CE2E770BD010028
:101F500089B2002909D043F226410A0011004A1E25
:101F600089B20029FAD1401EF1E7704710B501226D
:101F700001210D2000F03EFA012201210E2000F087
:101F800039FA012201210F2000F034FA0122012147
:101F9000102000F02FFADFF8684200202060322085
:101FA000FFF7D5FF01202060AE20FFF777FF00206C
:101FB000FFF774FF1020FFF771FF4020FFF76EFF5F
:101FC0008120FFF76BFFCF20FFF768FFA020FFF70E
:101FD00065FFC020FFF762FFA620FFF75FFFA82084
:101FE000FFF75CFF3F20FFF759FFD320FFF756FFB5
:101FF0000020FFF753FFD520FFF750FF8020FFF7A9
:102000004DFFD920FFF74AFFF120FFF747FFDA2005
:10201000FFF744FF1220FFF741FFDB20FFF73EFFF1
:102020004020FFF73BFF2020FFF738FF0220FFF79B
:1020300035FF8D20FFF732FF1420FFF72FFFA4207C
:10204000FFF72CFFA620FFF729FFAF20FFF726FFA1
:102050000020FFF75BFF00210020FFF742FF10BDCB
:102060002DE9F84F04000D0016005FF000085FF046
:1020700000095FF0000A5046C0B2305C002800F052
:10208000B7805046C0B23044407800286FD15046E7
:10209000C0B2305C203880462000C0B2792802DB14
:1020A000002004006D1C2900C9B22000C0B2FFF757
:1020B00018FF5FF0000B5846C0B208280CDADFF8B2
:1020C00044014146C9B2090151FA8BF1405CFFF766
:1020D000BFFE1BF1010BEEE7691CC9B22000C0B2C4
:1020E000FFF7FFFE5FF000094846C0B208280DDA8E
:1020F000DFF810014146C9B2090151FA89F10844DB
:10210000007AFFF7A5FE19F10109EDE700200700AD
:102110003800C0B25146C9B2D1F10701884264DA31
:1021200008342900C9B22000C0B2FFF7DAFE5FF020
:10213000000B5846C0B2082805DA0020FFF788FED9
:102140001BF1010BF5E7691CC9B22000C0B2FFF713
:10215000C8FE5FF000094846C0B2082805DA002032
:10216000FFF776FE19F10109F5E77F1CD0E750462D
:10217000C0B2305C203880462000C0B2792802DB33
:10218000002004006D1C2900C9B22000C0B2FFF776
:10219000A8FE5FF0000B5846C0B208280BDA1948B9
:1021A0004146C9B2090151FA8BF1405CFFF750FE7C
:1021B0001BF1010BEFE7691CC9B22000C0B2FFF7A9
:1021C00090FE5FF000094846C0B208280CDA0D48BE
:1021D0004146C9B2090151FA89F10844007AFFF772
:1021E00037FE19F10109EEE708341AF1010A42E756
:1021F000BDE8F18F3C00FE433800FE433400FE434F
:102200004000FE431863000000280AD0B0FA80F1B5
:102210008840D1F19D01C905020672F1004241EBEF
:10222000102070474FF0807C1CEB400F94BF1CEBDC
:10223000410F05E040EA010C1CEB0C0F01D2884273
:10224000704718BF8142704738B505000C00002C5C
:1022500003D12421434801F0BBF84348016851F4FD
:10226000000101600020414908604148611E2A00C8
:1022700052B212018150290049B209010144C968D2
:1022800051F001012A0052B212010244D16029002A
:1022900049B2090101448968490849002A0052B23B
:1022A00012010244916003212A0052B2120110442B
:1022B000816031BD38B505000C00002C03D14721E9
:1022C000284801F085F82848016851F400010160B0
:1022D000264801688908890001602548290049B21B
:1022E000090101448968490849002A0052B21201D3
:1022F00002449160611E2A0052B2120181502900ED
:1023000049B209010144C96851F001012A0052B2E1
:1023100012010244D160290049B2090101448968CF
:10232000490849002A0052B2120102449160012179
:102330002A0052B2120102449160290049B20901F7
:102340000144C968C907F8D5290049B20901014407
:10235000C96851F001012A0052B212011044C16053
:1023600031BD0000947700003C80044000700340C1
:102370000071034000180CD2010E7F3909D4D1F14D
:102380001F015DBFC00140F00040C8406FF0000079
:1023900070470020704730B4002513E050F8042B3C
:1023A000D30744BFA9F101039A18091F042942F871
:1023B000045BFAD213468C0744BF15809B1CC907E7
:1023C00048BF1D7050F8041B0029E7D130BC70478E
:1023D000C2175040801AB0FA80F10AD08840D1F17B
:1023E0009D01D20742EAC151020672F1004241EB5F
:1023F00010207047F8B504000D0016004FF48071EE
:102400002000C0B201F078F8280040B2002812D1B4
:1024100044482100C9B2491150F821102200D2B21B
:10242000521150F822004269012314F01F0083402A
:102430009A434A6138E001213A4A2000C0B2401173
:1024400052F820002300DBB25B1152F823305B69A5
:1024500014F01F0711FA07F73B4343613000C0B285
:10246000002811D12000C0B2401152F820000368AA
:1024700014F01F00814033EA01012000C0B2401176
:1024800052F8200001600FE02000C0B2401152F865
:102490002000036814F01F00814019432000C0B2DF
:1024A000401152F820000160F1BD38B504001D4D07
:1024B0002000C0B2401155F82000406914F01F01FF
:1024C000C840C00703D47B21174800F081FF2000DB
:1024D000C0B2401155F82010012214F01F008240B4
:1024E000CA6031BD38B504000E4D2000C0B24011A5
:1024F00055F82000406914F01F01C840C00703D5FB
:102500008C21094800F064FF2000C0B2401155F84A
:102510002000006914F01F04E04010F0010032BDFB
:1025200000000000300BFF1F3C770000C0F3C751D4
:102530007E390EDDC217D1F1200106DD000240F028
:102540000040C840104450407047D04380F00040E5
:102550007047002070470268531C03601170704779
:1025600090EA010F40F1F28081F00041431A4FF0F0
:1025700000423EBF5340C01AC91800BFD3095FEAEA
:10258000D05C13EB400F34BFB3EB410F40E07CEB6A
:10259000D1530CD342EA012122D8D1EB402009D3F8
:1025A000400A28BF5FEA500140EBCC507047401A08
:1025B00015D04002B0FA80F2521C9040400A4FEA17
:1025C0003C23B3EB026384BF00EB730007E040F4ED
:1025D00000001A16DB07C2F10102D0401843704711
:1025E000182BFCDC31FA03F202FA03F3591A38BF54
:1025F00042F00102D2EB40203CBF4000ACF1010CA4
:102600005FEACC5CC20572F100414CEB5020704790
:1026100013EB400F0FD2C94209D0ACEBD153022BC0
:1026200003DB4902172BDDDD70479143401AC0429E
:10263000D5D10020704713EB410FD0D36FF00000CD
:102640007047000010B5FF2313EAD0541DBF13EAF2
:10265000D1529C429A4239E0A41ADA0780EA010377
:10266000134042EA012142EA0020421A3CBF641EA4
:1026700001EB4202090AB2FBF1FE01FB1E2212022B
:10268000B2FBF1F001FB10226EF30F201202B2FB3D
:10269000F1FE4EEA00207F3406DDFE2C24DA53EAF8
:1026A000500050EBC45010BDD4F1020401FB1E22B7
:1026B00040F08071192C1DDC21FA04F0C4F12004D3
:1026C000A140114371F10042584110BD9C421ABF14
:1026D00003EAD1529A420FE080EA010E0EF0004365
:1026E000400004D0490016D143F0FF4010BD49001E
:1026F00008BFD343180010BD9C4205D1D21AF7D0B1
:1027000001F00041484010BD4A0212BF084648404F
:1027100000F0004010BD4AB90902B1FA81F29140BF
:1027200044B1A418C00140F000409EE7C90141F047
:10273000004152420002B0FA80F4A040141B94E71A
:1027400090EA010F7FF512AF81F00041421A3CBFC1
:10275000801A89184FF0004CC0F3C752FF2A24D0CA
:10276000C1F3C75313B3D21AD2F1190327DD4CEAD0
:1027700001214CFA03F321EA0303D140C20D4CEAD4
:102780000020401834BF20EA0C004CEA5000D2056B
:1027900053EA006373EB0C0C52EB1020420012F171
:1027A000807F38BF7047C00DC0057047490212BF17
:1027B0009A4200EB5120F8E7D2F11703D9D57047C0
:1027C0004FF0807C1CEB400F94BF1CEB410F05E0E9
:1027D00040EA010C1CEB0C0F01D28142704718BF7C
:1027E00088427047C0F3C75181B1FF2906D0C1109C
:1027F000400721F0E04101F16051704741020CBFF8
:1028000040F4E0016FF000410020704700F000410B
:1028100000020AD0B0FA80FC00FA0CF001F160511D
:10282000A1EB0C5101EBD02140057047B0B581EA16
:10283000030C0CF0004C40F2FF7515EA11541DBF5B
:1028400015EA1357AC42AF4239E0E41923EA455385
:1028500043F48013C90241F0004141EA505EC702CF
:102860001100A7FB020200284FF00000EEFB012040
:102870004FF00001E3FB072118BF42F001024018AE
:1028800000214941E3FB0E01A4F580640F0302D24D
:1028900052004041494154F101046CDD470872F196
:1028A000004250F1000051EB0451A1F580115CBFD2
:1028B00041EA0C01B0BD4CEA05510020B0BD05EA6B
:1028C0001357AC4214BFAF4241E050EA410E1CBF67
:1028D00052EA430E02E061460020B0BD24423C446F
:1028E0001BD15FEA070EF6D0090302BF01460020A4
:1028F000AEF1140EB1FA81F7AEEB070401FA07FE50
:102900000C37C7F1200100FA07F7C8404EEA000E65
:1029100023EA455343F48013A2E733F00043B3FAAC
:1029200083F704BFB2FA82FE77440B3FE41BB7F192
:10293000200E2FBF02FA0EF3BB40C7F1200E22FA81
:102940000EFE38BF43EA0E03BA40641C82E750EA29
:10295000410E14BF52EA430E6FF000014FF400170E
:1029600017EB430F8ABF194617EB410FB5E74CEA47
:1029700005510020B0BDD4F10104B4F120070FDAF5
:10298000C4F12007520828BF42F0010210FA07F5EF
:1029900001FA07F7E1BF2A43E0403843E1400FE086
:1029A000352C98DCC7F1200452EA400220FA07F2E5
:1029B00018BF42F0010231FA07F0A1400A4300219A
:1029C00072F1004250F1000051EB0C01B0BD00006B
:1029D00001F000428B1AA3F16051B1F5801F0ADBB0
:1029E000B1F17F6F1FD242EAC102C10071F1004113
:1029F00042EB507070470B15C3F10903212B10D225
:102A0000890241EA905180020128494141F0004188
:102A100021FA03F0C3F12003994071F100415041C4
:102A20007047100070476FF0000013EB103F5CBF61
:102A3000000E42EAC0507047C11768B14840401AC2
:102A4000B0FA80F29040D21CC907C2F5846241EA14
:102A5000025202EBD021400570470000F0B540F271
:102A6000FF7581EA030C0CF0004C15EA11541DBFF0
:102A700015EA1357AC42AF42E5E0BC41C1F3130184
:102A8000C3F31303801A994143F4801304D2641EE4
:102A90004000494180185941C90241EA5051B1FBF7
:102AA000F3F603FB1611A2FB0675D7EBC020A94174
:102AB00002D2761E80185941C90241EA5051B1FB39
:102AC000F3FE03FB1E11A2FB0E75D7EBC020A9413C
:102AD00003D2AEF1010E80185941890241EA9051AA
:102AE000760546EA8E2EB1FBF3F603FB1611A2FB28
:102AF0000675D7EB8020A94102D2761E8018594175
:102B0000C90241EA50514EEA060EB1FBF3F603FB4F
:102B10001611A2FB0675D7EBC020A94102D2761E82
:102B200080185941C90241EA5051B1FBF3F703FB48
:102B30001711A2FB0735D3EBC020A94167F10007AD
:102B40000CBF004247F0010766F3D5274FEA1E315C
:102B5000B80814F5806412DDBD0775F1004250EB32
:102B60000E5051EB045111F5801F5CBF41EA0C017E
:102B7000F0BD4CF07F6141F0E0410020F0BDBD07A9
:102B80006D0840EA0E5041F48011D4F10104B4F113
:102B900020060ADAC4F120060200E04001FA06F33A
:102BA000E1401843B24015430EE0342C13DCC6F16B
:102BB000200445EA40056D0820FA06F2154321FA83
:102BC00006F0A1400D43002175F1004250F10000D4
:102BD00051EB0C01F0BD00205FEA0C01F0BDCFB954
:102BE00092185B41B3FA83F704BFB2FA82F6BF19B9
:102BF0000B3FB7F120062FBF02FA06F3BB40C7F127
:102C0000200622FA06F638BF3343BA401CB1E41955
:102C1000641E33E77F4231F00041B1FA81F404BF12
:102C2000B0FA80F6A4190B3CB4F120062FBF00FACD
:102C300006F1A140C4F1200620FA06F638BF314360
:102C4000A0403C1B1AE7AC421ABF05EA1357AF423B
:102C500012E050EA41061CBF52EA4306BFE750EAC1
:102C60004107304661461CBF41EA0551F0BD52EABA
:102C7000430C08BFC143F0BD00204FF4001616EB13
:102C8000410F98BF16EB430F08BF16EB410F24BF4F
:102C9000C14305E016EB430F0CBF61464CEA0551FA
:102CA000F0BD000038B504000D00200040B200283F
:102CB00006D0022867D04BD3032800F07F80C6E0FF
:102CC000DFF8F805016851F080710160280040B21A
:102CD00000280BD0022815D00ED304281ED017D3FD
:102CE000062827D020D307282AD02FE04FF4806170
:102CF000412000F001FC2AE04FF48061422000F006
:102D0000FBFB24E04FF48061432000F0F5FB1EE064
:102D10004FF44071062000F0EFFB18E04FF44071D3
:102D2000072000F0E9FB12E04FF48061652000F01D
:102D3000E3FB0CE04FF48061662000F0DDFB06E071
:102D40004FF48061672000F0D7FB00E07FE07EE079
:102D5000DFF86805016851F000710160280040B299
:102D6000002802D0012806D00BE04FF4407120204B
:102D700000F0C2FB06E04FF44071212000F0BCFBE4
:102D800000E064E063E0DFF83805016851F080712D
:102D90000160280040B2002802D0012806D00BE0D4
:102DA0004FF44071322000F0A7FB06E04FF4407171
:102DB000332000F0A1FB00E049E048E0DFF8000527
:102DC000016851F000710160280040B200280BD06A
:102DD000022816D00ED304281FD018D3062828D0D6
:102DE00021D307282BD030E04FF4C061852000F0BC
:102DF00083FB2BE04FF48271DFF8C80400F0E8FA9F
:102E000024E04FF4C061872000F076FB1EE04FF411
:102E1000C061882000F070FB18E04FF4C061892089
:102E200000F06AFB12E04FF4C0618A2000F064FBFE
:102E30000CE04FF4C0618B2000F05EFB06E04FF425
:102E4000C0618C2000F058FB00E000E0FFE731BDDE
:102E50002DE9F84F04000D0016001F00200040B2BD
:102E6000002815D0200040B2032811D0200040B225
:102E700001280DD0200040B2022803D1280040B222
:102E8000022805DB40F27B11DFF8380400F0A0FADD
:102E9000290049B2200040B2FFF704FFDFF8280400
:102EA000D0F800904FF47A7000FB09F94846000C06
:102EB000B0FBF6FA5FF0000B504680B250FA0BF010
:102EC000012802DB1BF1010BF6E75846C0B20828C7
:102ED00005DB4FF4CB71DFF8EC0300F079FA4846DC
:102EE00030FA0BF0B0FBF6F0210049B2002903D014
:102EF000022917D00BD320E0010089B2491C01FB45
:102F000007F142F21072B1FBF2F1884615E00100C0
:102F100089B2491C01FB07F142F21072B1FBF2F1D8
:102F200088460AE0010089B2491C01FB07F142F220
:102F30001072B1FBF2F18846FFE7DFF89013220030
:102F400052B251F822202B005BB202EBC3022300E5
:102F50005BB251F82330AC464FFA8CFC03EBCC0348
:102F6000DB6833F00403D360220052B251F8222010
:102F70002B005BB202EBC3022823D3605A46D2B2C5
:102F800012F0070252F0080223005BB251F823301E
:102F90001A60020092B223005BB251F823309A60AB
:102FA000002223005BB251F82330DA64220052B2CF
:102FB00051F822202B005BB202EBC30243469BB2C6
:102FC0001361002223005BB251F823104A60BDE870
:102FD000F18F2DE9F04180460D0016000024404697
:102FE00040B2032815D0404640B2002811D04046D8
:102FF00040B2012803D0404640B2022803D1280045
:1030000040B2022805DB4FF4EA71DFF8B80200F0A5
:10301000DFF9404640B2002805D0022819D00DD370
:10302000032821D02BE042F21170864205D340F2F2
:10303000D911DFF8900200F0CBF920E042F21170D4
:10304000864205D340F2DD11DFF8780200F0C0F9C6
:1030500015E042F21170864205D340F2E111DFF82B
:10306000640200F0B5F90AE042F21170864205D31D
:103070004FF4F271DFF84C0200F0AAF9FFE7DFF835
:103080004C02414649B250F8211089680C00002CCE
:10309000F5D0414649B2002905D0022915D00BD3FD
:1030A00003291BD023E0611C01FB06F142F21072E0
:1030B000B1FBF2F10F001AE0611C01FB06F142F2D4
:1030C0001072B1FBF2F10F0011E0611C01FB06F17F
:1030D00042F21072B1FBF2F10F0008E0611C01FB3B
:1030E00006F142F21072B1FBF2F10F00FFE7414628
:1030F00049B250F82100290049B200EBC100076134
:10310000BDE8F081F8B504000D0016001F00200096
:1031100040B2002810D0200040B2012803D0200087
:1031200040B2022803D1280040B2022804DB40F25A
:103130004D21644800F04CF9290049B2200040B20A
:10314000FFF7B0FD300040B2002803D0022855D070
:103150002AD37CE05D48210049B250F821102A00B2
:1031600052B201EBC201220052B250F822202B00D1
:103170005BB202EBC302D26852F04402CA60210083
:1031800049B250F821102A0052B201EBC2012200CC
:1031900052B250F822002A0052B200EBC200C068BE
:1031A00030F03800C86052E04848210049B250F879
:1031B00021102A0052B201EBC201220052B250F893
:1031C00022202B005BB202EBC302D26852F048020D
:1031D000CA60210049B250F821102A0052B201EB16
:1031E000C201220052B250F822002A0052B200EB73
:1031F000C200C06830F03400C86028E033482100C5
:1032000049B250F821102A0052B201EBC20122004B
:1032100052B250F822202B005BB202EBC302D268FC
:1032200052F04C02CA60210049B250F821102A0025
:1032300052B201EBC201220052B250F822002A0021
:1032400052B200EBC200C06830F03000C8601F48C6
:10325000390049B211F0070151F00801220052B2C1
:1032600050F822201160210049B250F82110496D18
:1032700051F00401220052B250F822205165002181
:10328000220052B250F822205166210049B250F873
:103290002110496D49084900220052B250F82220FD
:1032A00051650021220052B250F82220D164002141
:1032B000220052B250F822000165F1BD3C8004406A
:1032C00030800440E4760000E80FFF1F200BFF1F52
:1032D000FF2212EAD05C1DBF12EAD15394459342FB
:1032E0002BE09C44D30780EA01021A4043EA002005
:1032F00043EA0121A1FB0030C04238BF40007CF10D
:103300007F010BDBFE294ADA5B0842EAC15153EA2E
:10331000006373F1004C51EB10207047D1F1080CA1
:10332000DCF120012FDB5B0810FA01F10B4320FADE
:103330000CF073F100415041704794451CBF02EA04
:10334000D153934280EA010202F000421DD04000B6
:1033500019D0490017D05BB9634514D00902B1FAFE
:1033600081F39940BCEB030CC00140F00040C1E781
:103370000002B0FA80FC10FA0CF0B3EB0C0CC9019F
:1033800041F00041B6E71000704740000AD0490004
:1033900008D010F1807F94BF11F1807F02E042F0ED
:1033A000FF407047D0437047002848BF40427047F5
:1033B000DFF800F0690CFF1FBFF34F8F46490A6822
:1033C00012F4E062454802430A60BFF34F8FFEE704
:1033D00038B504000D00002000F0ECFE2A002100AA
:1033E0003F4800F027FF002000F004FF4FF47A7000
:1033F00000F04DFFF2E738B504000D00210049B29E
:10340000042001F055F8200032BD10B5002404203E
:1034100001F068F8042001F09FF8002842D1002054
:1034200000F0C8FE042001F097F8012801D1012026
:103430000400002000F0DEFE2A4800F0FBFE4FF4FE
:10344000FA7000F024FF2000C0B20128EAD1042065
:1034500001F082F80028E5D1042001F07DF8002871
:1034600006D1002000F0C6FE642000F010FFF3E754
:10347000042001F071F8012806D1002000F0BAFE06
:10348000322000F004FFF3E7174800F0D3FEFFF707
:103490008FFF642000F0FBFE0020FCF7BDFFFFF76C
:1034A0008BFFBFE710BD10B510480468012000F085
:1034B00081FE012000F09EFE0D492200D2B20F20B5
:1034C00042430A442100C9B20A4800F0B3FE4FF457
:1034D0007A7000F0DCFEECE70CED00E00400FA0589
:1034E000FC780000A47900003079000004ED00E0D1
:1034F0001804FF1F9878000030B4264B1C684FF466
:1035000000750200D2B2520995402C431C60224B38
:103510000200D2B2521153F82240012510F01F02CE
:103520009540C4F8A0500200D2B2521153F82220A4
:103530000300DBB213F01F0342F8231030BC7047C6
:1035400030B4144B1C684FF400750200D2B252091B
:1035500095402C431C6031F4E0610F4A0300DBB25C
:103560005B1152F823300400E4B214F01F0453F846
:10357000243013F4E06319430300DBB25B1152F80B
:1035800023200300DBB213F01F0342F8231030BCEA
:1035900070470000388004408C0BFF1F2DE9F0437A
:1035A0009FB00FF6A836269CDFF804898DF83B40C3
:1035B000029100240B944FF0FF37044691461D46BC
:1035C0000AE019F8011B0298A0470028029000F0B9
:1035D000A1800B98401C0B9099F8000050B1252851
:1035E000EFD10021002205910692079108920991DE
:1035F0000A9203E00B98A0E041F0010119F8010FD5
:103600002028F9D023280CD02B2804D02D2805D031
:10361000302809D080E041F00201EFE741F00401D9
:10362000ECE741F00801E9E741F01001E6E70D920F
:103630000AE00D98404505DA00EB800002EB4002FD
:10364000303A0D9209F1010999F80020A2F13000F9
:103650000A28EED399F800002E2818BF0C9726D11F
:1036600019F8010F2A2808D12868286009F10109F2
:1036700050F8042B28600C9219E02D280CBF09F19A
:103680000109002000220C920BE040B90C9A42453F
:1036900005DA02EB820203EB4203303B0C9309F1A3
:1036A000010999F80030A3F130020A2AEDD3ADF8F0
:1036B0003810304699F8001000F066FF08B119F88C
:1036C000010B8DF83A009DF83A00682805D199F869
:1036D000000068280CD1622106E06C2804BF99F82C
:1036E00000006C2804D171218DF83A1009F101090C
:1036F00010A804902A4619F8013B6946204600F0BC
:103700005CF838B910AA6946204600F086F900280E
:103710007FF562AF384610E02A2888D12A682A60EF
:1037200052F8040B2A6000280D9003D540420D90FA
:1037300041F0040109F101098CE71FB0BDE8F083F5
:10374000622820D0682811D06A2803D06C2827D09E
:10375000712825D10868C01D20F007000860D0E955
:10376000002308300860194610467047002A0A688E
:103770000A60106803D0121D0A6000B217E0121D23
:103780000A6080B217E0002A0A680A60106803D055
:10379000121D0A6040B20AE0121D0A60C0B20AE0BF
:1037A000002A0A680A60106803D0121D0A60C11757
:1037B0007047121D0A600021704770B51C460D4607
:1037C000B4F125002E69114600F015812038022839
:1037D00063D9133840D00B3816D0401E1ED0401E7F
:1037E00002285AD9001F19D0401F00F08180401EC6
:1037F00032D0401E00F0CB80C01E00F0DA80801E68
:103800002AD0C01E28D0FCE06869421C6A610A68A0
:103810000A6052F8043B0A603354FCE095F83A0021
:103820000122FFF78DFFC5E90001002904D5686971
:10383000411C69612D220DE0288F810704D568693C
:10384000411C69612B2205E0C00721D56869411C34
:103850006961202232541BE095F83A000022FFF7FC
:103860006FFFC5E9000195F83800010710D5D5E9CB
:103870000023002B08BF002A0AD044F0200078283B
:1038800006D1686930213154401C421C6A613454AD
:10389000214668693044E86087E00868C01D20F070
:1038A00007000860D0E9002308300860C5E900235C
:1038B000D5E90001C80F04D06869411C69612D2257
:1038C0000DE0288F810704D56869411C69612B22AE
:1038D00005E0C00704D56869411C696120223254A3
:1038E00068693044E8602146284600F0C4F992E057
:1038F00005F13A02507820B14FF0FF340FF6540032
:1039000062E01078622808D0682824D06A2812D093
:103910006C282ED071280ED02BE00A680A6052F86D
:10392000040B0A6020B94FF0FF340FF640004BE063
:10393000E96A01706FE00A680A6052F8040B0A60D5
:1039400020B94FF0FF340FF624003DE0EA6AD317A8
:10395000C0E900235FE00A680A6052F8040B0A60BD
:1039600020B94FF0FF340FF604002DE0E96A018022
:1039700051E00A680A6052F8040B0A6020B94FF05F
:10398000FF340FF2E8701FE0E96A016043E00A6863
:103990000A6052F8040B0A60002120F0000221F0B6
:1039A000FF33C5E90023EE607821284600F0BBF81C
:1039B00031E00868086050F8044B0860EC603CB9DE
:1039C0004FF0FF340FF2BC7000F0EAFD201A70BD1A
:1039D0002E6B002E04D5204600F002FE044608E0BF
:1039E00032460021204600F017FE002814BF041BB9
:1039F0003446AC610FE06869411C6961252232548C
:103A000009E06969481C686125227254210002D0CE
:103A1000431C6B613454002070BD2DE9FC410F46FE
:103A2000064690467A6B7869396ABC6A121AB86998
:103A3000521A796A121AF869521A121A97F838004B
:103A4000141B41070FD42020002C8DF800000ADD44
:103A5000254601236A463946304600F05FFB0028C0
:103A60005DD16D1EF5D17B6942463946304600F086
:103A700055FB002853D130208DF800003D6A002D01
:103A800009DD01236A463946304600F047FB00282D
:103A900045D16D1EF5D1BB69FA683946304600F054
:103AA0003DFB00283BD130208DF800007D6A002DC1
:103AB00008DD01236A463946304600F02FFB70BB13
:103AC0006D1EF6D1F868B969FB694218394630466F
:103AD00000F024FB18BB30208DF80000BD6A002DDB
:103AE00008DD01236A463946304600F017FBB0B9BD
:103AF0006D1EF6D197F8380041070DD52020002C17
:103B00008DF8000008DD01236A463946304600F092
:103B100005FB20B9641EF6D10020BDE8F6814FF008
:103B2000FF30BDE8F6812DE9FC4307466F293E6969
:103B300008BF082405D041F02000782814BF0A24CB
:103B400010243C25D7E90023642918BF6929904631
:103B5000994605D1002B03D5D8F1000869EB490936
:103B6000B9F1000F08BFB8F1000F1FD1386BE8B9E9
:103B7000082C4CD197F83800010748D530203B2558
:103B800086F83B0043E000280ED597F8380000F097
:103B90001400102808D17B6B7969386A5B1A1B1AEC
:103BA0009A1A002AC8BF3A62BDE8F3838DF8001064
:103BB000404649462246E31700F05AFD3032D0B263
:103BC0006D1E3A28019504DB9DF80000A0F151011B
:103BD0008A187255404649462246E31700F048FDD0
:103BE00080465FEA010908BFB8F1000F03D0F8680A
:103BF00071198842DCD3082C09D197F838000107E5
:103C000005D5705D302802D06D1E30207055C5F18D
:103C10003C02BA617119F960386B8242B3DA821AD8
:103C20003A624FF6EF70398F01403987BDE8F38370
:103C30002DE9D04306460F4614464FF00008DFF842
:103C4000749212E0E00707D542464B4630463946AB
:103C5000FEF7ECFD06460F464046494642464B46B7
:103C6000FEF7E4FD641080468946002CEAD1304618
:103C70003946BDE8D0832DE9F047064689468EB027
:103C8000D6E90001CDE9020104AC306B002802D571
:103C90000620306305E001BF49F0200067280121BC
:103CA0003163D6E9002358004015401C0DD119039B
:103CB0000BD0A9F1610103201A29B06102D20FF2E1
:103CC000E04110E00FF2DC410DE059004915491CBC
:103CD0000ED118030CD1A9F1610103201A29B0619A
:103CE00016D30FF2C841F068032200F0D9FDDBE0E3
:103CF00023F00047B7F5801F1046194622F0000553
:103D00000DD20022002F08BF002D019203D116E032
:103D10000FF29441E7E701AA00F016FE08E06648BA
:103D2000664900EB1750019065480340104619435F
:103D3000019B644D47F29752534393FBF5F2C6E95A
:103D4000000120F0000331F0004104BF002B0023EC
:103D500000F0A280DDE90240019220F00045D2F19E
:103D6000070204DD20462946FFF762FF0AE05242BF
:103D700000205549FFF75CFF02460B4620462946C6
:103D8000FEF76CFE044649F0200ABAF1660F306B6C
:103D900006BF019D0A3506252D18142DC8BF142510
:103DA000302088468DF810000DF11107002D33DD0D
:103DB0002046414600F000FE01460A4607F108038E
:103DC00004200A27B2FBF7F707EB870EA2EB4E029F
:103DD000303203F8012C0A22B7FBF2F202EB820E1A
:103DE000A7EB4E073037401E03F8027DE9D1083DAE
:103DF000002D03F10807D9DD084600F0F1FD024669
:103E00000B462046414600F0F9FD00222F4BFEF7FD
:103E10000DFD04468846CBE70DF111003F1A0DF168
:103E2000110404E00198401E7F1E0190641C20785C
:103E30003028F7D0BAF1660F02D10198401C04E097
:103E4000BAF1650F0CBF01200020336BC3189F42ED
:103E5000B8BF7B1E002B1ED4BB4204DAE05C3528C1
:103E6000A8BF392000DA30201946621E02EB010893
:103E700000E05B1E18F80179491E8742F9D0392805
:103E800002D1605C401C6054002904D50198401C9C
:103E900014465B1C0190019800B200901BB22246B0
:103EA0004946304600F014F80EB0BDE8F087000037
:103EB000CBCCCC0C0000244002FCFFFF0000E03F14
:103EC000FFFF0F80A08601000000F03F84D79741DC
:103ED0002DE9F84783B005468A469146984600F09A
:103EE000FFFDB8F1000F406A2F6B067803DC4FF03E
:103EF00001080FF2BC294AF02000BDF930406628C5
:103F000008BF641C13D0672840F08F8014F1040FA1
:103F10007ADBBC4278DA95F83800641C010702D4D9
:103F2000B845B8BF474620B23F1A48BF00270FFA2E
:103F300084FAE868A969BAF1000F23DC4A1C30232F
:103F40004354002F03DC95F83800010702D5E868D8
:103F50008654521C17EB0A0FB8BF7C4224B2E719F3
:103F600060424745B8BFB846AA6168620FFA88F454
:103F7000EC61E868AB6922464946184400F090FCC1
:103F80003F1B18E022B29045084416DA42464946E3
:103F900000F086FCA8694044A861AAEB0801002F44
:103FA000696203DC95F838100A0704D5E9680E54F5
:103FB000E869401CE861AF6299E0494600F070FC96
:103FC000A869002F5044A8EB040803DC95F83810CA
:103FD0000A0702D5E9680E54401CA8610FFA88F060
:103FE0008742EB68A869B8BFB8460FFA88F209EBB8
:103FF0000A01184400F054FCA9690FFA88F0014442
:10400000A961381A686272E0B84504DA95F8381088
:104010000A0758BF47467F1E48BF0027BAF1670FFF
:104020000CBF4FF0650A4FF0450AA969EB68481CC0
:10403000A861002F19F8012B5A5403DC95F83810A9
:104040000A0719D5E968431CAB610E54002F13DD34
:10405000A8F1010630B28742D5F80CC0B8BF3E4681
:1040600032B249460CEB030000F01AFCA86936B2E4
:104070003018BF1BA8616F62E868A9690844002C6A
:1040800080F800A003D42B224270811C03E02D2174
:1040900041706442811C00206A460AE023460A24DB
:1040A00093FBF4F404EB8406A3EB460302F8013B14
:1040B000401C24B2002CF1DC012806DC4AF020026E
:1040C000652A04BF302201F8012B48B9302001F8DD
:1040D000010B07E0401E1DF80030303301F8013BB2
:1040E0000028F7DCEA68A8691044091AE96195F824
:1040F000380000F0140010280DD16A69A969686AB7
:104100008A18E9698218A86A8A188218686B82423C
:10411000BCBF821A2A6204B0BDE8F087F8B5054634
:104120000E4617461C46002074B117F8011BB068F4
:10413000A847B06030B1F06A401CF0620020641EF5
:10414000F3D1F2BD4FF0FF30F2BD0000686A6C742D
:104150007A4C00007072696E74665F733A20256E47
:1041600020646973616C6C6F776564007072696E4E
:1041700074663A2062616420256E20617267756DF5
:10418000656E74007072696E74665F733A20626166
:104190006420257320617267756D656E7400000080
:1041A0006E616E004E414E00696E6600494E4600DB
:1041B0003000000010B50400200040B2042808DAE6
:1041C000012201211A4823005BB2C05CFEF712F9FC
:1041D0000FE0042004002000441E40B2002808D054
:1041E00001220121124823005BB2C05CFEF702F9F4
:1041F000F1E710BD10B50400200040B2042806DA33
:104200000B48210049B2405CFEF74FF90DE0042055
:1042100004002000441E40B2002806D004482100BB
:1042200049B2405CFEF741F9F3E710BD0000000021
:10423000C00BFF1F0EB4C0B5024603A800210190B9
:10424000009101AB0121044878440C30FFF7A6F936
:1042500006BC5DF810FB00BF2B37000010B5040052
:10426000002C13D0B4F1807F03D329210E48FFF72F
:10427000AFF80E48002101600D490C6000210D4A85
:104280001160052101600168C903FCD510BD10B59E
:1042900004002000441E002804D007480068FFF7EF
:1042A000DDFFF6E710BD0000D875000010E000E06B
:1042B00014E000E018E000E0E00FFF1F2DE9F843F4
:1042C00004000D00200040B2002808D0022828D0A9
:1042D00016D3042847D035D3052855D065E0DFF83C
:1042E000EC01016851F4806101604FF440713020AD
:1042F000FFF702F94FF440713120FFF7FDF854E069
:10430000DFF8C801016851F4006101604FF44071A9
:104310004320FFF7F1F84FF440714420FFF7ECF829
:1043200043E0DFF8A801016851F4805101604FF4C7
:1043300040716320FFF7E0F84FF440716220FFF70F
:10434000DBF832E0DFF88401016851F400510160CC
:104350004FF440712B20FFF7CFF84FF440712A2023
:10436000FFF7CAF821E0DFF86801016851F48061C5
:1043700001604FF440719920FFF7BEF84FF440718F
:104380009820FFF7B9F810E0DFF84401016851F414
:10439000006101604FF440718920FFF7ADF84FF4E0
:1043A00040718820FFF7A8F8FFE7DFF828612000B8
:1043B00040B256F82000C07810F0F300210049B256
:1043C00056F82110C870200040B256F820008078BE
:1043D000210049B256F821108870200040B2002810
:1043E00003D0200040B2012805D13B4807684FF4B4
:1043F0007A70474304E0394807684FF47A704743BE
:104400002801B7FBF0F8404680B2B0F5005F02DB50
:1044100041F6FF708046B7FBF5F9404680B2B9EB34
:104420000019484680B2202804DB40F203112C48D2
:10443000FEF7CEFF200040B256F82000007810F0C2
:10444000E000C8F304210143220052B256F82220B2
:104450001170210049B256F8211081F80180210025
:1044600049B256F82110897A11F0E00119F01F02C3
:104470000A4323005BB256F823309A72220052B2EC
:1044800056F82220127C52F0880223005BB256F8C4
:1044900023301A74220052B256F82220D27852F0F9
:1044A0000C0223005BB256F82330DA70BDE8F183CA
:1044B000084A03005BB252F823301B791B06F7D57C
:1044C00003005BB252F82320D1717047348004405E
:1044D00028800440A00BFF1FE00FFF1FE80FFF1F05
:1044E000EC77000038B50400200040B208280EDA4E
:1044F000244D00220021200040B2285CFDF77AFF05
:104500000321200040B2285CFFF71AF815E00820CC
:1045100004002000441E40B200280ED0194D002295
:104520000021200040B2285CFDF764FF0321200039
:1045300040B2285CFFF704F8EBE731BD10B504008A
:104540001048210049B2405CFDF7CCFF002801D1A2
:10455000002000E0012010BD10B50400200040B292
:10456000FFF7ECFF00280AD10A20FFF790FE200099
:1045700040B2FFF7E3FF002801D1002000E0012056
:1045800010BD0000B80BFF1FC9B202788A421AB1F1
:104590001CBF10F8012FF9E718BF0020704700007A
:1045A00080B500B906A005490B681BB12222002185
:1045B000984701E000F098FA222002BDEC0FFF1F9F
:1045C000636F6E73747261696E742068616E646C7F
:1045D00065723A20626164206D657373616765007E
:1045E00000F10103810704D010F8011B820781B19B
:1045F000FAD10268A2F10131914311F0803104BF78
:1046000050F8042FF6E709BAB1FA81F100EBD100B6
:10461000401CC01A70470000C9B2830706D0521E62
:1046200022D310F8013B9942F7D11FE0083A13D387
:1046300002F1040241EA012141EA014150F8043B40
:10464000121F21BF4B40A3F1013C2CEA030C1CF0CC
:10465000803FF3D0C9B2001F083210F8013B521E50
:1046600028BF91EA030FF8D818BF0120401E7047F9
:10467000BBBBE1B1B2F5803F80F07E80022A1ED93B
:104680008C46B1FBF2F102FB11C31B0443EA104359
:10469000B3FBF2FC02FB1C3380B240EA0343B3FBE2
:1046A000F2F002FB103240EA0C4000237047022A6D
:1046B00005D98446B0FBF2F002FB10C270474AB144
:1046C00005D100F0010249085FEA3000704700227E
:1046D0000023704700F00CBA0B00020000210020FC
:1046E0007047904271EB030CF6D3B3F5803F2FD2A5
:1046F000F0B5B3FA83F7B1FA81F4A7F10F0E3D1BC1
:104700005340CEF1200602FA0EF2F3415340B5F1C8
:104710000F0746D80F3C2C444140C4F12006A0406E
:10472000F1414140B1FBF3F603FB1611A2FB064534
:10473000001BA94102D2761E8018594180EA01026D
:1047400021FA0EF362FA0EF200215A403046F0BD13
:1047500030B4B1FBF3FC03FB1C11A2FB0C45001BA6
:10476000A94103D2ACF1010C8018594130BC02467A
:104770000B46604600217047B2F1807F65D3F0B5EB
:10478000B2FA82F7B1FA81F4C7F10F063D1B22FAA3
:1047900006F307F1110EF24120355A40B5F10F072B
:1047A000B8D94140C4F12006A040F1414140B1FBDD
:1047B000F3FC03FB1C11A2FB0C45001BA94103D217
:1047C000BCF1010C801859410F2F12D30F3FC903C0
:1047D00041EA5041B1FBF3F603FB1611A2FB06457B
:1047E000D4EBC030A94102D2761E8018594146EA66
:1047F000CC3C07B34140C7F12006B840F1414140ED
:10480000B1FBF3F603FB1611A2FB0645001BA94101
:1048100002D2761E8018594180EA010221FA0EF375
:10482000C7F1200462FA0EF20CFA07F05A402CFA93
:1048300004F13043F0BD80EA010221FA0EF30021B9
:1048400062FA0EF260465A40F0BD8C46B1FBF2F1BE
:1048500002FB11C31B0243EA1063B3FBF2FC02FB31
:104860001C331B024CEA002043EA1063B3FBF2FC4A
:1048700002FB1C331B024CEA002043EA1063B3FB2B
:10488000F2FC02FB1C331B024CEA002043EA1063DB
:10489000B3FBF2FC02FB1C324CEA00200023704701
:1048A00062B38B0708D0521E11F8013B00F8013BA0
:1048B00000F024808B07F6D1830740F0208000BFF2
:1048C000103A07D330B4B1E83810103AA0E83810E5
:1048D000F9D230BC530724BFB1E80810A0E8081093
:1048E00044BF51F8043B40F8043BD20724BF31F8E1
:1048F000022B20F8022B44BF0B7803707047121F65
:1049000017D35B0009D151F8043B20F8023B1B0C84
:10491000121F20F8023BF6D20BE051F8043B00F8DE
:10492000013B1B0A20F8023B1B0C121F00F8013B45
:10493000F3D238BF121D521E24BF11F8013B00F8FC
:10494000013BF8D87047000010B5144600F002F89B
:10495000226010BDC1F30A5343B14A0012F5001F93
:1049600028D2A3F2FE32A1EB0251704750EA410C6B
:1049700020D001F0004C31EA0C01B1FA81F204BF01
:10498000B0FA80F3D2180B3AB2F120032CBF00FA30
:1049900003F1914041EA0C013EBFC2F1200C20FA24
:1049A0000CF319439040524240F2FD33D21A01EB0E
:1049B0000351704700227047400D491840EA81209A
:1049C0000CD2490DA1F58061491C40F0004005DB87
:1049D000D1F11F0154BFC840C01770470020704775
:1049E000014648B1B0FA80F18840C91CC1F5846124
:1049F000090501EBD02140057047000070B44FF06D
:104A0000004591EA030F40F175806B40841A71EB09
:104A1000030603D2001BB141121973414FF4001C6D
:104A20001CEB410F34BF7CEB430442E00C0DA4EBC4
:104A30001356352E4FDC45EAC323DB0A45EAC12174
:104A4000C912B6F120050DDD63FA05F6EB4086EAE2
:104A50000305124218BF45F00105C01851F10001CD
:104A60000CD213E062FA06F5F2405540F3415A4089
:104A7000B340F3405A408018594107D349085FEAD0
:104A800030005FEA350528BF45F0010501F58011CA
:104A9000420875F1004250F1000041EB04514E0014
:104AA00016F5001F70BC38BF70470020090D0905BE
:104AB00070471CEB410F10D252EA43060BD0BCEBFF
:104AC000410F05D80C0DAB43661E342EB6DD02E057
:104AD000AB438018594170BC704770BC70470000F0
:104AE00000487047C40BFF1F012000F0B9B8000058
:104AF00070470000841A71EB030604D26E40001B5D
:104B0000B141121973414FF4001C1CEB410F34BF2B
:104B10007CEB430683E00C0DA4EB1356362E00F31A
:104B20007C80012E45EAC32341DC43EA525312BF85
:104B3000D20292025B08240545EAC12141EA5051A4
:104B4000D2EBC020994125D407D1B0FA80F610FAF3
:104B500006F162D00020203608E0B1FA81F6B140BB
:104B6000C6F1200220FA02F21143B0404FEAF47479
:104B7000B4EB465434F001064FEA74040AD8D6F573
:104B80000016760D04F00044F04061FA06F2504041
:104B9000F1404840C00A40EA415021F0004128BF9E
:104BA0005FEA500550F1000044EBD12135E0DB0A0B
:104BB00045EAC121C90AB6F120050EDD42EA0242EA
:104BC000120CC5F1200603FA06F6EB4042EA060590
:104BD0006D42984161F100010DE062FA06F5F24084
:104BE000554063FA06FC82EA0C02F3405A406D42DB
:104BF000904161EB030111F4801F05D1641E620531
:104C000002D06D004041494121F48011430875F103
:104C1000004350F1000041EB045170BC70471CEBA5
:104C2000410F15D223F0004352EA43060BD04FEA5E
:104C30004C0CBCEB410F04D80C0D661E342EB7DDB6
:104C4000EBE7801A994150EA410608BF0021E4E7EA
:104C500008BF1CEB430F28BF6FF00001DDE7000029
:104C60002021090326311820ABBEF9E710B5DFF883
:104C7000504C2068800880002060FBF7ACFEFCF7F9
:104C80002DFFFBF77BFF206850F0010020602068BB
:104C900050F00300206010BD10B5DFF8284C2068EC
:104CA000800880002060DFF8200C0178491C01702A
:104CB000017832290DD10021017000F013F800F0C5
:104CC00049F80020DFF8041C08600020DFF8001C11
:104CD0000860206850F001002060206850F0030058
:104CE000206010BD10B4DFF8E40BDFF8E81B0A68A1
:104CF0000260DFF8DC2BDFF8E03B1C68146004681E
:104D000010680419022094FBF0F0DFF8D02B10603B
:104D1000002008600020186010BC7047F8B504003F
:104D20002F00DFF8BC0B00682100FEF7D1FA060067
:104D300030003900FDF704FDDFF8A81B0968FEF715
:104D4000C7FA3100FDF70CFCFDF7F0FBDFF8981B0C
:104D50000880F1BD38B5DFF8940B0168012940F0F7
:104D60006981DFF88C0B01780B291AD14FF482711D
:104D7000DFF8802B11805FF07E51DFF87C2B116013
:104D8000DFF8782BDFF8783B1A600022DFF8743BFD
:104D90001A60DFF84C2B11600021DFF8482B1160FE
:104DA00045E101780A291AD14FF48271DFF8442BCA
:104DB00011805FF07E51DFF8402B1160DFF83C2B53
:104DC000DFF83C3B1A600022DFF8383B1A60DFF85E
:104DD000102B11600021DFF80C2B116027E1017806
:104DE00009291AD14FF48271DFF8082B11805FF086
:104DF0007E51DFF8042B1160DFF8002BDFF8003B59
:104E00001A600022DFF8FC3A1A60DFF8D42A116039
:104E10000021DFF8D02A116009E1017808291AD1B0
:104E20004FF48271DFF8CC2A11805FF07E51DFF8F9
:104E3000C82A1160DFF8C42ADFF8C43A1A600022D9
:104E4000DFF8C03A1A60DFF8982A11600021DFF815
:104E5000942A1160EBE0017807291AD14FF482718E
:104E6000DFF8902A11805FF07E51DFF88C2A116004
:104E7000DFF8882ADFF8883A1A600022DFF8843ADF
:104E80001A60DFF85C2A11600021DFF8582A1160EF
:104E9000CDE0017806291AD14FF48271DFF8542A47
:104EA00011805FF07E51DFF8502A1160DFF84C2A44
:104EB000DFF84C3A1A600022DFF8483A1A60DFF84F
:104EC000202A11600021DFF81C2A1160AFE0017870
:104ED00005291AD14FF48271DFF8182A11805FF08A
:104EE0007E51DFF8142A1160DFF8102ADFF8103A3B
:104EF0001A600022DFF80C3A1A60DFF8E42911602A
:104F00000021DFF8E029116091E0017804291AD12D
:104F10004FF48271DFF8DC2911805FF07E51DFF8F9
:104F2000D8291160DFF8D429DFF8D4391A600022BB
:104F3000DFF8D0391A60DFF8A82911600021DFF806
:104F4000A429116073E0017803291AD14FF482710A
:104F5000DFF8A02911805FF07E51DFF89C291160F5
:104F6000DFF89829DFF898391A600022DFF89439C1
:104F70001A60DFF86C2911600021DFF868291160E0
:104F800055E0017802291AD14FF48271DFF86429C3
:104F900011805FF07E51DFF860291160DFF85C2935
:104FA000DFF85C391A600022DFF858391A60DFF840
:104FB000302911600021DFF82C29116037E00178D9
:104FC00001291AD14FF48271DFF8282911805FF08E
:104FD0007E51DFF824291160DFF82029DFF820391D
:104FE0001A600022DFF81C391A60DFF8F42811601B
:104FF0000021DFF8F028116019E04FF48271DFF82A
:10500000F42811805FF07E51DFF8EC281160DFF8A2
:10501000EC28DFF8EC381A600022DFF8E8381A6074
:10502000DFF8BC2811600021DFF8B82811600021EA
:105030000170F1E30168022940F06981DFF8B008EE
:1050400001780B291AD14FF48771DFF8A828118055
:105050005FF07E51DFF8A0281160DFF8A028DFF8AC
:10506000A0381A600022DFF89C381A60DFF8702838
:1050700011600021DFF86C28116045E101780A29F0
:105080001AD14FF48771DFF86C2811805FF07E51E0
:10509000DFF864281160DFF86428DFF864381A60EC
:1050A0000022DFF860381A60DFF834281160002130
:1050B000DFF83028116027E1017809291AD14FF46F
:1050C0008771DFF8302811805FF07E51DFF82828E3
:1050D0001160DFF82828DFF828381A600022DFF88E
:1050E00024381A60DFF8F82711600021DFF8F42770
:1050F000116009E1017808291AD14FF48771DFF8AE
:10510000F42711805FF07E51DFF8EC271160DFF8A3
:10511000EC27DFF8EC371A600022DFF8E8371A6076
:10512000DFF8BC2711600021DFF8B8271160EBE041
:10513000017807291AD14FF48771DFF8B827118059
:105140005FF07E51DFF8B0271160DFF8B027DFF89D
:10515000B0371A600022DFF8AC371A60DFF880271A
:1051600011600021DFF87C271160CDE0017806296D
:105170001AD14FF48771DFF87C2711805FF07E51E0
:10518000DFF874271160DFF87427DFF874371A60CE
:105190000022DFF870371A60DFF844271160002121
:1051A000DFF840271160AFE0017805291AD14FF4EC
:1051B0008771DFF8402711805FF07E51DFF83827D4
:1051C0001160DFF83827DFF838371A600022DFF87F
:1051D00034371A60DFF8082711600021DFF8042750
:1051E000116091E0017804291AD14FF48771DFF83A
:1051F000042711805FF07E51DFF8FC261160DFF894
:10520000FC26DFF8FC361A600022DFF8F8361A6058
:10521000DFF8CC2611600021DFF8C826116073E0AA
:10522000017803291AD14FF48771DFF8C82611805D
:105230005FF07E51DFF8C0261160DFF8C026DFF88E
:10524000C0361A600022DFF8BC361A60DFF89026FC
:1052500011600021DFF88C26116055E001780229E9
:105260001AD14FF48771DFF88C2611805FF07E51E0
:10527000DFF884261160DFF88426DFF884361A60B0
:105280000022DFF880361A60DFF854261160002112
:10529000DFF85026116037E0017801291AD14FF468
:1052A0008771DFF8502611805FF07E51DFF84826C5
:1052B0001160DFF84826DFF848361A600022DFF870
:1052C00044361A60DFF8182611600021DFF8142632
:1052D000116019E04FF48771DFF8182611805FF034
:1052E0007E51DFF814261160DFF81026DFF8103643
:1052F0001A600022DFF80C361A60DFF8E42511602E
:105300000021DFF8E02511600021017084E20068CF
:10531000032840F06881DFF8D80501780B291AD1FD
:105320004FF48771DFF8CC2511805FF07E51DFF8F4
:10533000C8251160DFF8C425DFF8C4351A600022E3
:10534000DFF8C0351A60DFF8982511600021DFF81A
:105350009425116044E101780A291AD14FF487712C
:10536000DFF8902511805FF07E51DFF88C25116009
:10537000DFF88825DFF888351A600022DFF88435E9
:105380001A60DFF85C2511600021DFF858251160F4
:1053900026E1017809291AD14FF48771DFF85425E5
:1053A00011805FF07E51DFF850251160DFF84C2549
:1053B000DFF84C351A600022DFF848351A60DFF854
:1053C000202511600021DFF81C25116008E101781B
:1053D00008291AD14FF48771DFF8182511805FF082
:1053E0007E51DFF814251160DFF81025DFF8103545
:1053F0001A600022DFF80C351A60DFF8E42411602F
:105400000021DFF8E0241160EAE0017807291AD1D1
:105410004FF48771DFF8DC2411805FF07E51DFF8F4
:10542000D8241160DFF8D424DFF8D4341A600022C5
:10543000DFF8D0341A60DFF8A82411600021DFF80B
:10544000A4241160CCE0017806291AD14FF48771A9
:10545000DFF8A02411805FF07E51DFF89C241160FA
:10546000DFF89824DFF898341A600022DFF89434CB
:105470001A60DFF86C2411600021DFF868241160E5
:10548000AEE0017805291AD14FF48C71DFF864245D
:1054900011805FF07E51DFF860241160DFF85C243A
:1054A000DFF85C341A600022DFF858341A60DFF845
:1054B000302411600021DFF82C24116090E0017885
:1054C00004291AD14FF48C71DFF8282411805FF081
:1054D0007E51DFF824241160DFF82024DFF8203427
:1054E0001A600022DFF81C341A60DFF8F423116020
:1054F0000021DFF8F023116072E0017803291AD14E
:105500004FF48C71DFF8EC2311805FF07E51DFF8EF
:10551000E8231160DFF8E423DFF8E4331A600022A7
:10552000DFF8E0331A60DFF8B82311600021DFF8FC
:10553000B423116054E0017802291AD14FF48C7120
:10554000DFF8B02311805FF07E51DFF8AC231160EB
:10555000DFF8A823DFF8A8331A600022DFF8A433AD
:105560001A60DFF87C2311600021DFF878231160D6
:1055700036E0017801291AD14FF48C71DFF87423D9
:1055800011805FF07E51DFF870231160DFF86C232B
:10559000DFF86C331A600022DFF868331A60DFF836
:1055A000402311600021DFF83C23116018E0FA214C
:1055B000DFF8402311805FF07E51DFF83C2311605B
:1055C000DFF83823DFF838331A600022DFF834338D
:1055D0001A60DFF80C2311600021DFF80823116046
:1055E0000021017018E1DFF8080301780B2918D1B8
:1055F000FA21DFF8002311800021DFF8FC2211607E
:10560000DFF80413DFF8F82211600021DFF8F4223C
:1056100011605FF07E51B24A11600021B14A116001
:10562000F8E001780A2913D1FA21B24A1180002149
:10563000B14A1160B549B24A11600021B14A116006
:105640005FF07E51A64A11600021A64A1160E1E098
:105650000178092913D1FA21A64A11800021A64A0E
:105660001160AA49A64A11600021A64A11605FF0A4
:105670007E519B4A116000219A4A1160CAE001786C
:10568000082913D1FA219B4A118000219A4A1160FE
:105690009E499B4A116000219A4A11605FF07E5139
:1056A0008F4A116000218F4A1160B3E00178072909
:1056B00013D1FA218F4A118000218F4A116093493A
:1056C0008F4A116000218F4A11605FF07E51844A39
:1056D00011600021834A11609CE00178062913D1F2
:1056E000FA21844A11800021834A11608749844A43
:1056F00011600021834A11605FF07E51784A116089
:105700000021784A116085E00178052913D1FA213A
:10571000784A11800021784A11607C49784A1160EA
:105720000021784A11605FF07E516D4A11600021BE
:105730006C4A11606EE00178042913D1FA216D4A98
:10574000118000216C4A116070496D4A116000217E
:105750006C4A11605FF07E51614A11600021614A1C
:10576000116057E00178032913D1FA21614A1180B1
:105770000021614A11606549614A11600021614A56
:1057800011605FF07E51564A11600021554A116048
:1057900040E00178022913D1FA21564A11800021F4
:1057A000554A11605949564A11600021554A116005
:1057B0005FF07E514A4A116000214A4A116029E097
:1057C0000178012913D1FA214A4A118000214A4A5D
:1057D00011604E494A4A116000214A4A11605FF047
:1057E0007E513F4A116000213E4A116012E0FA21C9
:1057F000404A11800021404A11604549404A1160E9
:105800000021404A11605FF07E51354A116000214D
:10581000344A1160002101703E480068FFF77EFAAB
:105820003D4A3149334B1C880888241A14803B4C6C
:105830001B880888C31823803948007800280BD1BA
:10584000002000F08FF8002000F0BFF800220121B6
:105850003420FCF7CFFD31E0324D2868012819D102
:105860001A48016809B2B2F9000000F0E5F800B288
:1058700000F078F81648016809B2B4F9000000F0A9
:10588000DBF800B200F0A1F80020274908600020F2
:10589000286013E00D48016809B2B2F9000000F079
:1058A000CBF800B200F05EF80948016809B2B4F91B
:1058B000000000F0C1F800B200F087F831BD000030
:1058C0000C7103401C7103405C10FF1F140EFF1F7E
:1058D000180EFF1F340EFF1F300EFF1F100EFF1F8C
:1058E000040EFF1F080EFF1F4010FF1FD00FFF1FE9
:1058F0005F10FF1F4210FF1F1C0EFF1FCDCC4C3E40
:10590000200EFF1F240EFF1FCDCCCC3E9A99193FCD
:105910009A99993EC40FFF1F4410FF1F4610FF1FA6
:105920005E10FF1F0C0EFF1F1410FE4310B543F254
:10593000C8240023220000210020FDF789FA00235B
:10594000220001210020FDF783FA0023220002211A
:105950000020FDF77DFA0023220003210020FDF73F
:1059600077FA10BD10B5040041F29410210009B27D
:10597000814201DB040006E0200000B22C4988428D
:1059800001DA2C480400200000B200280BD42200C9
:1059900012B200210020FDF71CFB00220121002093
:1059A000FDF717FB10E0200000B200280CD524B250
:1059B0006442002200210020FDF70BFB220012B2FE
:1059C00001210020FDF705FB10BD10B5040041F2D8
:1059D0009410210009B2814201DB040006E020009E
:1059E00000B21349884201DA12480400200000B2D4
:1059F00000280BD4220012B202210020FDF7E9FAA0
:105A0000002203210020FDF7E4FA10E0200000B29C
:105A100000280CD524B26442002202210020FDF7A8
:105A2000D8FA220012B203210020FDF7D2FA10BDED
:105A30006DEEFFFF6CEEFFFF2DE9FE4F05000E003F
:105A4000280000B237003FB2C71B3800FCF7C0FC8B
:105A500020490968FDF73CFCFCF768FD8046B94623
:105A6000CDF80490B7EB490A019810EB0A0ADFF869
:105A700068B0BBF800000090B7EB0900FCF7A8FC89
:105A800016490968FDF724FC04004046FCF7A0FC19
:105A90002100FCF765FD04005046FCF799FC104915
:105AA0000968FDF715FC2100FCF75AFDFCF73EFDE7
:105AB00000994018ABF80000B8F10B0F01DB0A2089
:105AC00080467FF00900804500DA8046BBF900007F
:105AD000BDE8FE8F200EFF1F4810FF1F1C0EFF1F8A
:105AE000240EFF1F00B0034000B00B400000000078
:105AF00000000000000000000000000000000000A6
:105B0000000000000000000000004E6F6E4D617349
:105B10006B61626C650000000048617264466175EB
:105B20006C740000000000004D656D4D616E616792
:105B3000656D656E7400004275734661756C740026
:105B400000000000000055736167654661756C7464
:105B50000000000000000000000000000000000045
:105B60000000000000000000000000000000000035
:105B70000000000000000000000000000000000025
:105B80000000000000000000000000000000000015
:105B900000535643616C6C000000000000000000E0
:105BA00044656275674D6F6E69746F720000000026
:105BB0000000000000000000000000000000506530
:105BC0006E6453560000000000000000005379731B
:105BD0005469636B0000000000000000444D413038
:105BE0000000000000000000000000444D413100B2
:105BF00000000000000000000000444D41320000A1
:105C0000000000000000000000444D41330000008F
:105C10000000000000000000444D4134000000007E
:105C200000000000000000444D413500000000006D
:105C3000000000000000444D41360000000000005C
:105C40000000000000444D4137000000000000004B
:105C500000000000444D413800000000000000003A
:105C6000000000444D413900000000000000000029
:105C70000000444D413130000000000000000000F1
:105C800000444D41313100000000000000000000E0
:105C9000444D41313200000000000000000000448B
:105CA0004D41313300000000000000000000444D71
:105CB00041313400000000000000000000444D416C
:105CC000313500000000000000000000444D415F3D
:105CD0004572726F720000000000004D434D0000DD
:105CE000000000000000000000004654464C000088
:105CF000000000000000000000526561645F436F17
:105D00006C6C6973696F6E004C56445F4C5657005B
:105D1000000000000000004C4C5700000000000094
:105D20000000000000005761746368646F67000042
:105D30000000000000524E4700000000000000007C
:105D40000000000049324330000000000000000065
:105D50000000004932433100000000000000000054
:105D60000000535049300000000000000000000017
:105D70000053504931000000000000000000000006
:105D800053504932000000000000000000000043B2
:105D9000414E305F4F525F4D425F62756600434136
:105DA0004E305F4275735F4F666600000043414EA0
:105DB000305F4572726F72000000000043414E3048
:105DC0005F54785F5761726E696E6743414E305F12
:105DD00052785F5761726E696E6743414E305F570C
:105DE000616B655F55700000005265736572766582
:105DF0006435310000000000526573657276656499
:105E00003532000000000043414E315F4F525F4D7C
:105E1000425F6275660043414E315F4275735F4F6A
:105E2000666600000043414E315F4572726F72003A
:105E30000000000043414E315F54785F5761726E3D
:105E4000696E6743414E315F52785F5761726E6988
:105E50006E6743414E315F57616B655F557000005F
:105E60000052657365727665643539000000000084
:105E70005265736572766564363000000000005527
:105E8000415254305F52585F545800000000554151
